{
	"contracts/HelloWorld3.sol": {
		"GuessNumber": {
			"abi": [
				{
					"inputs": [],
					"stateMutability": "nonpayable",
					"type": "constructor"
				},
				{
					"anonymous": false,
					"inputs": [
						{
							"indexed": false,
							"internalType": "string",
							"name": "message",
							"type": "string"
						}
					],
					"name": "LogMessage",
					"type": "event"
				},
				{
					"inputs": [],
					"name": "getHint",
					"outputs": [
						{
							"internalType": "string",
							"name": "",
							"type": "string"
						}
					],
					"stateMutability": "view",
					"type": "function"
				},
				{
					"inputs": [
						{
							"internalType": "uint256",
							"name": "_number",
							"type": "uint256"
						}
					],
					"name": "guess",
					"outputs": [],
					"stateMutability": "nonpayable",
					"type": "function"
				},
				{
					"inputs": [],
					"name": "isGameFinished",
					"outputs": [
						{
							"internalType": "bool",
							"name": "",
							"type": "bool"
						}
					],
					"stateMutability": "view",
					"type": "function"
				},
				{
					"inputs": [],
					"name": "player",
					"outputs": [
						{
							"internalType": "address",
							"name": "",
							"type": "address"
						}
					],
					"stateMutability": "view",
					"type": "function"
				},
				{
					"inputs": [],
					"name": "randomNumber",
					"outputs": [
						{
							"internalType": "uint256",
							"name": "",
							"type": "uint256"
						}
					],
					"stateMutability": "view",
					"type": "function"
				}
			],
			"devdoc": {
				"kind": "dev",
				"methods": {},
				"version": 1
			},
			"evm": {
				"assembly": "    /* \"contracts/HelloWorld3.sol\":62:1470  contract GuessNumber {... */\n  mstore(0x40, 0x80)\n    /* \"contracts/HelloWorld3.sol\":218:347  constructor() {... */\n  callvalue\n  dup1\n  iszero\n  tag_1\n  jumpi\n  0x00\n  dup1\n  revert\ntag_1:\n  pop\n    /* \"contracts/HelloWorld3.sol\":251:261  msg.sender */\n  caller\n    /* \"contracts/HelloWorld3.sol\":242:248  player */\n  0x00\n  dup1\n    /* \"contracts/HelloWorld3.sol\":242:261  player = msg.sender */\n  0x0100\n  exp\n  dup2\n  sload\n  dup2\n  0xffffffffffffffffffffffffffffffffffffffff\n  mul\n  not\n  and\n  swap1\n  dup4\n  0xffffffffffffffffffffffffffffffffffffffff\n  and\n  mul\n  or\n  swap1\n  sstore\n  pop\n    /* \"contracts/HelloWorld3.sol\":286:308  generateRandomNumber() */\n  tag_4\n    /* \"contracts/HelloWorld3.sol\":286:306  generateRandomNumber */\n  shl(0x20, tag_5)\n    /* \"contracts/HelloWorld3.sol\":286:308  generateRandomNumber() */\n  0x20\n  shr\n  jump\t// in\ntag_4:\n    /* \"contracts/HelloWorld3.sol\":271:283  randomNumber */\n  0x01\n    /* \"contracts/HelloWorld3.sol\":271:308  randomNumber = generateRandomNumber() */\n  dup2\n  swap1\n  sstore\n  pop\n    /* \"contracts/HelloWorld3.sol\":335:340  false */\n  0x00\n    /* \"contracts/HelloWorld3.sol\":318:332  isGameFinished */\n  0x02\n  0x00\n    /* \"contracts/HelloWorld3.sol\":318:340  isGameFinished = false */\n  0x0100\n  exp\n  dup2\n  sload\n  dup2\n  0xff\n  mul\n  not\n  and\n  swap1\n  dup4\n  iszero\n  iszero\n  mul\n  or\n  swap1\n  sstore\n  pop\n    /* \"contracts/HelloWorld3.sol\":62:1470  contract GuessNumber {... */\n  jump(tag_6)\n    /* \"contracts/HelloWorld3.sol\":598:785  function generateRandomNumber() private view returns (uint) {... */\ntag_5:\n    /* \"contracts/HelloWorld3.sol\":652:656  uint */\n  0x00\n    /* \"contracts/HelloWorld3.sol\":775:778  100 */\n  0x64\n    /* \"contracts/HelloWorld3.sol\":707:722  block.timestamp */\n  timestamp\n    /* \"contracts/HelloWorld3.sol\":724:740  block.difficulty */\n  prevrandao\n    /* \"contracts/HelloWorld3.sol\":767:768  1 */\n  0x01\n    /* \"contracts/HelloWorld3.sol\":752:764  block.number */\n  number\n    /* \"contracts/HelloWorld3.sol\":752:768  block.number - 1 */\n  tag_8\n  swap2\n  swap1\n  tag_9\n  jump\t// in\ntag_8:\n    /* \"contracts/HelloWorld3.sol\":742:769  blockhash(block.number - 1) */\n  blockhash\n    /* \"contracts/HelloWorld3.sol\":690:770  abi.encodePacked(block.timestamp, block.difficulty, blockhash(block.number - 1)) */\n  add(0x20, mload(0x40))\n  tag_10\n  swap4\n  swap3\n  swap2\n  swap1\n  tag_11\n  jump\t// in\ntag_10:\n  mload(0x40)\n  0x20\n  dup2\n  dup4\n  sub\n  sub\n  dup2\n  mstore\n  swap1\n  0x40\n  mstore\n    /* \"contracts/HelloWorld3.sol\":680:771  keccak256(abi.encodePacked(block.timestamp, block.difficulty, blockhash(block.number - 1))) */\n  dup1\n  mload\n  swap1\n  0x20\n  add\n  keccak256\n    /* \"contracts/HelloWorld3.sol\":675:772  uint(keccak256(abi.encodePacked(block.timestamp, block.difficulty, blockhash(block.number - 1)))) */\n  0x00\n  shr\n    /* \"contracts/HelloWorld3.sol\":675:778  uint(keccak256(abi.encodePacked(block.timestamp, block.difficulty, blockhash(block.number - 1)))) % 100 */\n  tag_12\n  swap2\n  swap1\n  tag_13\n  jump\t// in\ntag_12:\n    /* \"contracts/HelloWorld3.sol\":668:778  return uint(keccak256(abi.encodePacked(block.timestamp, block.difficulty, blockhash(block.number - 1)))) % 100 */\n  swap1\n  pop\n    /* \"contracts/HelloWorld3.sol\":598:785  function generateRandomNumber() private view returns (uint) {... */\n  swap1\n  jump\t// out\n    /* \"#utility.yul\":7:84   */\ntag_14:\n    /* \"#utility.yul\":44:51   */\n  0x00\n    /* \"#utility.yul\":73:78   */\n  dup2\n    /* \"#utility.yul\":62:78   */\n  swap1\n  pop\n    /* \"#utility.yul\":7:84   */\n  swap2\n  swap1\n  pop\n  jump\t// out\n    /* \"#utility.yul\":90:270   */\ntag_15:\n    /* \"#utility.yul\":138:215   */\n  0x4e487b7100000000000000000000000000000000000000000000000000000000\n    /* \"#utility.yul\":135:136   */\n  0x00\n    /* \"#utility.yul\":128:216   */\n  mstore\n    /* \"#utility.yul\":235:239   */\n  0x11\n    /* \"#utility.yul\":232:233   */\n  0x04\n    /* \"#utility.yul\":225:240   */\n  mstore\n    /* \"#utility.yul\":259:263   */\n  0x24\n    /* \"#utility.yul\":256:257   */\n  0x00\n    /* \"#utility.yul\":249:264   */\n  revert\n    /* \"#utility.yul\":276:470   */\ntag_9:\n    /* \"#utility.yul\":316:320   */\n  0x00\n    /* \"#utility.yul\":336:356   */\n  tag_26\n    /* \"#utility.yul\":354:355   */\n  dup3\n    /* \"#utility.yul\":336:356   */\n  tag_14\n  jump\t// in\ntag_26:\n    /* \"#utility.yul\":331:356   */\n  swap2\n  pop\n    /* \"#utility.yul\":370:390   */\n  tag_27\n    /* \"#utility.yul\":388:389   */\n  dup4\n    /* \"#utility.yul\":370:390   */\n  tag_14\n  jump\t// in\ntag_27:\n    /* \"#utility.yul\":365:390   */\n  swap3\n  pop\n    /* \"#utility.yul\":414:415   */\n  dup3\n    /* \"#utility.yul\":411:412   */\n  dup3\n    /* \"#utility.yul\":407:416   */\n  sub\n    /* \"#utility.yul\":399:416   */\n  swap1\n  pop\n    /* \"#utility.yul\":438:439   */\n  dup2\n    /* \"#utility.yul\":432:436   */\n  dup2\n    /* \"#utility.yul\":429:440   */\n  gt\n    /* \"#utility.yul\":426:463   */\n  iszero\n  tag_28\n  jumpi\n    /* \"#utility.yul\":443:461   */\n  tag_29\n  tag_15\n  jump\t// in\ntag_29:\n    /* \"#utility.yul\":426:463   */\ntag_28:\n    /* \"#utility.yul\":276:470   */\n  swap3\n  swap2\n  pop\n  pop\n  jump\t// out\n    /* \"#utility.yul\":476:555   */\ntag_16:\n    /* \"#utility.yul\":515:522   */\n  0x00\n    /* \"#utility.yul\":544:549   */\n  dup2\n    /* \"#utility.yul\":533:549   */\n  swap1\n  pop\n    /* \"#utility.yul\":476:555   */\n  swap2\n  swap1\n  pop\n  jump\t// out\n    /* \"#utility.yul\":561:718   */\ntag_17:\n    /* \"#utility.yul\":666:711   */\n  tag_32\n    /* \"#utility.yul\":686:710   */\n  tag_33\n    /* \"#utility.yul\":704:709   */\n  dup3\n    /* \"#utility.yul\":686:710   */\n  tag_14\n  jump\t// in\ntag_33:\n    /* \"#utility.yul\":666:711   */\n  tag_16\n  jump\t// in\ntag_32:\n    /* \"#utility.yul\":661:664   */\n  dup3\n    /* \"#utility.yul\":654:712   */\n  mstore\n    /* \"#utility.yul\":561:718   */\n  pop\n  pop\n  jump\t// out\n    /* \"#utility.yul\":724:801   */\ntag_18:\n    /* \"#utility.yul\":761:768   */\n  0x00\n    /* \"#utility.yul\":790:795   */\n  dup2\n    /* \"#utility.yul\":779:795   */\n  swap1\n  pop\n    /* \"#utility.yul\":724:801   */\n  swap2\n  swap1\n  pop\n  jump\t// out\n    /* \"#utility.yul\":807:886   */\ntag_19:\n    /* \"#utility.yul\":846:853   */\n  0x00\n    /* \"#utility.yul\":875:880   */\n  dup2\n    /* \"#utility.yul\":864:880   */\n  swap1\n  pop\n    /* \"#utility.yul\":807:886   */\n  swap2\n  swap1\n  pop\n  jump\t// out\n    /* \"#utility.yul\":892:1049   */\ntag_20:\n    /* \"#utility.yul\":997:1042   */\n  tag_37\n    /* \"#utility.yul\":1017:1041   */\n  tag_38\n    /* \"#utility.yul\":1035:1040   */\n  dup3\n    /* \"#utility.yul\":1017:1041   */\n  tag_18\n  jump\t// in\ntag_38:\n    /* \"#utility.yul\":997:1042   */\n  tag_19\n  jump\t// in\ntag_37:\n    /* \"#utility.yul\":992:995   */\n  dup3\n    /* \"#utility.yul\":985:1043   */\n  mstore\n    /* \"#utility.yul\":892:1049   */\n  pop\n  pop\n  jump\t// out\n    /* \"#utility.yul\":1055:1593   */\ntag_11:\n    /* \"#utility.yul\":1223:1226   */\n  0x00\n    /* \"#utility.yul\":1238:1313   */\n  tag_40\n    /* \"#utility.yul\":1309:1312   */\n  dup3\n    /* \"#utility.yul\":1300:1306   */\n  dup7\n    /* \"#utility.yul\":1238:1313   */\n  tag_17\n  jump\t// in\ntag_40:\n    /* \"#utility.yul\":1338:1340   */\n  0x20\n    /* \"#utility.yul\":1333:1336   */\n  dup3\n    /* \"#utility.yul\":1329:1341   */\n  add\n    /* \"#utility.yul\":1322:1341   */\n  swap2\n  pop\n    /* \"#utility.yul\":1351:1426   */\n  tag_41\n    /* \"#utility.yul\":1422:1425   */\n  dup3\n    /* \"#utility.yul\":1413:1419   */\n  dup6\n    /* \"#utility.yul\":1351:1426   */\n  tag_17\n  jump\t// in\ntag_41:\n    /* \"#utility.yul\":1451:1453   */\n  0x20\n    /* \"#utility.yul\":1446:1449   */\n  dup3\n    /* \"#utility.yul\":1442:1454   */\n  add\n    /* \"#utility.yul\":1435:1454   */\n  swap2\n  pop\n    /* \"#utility.yul\":1464:1539   */\n  tag_42\n    /* \"#utility.yul\":1535:1538   */\n  dup3\n    /* \"#utility.yul\":1526:1532   */\n  dup5\n    /* \"#utility.yul\":1464:1539   */\n  tag_20\n  jump\t// in\ntag_42:\n    /* \"#utility.yul\":1564:1566   */\n  0x20\n    /* \"#utility.yul\":1559:1562   */\n  dup3\n    /* \"#utility.yul\":1555:1567   */\n  add\n    /* \"#utility.yul\":1548:1567   */\n  swap2\n  pop\n    /* \"#utility.yul\":1584:1587   */\n  dup2\n    /* \"#utility.yul\":1577:1587   */\n  swap1\n  pop\n    /* \"#utility.yul\":1055:1593   */\n  swap5\n  swap4\n  pop\n  pop\n  pop\n  pop\n  jump\t// out\n    /* \"#utility.yul\":1599:1779   */\ntag_21:\n    /* \"#utility.yul\":1647:1724   */\n  0x4e487b7100000000000000000000000000000000000000000000000000000000\n    /* \"#utility.yul\":1644:1645   */\n  0x00\n    /* \"#utility.yul\":1637:1725   */\n  mstore\n    /* \"#utility.yul\":1744:1748   */\n  0x12\n    /* \"#utility.yul\":1741:1742   */\n  0x04\n    /* \"#utility.yul\":1734:1749   */\n  mstore\n    /* \"#utility.yul\":1768:1772   */\n  0x24\n    /* \"#utility.yul\":1765:1766   */\n  0x00\n    /* \"#utility.yul\":1758:1773   */\n  revert\n    /* \"#utility.yul\":1785:1961   */\ntag_13:\n    /* \"#utility.yul\":1817:1818   */\n  0x00\n    /* \"#utility.yul\":1834:1854   */\n  tag_45\n    /* \"#utility.yul\":1852:1853   */\n  dup3\n    /* \"#utility.yul\":1834:1854   */\n  tag_14\n  jump\t// in\ntag_45:\n    /* \"#utility.yul\":1829:1854   */\n  swap2\n  pop\n    /* \"#utility.yul\":1868:1888   */\n  tag_46\n    /* \"#utility.yul\":1886:1887   */\n  dup4\n    /* \"#utility.yul\":1868:1888   */\n  tag_14\n  jump\t// in\ntag_46:\n    /* \"#utility.yul\":1863:1888   */\n  swap3\n  pop\n    /* \"#utility.yul\":1907:1908   */\n  dup3\n    /* \"#utility.yul\":1897:1932   */\n  tag_47\n  jumpi\n    /* \"#utility.yul\":1912:1930   */\n  tag_48\n  tag_21\n  jump\t// in\ntag_48:\n    /* \"#utility.yul\":1897:1932   */\ntag_47:\n    /* \"#utility.yul\":1953:1954   */\n  dup3\n    /* \"#utility.yul\":1950:1951   */\n  dup3\n    /* \"#utility.yul\":1946:1955   */\n  mod\n    /* \"#utility.yul\":1941:1955   */\n  swap1\n  pop\n    /* \"#utility.yul\":1785:1961   */\n  swap3\n  swap2\n  pop\n  pop\n  jump\t// out\n    /* \"contracts/HelloWorld3.sol\":62:1470  contract GuessNumber {... */\ntag_6:\n  dataSize(sub_0)\n  dup1\n  dataOffset(sub_0)\n  0x00\n  codecopy\n  0x00\n  return\nstop\n\nsub_0: assembly {\n        /* \"contracts/HelloWorld3.sol\":62:1470  contract GuessNumber {... */\n      mstore(0x40, 0x80)\n      callvalue\n      dup1\n      iszero\n      tag_1\n      jumpi\n      0x00\n      dup1\n      revert\n    tag_1:\n      pop\n      jumpi(tag_2, lt(calldatasize, 0x04))\n      shr(0xe0, calldataload(0x00))\n      dup1\n      0x41225071\n      eq\n      tag_3\n      jumpi\n      dup1\n      0x48db5f89\n      eq\n      tag_4\n      jumpi\n      dup1\n      0x9189fec1\n      eq\n      tag_5\n      jumpi\n      dup1\n      0xccbac9f5\n      eq\n      tag_6\n      jumpi\n      dup1\n      0xef890cc8\n      eq\n      tag_7\n      jumpi\n    tag_2:\n      0x00\n      dup1\n      revert\n        /* \"contracts/HelloWorld3.sol\":1206:1468  function getHint() public view onlyPlayer gameNotFinished returns (string memory) {... */\n    tag_3:\n      tag_8\n      tag_9\n      jump\t// in\n    tag_8:\n      mload(0x40)\n      tag_10\n      swap2\n      swap1\n      tag_11\n      jump\t// in\n    tag_10:\n      mload(0x40)\n      dup1\n      swap2\n      sub\n      swap1\n      return\n        /* \"contracts/HelloWorld3.sol\":89:110  address public player */\n    tag_4:\n      tag_12\n      tag_13\n      jump\t// in\n    tag_12:\n      mload(0x40)\n      tag_14\n      swap2\n      swap1\n      tag_15\n      jump\t// in\n    tag_14:\n      mload(0x40)\n      dup1\n      swap2\n      sub\n      swap1\n      return\n        /* \"contracts/HelloWorld3.sol\":791:1200  function guess(uint _number) public onlyPlayer gameNotFinished {... */\n    tag_5:\n      tag_16\n      0x04\n      dup1\n      calldatasize\n      sub\n      dup2\n      add\n      swap1\n      tag_17\n      swap2\n      swap1\n      tag_18\n      jump\t// in\n    tag_17:\n      tag_19\n      jump\t// in\n    tag_16:\n      stop\n        /* \"contracts/HelloWorld3.sol\":116:140  uint public randomNumber */\n    tag_6:\n      tag_20\n      tag_21\n      jump\t// in\n    tag_20:\n      mload(0x40)\n      tag_22\n      swap2\n      swap1\n      tag_23\n      jump\t// in\n    tag_22:\n      mload(0x40)\n      dup1\n      swap2\n      sub\n      swap1\n      return\n        /* \"contracts/HelloWorld3.sol\":146:172  bool public isGameFinished */\n    tag_7:\n      tag_24\n      tag_25\n      jump\t// in\n    tag_24:\n      mload(0x40)\n      tag_26\n      swap2\n      swap1\n      tag_27\n      jump\t// in\n    tag_26:\n      mload(0x40)\n      dup1\n      swap2\n      sub\n      swap1\n      return\n        /* \"contracts/HelloWorld3.sol\":1206:1468  function getHint() public view onlyPlayer gameNotFinished returns (string memory) {... */\n    tag_9:\n        /* \"contracts/HelloWorld3.sol\":1273:1286  string memory */\n      0x60\n        /* \"contracts/HelloWorld3.sol\":407:413  player */\n      0x00\n      dup1\n      sload\n      swap1\n      0x0100\n      exp\n      swap1\n      div\n      0xffffffffffffffffffffffffffffffffffffffff\n      and\n        /* \"contracts/HelloWorld3.sol\":393:413  msg.sender == player */\n      0xffffffffffffffffffffffffffffffffffffffff\n      and\n        /* \"contracts/HelloWorld3.sol\":393:403  msg.sender */\n      caller\n        /* \"contracts/HelloWorld3.sol\":393:413  msg.sender == player */\n      0xffffffffffffffffffffffffffffffffffffffff\n      and\n      eq\n        /* \"contracts/HelloWorld3.sol\":385:457  require(msg.sender == player, \"Only the player can perform this action\") */\n      tag_29\n      jumpi\n      mload(0x40)\n      0x08c379a000000000000000000000000000000000000000000000000000000000\n      dup2\n      mstore\n      0x04\n      add\n      tag_30\n      swap1\n      tag_31\n      jump\t// in\n    tag_30:\n      mload(0x40)\n      dup1\n      swap2\n      sub\n      swap1\n      revert\n    tag_29:\n        /* \"contracts/HelloWorld3.sol\":527:541  isGameFinished */\n      0x02\n      0x00\n      swap1\n      sload\n      swap1\n      0x0100\n      exp\n      swap1\n      div\n      0xff\n      and\n        /* \"contracts/HelloWorld3.sol\":526:541  !isGameFinished */\n      iszero\n        /* \"contracts/HelloWorld3.sol\":518:574  require(!isGameFinished, \"The game is already finished\") */\n      tag_33\n      jumpi\n      mload(0x40)\n      0x08c379a000000000000000000000000000000000000000000000000000000000\n      dup2\n      mstore\n      0x04\n      add\n      tag_34\n      swap1\n      tag_35\n      jump\t// in\n    tag_34:\n      mload(0x40)\n      dup1\n      swap2\n      sub\n      swap1\n      revert\n    tag_33:\n        /* \"contracts/HelloWorld3.sol\":1317:1319  50 */\n      0x32\n        /* \"contracts/HelloWorld3.sol\":1302:1314  randomNumber */\n      sload(0x01)\n        /* \"contracts/HelloWorld3.sol\":1302:1319  randomNumber > 50 */\n      gt\n        /* \"contracts/HelloWorld3.sol\":1298:1462  if (randomNumber > 50) {... */\n      iszero\n      tag_37\n      jumpi\n        /* \"contracts/HelloWorld3.sol\":1335:1373  return \"The number is greater than 50\" */\n      mload(0x40)\n      dup1\n      0x40\n      add\n      0x40\n      mstore\n      dup1\n      0x1d\n      dup2\n      mstore\n      0x20\n      add\n      0x546865206e756d6265722069732067726561746572207468616e203530000000\n      dup2\n      mstore\n      pop\n      swap1\n      pop\n      jump(tag_36)\n        /* \"contracts/HelloWorld3.sol\":1298:1462  if (randomNumber > 50) {... */\n    tag_37:\n        /* \"contracts/HelloWorld3.sol\":1404:1451  return \"The number is less than or equal to 50\" */\n      mload(0x40)\n      dup1\n      0x60\n      add\n      0x40\n      mstore\n      dup1\n      0x26\n      dup2\n      mstore\n      0x20\n      add\n      data_8d63c7b57c73fe9d7e92b031bfe638cb0d4d647bbabb0cd53ef654fc7d8f7501\n      0x26\n      swap2\n      codecopy\n      swap1\n      pop\n        /* \"contracts/HelloWorld3.sol\":584:585  _ */\n    tag_36:\n        /* \"contracts/HelloWorld3.sol\":1206:1468  function getHint() public view onlyPlayer gameNotFinished returns (string memory) {... */\n      swap1\n      jump\t// out\n        /* \"contracts/HelloWorld3.sol\":89:110  address public player */\n    tag_13:\n      0x00\n      dup1\n      sload\n      swap1\n      0x0100\n      exp\n      swap1\n      div\n      0xffffffffffffffffffffffffffffffffffffffff\n      and\n      dup2\n      jump\t// out\n        /* \"contracts/HelloWorld3.sol\":791:1200  function guess(uint _number) public onlyPlayer gameNotFinished {... */\n    tag_19:\n        /* \"contracts/HelloWorld3.sol\":407:413  player */\n      0x00\n      dup1\n      sload\n      swap1\n      0x0100\n      exp\n      swap1\n      div\n      0xffffffffffffffffffffffffffffffffffffffff\n      and\n        /* \"contracts/HelloWorld3.sol\":393:413  msg.sender == player */\n      0xffffffffffffffffffffffffffffffffffffffff\n      and\n        /* \"contracts/HelloWorld3.sol\":393:403  msg.sender */\n      caller\n        /* \"contracts/HelloWorld3.sol\":393:413  msg.sender == player */\n      0xffffffffffffffffffffffffffffffffffffffff\n      and\n      eq\n        /* \"contracts/HelloWorld3.sol\":385:457  require(msg.sender == player, \"Only the player can perform this action\") */\n      tag_40\n      jumpi\n      mload(0x40)\n      0x08c379a000000000000000000000000000000000000000000000000000000000\n      dup2\n      mstore\n      0x04\n      add\n      tag_41\n      swap1\n      tag_31\n      jump\t// in\n    tag_41:\n      mload(0x40)\n      dup1\n      swap2\n      sub\n      swap1\n      revert\n    tag_40:\n        /* \"contracts/HelloWorld3.sol\":527:541  isGameFinished */\n      0x02\n      0x00\n      swap1\n      sload\n      swap1\n      0x0100\n      exp\n      swap1\n      div\n      0xff\n      and\n        /* \"contracts/HelloWorld3.sol\":526:541  !isGameFinished */\n      iszero\n        /* \"contracts/HelloWorld3.sol\":518:574  require(!isGameFinished, \"The game is already finished\") */\n      tag_43\n      jumpi\n      mload(0x40)\n      0x08c379a000000000000000000000000000000000000000000000000000000000\n      dup2\n      mstore\n      0x04\n      add\n      tag_44\n      swap1\n      tag_35\n      jump\t// in\n    tag_44:\n      mload(0x40)\n      dup1\n      swap2\n      sub\n      swap1\n      revert\n    tag_43:\n        /* \"contracts/HelloWorld3.sol\":883:884  0 */\n      0x00\n        /* \"contracts/HelloWorld3.sol\":872:879  _number */\n      dup2\n        /* \"contracts/HelloWorld3.sol\":872:884  _number >= 0 */\n      lt\n      iszero\n        /* \"contracts/HelloWorld3.sol\":872:901  _number >= 0 && _number <= 99 */\n      dup1\n      iszero\n      tag_46\n      jumpi\n      pop\n        /* \"contracts/HelloWorld3.sol\":899:901  99 */\n      0x63\n        /* \"contracts/HelloWorld3.sol\":888:895  _number */\n      dup2\n        /* \"contracts/HelloWorld3.sol\":888:901  _number <= 99 */\n      gt\n      iszero\n        /* \"contracts/HelloWorld3.sol\":872:901  _number >= 0 && _number <= 99 */\n    tag_46:\n        /* \"contracts/HelloWorld3.sol\":864:925  require(_number >= 0 && _number <= 99, \"Number out of range\") */\n      tag_47\n      jumpi\n      mload(0x40)\n      0x08c379a000000000000000000000000000000000000000000000000000000000\n      dup2\n      mstore\n      0x04\n      add\n      tag_48\n      swap1\n      tag_49\n      jump\t// in\n    tag_48:\n      mload(0x40)\n      dup1\n      swap2\n      sub\n      swap1\n      revert\n    tag_47:\n        /* \"contracts/HelloWorld3.sol\":959:971  randomNumber */\n      sload(0x01)\n        /* \"contracts/HelloWorld3.sol\":948:955  _number */\n      dup2\n        /* \"contracts/HelloWorld3.sol\":948:971  _number == randomNumber */\n      sub\n        /* \"contracts/HelloWorld3.sol\":944:1194  if (_number == randomNumber) {... */\n      tag_50\n      jumpi\n        /* \"contracts/HelloWorld3.sol\":1004:1008  true */\n      0x01\n        /* \"contracts/HelloWorld3.sol\":987:1001  isGameFinished */\n      0x02\n      0x00\n        /* \"contracts/HelloWorld3.sol\":987:1008  isGameFinished = true */\n      0x0100\n      exp\n      dup2\n      sload\n      dup2\n      0xff\n      mul\n      not\n      and\n      swap1\n      dup4\n      iszero\n      iszero\n      mul\n      or\n      swap1\n      sstore\n      pop\n        /* \"contracts/HelloWorld3.sol\":1027:1091  LogMessage(\"Congratulations! You guessed the number correctly!\") */\n      0x96561394bac381230de4649200e8831afcab1f451881bbade9ef209f6dd30480\n      mload(0x40)\n      tag_51\n      swap1\n      tag_52\n      jump\t// in\n    tag_51:\n      mload(0x40)\n      dup1\n      swap2\n      sub\n      swap1\n      log1\n        /* \"contracts/HelloWorld3.sol\":944:1194  if (_number == randomNumber) {... */\n      jump(tag_53)\n    tag_50:\n        /* \"contracts/HelloWorld3.sol\":1127:1183  LogMessage(\"Sorry, your guess is incorrect. Try again!\") */\n      0x96561394bac381230de4649200e8831afcab1f451881bbade9ef209f6dd30480\n      mload(0x40)\n      tag_54\n      swap1\n      tag_55\n      jump\t// in\n    tag_54:\n      mload(0x40)\n      dup1\n      swap2\n      sub\n      swap1\n      log1\n        /* \"contracts/HelloWorld3.sol\":944:1194  if (_number == randomNumber) {... */\n    tag_53:\n        /* \"contracts/HelloWorld3.sol\":791:1200  function guess(uint _number) public onlyPlayer gameNotFinished {... */\n      pop\n      jump\t// out\n        /* \"contracts/HelloWorld3.sol\":116:140  uint public randomNumber */\n    tag_21:\n      sload(0x01)\n      dup2\n      jump\t// out\n        /* \"contracts/HelloWorld3.sol\":146:172  bool public isGameFinished */\n    tag_25:\n      0x02\n      0x00\n      swap1\n      sload\n      swap1\n      0x0100\n      exp\n      swap1\n      div\n      0xff\n      and\n      dup2\n      jump\t// out\n        /* \"#utility.yul\":7:106   */\n    tag_56:\n        /* \"#utility.yul\":59:65   */\n      0x00\n        /* \"#utility.yul\":93:98   */\n      dup2\n        /* \"#utility.yul\":87:99   */\n      mload\n        /* \"#utility.yul\":77:99   */\n      swap1\n      pop\n        /* \"#utility.yul\":7:106   */\n      swap2\n      swap1\n      pop\n      jump\t// out\n        /* \"#utility.yul\":112:281   */\n    tag_57:\n        /* \"#utility.yul\":196:207   */\n      0x00\n        /* \"#utility.yul\":230:236   */\n      dup3\n        /* \"#utility.yul\":225:228   */\n      dup3\n        /* \"#utility.yul\":218:237   */\n      mstore\n        /* \"#utility.yul\":270:274   */\n      0x20\n        /* \"#utility.yul\":265:268   */\n      dup3\n        /* \"#utility.yul\":261:275   */\n      add\n        /* \"#utility.yul\":246:275   */\n      swap1\n      pop\n        /* \"#utility.yul\":112:281   */\n      swap3\n      swap2\n      pop\n      pop\n      jump\t// out\n        /* \"#utility.yul\":287:533   */\n    tag_58:\n        /* \"#utility.yul\":368:369   */\n      0x00\n        /* \"#utility.yul\":378:491   */\n    tag_87:\n        /* \"#utility.yul\":392:398   */\n      dup4\n        /* \"#utility.yul\":389:390   */\n      dup2\n        /* \"#utility.yul\":386:399   */\n      lt\n        /* \"#utility.yul\":378:491   */\n      iszero\n      tag_89\n      jumpi\n        /* \"#utility.yul\":477:478   */\n      dup1\n        /* \"#utility.yul\":472:475   */\n      dup3\n        /* \"#utility.yul\":468:479   */\n      add\n        /* \"#utility.yul\":462:480   */\n      mload\n        /* \"#utility.yul\":458:459   */\n      dup2\n        /* \"#utility.yul\":453:456   */\n      dup5\n        /* \"#utility.yul\":449:460   */\n      add\n        /* \"#utility.yul\":442:481   */\n      mstore\n        /* \"#utility.yul\":414:416   */\n      0x20\n        /* \"#utility.yul\":411:412   */\n      dup2\n        /* \"#utility.yul\":407:417   */\n      add\n        /* \"#utility.yul\":402:417   */\n      swap1\n      pop\n        /* \"#utility.yul\":378:491   */\n      jump(tag_87)\n    tag_89:\n        /* \"#utility.yul\":525:526   */\n      0x00\n        /* \"#utility.yul\":516:522   */\n      dup5\n        /* \"#utility.yul\":511:514   */\n      dup5\n        /* \"#utility.yul\":507:523   */\n      add\n        /* \"#utility.yul\":500:527   */\n      mstore\n        /* \"#utility.yul\":349:533   */\n      pop\n        /* \"#utility.yul\":287:533   */\n      pop\n      pop\n      pop\n      jump\t// out\n        /* \"#utility.yul\":539:641   */\n    tag_59:\n        /* \"#utility.yul\":580:586   */\n      0x00\n        /* \"#utility.yul\":631:633   */\n      0x1f\n        /* \"#utility.yul\":627:634   */\n      not\n        /* \"#utility.yul\":622:624   */\n      0x1f\n        /* \"#utility.yul\":615:620   */\n      dup4\n        /* \"#utility.yul\":611:625   */\n      add\n        /* \"#utility.yul\":607:635   */\n      and\n        /* \"#utility.yul\":597:635   */\n      swap1\n      pop\n        /* \"#utility.yul\":539:641   */\n      swap2\n      swap1\n      pop\n      jump\t// out\n        /* \"#utility.yul\":647:1024   */\n    tag_60:\n        /* \"#utility.yul\":735:738   */\n      0x00\n        /* \"#utility.yul\":763:802   */\n      tag_92\n        /* \"#utility.yul\":796:801   */\n      dup3\n        /* \"#utility.yul\":763:802   */\n      tag_56\n      jump\t// in\n    tag_92:\n        /* \"#utility.yul\":818:889   */\n      tag_93\n        /* \"#utility.yul\":882:888   */\n      dup2\n        /* \"#utility.yul\":877:880   */\n      dup6\n        /* \"#utility.yul\":818:889   */\n      tag_57\n      jump\t// in\n    tag_93:\n        /* \"#utility.yul\":811:889   */\n      swap4\n      pop\n        /* \"#utility.yul\":898:963   */\n      tag_94\n        /* \"#utility.yul\":956:962   */\n      dup2\n        /* \"#utility.yul\":951:954   */\n      dup6\n        /* \"#utility.yul\":944:948   */\n      0x20\n        /* \"#utility.yul\":937:942   */\n      dup7\n        /* \"#utility.yul\":933:949   */\n      add\n        /* \"#utility.yul\":898:963   */\n      tag_58\n      jump\t// in\n    tag_94:\n        /* \"#utility.yul\":988:1017   */\n      tag_95\n        /* \"#utility.yul\":1010:1016   */\n      dup2\n        /* \"#utility.yul\":988:1017   */\n      tag_59\n      jump\t// in\n    tag_95:\n        /* \"#utility.yul\":983:986   */\n      dup5\n        /* \"#utility.yul\":979:1018   */\n      add\n        /* \"#utility.yul\":972:1018   */\n      swap2\n      pop\n        /* \"#utility.yul\":739:1024   */\n      pop\n        /* \"#utility.yul\":647:1024   */\n      swap3\n      swap2\n      pop\n      pop\n      jump\t// out\n        /* \"#utility.yul\":1030:1343   */\n    tag_11:\n        /* \"#utility.yul\":1143:1147   */\n      0x00\n        /* \"#utility.yul\":1181:1183   */\n      0x20\n        /* \"#utility.yul\":1170:1179   */\n      dup3\n        /* \"#utility.yul\":1166:1184   */\n      add\n        /* \"#utility.yul\":1158:1184   */\n      swap1\n      pop\n        /* \"#utility.yul\":1230:1239   */\n      dup2\n        /* \"#utility.yul\":1224:1228   */\n      dup2\n        /* \"#utility.yul\":1220:1240   */\n      sub\n        /* \"#utility.yul\":1216:1217   */\n      0x00\n        /* \"#utility.yul\":1205:1214   */\n      dup4\n        /* \"#utility.yul\":1201:1218   */\n      add\n        /* \"#utility.yul\":1194:1241   */\n      mstore\n        /* \"#utility.yul\":1258:1336   */\n      tag_97\n        /* \"#utility.yul\":1331:1335   */\n      dup2\n        /* \"#utility.yul\":1322:1328   */\n      dup5\n        /* \"#utility.yul\":1258:1336   */\n      tag_60\n      jump\t// in\n    tag_97:\n        /* \"#utility.yul\":1250:1336   */\n      swap1\n      pop\n        /* \"#utility.yul\":1030:1343   */\n      swap3\n      swap2\n      pop\n      pop\n      jump\t// out\n        /* \"#utility.yul\":1349:1475   */\n    tag_61:\n        /* \"#utility.yul\":1386:1393   */\n      0x00\n        /* \"#utility.yul\":1426:1468   */\n      0xffffffffffffffffffffffffffffffffffffffff\n        /* \"#utility.yul\":1419:1424   */\n      dup3\n        /* \"#utility.yul\":1415:1469   */\n      and\n        /* \"#utility.yul\":1404:1469   */\n      swap1\n      pop\n        /* \"#utility.yul\":1349:1475   */\n      swap2\n      swap1\n      pop\n      jump\t// out\n        /* \"#utility.yul\":1481:1577   */\n    tag_62:\n        /* \"#utility.yul\":1518:1525   */\n      0x00\n        /* \"#utility.yul\":1547:1571   */\n      tag_100\n        /* \"#utility.yul\":1565:1570   */\n      dup3\n        /* \"#utility.yul\":1547:1571   */\n      tag_61\n      jump\t// in\n    tag_100:\n        /* \"#utility.yul\":1536:1571   */\n      swap1\n      pop\n        /* \"#utility.yul\":1481:1577   */\n      swap2\n      swap1\n      pop\n      jump\t// out\n        /* \"#utility.yul\":1583:1701   */\n    tag_63:\n        /* \"#utility.yul\":1670:1694   */\n      tag_102\n        /* \"#utility.yul\":1688:1693   */\n      dup2\n        /* \"#utility.yul\":1670:1694   */\n      tag_62\n      jump\t// in\n    tag_102:\n        /* \"#utility.yul\":1665:1668   */\n      dup3\n        /* \"#utility.yul\":1658:1695   */\n      mstore\n        /* \"#utility.yul\":1583:1701   */\n      pop\n      pop\n      jump\t// out\n        /* \"#utility.yul\":1707:1929   */\n    tag_15:\n        /* \"#utility.yul\":1800:1804   */\n      0x00\n        /* \"#utility.yul\":1838:1840   */\n      0x20\n        /* \"#utility.yul\":1827:1836   */\n      dup3\n        /* \"#utility.yul\":1823:1841   */\n      add\n        /* \"#utility.yul\":1815:1841   */\n      swap1\n      pop\n        /* \"#utility.yul\":1851:1922   */\n      tag_104\n        /* \"#utility.yul\":1919:1920   */\n      0x00\n        /* \"#utility.yul\":1908:1917   */\n      dup4\n        /* \"#utility.yul\":1904:1921   */\n      add\n        /* \"#utility.yul\":1895:1901   */\n      dup5\n        /* \"#utility.yul\":1851:1922   */\n      tag_63\n      jump\t// in\n    tag_104:\n        /* \"#utility.yul\":1707:1929   */\n      swap3\n      swap2\n      pop\n      pop\n      jump\t// out\n        /* \"#utility.yul\":2016:2133   */\n    tag_65:\n        /* \"#utility.yul\":2125:2126   */\n      0x00\n        /* \"#utility.yul\":2122:2123   */\n      dup1\n        /* \"#utility.yul\":2115:2127   */\n      revert\n        /* \"#utility.yul\":2262:2339   */\n    tag_67:\n        /* \"#utility.yul\":2299:2306   */\n      0x00\n        /* \"#utility.yul\":2328:2333   */\n      dup2\n        /* \"#utility.yul\":2317:2333   */\n      swap1\n      pop\n        /* \"#utility.yul\":2262:2339   */\n      swap2\n      swap1\n      pop\n      jump\t// out\n        /* \"#utility.yul\":2345:2467   */\n    tag_68:\n        /* \"#utility.yul\":2418:2442   */\n      tag_110\n        /* \"#utility.yul\":2436:2441   */\n      dup2\n        /* \"#utility.yul\":2418:2442   */\n      tag_67\n      jump\t// in\n    tag_110:\n        /* \"#utility.yul\":2411:2416   */\n      dup2\n        /* \"#utility.yul\":2408:2443   */\n      eq\n        /* \"#utility.yul\":2398:2461   */\n      tag_111\n      jumpi\n        /* \"#utility.yul\":2457:2458   */\n      0x00\n        /* \"#utility.yul\":2454:2455   */\n      dup1\n        /* \"#utility.yul\":2447:2459   */\n      revert\n        /* \"#utility.yul\":2398:2461   */\n    tag_111:\n        /* \"#utility.yul\":2345:2467   */\n      pop\n      jump\t// out\n        /* \"#utility.yul\":2473:2612   */\n    tag_69:\n        /* \"#utility.yul\":2519:2524   */\n      0x00\n        /* \"#utility.yul\":2557:2563   */\n      dup2\n        /* \"#utility.yul\":2544:2564   */\n      calldataload\n        /* \"#utility.yul\":2535:2564   */\n      swap1\n      pop\n        /* \"#utility.yul\":2573:2606   */\n      tag_113\n        /* \"#utility.yul\":2600:2605   */\n      dup2\n        /* \"#utility.yul\":2573:2606   */\n      tag_68\n      jump\t// in\n    tag_113:\n        /* \"#utility.yul\":2473:2612   */\n      swap3\n      swap2\n      pop\n      pop\n      jump\t// out\n        /* \"#utility.yul\":2618:2947   */\n    tag_18:\n        /* \"#utility.yul\":2677:2683   */\n      0x00\n        /* \"#utility.yul\":2726:2728   */\n      0x20\n        /* \"#utility.yul\":2714:2723   */\n      dup3\n        /* \"#utility.yul\":2705:2712   */\n      dup5\n        /* \"#utility.yul\":2701:2724   */\n      sub\n        /* \"#utility.yul\":2697:2729   */\n      slt\n        /* \"#utility.yul\":2694:2813   */\n      iszero\n      tag_115\n      jumpi\n        /* \"#utility.yul\":2732:2811   */\n      tag_116\n      tag_65\n      jump\t// in\n    tag_116:\n        /* \"#utility.yul\":2694:2813   */\n    tag_115:\n        /* \"#utility.yul\":2852:2853   */\n      0x00\n        /* \"#utility.yul\":2877:2930   */\n      tag_117\n        /* \"#utility.yul\":2922:2929   */\n      dup5\n        /* \"#utility.yul\":2913:2919   */\n      dup3\n        /* \"#utility.yul\":2902:2911   */\n      dup6\n        /* \"#utility.yul\":2898:2920   */\n      add\n        /* \"#utility.yul\":2877:2930   */\n      tag_69\n      jump\t// in\n    tag_117:\n        /* \"#utility.yul\":2867:2930   */\n      swap2\n      pop\n        /* \"#utility.yul\":2823:2940   */\n      pop\n        /* \"#utility.yul\":2618:2947   */\n      swap3\n      swap2\n      pop\n      pop\n      jump\t// out\n        /* \"#utility.yul\":2953:3071   */\n    tag_70:\n        /* \"#utility.yul\":3040:3064   */\n      tag_119\n        /* \"#utility.yul\":3058:3063   */\n      dup2\n        /* \"#utility.yul\":3040:3064   */\n      tag_67\n      jump\t// in\n    tag_119:\n        /* \"#utility.yul\":3035:3038   */\n      dup3\n        /* \"#utility.yul\":3028:3065   */\n      mstore\n        /* \"#utility.yul\":2953:3071   */\n      pop\n      pop\n      jump\t// out\n        /* \"#utility.yul\":3077:3299   */\n    tag_23:\n        /* \"#utility.yul\":3170:3174   */\n      0x00\n        /* \"#utility.yul\":3208:3210   */\n      0x20\n        /* \"#utility.yul\":3197:3206   */\n      dup3\n        /* \"#utility.yul\":3193:3211   */\n      add\n        /* \"#utility.yul\":3185:3211   */\n      swap1\n      pop\n        /* \"#utility.yul\":3221:3292   */\n      tag_121\n        /* \"#utility.yul\":3289:3290   */\n      0x00\n        /* \"#utility.yul\":3278:3287   */\n      dup4\n        /* \"#utility.yul\":3274:3291   */\n      add\n        /* \"#utility.yul\":3265:3271   */\n      dup5\n        /* \"#utility.yul\":3221:3292   */\n      tag_70\n      jump\t// in\n    tag_121:\n        /* \"#utility.yul\":3077:3299   */\n      swap3\n      swap2\n      pop\n      pop\n      jump\t// out\n        /* \"#utility.yul\":3305:3395   */\n    tag_71:\n        /* \"#utility.yul\":3339:3346   */\n      0x00\n        /* \"#utility.yul\":3382:3387   */\n      dup2\n        /* \"#utility.yul\":3375:3388   */\n      iszero\n        /* \"#utility.yul\":3368:3389   */\n      iszero\n        /* \"#utility.yul\":3357:3389   */\n      swap1\n      pop\n        /* \"#utility.yul\":3305:3395   */\n      swap2\n      swap1\n      pop\n      jump\t// out\n        /* \"#utility.yul\":3401:3510   */\n    tag_72:\n        /* \"#utility.yul\":3482:3503   */\n      tag_124\n        /* \"#utility.yul\":3497:3502   */\n      dup2\n        /* \"#utility.yul\":3482:3503   */\n      tag_71\n      jump\t// in\n    tag_124:\n        /* \"#utility.yul\":3477:3480   */\n      dup3\n        /* \"#utility.yul\":3470:3504   */\n      mstore\n        /* \"#utility.yul\":3401:3510   */\n      pop\n      pop\n      jump\t// out\n        /* \"#utility.yul\":3516:3726   */\n    tag_27:\n        /* \"#utility.yul\":3603:3607   */\n      0x00\n        /* \"#utility.yul\":3641:3643   */\n      0x20\n        /* \"#utility.yul\":3630:3639   */\n      dup3\n        /* \"#utility.yul\":3626:3644   */\n      add\n        /* \"#utility.yul\":3618:3644   */\n      swap1\n      pop\n        /* \"#utility.yul\":3654:3719   */\n      tag_126\n        /* \"#utility.yul\":3716:3717   */\n      0x00\n        /* \"#utility.yul\":3705:3714   */\n      dup4\n        /* \"#utility.yul\":3701:3718   */\n      add\n        /* \"#utility.yul\":3692:3698   */\n      dup5\n        /* \"#utility.yul\":3654:3719   */\n      tag_72\n      jump\t// in\n    tag_126:\n        /* \"#utility.yul\":3516:3726   */\n      swap3\n      swap2\n      pop\n      pop\n      jump\t// out\n        /* \"#utility.yul\":3732:3958   */\n    tag_73:\n        /* \"#utility.yul\":3872:3906   */\n      0x4f6e6c792074686520706c617965722063616e20706572666f726d2074686973\n        /* \"#utility.yul\":3868:3869   */\n      0x00\n        /* \"#utility.yul\":3860:3866   */\n      dup3\n        /* \"#utility.yul\":3856:3870   */\n      add\n        /* \"#utility.yul\":3849:3907   */\n      mstore\n        /* \"#utility.yul\":3941:3950   */\n      0x20616374696f6e00000000000000000000000000000000000000000000000000\n        /* \"#utility.yul\":3936:3938   */\n      0x20\n        /* \"#utility.yul\":3928:3934   */\n      dup3\n        /* \"#utility.yul\":3924:3939   */\n      add\n        /* \"#utility.yul\":3917:3951   */\n      mstore\n        /* \"#utility.yul\":3732:3958   */\n      pop\n      jump\t// out\n        /* \"#utility.yul\":3964:4330   */\n    tag_74:\n        /* \"#utility.yul\":4106:4109   */\n      0x00\n        /* \"#utility.yul\":4127:4194   */\n      tag_129\n        /* \"#utility.yul\":4191:4193   */\n      0x27\n        /* \"#utility.yul\":4186:4189   */\n      dup4\n        /* \"#utility.yul\":4127:4194   */\n      tag_57\n      jump\t// in\n    tag_129:\n        /* \"#utility.yul\":4120:4194   */\n      swap2\n      pop\n        /* \"#utility.yul\":4203:4296   */\n      tag_130\n        /* \"#utility.yul\":4292:4295   */\n      dup3\n        /* \"#utility.yul\":4203:4296   */\n      tag_73\n      jump\t// in\n    tag_130:\n        /* \"#utility.yul\":4321:4323   */\n      0x40\n        /* \"#utility.yul\":4316:4319   */\n      dup3\n        /* \"#utility.yul\":4312:4324   */\n      add\n        /* \"#utility.yul\":4305:4324   */\n      swap1\n      pop\n        /* \"#utility.yul\":3964:4330   */\n      swap2\n      swap1\n      pop\n      jump\t// out\n        /* \"#utility.yul\":4336:4755   */\n    tag_31:\n        /* \"#utility.yul\":4502:4506   */\n      0x00\n        /* \"#utility.yul\":4540:4542   */\n      0x20\n        /* \"#utility.yul\":4529:4538   */\n      dup3\n        /* \"#utility.yul\":4525:4543   */\n      add\n        /* \"#utility.yul\":4517:4543   */\n      swap1\n      pop\n        /* \"#utility.yul\":4589:4598   */\n      dup2\n        /* \"#utility.yul\":4583:4587   */\n      dup2\n        /* \"#utility.yul\":4579:4599   */\n      sub\n        /* \"#utility.yul\":4575:4576   */\n      0x00\n        /* \"#utility.yul\":4564:4573   */\n      dup4\n        /* \"#utility.yul\":4560:4577   */\n      add\n        /* \"#utility.yul\":4553:4600   */\n      mstore\n        /* \"#utility.yul\":4617:4748   */\n      tag_132\n        /* \"#utility.yul\":4743:4747   */\n      dup2\n        /* \"#utility.yul\":4617:4748   */\n      tag_74\n      jump\t// in\n    tag_132:\n        /* \"#utility.yul\":4609:4748   */\n      swap1\n      pop\n        /* \"#utility.yul\":4336:4755   */\n      swap2\n      swap1\n      pop\n      jump\t// out\n        /* \"#utility.yul\":4761:4939   */\n    tag_75:\n        /* \"#utility.yul\":4901:4931   */\n      0x5468652067616d6520697320616c72656164792066696e697368656400000000\n        /* \"#utility.yul\":4897:4898   */\n      0x00\n        /* \"#utility.yul\":4889:4895   */\n      dup3\n        /* \"#utility.yul\":4885:4899   */\n      add\n        /* \"#utility.yul\":4878:4932   */\n      mstore\n        /* \"#utility.yul\":4761:4939   */\n      pop\n      jump\t// out\n        /* \"#utility.yul\":4945:5311   */\n    tag_76:\n        /* \"#utility.yul\":5087:5090   */\n      0x00\n        /* \"#utility.yul\":5108:5175   */\n      tag_135\n        /* \"#utility.yul\":5172:5174   */\n      0x1c\n        /* \"#utility.yul\":5167:5170   */\n      dup4\n        /* \"#utility.yul\":5108:5175   */\n      tag_57\n      jump\t// in\n    tag_135:\n        /* \"#utility.yul\":5101:5175   */\n      swap2\n      pop\n        /* \"#utility.yul\":5184:5277   */\n      tag_136\n        /* \"#utility.yul\":5273:5276   */\n      dup3\n        /* \"#utility.yul\":5184:5277   */\n      tag_75\n      jump\t// in\n    tag_136:\n        /* \"#utility.yul\":5302:5304   */\n      0x20\n        /* \"#utility.yul\":5297:5300   */\n      dup3\n        /* \"#utility.yul\":5293:5305   */\n      add\n        /* \"#utility.yul\":5286:5305   */\n      swap1\n      pop\n        /* \"#utility.yul\":4945:5311   */\n      swap2\n      swap1\n      pop\n      jump\t// out\n        /* \"#utility.yul\":5317:5736   */\n    tag_35:\n        /* \"#utility.yul\":5483:5487   */\n      0x00\n        /* \"#utility.yul\":5521:5523   */\n      0x20\n        /* \"#utility.yul\":5510:5519   */\n      dup3\n        /* \"#utility.yul\":5506:5524   */\n      add\n        /* \"#utility.yul\":5498:5524   */\n      swap1\n      pop\n        /* \"#utility.yul\":5570:5579   */\n      dup2\n        /* \"#utility.yul\":5564:5568   */\n      dup2\n        /* \"#utility.yul\":5560:5580   */\n      sub\n        /* \"#utility.yul\":5556:5557   */\n      0x00\n        /* \"#utility.yul\":5545:5554   */\n      dup4\n        /* \"#utility.yul\":5541:5558   */\n      add\n        /* \"#utility.yul\":5534:5581   */\n      mstore\n        /* \"#utility.yul\":5598:5729   */\n      tag_138\n        /* \"#utility.yul\":5724:5728   */\n      dup2\n        /* \"#utility.yul\":5598:5729   */\n      tag_76\n      jump\t// in\n    tag_138:\n        /* \"#utility.yul\":5590:5729   */\n      swap1\n      pop\n        /* \"#utility.yul\":5317:5736   */\n      swap2\n      swap1\n      pop\n      jump\t// out\n        /* \"#utility.yul\":5742:5911   */\n    tag_77:\n        /* \"#utility.yul\":5882:5903   */\n      0x4e756d626572206f7574206f662072616e676500000000000000000000000000\n        /* \"#utility.yul\":5878:5879   */\n      0x00\n        /* \"#utility.yul\":5870:5876   */\n      dup3\n        /* \"#utility.yul\":5866:5880   */\n      add\n        /* \"#utility.yul\":5859:5904   */\n      mstore\n        /* \"#utility.yul\":5742:5911   */\n      pop\n      jump\t// out\n        /* \"#utility.yul\":5917:6283   */\n    tag_78:\n        /* \"#utility.yul\":6059:6062   */\n      0x00\n        /* \"#utility.yul\":6080:6147   */\n      tag_141\n        /* \"#utility.yul\":6144:6146   */\n      0x13\n        /* \"#utility.yul\":6139:6142   */\n      dup4\n        /* \"#utility.yul\":6080:6147   */\n      tag_57\n      jump\t// in\n    tag_141:\n        /* \"#utility.yul\":6073:6147   */\n      swap2\n      pop\n        /* \"#utility.yul\":6156:6249   */\n      tag_142\n        /* \"#utility.yul\":6245:6248   */\n      dup3\n        /* \"#utility.yul\":6156:6249   */\n      tag_77\n      jump\t// in\n    tag_142:\n        /* \"#utility.yul\":6274:6276   */\n      0x20\n        /* \"#utility.yul\":6269:6272   */\n      dup3\n        /* \"#utility.yul\":6265:6277   */\n      add\n        /* \"#utility.yul\":6258:6277   */\n      swap1\n      pop\n        /* \"#utility.yul\":5917:6283   */\n      swap2\n      swap1\n      pop\n      jump\t// out\n        /* \"#utility.yul\":6289:6708   */\n    tag_49:\n        /* \"#utility.yul\":6455:6459   */\n      0x00\n        /* \"#utility.yul\":6493:6495   */\n      0x20\n        /* \"#utility.yul\":6482:6491   */\n      dup3\n        /* \"#utility.yul\":6478:6496   */\n      add\n        /* \"#utility.yul\":6470:6496   */\n      swap1\n      pop\n        /* \"#utility.yul\":6542:6551   */\n      dup2\n        /* \"#utility.yul\":6536:6540   */\n      dup2\n        /* \"#utility.yul\":6532:6552   */\n      sub\n        /* \"#utility.yul\":6528:6529   */\n      0x00\n        /* \"#utility.yul\":6517:6526   */\n      dup4\n        /* \"#utility.yul\":6513:6530   */\n      add\n        /* \"#utility.yul\":6506:6553   */\n      mstore\n        /* \"#utility.yul\":6570:6701   */\n      tag_144\n        /* \"#utility.yul\":6696:6700   */\n      dup2\n        /* \"#utility.yul\":6570:6701   */\n      tag_78\n      jump\t// in\n    tag_144:\n        /* \"#utility.yul\":6562:6701   */\n      swap1\n      pop\n        /* \"#utility.yul\":6289:6708   */\n      swap2\n      swap1\n      pop\n      jump\t// out\n        /* \"#utility.yul\":6714:6951   */\n    tag_79:\n        /* \"#utility.yul\":6854:6888   */\n      0x436f6e67726174756c6174696f6e732120596f75206775657373656420746865\n        /* \"#utility.yul\":6850:6851   */\n      0x00\n        /* \"#utility.yul\":6842:6848   */\n      dup3\n        /* \"#utility.yul\":6838:6852   */\n      add\n        /* \"#utility.yul\":6831:6889   */\n      mstore\n        /* \"#utility.yul\":6923:6943   */\n      0x206e756d62657220636f72726563746c79210000000000000000000000000000\n        /* \"#utility.yul\":6918:6920   */\n      0x20\n        /* \"#utility.yul\":6910:6916   */\n      dup3\n        /* \"#utility.yul\":6906:6921   */\n      add\n        /* \"#utility.yul\":6899:6944   */\n      mstore\n        /* \"#utility.yul\":6714:6951   */\n      pop\n      jump\t// out\n        /* \"#utility.yul\":6957:7323   */\n    tag_80:\n        /* \"#utility.yul\":7099:7102   */\n      0x00\n        /* \"#utility.yul\":7120:7187   */\n      tag_147\n        /* \"#utility.yul\":7184:7186   */\n      0x32\n        /* \"#utility.yul\":7179:7182   */\n      dup4\n        /* \"#utility.yul\":7120:7187   */\n      tag_57\n      jump\t// in\n    tag_147:\n        /* \"#utility.yul\":7113:7187   */\n      swap2\n      pop\n        /* \"#utility.yul\":7196:7289   */\n      tag_148\n        /* \"#utility.yul\":7285:7288   */\n      dup3\n        /* \"#utility.yul\":7196:7289   */\n      tag_79\n      jump\t// in\n    tag_148:\n        /* \"#utility.yul\":7314:7316   */\n      0x40\n        /* \"#utility.yul\":7309:7312   */\n      dup3\n        /* \"#utility.yul\":7305:7317   */\n      add\n        /* \"#utility.yul\":7298:7317   */\n      swap1\n      pop\n        /* \"#utility.yul\":6957:7323   */\n      swap2\n      swap1\n      pop\n      jump\t// out\n        /* \"#utility.yul\":7329:7748   */\n    tag_52:\n        /* \"#utility.yul\":7495:7499   */\n      0x00\n        /* \"#utility.yul\":7533:7535   */\n      0x20\n        /* \"#utility.yul\":7522:7531   */\n      dup3\n        /* \"#utility.yul\":7518:7536   */\n      add\n        /* \"#utility.yul\":7510:7536   */\n      swap1\n      pop\n        /* \"#utility.yul\":7582:7591   */\n      dup2\n        /* \"#utility.yul\":7576:7580   */\n      dup2\n        /* \"#utility.yul\":7572:7592   */\n      sub\n        /* \"#utility.yul\":7568:7569   */\n      0x00\n        /* \"#utility.yul\":7557:7566   */\n      dup4\n        /* \"#utility.yul\":7553:7570   */\n      add\n        /* \"#utility.yul\":7546:7593   */\n      mstore\n        /* \"#utility.yul\":7610:7741   */\n      tag_150\n        /* \"#utility.yul\":7736:7740   */\n      dup2\n        /* \"#utility.yul\":7610:7741   */\n      tag_80\n      jump\t// in\n    tag_150:\n        /* \"#utility.yul\":7602:7741   */\n      swap1\n      pop\n        /* \"#utility.yul\":7329:7748   */\n      swap2\n      swap1\n      pop\n      jump\t// out\n        /* \"#utility.yul\":7754:7983   */\n    tag_81:\n        /* \"#utility.yul\":7894:7928   */\n      0x536f7272792c20796f757220677565737320697320696e636f72726563742e20\n        /* \"#utility.yul\":7890:7891   */\n      0x00\n        /* \"#utility.yul\":7882:7888   */\n      dup3\n        /* \"#utility.yul\":7878:7892   */\n      add\n        /* \"#utility.yul\":7871:7929   */\n      mstore\n        /* \"#utility.yul\":7963:7975   */\n      0x54727920616761696e2100000000000000000000000000000000000000000000\n        /* \"#utility.yul\":7958:7960   */\n      0x20\n        /* \"#utility.yul\":7950:7956   */\n      dup3\n        /* \"#utility.yul\":7946:7961   */\n      add\n        /* \"#utility.yul\":7939:7976   */\n      mstore\n        /* \"#utility.yul\":7754:7983   */\n      pop\n      jump\t// out\n        /* \"#utility.yul\":7989:8355   */\n    tag_82:\n        /* \"#utility.yul\":8131:8134   */\n      0x00\n        /* \"#utility.yul\":8152:8219   */\n      tag_153\n        /* \"#utility.yul\":8216:8218   */\n      0x2a\n        /* \"#utility.yul\":8211:8214   */\n      dup4\n        /* \"#utility.yul\":8152:8219   */\n      tag_57\n      jump\t// in\n    tag_153:\n        /* \"#utility.yul\":8145:8219   */\n      swap2\n      pop\n        /* \"#utility.yul\":8228:8321   */\n      tag_154\n        /* \"#utility.yul\":8317:8320   */\n      dup3\n        /* \"#utility.yul\":8228:8321   */\n      tag_81\n      jump\t// in\n    tag_154:\n        /* \"#utility.yul\":8346:8348   */\n      0x40\n        /* \"#utility.yul\":8341:8344   */\n      dup3\n        /* \"#utility.yul\":8337:8349   */\n      add\n        /* \"#utility.yul\":8330:8349   */\n      swap1\n      pop\n        /* \"#utility.yul\":7989:8355   */\n      swap2\n      swap1\n      pop\n      jump\t// out\n        /* \"#utility.yul\":8361:8780   */\n    tag_55:\n        /* \"#utility.yul\":8527:8531   */\n      0x00\n        /* \"#utility.yul\":8565:8567   */\n      0x20\n        /* \"#utility.yul\":8554:8563   */\n      dup3\n        /* \"#utility.yul\":8550:8568   */\n      add\n        /* \"#utility.yul\":8542:8568   */\n      swap1\n      pop\n        /* \"#utility.yul\":8614:8623   */\n      dup2\n        /* \"#utility.yul\":8608:8612   */\n      dup2\n        /* \"#utility.yul\":8604:8624   */\n      sub\n        /* \"#utility.yul\":8600:8601   */\n      0x00\n        /* \"#utility.yul\":8589:8598   */\n      dup4\n        /* \"#utility.yul\":8585:8602   */\n      add\n        /* \"#utility.yul\":8578:8625   */\n      mstore\n        /* \"#utility.yul\":8642:8773   */\n      tag_156\n        /* \"#utility.yul\":8768:8772   */\n      dup2\n        /* \"#utility.yul\":8642:8773   */\n      tag_82\n      jump\t// in\n    tag_156:\n        /* \"#utility.yul\":8634:8773   */\n      swap1\n      pop\n        /* \"#utility.yul\":8361:8780   */\n      swap2\n      swap1\n      pop\n      jump\t// out\n    stop\n    data_8d63c7b57c73fe9d7e92b031bfe638cb0d4d647bbabb0cd53ef654fc7d8f7501 546865206e756d626572206973206c657373207468616e206f7220657175616c20746f203530\n\n    auxdata: 0xa2646970667358221220826df9ef6e8921a021759b369681b9f3e395b82bfe40c638e650efa027aa4cd264736f6c63430008180033\n}\n",
				"bytecode": {
					"linkReferences": {},
					"object": "608060405234801562000010575f80fd5b50335f806101000a81548173ffffffffffffffffffffffffffffffffffffffff021916908373ffffffffffffffffffffffffffffffffffffffff160217905550620000606200008560201b60201c565b6001819055505f60025f6101000a81548160ff0219169083151502179055506200023e565b5f606442446001436200009991906200010d565b40604051602001620000ae9392919062000198565b604051602081830303815290604052805190602001205f1c620000d2919062000207565b905090565b5f819050919050565b7f4e487b71000000000000000000000000000000000000000000000000000000005f52601160045260245ffd5b5f6200011982620000d7565b91506200012683620000d7565b9250828203905081811115620001415762000140620000e0565b5b92915050565b5f819050919050565b620001656200015f82620000d7565b62000147565b82525050565b5f819050919050565b5f819050919050565b620001926200018c826200016b565b62000174565b82525050565b5f620001a5828662000150565b602082019150620001b7828562000150565b602082019150620001c982846200017d565b602082019150819050949350505050565b7f4e487b71000000000000000000000000000000000000000000000000000000005f52601260045260245ffd5b5f6200021382620000d7565b91506200022083620000d7565b925082620002335762000232620001da565b5b828206905092915050565b6108c4806200024c5f395ff3fe608060405234801561000f575f80fd5b5060043610610055575f3560e01c8063412250711461005957806348db5f89146100775780639189fec114610095578063ccbac9f5146100b1578063ef890cc8146100cf575b5f80fd5b6100616100ed565b60405161006e91906104b9565b60405180910390f35b61007f610232565b60405161008c9190610518565b60405180910390f35b6100af60048036038101906100aa9190610568565b610255565b005b6100b9610417565b6040516100c691906105a2565b60405180910390f35b6100d761041d565b6040516100e491906105d5565b60405180910390f35b60605f8054906101000a900473ffffffffffffffffffffffffffffffffffffffff1673ffffffffffffffffffffffffffffffffffffffff163373ffffffffffffffffffffffffffffffffffffffff161461017c576040517f08c379a00000000000000000000000000000000000000000000000000000000081526004016101739061065e565b60405180910390fd5b60025f9054906101000a900460ff16156101cb576040517f08c379a00000000000000000000000000000000000000000000000000000000081526004016101c2906106c6565b60405180910390fd5b60326001541115610213576040518060400160405280601d81526020017f546865206e756d6265722069732067726561746572207468616e203530000000815250905061022f565b6040518060600160405280602681526020016108696026913990505b90565b5f8054906101000a900473ffffffffffffffffffffffffffffffffffffffff1681565b5f8054906101000a900473ffffffffffffffffffffffffffffffffffffffff1673ffffffffffffffffffffffffffffffffffffffff163373ffffffffffffffffffffffffffffffffffffffff16146102e2576040517f08c379a00000000000000000000000000000000000000000000000000000000081526004016102d99061065e565b60405180910390fd5b60025f9054906101000a900460ff1615610331576040517f08c379a0000000000000000000000000000000000000000000000000000000008152600401610328906106c6565b60405180910390fd5b5f8110158015610342575060638111155b610381576040517f08c379a00000000000000000000000000000000000000000000000000000000081526004016103789061072e565b60405180910390fd5b60015481036103de57600160025f6101000a81548160ff0219169083151502179055507f96561394bac381230de4649200e8831afcab1f451881bbade9ef209f6dd304806040516103d1906107bc565b60405180910390a1610414565b7f96561394bac381230de4649200e8831afcab1f451881bbade9ef209f6dd3048060405161040b9061084a565b60405180910390a15b50565b60015481565b60025f9054906101000a900460ff1681565b5f81519050919050565b5f82825260208201905092915050565b5f5b8381101561046657808201518184015260208101905061044b565b5f8484015250505050565b5f601f19601f8301169050919050565b5f61048b8261042f565b6104958185610439565b93506104a5818560208601610449565b6104ae81610471565b840191505092915050565b5f6020820190508181035f8301526104d18184610481565b905092915050565b5f73ffffffffffffffffffffffffffffffffffffffff82169050919050565b5f610502826104d9565b9050919050565b610512816104f8565b82525050565b5f60208201905061052b5f830184610509565b92915050565b5f80fd5b5f819050919050565b61054781610535565b8114610551575f80fd5b50565b5f813590506105628161053e565b92915050565b5f6020828403121561057d5761057c610531565b5b5f61058a84828501610554565b91505092915050565b61059c81610535565b82525050565b5f6020820190506105b55f830184610593565b92915050565b5f8115159050919050565b6105cf816105bb565b82525050565b5f6020820190506105e85f8301846105c6565b92915050565b7f4f6e6c792074686520706c617965722063616e20706572666f726d20746869735f8201527f20616374696f6e00000000000000000000000000000000000000000000000000602082015250565b5f610648602783610439565b9150610653826105ee565b604082019050919050565b5f6020820190508181035f8301526106758161063c565b9050919050565b7f5468652067616d6520697320616c72656164792066696e6973686564000000005f82015250565b5f6106b0601c83610439565b91506106bb8261067c565b602082019050919050565b5f6020820190508181035f8301526106dd816106a4565b9050919050565b7f4e756d626572206f7574206f662072616e6765000000000000000000000000005f82015250565b5f610718601383610439565b9150610723826106e4565b602082019050919050565b5f6020820190508181035f8301526107458161070c565b9050919050565b7f436f6e67726174756c6174696f6e732120596f752067756573736564207468655f8201527f206e756d62657220636f72726563746c79210000000000000000000000000000602082015250565b5f6107a6603283610439565b91506107b18261074c565b604082019050919050565b5f6020820190508181035f8301526107d38161079a565b9050919050565b7f536f7272792c20796f757220677565737320697320696e636f72726563742e205f8201527f54727920616761696e2100000000000000000000000000000000000000000000602082015250565b5f610834602a83610439565b915061083f826107da565b604082019050919050565b5f6020820190508181035f83015261086181610828565b905091905056fe546865206e756d626572206973206c657373207468616e206f7220657175616c20746f203530a2646970667358221220826df9ef6e8921a021759b369681b9f3e395b82bfe40c638e650efa027aa4cd264736f6c63430008180033",
					"opcodes": "PUSH1 0x80 PUSH1 0x40 MSTORE CALLVALUE DUP1 ISZERO PUSH3 0x10 JUMPI PUSH0 DUP1 REVERT JUMPDEST POP CALLER PUSH0 DUP1 PUSH2 0x100 EXP DUP2 SLOAD DUP2 PUSH20 0xFFFFFFFFFFFFFFFFFFFFFFFFFFFFFFFFFFFFFFFF MUL NOT AND SWAP1 DUP4 PUSH20 0xFFFFFFFFFFFFFFFFFFFFFFFFFFFFFFFFFFFFFFFF AND MUL OR SWAP1 SSTORE POP PUSH3 0x60 PUSH3 0x85 PUSH1 0x20 SHL PUSH1 0x20 SHR JUMP JUMPDEST PUSH1 0x1 DUP2 SWAP1 SSTORE POP PUSH0 PUSH1 0x2 PUSH0 PUSH2 0x100 EXP DUP2 SLOAD DUP2 PUSH1 0xFF MUL NOT AND SWAP1 DUP4 ISZERO ISZERO MUL OR SWAP1 SSTORE POP PUSH3 0x23E JUMP JUMPDEST PUSH0 PUSH1 0x64 TIMESTAMP PREVRANDAO PUSH1 0x1 NUMBER PUSH3 0x99 SWAP2 SWAP1 PUSH3 0x10D JUMP JUMPDEST BLOCKHASH PUSH1 0x40 MLOAD PUSH1 0x20 ADD PUSH3 0xAE SWAP4 SWAP3 SWAP2 SWAP1 PUSH3 0x198 JUMP JUMPDEST PUSH1 0x40 MLOAD PUSH1 0x20 DUP2 DUP4 SUB SUB DUP2 MSTORE SWAP1 PUSH1 0x40 MSTORE DUP1 MLOAD SWAP1 PUSH1 0x20 ADD KECCAK256 PUSH0 SHR PUSH3 0xD2 SWAP2 SWAP1 PUSH3 0x207 JUMP JUMPDEST SWAP1 POP SWAP1 JUMP JUMPDEST PUSH0 DUP2 SWAP1 POP SWAP2 SWAP1 POP JUMP JUMPDEST PUSH32 0x4E487B7100000000000000000000000000000000000000000000000000000000 PUSH0 MSTORE PUSH1 0x11 PUSH1 0x4 MSTORE PUSH1 0x24 PUSH0 REVERT JUMPDEST PUSH0 PUSH3 0x119 DUP3 PUSH3 0xD7 JUMP JUMPDEST SWAP2 POP PUSH3 0x126 DUP4 PUSH3 0xD7 JUMP JUMPDEST SWAP3 POP DUP3 DUP3 SUB SWAP1 POP DUP2 DUP2 GT ISZERO PUSH3 0x141 JUMPI PUSH3 0x140 PUSH3 0xE0 JUMP JUMPDEST JUMPDEST SWAP3 SWAP2 POP POP JUMP JUMPDEST PUSH0 DUP2 SWAP1 POP SWAP2 SWAP1 POP JUMP JUMPDEST PUSH3 0x165 PUSH3 0x15F DUP3 PUSH3 0xD7 JUMP JUMPDEST PUSH3 0x147 JUMP JUMPDEST DUP3 MSTORE POP POP JUMP JUMPDEST PUSH0 DUP2 SWAP1 POP SWAP2 SWAP1 POP JUMP JUMPDEST PUSH0 DUP2 SWAP1 POP SWAP2 SWAP1 POP JUMP JUMPDEST PUSH3 0x192 PUSH3 0x18C DUP3 PUSH3 0x16B JUMP JUMPDEST PUSH3 0x174 JUMP JUMPDEST DUP3 MSTORE POP POP JUMP JUMPDEST PUSH0 PUSH3 0x1A5 DUP3 DUP7 PUSH3 0x150 JUMP JUMPDEST PUSH1 0x20 DUP3 ADD SWAP2 POP PUSH3 0x1B7 DUP3 DUP6 PUSH3 0x150 JUMP JUMPDEST PUSH1 0x20 DUP3 ADD SWAP2 POP PUSH3 0x1C9 DUP3 DUP5 PUSH3 0x17D JUMP JUMPDEST PUSH1 0x20 DUP3 ADD SWAP2 POP DUP2 SWAP1 POP SWAP5 SWAP4 POP POP POP POP JUMP JUMPDEST PUSH32 0x4E487B7100000000000000000000000000000000000000000000000000000000 PUSH0 MSTORE PUSH1 0x12 PUSH1 0x4 MSTORE PUSH1 0x24 PUSH0 REVERT JUMPDEST PUSH0 PUSH3 0x213 DUP3 PUSH3 0xD7 JUMP JUMPDEST SWAP2 POP PUSH3 0x220 DUP4 PUSH3 0xD7 JUMP JUMPDEST SWAP3 POP DUP3 PUSH3 0x233 JUMPI PUSH3 0x232 PUSH3 0x1DA JUMP JUMPDEST JUMPDEST DUP3 DUP3 MOD SWAP1 POP SWAP3 SWAP2 POP POP JUMP JUMPDEST PUSH2 0x8C4 DUP1 PUSH3 0x24C PUSH0 CODECOPY PUSH0 RETURN INVALID PUSH1 0x80 PUSH1 0x40 MSTORE CALLVALUE DUP1 ISZERO PUSH2 0xF JUMPI PUSH0 DUP1 REVERT JUMPDEST POP PUSH1 0x4 CALLDATASIZE LT PUSH2 0x55 JUMPI PUSH0 CALLDATALOAD PUSH1 0xE0 SHR DUP1 PUSH4 0x41225071 EQ PUSH2 0x59 JUMPI DUP1 PUSH4 0x48DB5F89 EQ PUSH2 0x77 JUMPI DUP1 PUSH4 0x9189FEC1 EQ PUSH2 0x95 JUMPI DUP1 PUSH4 0xCCBAC9F5 EQ PUSH2 0xB1 JUMPI DUP1 PUSH4 0xEF890CC8 EQ PUSH2 0xCF JUMPI JUMPDEST PUSH0 DUP1 REVERT JUMPDEST PUSH2 0x61 PUSH2 0xED JUMP JUMPDEST PUSH1 0x40 MLOAD PUSH2 0x6E SWAP2 SWAP1 PUSH2 0x4B9 JUMP JUMPDEST PUSH1 0x40 MLOAD DUP1 SWAP2 SUB SWAP1 RETURN JUMPDEST PUSH2 0x7F PUSH2 0x232 JUMP JUMPDEST PUSH1 0x40 MLOAD PUSH2 0x8C SWAP2 SWAP1 PUSH2 0x518 JUMP JUMPDEST PUSH1 0x40 MLOAD DUP1 SWAP2 SUB SWAP1 RETURN JUMPDEST PUSH2 0xAF PUSH1 0x4 DUP1 CALLDATASIZE SUB DUP2 ADD SWAP1 PUSH2 0xAA SWAP2 SWAP1 PUSH2 0x568 JUMP JUMPDEST PUSH2 0x255 JUMP JUMPDEST STOP JUMPDEST PUSH2 0xB9 PUSH2 0x417 JUMP JUMPDEST PUSH1 0x40 MLOAD PUSH2 0xC6 SWAP2 SWAP1 PUSH2 0x5A2 JUMP JUMPDEST PUSH1 0x40 MLOAD DUP1 SWAP2 SUB SWAP1 RETURN JUMPDEST PUSH2 0xD7 PUSH2 0x41D JUMP JUMPDEST PUSH1 0x40 MLOAD PUSH2 0xE4 SWAP2 SWAP1 PUSH2 0x5D5 JUMP JUMPDEST PUSH1 0x40 MLOAD DUP1 SWAP2 SUB SWAP1 RETURN JUMPDEST PUSH1 0x60 PUSH0 DUP1 SLOAD SWAP1 PUSH2 0x100 EXP SWAP1 DIV PUSH20 0xFFFFFFFFFFFFFFFFFFFFFFFFFFFFFFFFFFFFFFFF AND PUSH20 0xFFFFFFFFFFFFFFFFFFFFFFFFFFFFFFFFFFFFFFFF AND CALLER PUSH20 0xFFFFFFFFFFFFFFFFFFFFFFFFFFFFFFFFFFFFFFFF AND EQ PUSH2 0x17C JUMPI PUSH1 0x40 MLOAD PUSH32 0x8C379A000000000000000000000000000000000000000000000000000000000 DUP2 MSTORE PUSH1 0x4 ADD PUSH2 0x173 SWAP1 PUSH2 0x65E JUMP JUMPDEST PUSH1 0x40 MLOAD DUP1 SWAP2 SUB SWAP1 REVERT JUMPDEST PUSH1 0x2 PUSH0 SWAP1 SLOAD SWAP1 PUSH2 0x100 EXP SWAP1 DIV PUSH1 0xFF AND ISZERO PUSH2 0x1CB JUMPI PUSH1 0x40 MLOAD PUSH32 0x8C379A000000000000000000000000000000000000000000000000000000000 DUP2 MSTORE PUSH1 0x4 ADD PUSH2 0x1C2 SWAP1 PUSH2 0x6C6 JUMP JUMPDEST PUSH1 0x40 MLOAD DUP1 SWAP2 SUB SWAP1 REVERT JUMPDEST PUSH1 0x32 PUSH1 0x1 SLOAD GT ISZERO PUSH2 0x213 JUMPI PUSH1 0x40 MLOAD DUP1 PUSH1 0x40 ADD PUSH1 0x40 MSTORE DUP1 PUSH1 0x1D DUP2 MSTORE PUSH1 0x20 ADD PUSH32 0x546865206E756D6265722069732067726561746572207468616E203530000000 DUP2 MSTORE POP SWAP1 POP PUSH2 0x22F JUMP JUMPDEST PUSH1 0x40 MLOAD DUP1 PUSH1 0x60 ADD PUSH1 0x40 MSTORE DUP1 PUSH1 0x26 DUP2 MSTORE PUSH1 0x20 ADD PUSH2 0x869 PUSH1 0x26 SWAP2 CODECOPY SWAP1 POP JUMPDEST SWAP1 JUMP JUMPDEST PUSH0 DUP1 SLOAD SWAP1 PUSH2 0x100 EXP SWAP1 DIV PUSH20 0xFFFFFFFFFFFFFFFFFFFFFFFFFFFFFFFFFFFFFFFF AND DUP2 JUMP JUMPDEST PUSH0 DUP1 SLOAD SWAP1 PUSH2 0x100 EXP SWAP1 DIV PUSH20 0xFFFFFFFFFFFFFFFFFFFFFFFFFFFFFFFFFFFFFFFF AND PUSH20 0xFFFFFFFFFFFFFFFFFFFFFFFFFFFFFFFFFFFFFFFF AND CALLER PUSH20 0xFFFFFFFFFFFFFFFFFFFFFFFFFFFFFFFFFFFFFFFF AND EQ PUSH2 0x2E2 JUMPI PUSH1 0x40 MLOAD PUSH32 0x8C379A000000000000000000000000000000000000000000000000000000000 DUP2 MSTORE PUSH1 0x4 ADD PUSH2 0x2D9 SWAP1 PUSH2 0x65E JUMP JUMPDEST PUSH1 0x40 MLOAD DUP1 SWAP2 SUB SWAP1 REVERT JUMPDEST PUSH1 0x2 PUSH0 SWAP1 SLOAD SWAP1 PUSH2 0x100 EXP SWAP1 DIV PUSH1 0xFF AND ISZERO PUSH2 0x331 JUMPI PUSH1 0x40 MLOAD PUSH32 0x8C379A000000000000000000000000000000000000000000000000000000000 DUP2 MSTORE PUSH1 0x4 ADD PUSH2 0x328 SWAP1 PUSH2 0x6C6 JUMP JUMPDEST PUSH1 0x40 MLOAD DUP1 SWAP2 SUB SWAP1 REVERT JUMPDEST PUSH0 DUP2 LT ISZERO DUP1 ISZERO PUSH2 0x342 JUMPI POP PUSH1 0x63 DUP2 GT ISZERO JUMPDEST PUSH2 0x381 JUMPI PUSH1 0x40 MLOAD PUSH32 0x8C379A000000000000000000000000000000000000000000000000000000000 DUP2 MSTORE PUSH1 0x4 ADD PUSH2 0x378 SWAP1 PUSH2 0x72E JUMP JUMPDEST PUSH1 0x40 MLOAD DUP1 SWAP2 SUB SWAP1 REVERT JUMPDEST PUSH1 0x1 SLOAD DUP2 SUB PUSH2 0x3DE JUMPI PUSH1 0x1 PUSH1 0x2 PUSH0 PUSH2 0x100 EXP DUP2 SLOAD DUP2 PUSH1 0xFF MUL NOT AND SWAP1 DUP4 ISZERO ISZERO MUL OR SWAP1 SSTORE POP PUSH32 0x96561394BAC381230DE4649200E8831AFCAB1F451881BBADE9EF209F6DD30480 PUSH1 0x40 MLOAD PUSH2 0x3D1 SWAP1 PUSH2 0x7BC JUMP JUMPDEST PUSH1 0x40 MLOAD DUP1 SWAP2 SUB SWAP1 LOG1 PUSH2 0x414 JUMP JUMPDEST PUSH32 0x96561394BAC381230DE4649200E8831AFCAB1F451881BBADE9EF209F6DD30480 PUSH1 0x40 MLOAD PUSH2 0x40B SWAP1 PUSH2 0x84A JUMP JUMPDEST PUSH1 0x40 MLOAD DUP1 SWAP2 SUB SWAP1 LOG1 JUMPDEST POP JUMP JUMPDEST PUSH1 0x1 SLOAD DUP2 JUMP JUMPDEST PUSH1 0x2 PUSH0 SWAP1 SLOAD SWAP1 PUSH2 0x100 EXP SWAP1 DIV PUSH1 0xFF AND DUP2 JUMP JUMPDEST PUSH0 DUP2 MLOAD SWAP1 POP SWAP2 SWAP1 POP JUMP JUMPDEST PUSH0 DUP3 DUP3 MSTORE PUSH1 0x20 DUP3 ADD SWAP1 POP SWAP3 SWAP2 POP POP JUMP JUMPDEST PUSH0 JUMPDEST DUP4 DUP2 LT ISZERO PUSH2 0x466 JUMPI DUP1 DUP3 ADD MLOAD DUP2 DUP5 ADD MSTORE PUSH1 0x20 DUP2 ADD SWAP1 POP PUSH2 0x44B JUMP JUMPDEST PUSH0 DUP5 DUP5 ADD MSTORE POP POP POP POP JUMP JUMPDEST PUSH0 PUSH1 0x1F NOT PUSH1 0x1F DUP4 ADD AND SWAP1 POP SWAP2 SWAP1 POP JUMP JUMPDEST PUSH0 PUSH2 0x48B DUP3 PUSH2 0x42F JUMP JUMPDEST PUSH2 0x495 DUP2 DUP6 PUSH2 0x439 JUMP JUMPDEST SWAP4 POP PUSH2 0x4A5 DUP2 DUP6 PUSH1 0x20 DUP7 ADD PUSH2 0x449 JUMP JUMPDEST PUSH2 0x4AE DUP2 PUSH2 0x471 JUMP JUMPDEST DUP5 ADD SWAP2 POP POP SWAP3 SWAP2 POP POP JUMP JUMPDEST PUSH0 PUSH1 0x20 DUP3 ADD SWAP1 POP DUP2 DUP2 SUB PUSH0 DUP4 ADD MSTORE PUSH2 0x4D1 DUP2 DUP5 PUSH2 0x481 JUMP JUMPDEST SWAP1 POP SWAP3 SWAP2 POP POP JUMP JUMPDEST PUSH0 PUSH20 0xFFFFFFFFFFFFFFFFFFFFFFFFFFFFFFFFFFFFFFFF DUP3 AND SWAP1 POP SWAP2 SWAP1 POP JUMP JUMPDEST PUSH0 PUSH2 0x502 DUP3 PUSH2 0x4D9 JUMP JUMPDEST SWAP1 POP SWAP2 SWAP1 POP JUMP JUMPDEST PUSH2 0x512 DUP2 PUSH2 0x4F8 JUMP JUMPDEST DUP3 MSTORE POP POP JUMP JUMPDEST PUSH0 PUSH1 0x20 DUP3 ADD SWAP1 POP PUSH2 0x52B PUSH0 DUP4 ADD DUP5 PUSH2 0x509 JUMP JUMPDEST SWAP3 SWAP2 POP POP JUMP JUMPDEST PUSH0 DUP1 REVERT JUMPDEST PUSH0 DUP2 SWAP1 POP SWAP2 SWAP1 POP JUMP JUMPDEST PUSH2 0x547 DUP2 PUSH2 0x535 JUMP JUMPDEST DUP2 EQ PUSH2 0x551 JUMPI PUSH0 DUP1 REVERT JUMPDEST POP JUMP JUMPDEST PUSH0 DUP2 CALLDATALOAD SWAP1 POP PUSH2 0x562 DUP2 PUSH2 0x53E JUMP JUMPDEST SWAP3 SWAP2 POP POP JUMP JUMPDEST PUSH0 PUSH1 0x20 DUP3 DUP5 SUB SLT ISZERO PUSH2 0x57D JUMPI PUSH2 0x57C PUSH2 0x531 JUMP JUMPDEST JUMPDEST PUSH0 PUSH2 0x58A DUP5 DUP3 DUP6 ADD PUSH2 0x554 JUMP JUMPDEST SWAP2 POP POP SWAP3 SWAP2 POP POP JUMP JUMPDEST PUSH2 0x59C DUP2 PUSH2 0x535 JUMP JUMPDEST DUP3 MSTORE POP POP JUMP JUMPDEST PUSH0 PUSH1 0x20 DUP3 ADD SWAP1 POP PUSH2 0x5B5 PUSH0 DUP4 ADD DUP5 PUSH2 0x593 JUMP JUMPDEST SWAP3 SWAP2 POP POP JUMP JUMPDEST PUSH0 DUP2 ISZERO ISZERO SWAP1 POP SWAP2 SWAP1 POP JUMP JUMPDEST PUSH2 0x5CF DUP2 PUSH2 0x5BB JUMP JUMPDEST DUP3 MSTORE POP POP JUMP JUMPDEST PUSH0 PUSH1 0x20 DUP3 ADD SWAP1 POP PUSH2 0x5E8 PUSH0 DUP4 ADD DUP5 PUSH2 0x5C6 JUMP JUMPDEST SWAP3 SWAP2 POP POP JUMP JUMPDEST PUSH32 0x4F6E6C792074686520706C617965722063616E20706572666F726D2074686973 PUSH0 DUP3 ADD MSTORE PUSH32 0x20616374696F6E00000000000000000000000000000000000000000000000000 PUSH1 0x20 DUP3 ADD MSTORE POP JUMP JUMPDEST PUSH0 PUSH2 0x648 PUSH1 0x27 DUP4 PUSH2 0x439 JUMP JUMPDEST SWAP2 POP PUSH2 0x653 DUP3 PUSH2 0x5EE JUMP JUMPDEST PUSH1 0x40 DUP3 ADD SWAP1 POP SWAP2 SWAP1 POP JUMP JUMPDEST PUSH0 PUSH1 0x20 DUP3 ADD SWAP1 POP DUP2 DUP2 SUB PUSH0 DUP4 ADD MSTORE PUSH2 0x675 DUP2 PUSH2 0x63C JUMP JUMPDEST SWAP1 POP SWAP2 SWAP1 POP JUMP JUMPDEST PUSH32 0x5468652067616D6520697320616C72656164792066696E697368656400000000 PUSH0 DUP3 ADD MSTORE POP JUMP JUMPDEST PUSH0 PUSH2 0x6B0 PUSH1 0x1C DUP4 PUSH2 0x439 JUMP JUMPDEST SWAP2 POP PUSH2 0x6BB DUP3 PUSH2 0x67C JUMP JUMPDEST PUSH1 0x20 DUP3 ADD SWAP1 POP SWAP2 SWAP1 POP JUMP JUMPDEST PUSH0 PUSH1 0x20 DUP3 ADD SWAP1 POP DUP2 DUP2 SUB PUSH0 DUP4 ADD MSTORE PUSH2 0x6DD DUP2 PUSH2 0x6A4 JUMP JUMPDEST SWAP1 POP SWAP2 SWAP1 POP JUMP JUMPDEST PUSH32 0x4E756D626572206F7574206F662072616E676500000000000000000000000000 PUSH0 DUP3 ADD MSTORE POP JUMP JUMPDEST PUSH0 PUSH2 0x718 PUSH1 0x13 DUP4 PUSH2 0x439 JUMP JUMPDEST SWAP2 POP PUSH2 0x723 DUP3 PUSH2 0x6E4 JUMP JUMPDEST PUSH1 0x20 DUP3 ADD SWAP1 POP SWAP2 SWAP1 POP JUMP JUMPDEST PUSH0 PUSH1 0x20 DUP3 ADD SWAP1 POP DUP2 DUP2 SUB PUSH0 DUP4 ADD MSTORE PUSH2 0x745 DUP2 PUSH2 0x70C JUMP JUMPDEST SWAP1 POP SWAP2 SWAP1 POP JUMP JUMPDEST PUSH32 0x436F6E67726174756C6174696F6E732120596F75206775657373656420746865 PUSH0 DUP3 ADD MSTORE PUSH32 0x206E756D62657220636F72726563746C79210000000000000000000000000000 PUSH1 0x20 DUP3 ADD MSTORE POP JUMP JUMPDEST PUSH0 PUSH2 0x7A6 PUSH1 0x32 DUP4 PUSH2 0x439 JUMP JUMPDEST SWAP2 POP PUSH2 0x7B1 DUP3 PUSH2 0x74C JUMP JUMPDEST PUSH1 0x40 DUP3 ADD SWAP1 POP SWAP2 SWAP1 POP JUMP JUMPDEST PUSH0 PUSH1 0x20 DUP3 ADD SWAP1 POP DUP2 DUP2 SUB PUSH0 DUP4 ADD MSTORE PUSH2 0x7D3 DUP2 PUSH2 0x79A JUMP JUMPDEST SWAP1 POP SWAP2 SWAP1 POP JUMP JUMPDEST PUSH32 0x536F7272792C20796F757220677565737320697320696E636F72726563742E20 PUSH0 DUP3 ADD MSTORE PUSH32 0x54727920616761696E2100000000000000000000000000000000000000000000 PUSH1 0x20 DUP3 ADD MSTORE POP JUMP JUMPDEST PUSH0 PUSH2 0x834 PUSH1 0x2A DUP4 PUSH2 0x439 JUMP JUMPDEST SWAP2 POP PUSH2 0x83F DUP3 PUSH2 0x7DA JUMP JUMPDEST PUSH1 0x40 DUP3 ADD SWAP1 POP SWAP2 SWAP1 POP JUMP JUMPDEST PUSH0 PUSH1 0x20 DUP3 ADD SWAP1 POP DUP2 DUP2 SUB PUSH0 DUP4 ADD MSTORE PUSH2 0x861 DUP2 PUSH2 0x828 JUMP JUMPDEST SWAP1 POP SWAP2 SWAP1 POP JUMP INVALID SLOAD PUSH9 0x65206E756D62657220 PUSH10 0x73206C65737320746861 PUSH15 0x206F7220657175616C20746F203530 LOG2 PUSH5 0x6970667358 0x22 SLT KECCAK256 DUP3 PUSH14 0xF9EF6E8921A021759B369681B9F3 0xE3 SWAP6 0xB8 0x2B INVALID BLOCKHASH 0xC6 CODESIZE 0xE6 POP 0xEF LOG0 0x27 0xAA 0x4C 0xD2 PUSH5 0x736F6C6343 STOP ADDMOD XOR STOP CALLER "
				},
				"gasEstimates": {
					"creation": {
						"codeDepositCost": "448800",
						"executionCost": "infinite",
						"totalCost": "infinite"
					},
					"external": {
						"getHint()": "infinite",
						"guess(uint256)": "33274",
						"isGameFinished()": "2532",
						"player()": "2505",
						"randomNumber()": "2469"
					},
					"internal": {
						"generateRandomNumber()": "infinite"
					}
				},
				"methodIdentifiers": {
					"getHint()": "41225071",
					"guess(uint256)": "9189fec1",
					"isGameFinished()": "ef890cc8",
					"player()": "48db5f89",
					"randomNumber()": "ccbac9f5"
				}
			},
			"storageLayout": {
				"storage": [
					{
						"astId": 3,
						"contract": "contracts/HelloWorld3.sol:GuessNumber",
						"label": "player",
						"offset": 0,
						"slot": "0",
						"type": "t_address"
					},
					{
						"astId": 5,
						"contract": "contracts/HelloWorld3.sol:GuessNumber",
						"label": "randomNumber",
						"offset": 0,
						"slot": "1",
						"type": "t_uint256"
					},
					{
						"astId": 7,
						"contract": "contracts/HelloWorld3.sol:GuessNumber",
						"label": "isGameFinished",
						"offset": 0,
						"slot": "2",
						"type": "t_bool"
					}
				],
				"types": {
					"t_address": {
						"encoding": "inplace",
						"label": "address",
						"numberOfBytes": "20"
					},
					"t_bool": {
						"encoding": "inplace",
						"label": "bool",
						"numberOfBytes": "1"
					},
					"t_uint256": {
						"encoding": "inplace",
						"label": "uint256",
						"numberOfBytes": "32"
					}
				}
			},
			"userdoc": {
				"kind": "user",
				"methods": {},
				"version": 1
			}
		}
	}
}