{
	"contracts/HelloWorld1.sol": {
		"DocumentSigning": {
			"abi": [
				{
					"inputs": [
						{
							"internalType": "bytes32",
							"name": "_merkleRoot",
							"type": "bytes32"
						},
						{
							"internalType": "address[]",
							"name": "_whitelist",
							"type": "address[]"
						}
					],
					"stateMutability": "nonpayable",
					"type": "constructor"
				},
				{
					"inputs": [
						{
							"internalType": "address",
							"name": "sender",
							"type": "address"
						},
						{
							"internalType": "uint256",
							"name": "tokenId",
							"type": "uint256"
						},
						{
							"internalType": "address",
							"name": "owner",
							"type": "address"
						}
					],
					"name": "ERC721IncorrectOwner",
					"type": "error"
				},
				{
					"inputs": [
						{
							"internalType": "address",
							"name": "operator",
							"type": "address"
						},
						{
							"internalType": "uint256",
							"name": "tokenId",
							"type": "uint256"
						}
					],
					"name": "ERC721InsufficientApproval",
					"type": "error"
				},
				{
					"inputs": [
						{
							"internalType": "address",
							"name": "approver",
							"type": "address"
						}
					],
					"name": "ERC721InvalidApprover",
					"type": "error"
				},
				{
					"inputs": [
						{
							"internalType": "address",
							"name": "operator",
							"type": "address"
						}
					],
					"name": "ERC721InvalidOperator",
					"type": "error"
				},
				{
					"inputs": [
						{
							"internalType": "address",
							"name": "owner",
							"type": "address"
						}
					],
					"name": "ERC721InvalidOwner",
					"type": "error"
				},
				{
					"inputs": [
						{
							"internalType": "address",
							"name": "receiver",
							"type": "address"
						}
					],
					"name": "ERC721InvalidReceiver",
					"type": "error"
				},
				{
					"inputs": [
						{
							"internalType": "address",
							"name": "sender",
							"type": "address"
						}
					],
					"name": "ERC721InvalidSender",
					"type": "error"
				},
				{
					"inputs": [
						{
							"internalType": "uint256",
							"name": "tokenId",
							"type": "uint256"
						}
					],
					"name": "ERC721NonexistentToken",
					"type": "error"
				},
				{
					"anonymous": false,
					"inputs": [
						{
							"indexed": true,
							"internalType": "address",
							"name": "owner",
							"type": "address"
						},
						{
							"indexed": true,
							"internalType": "address",
							"name": "approved",
							"type": "address"
						},
						{
							"indexed": true,
							"internalType": "uint256",
							"name": "tokenId",
							"type": "uint256"
						}
					],
					"name": "Approval",
					"type": "event"
				},
				{
					"anonymous": false,
					"inputs": [
						{
							"indexed": true,
							"internalType": "address",
							"name": "owner",
							"type": "address"
						},
						{
							"indexed": true,
							"internalType": "address",
							"name": "operator",
							"type": "address"
						},
						{
							"indexed": false,
							"internalType": "bool",
							"name": "approved",
							"type": "bool"
						}
					],
					"name": "ApprovalForAll",
					"type": "event"
				},
				{
					"anonymous": false,
					"inputs": [
						{
							"indexed": true,
							"internalType": "address",
							"name": "from",
							"type": "address"
						},
						{
							"indexed": true,
							"internalType": "address",
							"name": "to",
							"type": "address"
						},
						{
							"indexed": true,
							"internalType": "uint256",
							"name": "tokenId",
							"type": "uint256"
						}
					],
					"name": "Transfer",
					"type": "event"
				},
				{
					"inputs": [
						{
							"internalType": "address",
							"name": "to",
							"type": "address"
						},
						{
							"internalType": "uint256",
							"name": "tokenId",
							"type": "uint256"
						}
					],
					"name": "approve",
					"outputs": [],
					"stateMutability": "nonpayable",
					"type": "function"
				},
				{
					"inputs": [
						{
							"internalType": "address",
							"name": "owner",
							"type": "address"
						}
					],
					"name": "balanceOf",
					"outputs": [
						{
							"internalType": "uint256",
							"name": "",
							"type": "uint256"
						}
					],
					"stateMutability": "view",
					"type": "function"
				},
				{
					"inputs": [
						{
							"internalType": "address",
							"name": "_address",
							"type": "address"
						}
					],
					"name": "generateMerkleRoot",
					"outputs": [
						{
							"internalType": "bytes32",
							"name": "",
							"type": "bytes32"
						}
					],
					"stateMutability": "pure",
					"type": "function"
				},
				{
					"inputs": [
						{
							"internalType": "uint256",
							"name": "tokenId",
							"type": "uint256"
						}
					],
					"name": "getApproved",
					"outputs": [
						{
							"internalType": "address",
							"name": "",
							"type": "address"
						}
					],
					"stateMutability": "view",
					"type": "function"
				},
				{
					"inputs": [
						{
							"internalType": "address",
							"name": "owner",
							"type": "address"
						},
						{
							"internalType": "address",
							"name": "operator",
							"type": "address"
						}
					],
					"name": "isApprovedForAll",
					"outputs": [
						{
							"internalType": "bool",
							"name": "",
							"type": "bool"
						}
					],
					"stateMutability": "view",
					"type": "function"
				},
				{
					"inputs": [
						{
							"internalType": "address",
							"name": "_address",
							"type": "address"
						}
					],
					"name": "isWhitelisted",
					"outputs": [
						{
							"internalType": "bool",
							"name": "",
							"type": "bool"
						}
					],
					"stateMutability": "view",
					"type": "function"
				},
				{
					"inputs": [],
					"name": "merkleRoot",
					"outputs": [
						{
							"internalType": "bytes32",
							"name": "",
							"type": "bytes32"
						}
					],
					"stateMutability": "view",
					"type": "function"
				},
				{
					"inputs": [],
					"name": "name",
					"outputs": [
						{
							"internalType": "string",
							"name": "",
							"type": "string"
						}
					],
					"stateMutability": "view",
					"type": "function"
				},
				{
					"inputs": [
						{
							"internalType": "uint256",
							"name": "tokenId",
							"type": "uint256"
						}
					],
					"name": "ownerOf",
					"outputs": [
						{
							"internalType": "address",
							"name": "",
							"type": "address"
						}
					],
					"stateMutability": "view",
					"type": "function"
				},
				{
					"inputs": [
						{
							"internalType": "address",
							"name": "from",
							"type": "address"
						},
						{
							"internalType": "address",
							"name": "to",
							"type": "address"
						},
						{
							"internalType": "uint256",
							"name": "tokenId",
							"type": "uint256"
						}
					],
					"name": "safeTransferFrom",
					"outputs": [],
					"stateMutability": "nonpayable",
					"type": "function"
				},
				{
					"inputs": [
						{
							"internalType": "address",
							"name": "from",
							"type": "address"
						},
						{
							"internalType": "address",
							"name": "to",
							"type": "address"
						},
						{
							"internalType": "uint256",
							"name": "tokenId",
							"type": "uint256"
						},
						{
							"internalType": "bytes",
							"name": "data",
							"type": "bytes"
						}
					],
					"name": "safeTransferFrom",
					"outputs": [],
					"stateMutability": "nonpayable",
					"type": "function"
				},
				{
					"inputs": [
						{
							"internalType": "address",
							"name": "operator",
							"type": "address"
						},
						{
							"internalType": "bool",
							"name": "approved",
							"type": "bool"
						}
					],
					"name": "setApprovalForAll",
					"outputs": [],
					"stateMutability": "nonpayable",
					"type": "function"
				},
				{
					"inputs": [
						{
							"internalType": "bytes32[]",
							"name": "_proof",
							"type": "bytes32[]"
						}
					],
					"name": "signDocument",
					"outputs": [],
					"stateMutability": "nonpayable",
					"type": "function"
				},
				{
					"inputs": [
						{
							"internalType": "bytes4",
							"name": "interfaceId",
							"type": "bytes4"
						}
					],
					"name": "supportsInterface",
					"outputs": [
						{
							"internalType": "bool",
							"name": "",
							"type": "bool"
						}
					],
					"stateMutability": "view",
					"type": "function"
				},
				{
					"inputs": [],
					"name": "symbol",
					"outputs": [
						{
							"internalType": "string",
							"name": "",
							"type": "string"
						}
					],
					"stateMutability": "view",
					"type": "function"
				},
				{
					"inputs": [
						{
							"internalType": "uint256",
							"name": "tokenId",
							"type": "uint256"
						}
					],
					"name": "tokenURI",
					"outputs": [
						{
							"internalType": "string",
							"name": "",
							"type": "string"
						}
					],
					"stateMutability": "view",
					"type": "function"
				},
				{
					"inputs": [
						{
							"internalType": "address",
							"name": "from",
							"type": "address"
						},
						{
							"internalType": "address",
							"name": "to",
							"type": "address"
						},
						{
							"internalType": "uint256",
							"name": "tokenId",
							"type": "uint256"
						}
					],
					"name": "transferFrom",
					"outputs": [],
					"stateMutability": "nonpayable",
					"type": "function"
				},
				{
					"inputs": [
						{
							"internalType": "address",
							"name": "",
							"type": "address"
						}
					],
					"name": "whitelist",
					"outputs": [
						{
							"internalType": "bool",
							"name": "",
							"type": "bool"
						}
					],
					"stateMutability": "view",
					"type": "function"
				}
			],
			"devdoc": {
				"errors": {
					"ERC721IncorrectOwner(address,uint256,address)": [
						{
							"details": "Indicates an error related to the ownership over a particular token. Used in transfers.",
							"params": {
								"owner": "Address of the current owner of a token.",
								"sender": "Address whose tokens are being transferred.",
								"tokenId": "Identifier number of a token."
							}
						}
					],
					"ERC721InsufficientApproval(address,uint256)": [
						{
							"details": "Indicates a failure with the `operator`’s approval. Used in transfers.",
							"params": {
								"operator": "Address that may be allowed to operate on tokens without being their owner.",
								"tokenId": "Identifier number of a token."
							}
						}
					],
					"ERC721InvalidApprover(address)": [
						{
							"details": "Indicates a failure with the `approver` of a token to be approved. Used in approvals.",
							"params": {
								"approver": "Address initiating an approval operation."
							}
						}
					],
					"ERC721InvalidOperator(address)": [
						{
							"details": "Indicates a failure with the `operator` to be approved. Used in approvals.",
							"params": {
								"operator": "Address that may be allowed to operate on tokens without being their owner."
							}
						}
					],
					"ERC721InvalidOwner(address)": [
						{
							"details": "Indicates that an address can't be an owner. For example, `address(0)` is a forbidden owner in EIP-20. Used in balance queries.",
							"params": {
								"owner": "Address of the current owner of a token."
							}
						}
					],
					"ERC721InvalidReceiver(address)": [
						{
							"details": "Indicates a failure with the token `receiver`. Used in transfers.",
							"params": {
								"receiver": "Address to which tokens are being transferred."
							}
						}
					],
					"ERC721InvalidSender(address)": [
						{
							"details": "Indicates a failure with the token `sender`. Used in transfers.",
							"params": {
								"sender": "Address whose tokens are being transferred."
							}
						}
					],
					"ERC721NonexistentToken(uint256)": [
						{
							"details": "Indicates a `tokenId` whose `owner` is the zero address.",
							"params": {
								"tokenId": "Identifier number of a token."
							}
						}
					]
				},
				"events": {
					"Approval(address,address,uint256)": {
						"details": "Emitted when `owner` enables `approved` to manage the `tokenId` token."
					},
					"ApprovalForAll(address,address,bool)": {
						"details": "Emitted when `owner` enables or disables (`approved`) `operator` to manage all of its assets."
					},
					"Transfer(address,address,uint256)": {
						"details": "Emitted when `tokenId` token is transferred from `from` to `to`."
					}
				},
				"kind": "dev",
				"methods": {
					"approve(address,uint256)": {
						"details": "See {IERC721-approve}."
					},
					"balanceOf(address)": {
						"details": "See {IERC721-balanceOf}."
					},
					"getApproved(uint256)": {
						"details": "See {IERC721-getApproved}."
					},
					"isApprovedForAll(address,address)": {
						"details": "See {IERC721-isApprovedForAll}."
					},
					"name()": {
						"details": "See {IERC721Metadata-name}."
					},
					"ownerOf(uint256)": {
						"details": "See {IERC721-ownerOf}."
					},
					"safeTransferFrom(address,address,uint256)": {
						"details": "See {IERC721-safeTransferFrom}."
					},
					"safeTransferFrom(address,address,uint256,bytes)": {
						"details": "See {IERC721-safeTransferFrom}."
					},
					"setApprovalForAll(address,bool)": {
						"details": "See {IERC721-setApprovalForAll}."
					},
					"supportsInterface(bytes4)": {
						"details": "See {IERC165-supportsInterface}."
					},
					"symbol()": {
						"details": "See {IERC721Metadata-symbol}."
					},
					"tokenURI(uint256)": {
						"details": "See {IERC721Metadata-tokenURI}."
					},
					"transferFrom(address,address,uint256)": {
						"details": "See {IERC721-transferFrom}."
					}
				},
				"version": 1
			},
			"evm": {
				"assembly": "    /* \"contracts/HelloWorld1.sol\":185:1284  contract DocumentSigning is ERC721 {... */\n  mstore(0x40, 0x80)\n    /* \"contracts/HelloWorld1.sol\":333:579  constructor(bytes32 _merkleRoot, address[] memory _whitelist) ERC721(\"DocumentToken\", \"DT\") {... */\n  callvalue\n  dup1\n  iszero\n  tag_1\n  jumpi\n  0x00\n  dup1\n  revert\ntag_1:\n  pop\n  mload(0x40)\n  sub(codesize, bytecodeSize)\n  dup1\n  bytecodeSize\n  dup4\n  codecopy\n  dup2\n  dup2\n  add\n  0x40\n  mstore\n  dup2\n  add\n  swap1\n  tag_2\n  swap2\n  swap1\n  tag_3\n  jump\t// in\ntag_2:\n    /* \"@openzeppelin/contracts/token/ERC721/ERC721.sol\":1381:1494  constructor(string memory name_, string memory symbol_) {... */\n  mload(0x40)\n  dup1\n  0x40\n  add\n  0x40\n  mstore\n  dup1\n  0x0d\n  dup2\n  mstore\n  0x20\n  add\n  0x446f63756d656e74546f6b656e00000000000000000000000000000000000000\n  dup2\n  mstore\n  pop\n  mload(0x40)\n  dup1\n  0x40\n  add\n  0x40\n  mstore\n  dup1\n  0x02\n  dup2\n  mstore\n  0x20\n  add\n  0x4454000000000000000000000000000000000000000000000000000000000000\n  dup2\n  mstore\n  pop\n    /* \"@openzeppelin/contracts/token/ERC721/ERC721.sol\":1455:1460  name_ */\n  dup2\n    /* \"@openzeppelin/contracts/token/ERC721/ERC721.sol\":1447:1452  _name */\n  0x00\n    /* \"@openzeppelin/contracts/token/ERC721/ERC721.sol\":1447:1460  _name = name_ */\n  swap1\n  dup2\n  tag_7\n  swap2\n  swap1\n  tag_8\n  jump\t// in\ntag_7:\n  pop\n    /* \"@openzeppelin/contracts/token/ERC721/ERC721.sol\":1480:1487  symbol_ */\n  dup1\n    /* \"@openzeppelin/contracts/token/ERC721/ERC721.sol\":1470:1477  _symbol */\n  0x01\n    /* \"@openzeppelin/contracts/token/ERC721/ERC721.sol\":1470:1487  _symbol = symbol_ */\n  swap1\n  dup2\n  tag_9\n  swap2\n  swap1\n  tag_8\n  jump\t// in\ntag_9:\n  pop\n    /* \"@openzeppelin/contracts/token/ERC721/ERC721.sol\":1381:1494  constructor(string memory name_, string memory symbol_) {... */\n  pop\n  pop\n    /* \"contracts/HelloWorld1.sol\":448:459  _merkleRoot */\n  dup2\n    /* \"contracts/HelloWorld1.sol\":435:445  merkleRoot */\n  0x06\n    /* \"contracts/HelloWorld1.sol\":435:459  merkleRoot = _merkleRoot */\n  dup2\n  swap1\n  sstore\n  pop\n    /* \"contracts/HelloWorld1.sol\":474:483  uint256 i */\n  0x00\n    /* \"contracts/HelloWorld1.sol\":469:573  for (uint256 i = 0; i < _whitelist.length; i++) {... */\ntag_11:\n    /* \"contracts/HelloWorld1.sol\":493:503  _whitelist */\n  dup2\n    /* \"contracts/HelloWorld1.sol\":493:510  _whitelist.length */\n  mload\n    /* \"contracts/HelloWorld1.sol\":489:490  i */\n  dup2\n    /* \"contracts/HelloWorld1.sol\":489:510  i < _whitelist.length */\n  lt\n    /* \"contracts/HelloWorld1.sol\":469:573  for (uint256 i = 0; i < _whitelist.length; i++) {... */\n  iszero\n  tag_12\n  jumpi\n    /* \"contracts/HelloWorld1.sol\":558:562  true */\n  0x01\n    /* \"contracts/HelloWorld1.sol\":531:540  whitelist */\n  0x08\n    /* \"contracts/HelloWorld1.sol\":531:555  whitelist[_whitelist[i]] */\n  0x00\n    /* \"contracts/HelloWorld1.sol\":541:551  _whitelist */\n  dup5\n    /* \"contracts/HelloWorld1.sol\":552:553  i */\n  dup5\n    /* \"contracts/HelloWorld1.sol\":541:554  _whitelist[i] */\n  dup2\n  mload\n  dup2\n  lt\n  tag_14\n  jumpi\n  tag_15\n  tag_16\n  jump\t// in\ntag_15:\ntag_14:\n  0x20\n  mul\n  0x20\n  add\n  add\n  mload\n    /* \"contracts/HelloWorld1.sol\":531:555  whitelist[_whitelist[i]] */\n  0xffffffffffffffffffffffffffffffffffffffff\n  and\n  0xffffffffffffffffffffffffffffffffffffffff\n  and\n  dup2\n  mstore\n  0x20\n  add\n  swap1\n  dup2\n  mstore\n  0x20\n  add\n  0x00\n  keccak256\n  0x00\n    /* \"contracts/HelloWorld1.sol\":531:562  whitelist[_whitelist[i]] = true */\n  0x0100\n  exp\n  dup2\n  sload\n  dup2\n  0xff\n  mul\n  not\n  and\n  swap1\n  dup4\n  iszero\n  iszero\n  mul\n  or\n  swap1\n  sstore\n  pop\n    /* \"contracts/HelloWorld1.sol\":512:515  i++ */\n  dup1\n  dup1\n  0x01\n  add\n  swap2\n  pop\n  pop\n    /* \"contracts/HelloWorld1.sol\":469:573  for (uint256 i = 0; i < _whitelist.length; i++) {... */\n  jump(tag_11)\ntag_12:\n  pop\n    /* \"contracts/HelloWorld1.sol\":333:579  constructor(bytes32 _merkleRoot, address[] memory _whitelist) ERC721(\"DocumentToken\", \"DT\") {... */\n  pop\n  pop\n    /* \"contracts/HelloWorld1.sol\":185:1284  contract DocumentSigning is ERC721 {... */\n  jump(tag_17)\n    /* \"#utility.yul\":7:82   */\ntag_18:\n    /* \"#utility.yul\":40:46   */\n  0x00\n    /* \"#utility.yul\":73:75   */\n  0x40\n    /* \"#utility.yul\":67:76   */\n  mload\n    /* \"#utility.yul\":57:76   */\n  swap1\n  pop\n    /* \"#utility.yul\":7:82   */\n  swap1\n  jump\t// out\n    /* \"#utility.yul\":88:205   */\ntag_19:\n    /* \"#utility.yul\":197:198   */\n  0x00\n    /* \"#utility.yul\":194:195   */\n  dup1\n    /* \"#utility.yul\":187:199   */\n  revert\n    /* \"#utility.yul\":211:328   */\ntag_20:\n    /* \"#utility.yul\":320:321   */\n  0x00\n    /* \"#utility.yul\":317:318   */\n  dup1\n    /* \"#utility.yul\":310:322   */\n  revert\n    /* \"#utility.yul\":334:411   */\ntag_21:\n    /* \"#utility.yul\":371:378   */\n  0x00\n    /* \"#utility.yul\":400:405   */\n  dup2\n    /* \"#utility.yul\":389:405   */\n  swap1\n  pop\n    /* \"#utility.yul\":334:411   */\n  swap2\n  swap1\n  pop\n  jump\t// out\n    /* \"#utility.yul\":417:539   */\ntag_22:\n    /* \"#utility.yul\":490:514   */\n  tag_62\n    /* \"#utility.yul\":508:513   */\n  dup2\n    /* \"#utility.yul\":490:514   */\n  tag_21\n  jump\t// in\ntag_62:\n    /* \"#utility.yul\":483:488   */\n  dup2\n    /* \"#utility.yul\":480:515   */\n  eq\n    /* \"#utility.yul\":470:533   */\n  tag_63\n  jumpi\n    /* \"#utility.yul\":529:530   */\n  0x00\n    /* \"#utility.yul\":526:527   */\n  dup1\n    /* \"#utility.yul\":519:531   */\n  revert\n    /* \"#utility.yul\":470:533   */\ntag_63:\n    /* \"#utility.yul\":417:539   */\n  pop\n  jump\t// out\n    /* \"#utility.yul\":545:688   */\ntag_23:\n    /* \"#utility.yul\":602:607   */\n  0x00\n    /* \"#utility.yul\":633:639   */\n  dup2\n    /* \"#utility.yul\":627:640   */\n  mload\n    /* \"#utility.yul\":618:640   */\n  swap1\n  pop\n    /* \"#utility.yul\":649:682   */\n  tag_65\n    /* \"#utility.yul\":676:681   */\n  dup2\n    /* \"#utility.yul\":649:682   */\n  tag_22\n  jump\t// in\ntag_65:\n    /* \"#utility.yul\":545:688   */\n  swap3\n  swap2\n  pop\n  pop\n  jump\t// out\n    /* \"#utility.yul\":694:811   */\ntag_24:\n    /* \"#utility.yul\":803:804   */\n  0x00\n    /* \"#utility.yul\":800:801   */\n  dup1\n    /* \"#utility.yul\":793:805   */\n  revert\n    /* \"#utility.yul\":817:919   */\ntag_25:\n    /* \"#utility.yul\":858:864   */\n  0x00\n    /* \"#utility.yul\":909:911   */\n  0x1f\n    /* \"#utility.yul\":905:912   */\n  not\n    /* \"#utility.yul\":900:902   */\n  0x1f\n    /* \"#utility.yul\":893:898   */\n  dup4\n    /* \"#utility.yul\":889:903   */\n  add\n    /* \"#utility.yul\":885:913   */\n  and\n    /* \"#utility.yul\":875:913   */\n  swap1\n  pop\n    /* \"#utility.yul\":817:919   */\n  swap2\n  swap1\n  pop\n  jump\t// out\n    /* \"#utility.yul\":925:1105   */\ntag_26:\n    /* \"#utility.yul\":973:1050   */\n  0x4e487b7100000000000000000000000000000000000000000000000000000000\n    /* \"#utility.yul\":970:971   */\n  0x00\n    /* \"#utility.yul\":963:1051   */\n  mstore\n    /* \"#utility.yul\":1070:1074   */\n  0x41\n    /* \"#utility.yul\":1067:1068   */\n  0x04\n    /* \"#utility.yul\":1060:1075   */\n  mstore\n    /* \"#utility.yul\":1094:1098   */\n  0x24\n    /* \"#utility.yul\":1091:1092   */\n  0x00\n    /* \"#utility.yul\":1084:1099   */\n  revert\n    /* \"#utility.yul\":1111:1392   */\ntag_27:\n    /* \"#utility.yul\":1194:1221   */\n  tag_70\n    /* \"#utility.yul\":1216:1220   */\n  dup3\n    /* \"#utility.yul\":1194:1221   */\n  tag_25\n  jump\t// in\ntag_70:\n    /* \"#utility.yul\":1186:1192   */\n  dup2\n    /* \"#utility.yul\":1182:1222   */\n  add\n    /* \"#utility.yul\":1324:1330   */\n  dup2\n    /* \"#utility.yul\":1312:1322   */\n  dup2\n    /* \"#utility.yul\":1309:1331   */\n  lt\n    /* \"#utility.yul\":1288:1306   */\n  0xffffffffffffffff\n    /* \"#utility.yul\":1276:1286   */\n  dup3\n    /* \"#utility.yul\":1273:1307   */\n  gt\n    /* \"#utility.yul\":1270:1332   */\n  or\n    /* \"#utility.yul\":1267:1355   */\n  iszero\n  tag_71\n  jumpi\n    /* \"#utility.yul\":1335:1353   */\n  tag_72\n  tag_26\n  jump\t// in\ntag_72:\n    /* \"#utility.yul\":1267:1355   */\ntag_71:\n    /* \"#utility.yul\":1375:1385   */\n  dup1\n    /* \"#utility.yul\":1371:1373   */\n  0x40\n    /* \"#utility.yul\":1364:1386   */\n  mstore\n    /* \"#utility.yul\":1154:1392   */\n  pop\n    /* \"#utility.yul\":1111:1392   */\n  pop\n  pop\n  jump\t// out\n    /* \"#utility.yul\":1398:1527   */\ntag_28:\n    /* \"#utility.yul\":1432:1438   */\n  0x00\n    /* \"#utility.yul\":1459:1479   */\n  tag_74\n  tag_18\n  jump\t// in\ntag_74:\n    /* \"#utility.yul\":1449:1479   */\n  swap1\n  pop\n    /* \"#utility.yul\":1488:1521   */\n  tag_75\n    /* \"#utility.yul\":1516:1520   */\n  dup3\n    /* \"#utility.yul\":1508:1514   */\n  dup3\n    /* \"#utility.yul\":1488:1521   */\n  tag_27\n  jump\t// in\ntag_75:\n    /* \"#utility.yul\":1398:1527   */\n  swap2\n  swap1\n  pop\n  jump\t// out\n    /* \"#utility.yul\":1533:1844   */\ntag_29:\n    /* \"#utility.yul\":1610:1614   */\n  0x00\n    /* \"#utility.yul\":1700:1718   */\n  0xffffffffffffffff\n    /* \"#utility.yul\":1692:1698   */\n  dup3\n    /* \"#utility.yul\":1689:1719   */\n  gt\n    /* \"#utility.yul\":1686:1742   */\n  iszero\n  tag_77\n  jumpi\n    /* \"#utility.yul\":1722:1740   */\n  tag_78\n  tag_26\n  jump\t// in\ntag_78:\n    /* \"#utility.yul\":1686:1742   */\ntag_77:\n    /* \"#utility.yul\":1772:1776   */\n  0x20\n    /* \"#utility.yul\":1764:1770   */\n  dup3\n    /* \"#utility.yul\":1760:1777   */\n  mul\n    /* \"#utility.yul\":1752:1777   */\n  swap1\n  pop\n    /* \"#utility.yul\":1832:1836   */\n  0x20\n    /* \"#utility.yul\":1826:1830   */\n  dup2\n    /* \"#utility.yul\":1822:1837   */\n  add\n    /* \"#utility.yul\":1814:1837   */\n  swap1\n  pop\n    /* \"#utility.yul\":1533:1844   */\n  swap2\n  swap1\n  pop\n  jump\t// out\n    /* \"#utility.yul\":1850:1967   */\ntag_30:\n    /* \"#utility.yul\":1959:1960   */\n  0x00\n    /* \"#utility.yul\":1956:1957   */\n  dup1\n    /* \"#utility.yul\":1949:1961   */\n  revert\n    /* \"#utility.yul\":1973:2099   */\ntag_31:\n    /* \"#utility.yul\":2010:2017   */\n  0x00\n    /* \"#utility.yul\":2050:2092   */\n  0xffffffffffffffffffffffffffffffffffffffff\n    /* \"#utility.yul\":2043:2048   */\n  dup3\n    /* \"#utility.yul\":2039:2093   */\n  and\n    /* \"#utility.yul\":2028:2093   */\n  swap1\n  pop\n    /* \"#utility.yul\":1973:2099   */\n  swap2\n  swap1\n  pop\n  jump\t// out\n    /* \"#utility.yul\":2105:2201   */\ntag_32:\n    /* \"#utility.yul\":2142:2149   */\n  0x00\n    /* \"#utility.yul\":2171:2195   */\n  tag_82\n    /* \"#utility.yul\":2189:2194   */\n  dup3\n    /* \"#utility.yul\":2171:2195   */\n  tag_31\n  jump\t// in\ntag_82:\n    /* \"#utility.yul\":2160:2195   */\n  swap1\n  pop\n    /* \"#utility.yul\":2105:2201   */\n  swap2\n  swap1\n  pop\n  jump\t// out\n    /* \"#utility.yul\":2207:2329   */\ntag_33:\n    /* \"#utility.yul\":2280:2304   */\n  tag_84\n    /* \"#utility.yul\":2298:2303   */\n  dup2\n    /* \"#utility.yul\":2280:2304   */\n  tag_32\n  jump\t// in\ntag_84:\n    /* \"#utility.yul\":2273:2278   */\n  dup2\n    /* \"#utility.yul\":2270:2305   */\n  eq\n    /* \"#utility.yul\":2260:2323   */\n  tag_85\n  jumpi\n    /* \"#utility.yul\":2319:2320   */\n  0x00\n    /* \"#utility.yul\":2316:2317   */\n  dup1\n    /* \"#utility.yul\":2309:2321   */\n  revert\n    /* \"#utility.yul\":2260:2323   */\ntag_85:\n    /* \"#utility.yul\":2207:2329   */\n  pop\n  jump\t// out\n    /* \"#utility.yul\":2335:2478   */\ntag_34:\n    /* \"#utility.yul\":2392:2397   */\n  0x00\n    /* \"#utility.yul\":2423:2429   */\n  dup2\n    /* \"#utility.yul\":2417:2430   */\n  mload\n    /* \"#utility.yul\":2408:2430   */\n  swap1\n  pop\n    /* \"#utility.yul\":2439:2472   */\n  tag_87\n    /* \"#utility.yul\":2466:2471   */\n  dup2\n    /* \"#utility.yul\":2439:2472   */\n  tag_33\n  jump\t// in\ntag_87:\n    /* \"#utility.yul\":2335:2478   */\n  swap3\n  swap2\n  pop\n  pop\n  jump\t// out\n    /* \"#utility.yul\":2501:3233   */\ntag_35:\n    /* \"#utility.yul\":2608:2613   */\n  0x00\n    /* \"#utility.yul\":2633:2714   */\n  tag_89\n    /* \"#utility.yul\":2649:2713   */\n  tag_90\n    /* \"#utility.yul\":2706:2712   */\n  dup5\n    /* \"#utility.yul\":2649:2713   */\n  tag_29\n  jump\t// in\ntag_90:\n    /* \"#utility.yul\":2633:2714   */\n  tag_28\n  jump\t// in\ntag_89:\n    /* \"#utility.yul\":2624:2714   */\n  swap1\n  pop\n    /* \"#utility.yul\":2734:2739   */\n  dup1\n    /* \"#utility.yul\":2763:2769   */\n  dup4\n    /* \"#utility.yul\":2756:2761   */\n  dup3\n    /* \"#utility.yul\":2749:2770   */\n  mstore\n    /* \"#utility.yul\":2797:2801   */\n  0x20\n    /* \"#utility.yul\":2790:2795   */\n  dup3\n    /* \"#utility.yul\":2786:2802   */\n  add\n    /* \"#utility.yul\":2779:2802   */\n  swap1\n  pop\n    /* \"#utility.yul\":2850:2854   */\n  0x20\n    /* \"#utility.yul\":2842:2848   */\n  dup5\n    /* \"#utility.yul\":2838:2855   */\n  mul\n    /* \"#utility.yul\":2830:2836   */\n  dup4\n    /* \"#utility.yul\":2826:2856   */\n  add\n    /* \"#utility.yul\":2879:2882   */\n  dup6\n    /* \"#utility.yul\":2871:2877   */\n  dup2\n    /* \"#utility.yul\":2868:2883   */\n  gt\n    /* \"#utility.yul\":2865:2987   */\n  iszero\n  tag_91\n  jumpi\n    /* \"#utility.yul\":2898:2977   */\n  tag_92\n  tag_30\n  jump\t// in\ntag_92:\n    /* \"#utility.yul\":2865:2987   */\ntag_91:\n    /* \"#utility.yul\":3013:3019   */\n  dup4\n    /* \"#utility.yul\":2996:3227   */\ntag_93:\n    /* \"#utility.yul\":3030:3036   */\n  dup2\n    /* \"#utility.yul\":3025:3028   */\n  dup2\n    /* \"#utility.yul\":3022:3037   */\n  lt\n    /* \"#utility.yul\":2996:3227   */\n  iszero\n  tag_95\n  jumpi\n    /* \"#utility.yul\":3105:3108   */\n  dup1\n    /* \"#utility.yul\":3134:3182   */\n  tag_96\n    /* \"#utility.yul\":3178:3181   */\n  dup9\n    /* \"#utility.yul\":3166:3176   */\n  dup3\n    /* \"#utility.yul\":3134:3182   */\n  tag_34\n  jump\t// in\ntag_96:\n    /* \"#utility.yul\":3129:3132   */\n  dup5\n    /* \"#utility.yul\":3122:3183   */\n  mstore\n    /* \"#utility.yul\":3212:3216   */\n  0x20\n    /* \"#utility.yul\":3207:3210   */\n  dup5\n    /* \"#utility.yul\":3203:3217   */\n  add\n    /* \"#utility.yul\":3196:3217   */\n  swap4\n  pop\n    /* \"#utility.yul\":3072:3227   */\n  pop\n    /* \"#utility.yul\":3056:3060   */\n  0x20\n    /* \"#utility.yul\":3051:3054   */\n  dup2\n    /* \"#utility.yul\":3047:3061   */\n  add\n    /* \"#utility.yul\":3040:3061   */\n  swap1\n  pop\n    /* \"#utility.yul\":2996:3227   */\n  jump(tag_93)\ntag_95:\n    /* \"#utility.yul\":3000:3021   */\n  pop\n    /* \"#utility.yul\":2614:3233   */\n  pop\n  pop\n    /* \"#utility.yul\":2501:3233   */\n  swap4\n  swap3\n  pop\n  pop\n  pop\n  jump\t// out\n    /* \"#utility.yul\":3256:3641   */\ntag_36:\n    /* \"#utility.yul\":3338:3343   */\n  0x00\n    /* \"#utility.yul\":3387:3390   */\n  dup3\n    /* \"#utility.yul\":3380:3384   */\n  0x1f\n    /* \"#utility.yul\":3372:3378   */\n  dup4\n    /* \"#utility.yul\":3368:3385   */\n  add\n    /* \"#utility.yul\":3364:3391   */\n  slt\n    /* \"#utility.yul\":3354:3476   */\n  tag_98\n  jumpi\n    /* \"#utility.yul\":3395:3474   */\n  tag_99\n  tag_24\n  jump\t// in\ntag_99:\n    /* \"#utility.yul\":3354:3476   */\ntag_98:\n    /* \"#utility.yul\":3505:3511   */\n  dup2\n    /* \"#utility.yul\":3499:3512   */\n  mload\n    /* \"#utility.yul\":3530:3635   */\n  tag_100\n    /* \"#utility.yul\":3631:3634   */\n  dup5\n    /* \"#utility.yul\":3623:3629   */\n  dup3\n    /* \"#utility.yul\":3616:3620   */\n  0x20\n    /* \"#utility.yul\":3608:3614   */\n  dup7\n    /* \"#utility.yul\":3604:3621   */\n  add\n    /* \"#utility.yul\":3530:3635   */\n  tag_35\n  jump\t// in\ntag_100:\n    /* \"#utility.yul\":3521:3635   */\n  swap2\n  pop\n    /* \"#utility.yul\":3344:3641   */\n  pop\n    /* \"#utility.yul\":3256:3641   */\n  swap3\n  swap2\n  pop\n  pop\n  jump\t// out\n    /* \"#utility.yul\":3647:4357   */\ntag_3:\n    /* \"#utility.yul\":3751:3757   */\n  0x00\n    /* \"#utility.yul\":3759:3765   */\n  dup1\n    /* \"#utility.yul\":3808:3810   */\n  0x40\n    /* \"#utility.yul\":3796:3805   */\n  dup4\n    /* \"#utility.yul\":3787:3794   */\n  dup6\n    /* \"#utility.yul\":3783:3806   */\n  sub\n    /* \"#utility.yul\":3779:3811   */\n  slt\n    /* \"#utility.yul\":3776:3895   */\n  iszero\n  tag_102\n  jumpi\n    /* \"#utility.yul\":3814:3893   */\n  tag_103\n  tag_19\n  jump\t// in\ntag_103:\n    /* \"#utility.yul\":3776:3895   */\ntag_102:\n    /* \"#utility.yul\":3934:3935   */\n  0x00\n    /* \"#utility.yul\":3959:4023   */\n  tag_104\n    /* \"#utility.yul\":4015:4022   */\n  dup6\n    /* \"#utility.yul\":4006:4012   */\n  dup3\n    /* \"#utility.yul\":3995:4004   */\n  dup7\n    /* \"#utility.yul\":3991:4013   */\n  add\n    /* \"#utility.yul\":3959:4023   */\n  tag_23\n  jump\t// in\ntag_104:\n    /* \"#utility.yul\":3949:4023   */\n  swap3\n  pop\n    /* \"#utility.yul\":3905:4033   */\n  pop\n    /* \"#utility.yul\":4093:4095   */\n  0x20\n    /* \"#utility.yul\":4082:4091   */\n  dup4\n    /* \"#utility.yul\":4078:4096   */\n  add\n    /* \"#utility.yul\":4072:4097   */\n  mload\n    /* \"#utility.yul\":4124:4142   */\n  0xffffffffffffffff\n    /* \"#utility.yul\":4116:4122   */\n  dup2\n    /* \"#utility.yul\":4113:4143   */\n  gt\n    /* \"#utility.yul\":4110:4227   */\n  iszero\n  tag_105\n  jumpi\n    /* \"#utility.yul\":4146:4225   */\n  tag_106\n  tag_20\n  jump\t// in\ntag_106:\n    /* \"#utility.yul\":4110:4227   */\ntag_105:\n    /* \"#utility.yul\":4251:4340   */\n  tag_107\n    /* \"#utility.yul\":4332:4339   */\n  dup6\n    /* \"#utility.yul\":4323:4329   */\n  dup3\n    /* \"#utility.yul\":4312:4321   */\n  dup7\n    /* \"#utility.yul\":4308:4330   */\n  add\n    /* \"#utility.yul\":4251:4340   */\n  tag_36\n  jump\t// in\ntag_107:\n    /* \"#utility.yul\":4241:4340   */\n  swap2\n  pop\n    /* \"#utility.yul\":4043:4350   */\n  pop\n    /* \"#utility.yul\":3647:4357   */\n  swap3\n  pop\n  swap3\n  swap1\n  pop\n  jump\t// out\n    /* \"#utility.yul\":4363:4462   */\ntag_37:\n    /* \"#utility.yul\":4415:4421   */\n  0x00\n    /* \"#utility.yul\":4449:4454   */\n  dup2\n    /* \"#utility.yul\":4443:4455   */\n  mload\n    /* \"#utility.yul\":4433:4455   */\n  swap1\n  pop\n    /* \"#utility.yul\":4363:4462   */\n  swap2\n  swap1\n  pop\n  jump\t// out\n    /* \"#utility.yul\":4468:4648   */\ntag_38:\n    /* \"#utility.yul\":4516:4593   */\n  0x4e487b7100000000000000000000000000000000000000000000000000000000\n    /* \"#utility.yul\":4513:4514   */\n  0x00\n    /* \"#utility.yul\":4506:4594   */\n  mstore\n    /* \"#utility.yul\":4613:4617   */\n  0x22\n    /* \"#utility.yul\":4610:4611   */\n  0x04\n    /* \"#utility.yul\":4603:4618   */\n  mstore\n    /* \"#utility.yul\":4637:4641   */\n  0x24\n    /* \"#utility.yul\":4634:4635   */\n  0x00\n    /* \"#utility.yul\":4627:4642   */\n  revert\n    /* \"#utility.yul\":4654:4974   */\ntag_39:\n    /* \"#utility.yul\":4698:4704   */\n  0x00\n    /* \"#utility.yul\":4735:4736   */\n  0x02\n    /* \"#utility.yul\":4729:4733   */\n  dup3\n    /* \"#utility.yul\":4725:4737   */\n  div\n    /* \"#utility.yul\":4715:4737   */\n  swap1\n  pop\n    /* \"#utility.yul\":4782:4783   */\n  0x01\n    /* \"#utility.yul\":4776:4780   */\n  dup3\n    /* \"#utility.yul\":4772:4784   */\n  and\n    /* \"#utility.yul\":4803:4821   */\n  dup1\n    /* \"#utility.yul\":4793:4874   */\n  tag_111\n  jumpi\n    /* \"#utility.yul\":4859:4863   */\n  0x7f\n    /* \"#utility.yul\":4851:4857   */\n  dup3\n    /* \"#utility.yul\":4847:4864   */\n  and\n    /* \"#utility.yul\":4837:4864   */\n  swap2\n  pop\n    /* \"#utility.yul\":4793:4874   */\ntag_111:\n    /* \"#utility.yul\":4921:4923   */\n  0x20\n    /* \"#utility.yul\":4913:4919   */\n  dup3\n    /* \"#utility.yul\":4910:4924   */\n  lt\n    /* \"#utility.yul\":4890:4908   */\n  dup2\n    /* \"#utility.yul\":4887:4925   */\n  sub\n    /* \"#utility.yul\":4884:4968   */\n  tag_112\n  jumpi\n    /* \"#utility.yul\":4940:4958   */\n  tag_113\n  tag_38\n  jump\t// in\ntag_113:\n    /* \"#utility.yul\":4884:4968   */\ntag_112:\n    /* \"#utility.yul\":4705:4974   */\n  pop\n    /* \"#utility.yul\":4654:4974   */\n  swap2\n  swap1\n  pop\n  jump\t// out\n    /* \"#utility.yul\":4980:5121   */\ntag_40:\n    /* \"#utility.yul\":5029:5033   */\n  0x00\n    /* \"#utility.yul\":5052:5055   */\n  dup2\n    /* \"#utility.yul\":5044:5055   */\n  swap1\n  pop\n    /* \"#utility.yul\":5075:5078   */\n  dup2\n    /* \"#utility.yul\":5072:5073   */\n  0x00\n    /* \"#utility.yul\":5065:5079   */\n  mstore\n    /* \"#utility.yul\":5109:5113   */\n  0x20\n    /* \"#utility.yul\":5106:5107   */\n  0x00\n    /* \"#utility.yul\":5096:5114   */\n  keccak256\n    /* \"#utility.yul\":5088:5114   */\n  swap1\n  pop\n    /* \"#utility.yul\":4980:5121   */\n  swap2\n  swap1\n  pop\n  jump\t// out\n    /* \"#utility.yul\":5127:5220   */\ntag_41:\n    /* \"#utility.yul\":5164:5170   */\n  0x00\n    /* \"#utility.yul\":5211:5213   */\n  0x20\n    /* \"#utility.yul\":5206:5208   */\n  0x1f\n    /* \"#utility.yul\":5199:5204   */\n  dup4\n    /* \"#utility.yul\":5195:5209   */\n  add\n    /* \"#utility.yul\":5191:5214   */\n  div\n    /* \"#utility.yul\":5181:5214   */\n  swap1\n  pop\n    /* \"#utility.yul\":5127:5220   */\n  swap2\n  swap1\n  pop\n  jump\t// out\n    /* \"#utility.yul\":5226:5333   */\ntag_42:\n    /* \"#utility.yul\":5270:5278   */\n  0x00\n    /* \"#utility.yul\":5320:5325   */\n  dup3\n    /* \"#utility.yul\":5314:5318   */\n  dup3\n    /* \"#utility.yul\":5310:5326   */\n  shl\n    /* \"#utility.yul\":5289:5326   */\n  swap1\n  pop\n    /* \"#utility.yul\":5226:5333   */\n  swap3\n  swap2\n  pop\n  pop\n  jump\t// out\n    /* \"#utility.yul\":5339:5732   */\ntag_43:\n    /* \"#utility.yul\":5408:5414   */\n  0x00\n    /* \"#utility.yul\":5458:5459   */\n  0x08\n    /* \"#utility.yul\":5446:5456   */\n  dup4\n    /* \"#utility.yul\":5442:5460   */\n  mul\n    /* \"#utility.yul\":5481:5578   */\n  tag_118\n    /* \"#utility.yul\":5511:5577   */\n  0xffffffffffffffffffffffffffffffffffffffffffffffffffffffffffffffff\n    /* \"#utility.yul\":5500:5509   */\n  dup3\n    /* \"#utility.yul\":5481:5578   */\n  tag_42\n  jump\t// in\ntag_118:\n    /* \"#utility.yul\":5599:5638   */\n  tag_119\n    /* \"#utility.yul\":5629:5637   */\n  dup7\n    /* \"#utility.yul\":5618:5627   */\n  dup4\n    /* \"#utility.yul\":5599:5638   */\n  tag_42\n  jump\t// in\ntag_119:\n    /* \"#utility.yul\":5587:5638   */\n  swap6\n  pop\n    /* \"#utility.yul\":5671:5675   */\n  dup1\n    /* \"#utility.yul\":5667:5676   */\n  not\n    /* \"#utility.yul\":5660:5665   */\n  dup5\n    /* \"#utility.yul\":5656:5677   */\n  and\n    /* \"#utility.yul\":5647:5677   */\n  swap4\n  pop\n    /* \"#utility.yul\":5720:5724   */\n  dup1\n    /* \"#utility.yul\":5710:5718   */\n  dup7\n    /* \"#utility.yul\":5706:5725   */\n  and\n    /* \"#utility.yul\":5699:5704   */\n  dup5\n    /* \"#utility.yul\":5696:5726   */\n  or\n    /* \"#utility.yul\":5686:5726   */\n  swap3\n  pop\n    /* \"#utility.yul\":5415:5732   */\n  pop\n  pop\n    /* \"#utility.yul\":5339:5732   */\n  swap4\n  swap3\n  pop\n  pop\n  pop\n  jump\t// out\n    /* \"#utility.yul\":5738:5815   */\ntag_44:\n    /* \"#utility.yul\":5775:5782   */\n  0x00\n    /* \"#utility.yul\":5804:5809   */\n  dup2\n    /* \"#utility.yul\":5793:5809   */\n  swap1\n  pop\n    /* \"#utility.yul\":5738:5815   */\n  swap2\n  swap1\n  pop\n  jump\t// out\n    /* \"#utility.yul\":5821:5881   */\ntag_45:\n    /* \"#utility.yul\":5849:5852   */\n  0x00\n    /* \"#utility.yul\":5870:5875   */\n  dup2\n    /* \"#utility.yul\":5863:5875   */\n  swap1\n  pop\n    /* \"#utility.yul\":5821:5881   */\n  swap2\n  swap1\n  pop\n  jump\t// out\n    /* \"#utility.yul\":5887:6029   */\ntag_46:\n    /* \"#utility.yul\":5937:5946   */\n  0x00\n    /* \"#utility.yul\":5970:6023   */\n  tag_123\n    /* \"#utility.yul\":5988:6022   */\n  tag_124\n    /* \"#utility.yul\":5997:6021   */\n  tag_125\n    /* \"#utility.yul\":6015:6020   */\n  dup5\n    /* \"#utility.yul\":5997:6021   */\n  tag_44\n  jump\t// in\ntag_125:\n    /* \"#utility.yul\":5988:6022   */\n  tag_45\n  jump\t// in\ntag_124:\n    /* \"#utility.yul\":5970:6023   */\n  tag_44\n  jump\t// in\ntag_123:\n    /* \"#utility.yul\":5957:6023   */\n  swap1\n  pop\n    /* \"#utility.yul\":5887:6029   */\n  swap2\n  swap1\n  pop\n  jump\t// out\n    /* \"#utility.yul\":6035:6110   */\ntag_47:\n    /* \"#utility.yul\":6078:6081   */\n  0x00\n    /* \"#utility.yul\":6099:6104   */\n  dup2\n    /* \"#utility.yul\":6092:6104   */\n  swap1\n  pop\n    /* \"#utility.yul\":6035:6110   */\n  swap2\n  swap1\n  pop\n  jump\t// out\n    /* \"#utility.yul\":6116:6385   */\ntag_48:\n    /* \"#utility.yul\":6226:6265   */\n  tag_128\n    /* \"#utility.yul\":6257:6264   */\n  dup4\n    /* \"#utility.yul\":6226:6265   */\n  tag_46\n  jump\t// in\ntag_128:\n    /* \"#utility.yul\":6287:6378   */\n  tag_129\n    /* \"#utility.yul\":6336:6377   */\n  tag_130\n    /* \"#utility.yul\":6360:6376   */\n  dup3\n    /* \"#utility.yul\":6336:6377   */\n  tag_47\n  jump\t// in\ntag_130:\n    /* \"#utility.yul\":6328:6334   */\n  dup5\n    /* \"#utility.yul\":6321:6325   */\n  dup5\n    /* \"#utility.yul\":6315:6326   */\n  sload\n    /* \"#utility.yul\":6287:6378   */\n  tag_43\n  jump\t// in\ntag_129:\n    /* \"#utility.yul\":6281:6285   */\n  dup3\n    /* \"#utility.yul\":6274:6379   */\n  sstore\n    /* \"#utility.yul\":6192:6385   */\n  pop\n    /* \"#utility.yul\":6116:6385   */\n  pop\n  pop\n  pop\n  jump\t// out\n    /* \"#utility.yul\":6391:6464   */\ntag_49:\n    /* \"#utility.yul\":6436:6439   */\n  0x00\n    /* \"#utility.yul\":6391:6464   */\n  swap1\n  jump\t// out\n    /* \"#utility.yul\":6470:6659   */\ntag_50:\n    /* \"#utility.yul\":6547:6579   */\n  tag_133\n  tag_49\n  jump\t// in\ntag_133:\n    /* \"#utility.yul\":6588:6653   */\n  tag_134\n    /* \"#utility.yul\":6646:6652   */\n  dup2\n    /* \"#utility.yul\":6638:6644   */\n  dup5\n    /* \"#utility.yul\":6632:6636   */\n  dup5\n    /* \"#utility.yul\":6588:6653   */\n  tag_48\n  jump\t// in\ntag_134:\n    /* \"#utility.yul\":6523:6659   */\n  pop\n    /* \"#utility.yul\":6470:6659   */\n  pop\n  pop\n  jump\t// out\n    /* \"#utility.yul\":6665:6851   */\ntag_51:\n    /* \"#utility.yul\":6725:6845   */\ntag_136:\n    /* \"#utility.yul\":6742:6745   */\n  dup2\n    /* \"#utility.yul\":6735:6740   */\n  dup2\n    /* \"#utility.yul\":6732:6746   */\n  lt\n    /* \"#utility.yul\":6725:6845   */\n  iszero\n  tag_138\n  jumpi\n    /* \"#utility.yul\":6796:6835   */\n  tag_139\n    /* \"#utility.yul\":6833:6834   */\n  0x00\n    /* \"#utility.yul\":6826:6831   */\n  dup3\n    /* \"#utility.yul\":6796:6835   */\n  tag_50\n  jump\t// in\ntag_139:\n    /* \"#utility.yul\":6769:6770   */\n  0x01\n    /* \"#utility.yul\":6762:6767   */\n  dup2\n    /* \"#utility.yul\":6758:6771   */\n  add\n    /* \"#utility.yul\":6749:6771   */\n  swap1\n  pop\n    /* \"#utility.yul\":6725:6845   */\n  jump(tag_136)\ntag_138:\n    /* \"#utility.yul\":6665:6851   */\n  pop\n  pop\n  jump\t// out\n    /* \"#utility.yul\":6857:7400   */\ntag_52:\n    /* \"#utility.yul\":6958:6960   */\n  0x1f\n    /* \"#utility.yul\":6953:6956   */\n  dup3\n    /* \"#utility.yul\":6950:6961   */\n  gt\n    /* \"#utility.yul\":6947:7393   */\n  iszero\n  tag_141\n  jumpi\n    /* \"#utility.yul\":6992:7030   */\n  tag_142\n    /* \"#utility.yul\":7024:7029   */\n  dup2\n    /* \"#utility.yul\":6992:7030   */\n  tag_40\n  jump\t// in\ntag_142:\n    /* \"#utility.yul\":7076:7105   */\n  tag_143\n    /* \"#utility.yul\":7094:7104   */\n  dup5\n    /* \"#utility.yul\":7076:7105   */\n  tag_41\n  jump\t// in\ntag_143:\n    /* \"#utility.yul\":7066:7074   */\n  dup2\n    /* \"#utility.yul\":7062:7106   */\n  add\n    /* \"#utility.yul\":7259:7261   */\n  0x20\n    /* \"#utility.yul\":7247:7257   */\n  dup6\n    /* \"#utility.yul\":7244:7262   */\n  lt\n    /* \"#utility.yul\":7241:7290   */\n  iszero\n  tag_144\n  jumpi\n    /* \"#utility.yul\":7280:7288   */\n  dup2\n    /* \"#utility.yul\":7265:7288   */\n  swap1\n  pop\n    /* \"#utility.yul\":7241:7290   */\ntag_144:\n    /* \"#utility.yul\":7303:7383   */\n  tag_145\n    /* \"#utility.yul\":7359:7381   */\n  tag_146\n    /* \"#utility.yul\":7377:7380   */\n  dup6\n    /* \"#utility.yul\":7359:7381   */\n  tag_41\n  jump\t// in\ntag_146:\n    /* \"#utility.yul\":7349:7357   */\n  dup4\n    /* \"#utility.yul\":7345:7382   */\n  add\n    /* \"#utility.yul\":7332:7343   */\n  dup3\n    /* \"#utility.yul\":7303:7383   */\n  tag_51\n  jump\t// in\ntag_145:\n    /* \"#utility.yul\":6962:7393   */\n  pop\n  pop\n    /* \"#utility.yul\":6947:7393   */\ntag_141:\n    /* \"#utility.yul\":6857:7400   */\n  pop\n  pop\n  pop\n  jump\t// out\n    /* \"#utility.yul\":7406:7523   */\ntag_53:\n    /* \"#utility.yul\":7460:7468   */\n  0x00\n    /* \"#utility.yul\":7510:7515   */\n  dup3\n    /* \"#utility.yul\":7504:7508   */\n  dup3\n    /* \"#utility.yul\":7500:7516   */\n  shr\n    /* \"#utility.yul\":7479:7516   */\n  swap1\n  pop\n    /* \"#utility.yul\":7406:7523   */\n  swap3\n  swap2\n  pop\n  pop\n  jump\t// out\n    /* \"#utility.yul\":7529:7698   */\ntag_54:\n    /* \"#utility.yul\":7573:7579   */\n  0x00\n    /* \"#utility.yul\":7606:7657   */\n  tag_149\n    /* \"#utility.yul\":7654:7655   */\n  0x00\n    /* \"#utility.yul\":7650:7656   */\n  not\n    /* \"#utility.yul\":7642:7647   */\n  dup5\n    /* \"#utility.yul\":7639:7640   */\n  0x08\n    /* \"#utility.yul\":7635:7648   */\n  mul\n    /* \"#utility.yul\":7606:7657   */\n  tag_53\n  jump\t// in\ntag_149:\n    /* \"#utility.yul\":7602:7658   */\n  not\n    /* \"#utility.yul\":7687:7691   */\n  dup1\n    /* \"#utility.yul\":7681:7685   */\n  dup4\n    /* \"#utility.yul\":7677:7692   */\n  and\n    /* \"#utility.yul\":7667:7692   */\n  swap2\n  pop\n    /* \"#utility.yul\":7580:7698   */\n  pop\n    /* \"#utility.yul\":7529:7698   */\n  swap3\n  swap2\n  pop\n  pop\n  jump\t// out\n    /* \"#utility.yul\":7703:7998   */\ntag_55:\n    /* \"#utility.yul\":7779:7783   */\n  0x00\n    /* \"#utility.yul\":7925:7954   */\n  tag_151\n    /* \"#utility.yul\":7950:7953   */\n  dup4\n    /* \"#utility.yul\":7944:7948   */\n  dup4\n    /* \"#utility.yul\":7925:7954   */\n  tag_54\n  jump\t// in\ntag_151:\n    /* \"#utility.yul\":7917:7954   */\n  swap2\n  pop\n    /* \"#utility.yul\":7987:7990   */\n  dup3\n    /* \"#utility.yul\":7984:7985   */\n  0x02\n    /* \"#utility.yul\":7980:7991   */\n  mul\n    /* \"#utility.yul\":7974:7978   */\n  dup3\n    /* \"#utility.yul\":7971:7992   */\n  or\n    /* \"#utility.yul\":7963:7992   */\n  swap1\n  pop\n    /* \"#utility.yul\":7703:7998   */\n  swap3\n  swap2\n  pop\n  pop\n  jump\t// out\n    /* \"#utility.yul\":8003:9398   */\ntag_8:\n    /* \"#utility.yul\":8120:8157   */\n  tag_153\n    /* \"#utility.yul\":8153:8156   */\n  dup3\n    /* \"#utility.yul\":8120:8157   */\n  tag_37\n  jump\t// in\ntag_153:\n    /* \"#utility.yul\":8222:8240   */\n  0xffffffffffffffff\n    /* \"#utility.yul\":8214:8220   */\n  dup2\n    /* \"#utility.yul\":8211:8241   */\n  gt\n    /* \"#utility.yul\":8208:8264   */\n  iszero\n  tag_154\n  jumpi\n    /* \"#utility.yul\":8244:8262   */\n  tag_155\n  tag_26\n  jump\t// in\ntag_155:\n    /* \"#utility.yul\":8208:8264   */\ntag_154:\n    /* \"#utility.yul\":8288:8326   */\n  tag_156\n    /* \"#utility.yul\":8320:8324   */\n  dup3\n    /* \"#utility.yul\":8314:8325   */\n  sload\n    /* \"#utility.yul\":8288:8326   */\n  tag_39\n  jump\t// in\ntag_156:\n    /* \"#utility.yul\":8373:8440   */\n  tag_157\n    /* \"#utility.yul\":8433:8439   */\n  dup3\n    /* \"#utility.yul\":8425:8431   */\n  dup3\n    /* \"#utility.yul\":8419:8423   */\n  dup6\n    /* \"#utility.yul\":8373:8440   */\n  tag_52\n  jump\t// in\ntag_157:\n    /* \"#utility.yul\":8467:8468   */\n  0x00\n    /* \"#utility.yul\":8491:8495   */\n  0x20\n    /* \"#utility.yul\":8478:8495   */\n  swap1\n  pop\n    /* \"#utility.yul\":8523:8525   */\n  0x1f\n    /* \"#utility.yul\":8515:8521   */\n  dup4\n    /* \"#utility.yul\":8512:8526   */\n  gt\n    /* \"#utility.yul\":8540:8541   */\n  0x01\n    /* \"#utility.yul\":8535:9153   */\n  dup2\n  eq\n  tag_159\n  jumpi\n    /* \"#utility.yul\":9197:9198   */\n  0x00\n    /* \"#utility.yul\":9214:9220   */\n  dup5\n    /* \"#utility.yul\":9211:9288   */\n  iszero\n  tag_160\n  jumpi\n    /* \"#utility.yul\":9263:9272   */\n  dup3\n    /* \"#utility.yul\":9258:9261   */\n  dup8\n    /* \"#utility.yul\":9254:9273   */\n  add\n    /* \"#utility.yul\":9248:9274   */\n  mload\n    /* \"#utility.yul\":9239:9274   */\n  swap1\n  pop\n    /* \"#utility.yul\":9211:9288   */\ntag_160:\n    /* \"#utility.yul\":9314:9381   */\n  tag_161\n    /* \"#utility.yul\":9374:9380   */\n  dup6\n    /* \"#utility.yul\":9367:9372   */\n  dup3\n    /* \"#utility.yul\":9314:9381   */\n  tag_55\n  jump\t// in\ntag_161:\n    /* \"#utility.yul\":9308:9312   */\n  dup7\n    /* \"#utility.yul\":9301:9382   */\n  sstore\n    /* \"#utility.yul\":9170:9392   */\n  pop\n    /* \"#utility.yul\":8505:9392   */\n  jump(tag_158)\n    /* \"#utility.yul\":8535:9153   */\ntag_159:\n    /* \"#utility.yul\":8587:8591   */\n  0x1f\n    /* \"#utility.yul\":8583:8592   */\n  not\n    /* \"#utility.yul\":8575:8581   */\n  dup5\n    /* \"#utility.yul\":8571:8593   */\n  and\n    /* \"#utility.yul\":8621:8658   */\n  tag_162\n    /* \"#utility.yul\":8653:8657   */\n  dup7\n    /* \"#utility.yul\":8621:8658   */\n  tag_40\n  jump\t// in\ntag_162:\n    /* \"#utility.yul\":8680:8681   */\n  0x00\n    /* \"#utility.yul\":8694:8902   */\ntag_163:\n    /* \"#utility.yul\":8708:8715   */\n  dup3\n    /* \"#utility.yul\":8705:8706   */\n  dup2\n    /* \"#utility.yul\":8702:8716   */\n  lt\n    /* \"#utility.yul\":8694:8902   */\n  iszero\n  tag_165\n  jumpi\n    /* \"#utility.yul\":8787:8796   */\n  dup5\n    /* \"#utility.yul\":8782:8785   */\n  dup10\n    /* \"#utility.yul\":8778:8797   */\n  add\n    /* \"#utility.yul\":8772:8798   */\n  mload\n    /* \"#utility.yul\":8764:8770   */\n  dup3\n    /* \"#utility.yul\":8757:8799   */\n  sstore\n    /* \"#utility.yul\":8838:8839   */\n  0x01\n    /* \"#utility.yul\":8830:8836   */\n  dup3\n    /* \"#utility.yul\":8826:8840   */\n  add\n    /* \"#utility.yul\":8816:8840   */\n  swap2\n  pop\n    /* \"#utility.yul\":8885:8887   */\n  0x20\n    /* \"#utility.yul\":8874:8883   */\n  dup6\n    /* \"#utility.yul\":8870:8888   */\n  add\n    /* \"#utility.yul\":8857:8888   */\n  swap5\n  pop\n    /* \"#utility.yul\":8731:8735   */\n  0x20\n    /* \"#utility.yul\":8728:8729   */\n  dup2\n    /* \"#utility.yul\":8724:8736   */\n  add\n    /* \"#utility.yul\":8719:8736   */\n  swap1\n  pop\n    /* \"#utility.yul\":8694:8902   */\n  jump(tag_163)\ntag_165:\n    /* \"#utility.yul\":8930:8936   */\n  dup7\n    /* \"#utility.yul\":8921:8928   */\n  dup4\n    /* \"#utility.yul\":8918:8937   */\n  lt\n    /* \"#utility.yul\":8915:9094   */\n  iszero\n  tag_166\n  jumpi\n    /* \"#utility.yul\":8988:8997   */\n  dup5\n    /* \"#utility.yul\":8983:8986   */\n  dup10\n    /* \"#utility.yul\":8979:8998   */\n  add\n    /* \"#utility.yul\":8973:8999   */\n  mload\n    /* \"#utility.yul\":9031:9079   */\n  tag_167\n    /* \"#utility.yul\":9073:9077   */\n  0x1f\n    /* \"#utility.yul\":9065:9071   */\n  dup10\n    /* \"#utility.yul\":9061:9078   */\n  and\n    /* \"#utility.yul\":9050:9059   */\n  dup3\n    /* \"#utility.yul\":9031:9079   */\n  tag_54\n  jump\t// in\ntag_167:\n    /* \"#utility.yul\":9023:9029   */\n  dup4\n    /* \"#utility.yul\":9016:9080   */\n  sstore\n    /* \"#utility.yul\":8938:9094   */\n  pop\n    /* \"#utility.yul\":8915:9094   */\ntag_166:\n    /* \"#utility.yul\":9140:9141   */\n  0x01\n    /* \"#utility.yul\":9136:9137   */\n  0x02\n    /* \"#utility.yul\":9128:9134   */\n  dup9\n    /* \"#utility.yul\":9124:9138   */\n  mul\n    /* \"#utility.yul\":9120:9142   */\n  add\n    /* \"#utility.yul\":9114:9118   */\n  dup9\n    /* \"#utility.yul\":9107:9143   */\n  sstore\n    /* \"#utility.yul\":8542:9153   */\n  pop\n  pop\n  pop\n    /* \"#utility.yul\":8505:9392   */\ntag_158:\n  pop\n    /* \"#utility.yul\":8095:9398   */\n  pop\n  pop\n  pop\n    /* \"#utility.yul\":8003:9398   */\n  pop\n  pop\n  jump\t// out\n    /* \"#utility.yul\":9404:9584   */\ntag_16:\n    /* \"#utility.yul\":9452:9529   */\n  0x4e487b7100000000000000000000000000000000000000000000000000000000\n    /* \"#utility.yul\":9449:9450   */\n  0x00\n    /* \"#utility.yul\":9442:9530   */\n  mstore\n    /* \"#utility.yul\":9549:9553   */\n  0x32\n    /* \"#utility.yul\":9546:9547   */\n  0x04\n    /* \"#utility.yul\":9539:9554   */\n  mstore\n    /* \"#utility.yul\":9573:9577   */\n  0x24\n    /* \"#utility.yul\":9570:9571   */\n  0x00\n    /* \"#utility.yul\":9563:9578   */\n  revert\n    /* \"contracts/HelloWorld1.sol\":185:1284  contract DocumentSigning is ERC721 {... */\ntag_17:\n  dataSize(sub_0)\n  dup1\n  dataOffset(sub_0)\n  0x00\n  codecopy\n  0x00\n  return\nstop\n\nsub_0: assembly {\n        /* \"contracts/HelloWorld1.sol\":185:1284  contract DocumentSigning is ERC721 {... */\n      mstore(0x40, 0x80)\n      callvalue\n      dup1\n      iszero\n      tag_1\n      jumpi\n      0x00\n      dup1\n      revert\n    tag_1:\n      pop\n      jumpi(tag_2, lt(calldatasize, 0x04))\n      shr(0xe0, calldataload(0x00))\n      dup1\n      0x6352211e\n      gt\n      tag_21\n      jumpi\n      dup1\n      0xa22cb465\n      gt\n      tag_22\n      jumpi\n      dup1\n      0xa22cb465\n      eq\n      tag_16\n      jumpi\n      dup1\n      0xa407e496\n      eq\n      tag_17\n      jumpi\n      dup1\n      0xb88d4fde\n      eq\n      tag_18\n      jumpi\n      dup1\n      0xc87b56dd\n      eq\n      tag_19\n      jumpi\n      dup1\n      0xe985e9c5\n      eq\n      tag_20\n      jumpi\n      jump(tag_2)\n    tag_22:\n      dup1\n      0x6352211e\n      eq\n      tag_12\n      jumpi\n      dup1\n      0x70a08231\n      eq\n      tag_13\n      jumpi\n      dup1\n      0x95d89b41\n      eq\n      tag_14\n      jumpi\n      dup1\n      0x9b19251a\n      eq\n      tag_15\n      jumpi\n      jump(tag_2)\n    tag_21:\n      dup1\n      0x095ea7b3\n      gt\n      tag_23\n      jumpi\n      dup1\n      0x095ea7b3\n      eq\n      tag_7\n      jumpi\n      dup1\n      0x23b872dd\n      eq\n      tag_8\n      jumpi\n      dup1\n      0x2eb4a7ab\n      eq\n      tag_9\n      jumpi\n      dup1\n      0x3af32abf\n      eq\n      tag_10\n      jumpi\n      dup1\n      0x42842e0e\n      eq\n      tag_11\n      jumpi\n      jump(tag_2)\n    tag_23:\n      dup1\n      0x01ffc9a7\n      eq\n      tag_3\n      jumpi\n      dup1\n      0x063dcdfb\n      eq\n      tag_4\n      jumpi\n      dup1\n      0x06fdde03\n      eq\n      tag_5\n      jumpi\n      dup1\n      0x081812fc\n      eq\n      tag_6\n      jumpi\n    tag_2:\n      0x00\n      dup1\n      revert\n        /* \"@openzeppelin/contracts/token/ERC721/ERC721.sol\":1561:1861  function supportsInterface(bytes4 interfaceId) public view virtual override(ERC165, IERC165) returns (bool) {... */\n    tag_3:\n      tag_24\n      0x04\n      dup1\n      calldatasize\n      sub\n      dup2\n      add\n      swap1\n      tag_25\n      swap2\n      swap1\n      tag_26\n      jump\t// in\n    tag_25:\n      tag_27\n      jump\t// in\n    tag_24:\n      mload(0x40)\n      tag_28\n      swap2\n      swap1\n      tag_29\n      jump\t// in\n    tag_28:\n      mload(0x40)\n      dup1\n      swap2\n      sub\n      swap1\n      return\n        /* \"contracts/HelloWorld1.sol\":1111:1277  function generateMerkleRoot(address _address) public pure returns (bytes32) {... */\n    tag_4:\n      tag_30\n      0x04\n      dup1\n      calldatasize\n      sub\n      dup2\n      add\n      swap1\n      tag_31\n      swap2\n      swap1\n      tag_32\n      jump\t// in\n    tag_31:\n      tag_33\n      jump\t// in\n    tag_30:\n      mload(0x40)\n      tag_34\n      swap2\n      swap1\n      tag_35\n      jump\t// in\n    tag_34:\n      mload(0x40)\n      dup1\n      swap2\n      sub\n      swap1\n      return\n        /* \"@openzeppelin/contracts/token/ERC721/ERC721.sol\":2365:2454  function name() public view virtual returns (string memory) {... */\n    tag_5:\n      tag_36\n      tag_37\n      jump\t// in\n    tag_36:\n      mload(0x40)\n      tag_38\n      swap2\n      swap1\n      tag_39\n      jump\t// in\n    tag_38:\n      mload(0x40)\n      dup1\n      swap2\n      sub\n      swap1\n      return\n        /* \"@openzeppelin/contracts/token/ERC721/ERC721.sol\":3497:3651  function getApproved(uint256 tokenId) public view virtual returns (address) {... */\n    tag_6:\n      tag_40\n      0x04\n      dup1\n      calldatasize\n      sub\n      dup2\n      add\n      swap1\n      tag_41\n      swap2\n      swap1\n      tag_42\n      jump\t// in\n    tag_41:\n      tag_43\n      jump\t// in\n    tag_40:\n      mload(0x40)\n      tag_44\n      swap2\n      swap1\n      tag_45\n      jump\t// in\n    tag_44:\n      mload(0x40)\n      dup1\n      swap2\n      sub\n      swap1\n      return\n        /* \"@openzeppelin/contracts/token/ERC721/ERC721.sol\":3323:3436  function approve(address to, uint256 tokenId) public virtual {... */\n    tag_7:\n      tag_46\n      0x04\n      dup1\n      calldatasize\n      sub\n      dup2\n      add\n      swap1\n      tag_47\n      swap2\n      swap1\n      tag_48\n      jump\t// in\n    tag_47:\n      tag_49\n      jump\t// in\n    tag_46:\n      stop\n        /* \"@openzeppelin/contracts/token/ERC721/ERC721.sol\":4143:4721  function transferFrom(address from, address to, uint256 tokenId) public virtual {... */\n    tag_8:\n      tag_50\n      0x04\n      dup1\n      calldatasize\n      sub\n      dup2\n      add\n      swap1\n      tag_51\n      swap2\n      swap1\n      tag_52\n      jump\t// in\n    tag_51:\n      tag_53\n      jump\t// in\n    tag_50:\n      stop\n        /* \"contracts/HelloWorld1.sol\":226:251  bytes32 public merkleRoot */\n    tag_9:\n      tag_54\n      tag_55\n      jump\t// in\n    tag_54:\n      mload(0x40)\n      tag_56\n      swap2\n      swap1\n      tag_35\n      jump\t// in\n    tag_56:\n      mload(0x40)\n      dup1\n      swap2\n      sub\n      swap1\n      return\n        /* \"contracts/HelloWorld1.sol\":585:696  function isWhitelisted(address _address) public view returns (bool) {... */\n    tag_10:\n      tag_57\n      0x04\n      dup1\n      calldatasize\n      sub\n      dup2\n      add\n      swap1\n      tag_58\n      swap2\n      swap1\n      tag_32\n      jump\t// in\n    tag_58:\n      tag_59\n      jump\t// in\n    tag_57:\n      mload(0x40)\n      tag_60\n      swap2\n      swap1\n      tag_29\n      jump\t// in\n    tag_60:\n      mload(0x40)\n      dup1\n      swap2\n      sub\n      swap1\n      return\n        /* \"@openzeppelin/contracts/token/ERC721/ERC721.sol\":4787:4919  function safeTransferFrom(address from, address to, uint256 tokenId) public {... */\n    tag_11:\n      tag_61\n      0x04\n      dup1\n      calldatasize\n      sub\n      dup2\n      add\n      swap1\n      tag_62\n      swap2\n      swap1\n      tag_52\n      jump\t// in\n    tag_62:\n      tag_63\n      jump\t// in\n    tag_61:\n      stop\n        /* \"@openzeppelin/contracts/token/ERC721/ERC721.sol\":2185:2303  function ownerOf(uint256 tokenId) public view virtual returns (address) {... */\n    tag_12:\n      tag_64\n      0x04\n      dup1\n      calldatasize\n      sub\n      dup2\n      add\n      swap1\n      tag_65\n      swap2\n      swap1\n      tag_42\n      jump\t// in\n    tag_65:\n      tag_66\n      jump\t// in\n    tag_64:\n      mload(0x40)\n      tag_67\n      swap2\n      swap1\n      tag_45\n      jump\t// in\n    tag_67:\n      mload(0x40)\n      dup1\n      swap2\n      sub\n      swap1\n      return\n        /* \"@openzeppelin/contracts/token/ERC721/ERC721.sol\":1920:2128  function balanceOf(address owner) public view virtual returns (uint256) {... */\n    tag_13:\n      tag_68\n      0x04\n      dup1\n      calldatasize\n      sub\n      dup2\n      add\n      swap1\n      tag_69\n      swap2\n      swap1\n      tag_32\n      jump\t// in\n    tag_69:\n      tag_70\n      jump\t// in\n    tag_68:\n      mload(0x40)\n      tag_71\n      swap2\n      swap1\n      tag_72\n      jump\t// in\n    tag_71:\n      mload(0x40)\n      dup1\n      swap2\n      sub\n      swap1\n      return\n        /* \"@openzeppelin/contracts/token/ERC721/ERC721.sol\":2518:2611  function symbol() public view virtual returns (string memory) {... */\n    tag_14:\n      tag_73\n      tag_74\n      jump\t// in\n    tag_73:\n      mload(0x40)\n      tag_75\n      swap2\n      swap1\n      tag_39\n      jump\t// in\n    tag_75:\n      mload(0x40)\n      dup1\n      swap2\n      sub\n      swap1\n      return\n        /* \"contracts/HelloWorld1.sol\":285:326  mapping(address => bool) public whitelist */\n    tag_15:\n      tag_76\n      0x04\n      dup1\n      calldatasize\n      sub\n      dup2\n      add\n      swap1\n      tag_77\n      swap2\n      swap1\n      tag_32\n      jump\t// in\n    tag_77:\n      tag_78\n      jump\t// in\n    tag_76:\n      mload(0x40)\n      tag_79\n      swap2\n      swap1\n      tag_29\n      jump\t// in\n    tag_79:\n      mload(0x40)\n      dup1\n      swap2\n      sub\n      swap1\n      return\n        /* \"@openzeppelin/contracts/token/ERC721/ERC721.sol\":3718:3862  function setApprovalForAll(address operator, bool approved) public virtual {... */\n    tag_16:\n      tag_80\n      0x04\n      dup1\n      calldatasize\n      sub\n      dup2\n      add\n      swap1\n      tag_81\n      swap2\n      swap1\n      tag_82\n      jump\t// in\n    tag_81:\n      tag_83\n      jump\t// in\n    tag_80:\n      stop\n        /* \"contracts/HelloWorld1.sol\":702:1106  function signDocument(bytes32[] memory _proof) public {... */\n    tag_17:\n      tag_84\n      0x04\n      dup1\n      calldatasize\n      sub\n      dup2\n      add\n      swap1\n      tag_85\n      swap2\n      swap1\n      tag_86\n      jump\t// in\n    tag_85:\n      tag_87\n      jump\t// in\n    tag_84:\n      stop\n        /* \"@openzeppelin/contracts/token/ERC721/ERC721.sol\":4985:5193  function safeTransferFrom(address from, address to, uint256 tokenId, bytes memory data) public virtual {... */\n    tag_18:\n      tag_88\n      0x04\n      dup1\n      calldatasize\n      sub\n      dup2\n      add\n      swap1\n      tag_89\n      swap2\n      swap1\n      tag_90\n      jump\t// in\n    tag_89:\n      tag_91\n      jump\t// in\n    tag_88:\n      stop\n        /* \"@openzeppelin/contracts/token/ERC721/ERC721.sol\":2677:2932  function tokenURI(uint256 tokenId) public view virtual returns (string memory) {... */\n    tag_19:\n      tag_92\n      0x04\n      dup1\n      calldatasize\n      sub\n      dup2\n      add\n      swap1\n      tag_93\n      swap2\n      swap1\n      tag_42\n      jump\t// in\n    tag_93:\n      tag_94\n      jump\t// in\n    tag_92:\n      mload(0x40)\n      tag_95\n      swap2\n      swap1\n      tag_39\n      jump\t// in\n    tag_95:\n      mload(0x40)\n      dup1\n      swap2\n      sub\n      swap1\n      return\n        /* \"@openzeppelin/contracts/token/ERC721/ERC721.sol\":3928:4081  function isApprovedForAll(address owner, address operator) public view virtual returns (bool) {... */\n    tag_20:\n      tag_96\n      0x04\n      dup1\n      calldatasize\n      sub\n      dup2\n      add\n      swap1\n      tag_97\n      swap2\n      swap1\n      tag_98\n      jump\t// in\n    tag_97:\n      tag_99\n      jump\t// in\n    tag_96:\n      mload(0x40)\n      tag_100\n      swap2\n      swap1\n      tag_29\n      jump\t// in\n    tag_100:\n      mload(0x40)\n      dup1\n      swap2\n      sub\n      swap1\n      return\n        /* \"@openzeppelin/contracts/token/ERC721/ERC721.sol\":1561:1861  function supportsInterface(bytes4 interfaceId) public view virtual override(ERC165, IERC165) returns (bool) {... */\n    tag_27:\n        /* \"@openzeppelin/contracts/token/ERC721/ERC721.sol\":1663:1667  bool */\n      0x00\n        /* \"@openzeppelin/contracts/token/ERC721/ERC721.sol\":1713:1738  type(IERC721).interfaceId */\n      0x80ac58cd00000000000000000000000000000000000000000000000000000000\n        /* \"@openzeppelin/contracts/token/ERC721/ERC721.sol\":1698:1738  interfaceId == type(IERC721).interfaceId */\n      not(0xffffffffffffffffffffffffffffffffffffffffffffffffffffffff)\n      and\n        /* \"@openzeppelin/contracts/token/ERC721/ERC721.sol\":1698:1709  interfaceId */\n      dup3\n        /* \"@openzeppelin/contracts/token/ERC721/ERC721.sol\":1698:1738  interfaceId == type(IERC721).interfaceId */\n      not(0xffffffffffffffffffffffffffffffffffffffffffffffffffffffff)\n      and\n      eq\n        /* \"@openzeppelin/contracts/token/ERC721/ERC721.sol\":1698:1802  interfaceId == type(IERC721).interfaceId ||... */\n      dup1\n      tag_102\n      jumpi\n      pop\n        /* \"@openzeppelin/contracts/token/ERC721/ERC721.sol\":1769:1802  type(IERC721Metadata).interfaceId */\n      0x5b5e139f00000000000000000000000000000000000000000000000000000000\n        /* \"@openzeppelin/contracts/token/ERC721/ERC721.sol\":1754:1802  interfaceId == type(IERC721Metadata).interfaceId */\n      not(0xffffffffffffffffffffffffffffffffffffffffffffffffffffffff)\n      and\n        /* \"@openzeppelin/contracts/token/ERC721/ERC721.sol\":1754:1765  interfaceId */\n      dup3\n        /* \"@openzeppelin/contracts/token/ERC721/ERC721.sol\":1754:1802  interfaceId == type(IERC721Metadata).interfaceId */\n      not(0xffffffffffffffffffffffffffffffffffffffffffffffffffffffff)\n      and\n      eq\n        /* \"@openzeppelin/contracts/token/ERC721/ERC721.sol\":1698:1802  interfaceId == type(IERC721).interfaceId ||... */\n    tag_102:\n        /* \"@openzeppelin/contracts/token/ERC721/ERC721.sol\":1698:1854  interfaceId == type(IERC721).interfaceId ||... */\n      dup1\n      tag_103\n      jumpi\n      pop\n        /* \"@openzeppelin/contracts/token/ERC721/ERC721.sol\":1818:1854  super.supportsInterface(interfaceId) */\n      tag_104\n        /* \"@openzeppelin/contracts/token/ERC721/ERC721.sol\":1842:1853  interfaceId */\n      dup3\n        /* \"@openzeppelin/contracts/token/ERC721/ERC721.sol\":1818:1841  super.supportsInterface */\n      tag_105\n        /* \"@openzeppelin/contracts/token/ERC721/ERC721.sol\":1818:1854  super.supportsInterface(interfaceId) */\n      jump\t// in\n    tag_104:\n        /* \"@openzeppelin/contracts/token/ERC721/ERC721.sol\":1698:1854  interfaceId == type(IERC721).interfaceId ||... */\n    tag_103:\n        /* \"@openzeppelin/contracts/token/ERC721/ERC721.sol\":1679:1854  return... */\n      swap1\n      pop\n        /* \"@openzeppelin/contracts/token/ERC721/ERC721.sol\":1561:1861  function supportsInterface(bytes4 interfaceId) public view virtual override(ERC165, IERC165) returns (bool) {... */\n      swap2\n      swap1\n      pop\n      jump\t// out\n        /* \"contracts/HelloWorld1.sol\":1111:1277  function generateMerkleRoot(address _address) public pure returns (bytes32) {... */\n    tag_33:\n        /* \"contracts/HelloWorld1.sol\":1178:1185  bytes32 */\n      0x00\n        /* \"contracts/HelloWorld1.sol\":1197:1209  bytes32 hash */\n      dup1\n        /* \"contracts/HelloWorld1.sol\":1239:1247  _address */\n      dup3\n        /* \"contracts/HelloWorld1.sol\":1222:1248  abi.encodePacked(_address) */\n      add(0x20, mload(0x40))\n      tag_107\n      swap2\n      swap1\n      tag_108\n      jump\t// in\n    tag_107:\n      mload(0x40)\n      0x20\n      dup2\n      dup4\n      sub\n      sub\n      dup2\n      mstore\n      swap1\n      0x40\n      mstore\n        /* \"contracts/HelloWorld1.sol\":1212:1249  keccak256(abi.encodePacked(_address)) */\n      dup1\n      mload\n      swap1\n      0x20\n      add\n      keccak256\n        /* \"contracts/HelloWorld1.sol\":1197:1249  bytes32 hash = keccak256(abi.encodePacked(_address)) */\n      swap1\n      pop\n        /* \"contracts/HelloWorld1.sol\":1266:1270  hash */\n      dup1\n        /* \"contracts/HelloWorld1.sol\":1259:1270  return hash */\n      swap2\n      pop\n      pop\n        /* \"contracts/HelloWorld1.sol\":1111:1277  function generateMerkleRoot(address _address) public pure returns (bytes32) {... */\n      swap2\n      swap1\n      pop\n      jump\t// out\n        /* \"@openzeppelin/contracts/token/ERC721/ERC721.sol\":2365:2454  function name() public view virtual returns (string memory) {... */\n    tag_37:\n        /* \"@openzeppelin/contracts/token/ERC721/ERC721.sol\":2410:2423  string memory */\n      0x60\n        /* \"@openzeppelin/contracts/token/ERC721/ERC721.sol\":2442:2447  _name */\n      0x00\n        /* \"@openzeppelin/contracts/token/ERC721/ERC721.sol\":2435:2447  return _name */\n      dup1\n      sload\n      tag_110\n      swap1\n      tag_111\n      jump\t// in\n    tag_110:\n      dup1\n      0x1f\n      add\n      0x20\n      dup1\n      swap2\n      div\n      mul\n      0x20\n      add\n      mload(0x40)\n      swap1\n      dup2\n      add\n      0x40\n      mstore\n      dup1\n      swap3\n      swap2\n      swap1\n      dup2\n      dup2\n      mstore\n      0x20\n      add\n      dup3\n      dup1\n      sload\n      tag_112\n      swap1\n      tag_111\n      jump\t// in\n    tag_112:\n      dup1\n      iszero\n      tag_113\n      jumpi\n      dup1\n      0x1f\n      lt\n      tag_114\n      jumpi\n      0x0100\n      dup1\n      dup4\n      sload\n      div\n      mul\n      dup4\n      mstore\n      swap2\n      0x20\n      add\n      swap2\n      jump(tag_113)\n    tag_114:\n      dup3\n      add\n      swap2\n      swap1\n      0x00\n      mstore\n      keccak256(0x00, 0x20)\n      swap1\n    tag_115:\n      dup2\n      sload\n      dup2\n      mstore\n      swap1\n      0x01\n      add\n      swap1\n      0x20\n      add\n      dup1\n      dup4\n      gt\n      tag_115\n      jumpi\n      dup3\n      swap1\n      sub\n      0x1f\n      and\n      dup3\n      add\n      swap2\n    tag_113:\n      pop\n      pop\n      pop\n      pop\n      pop\n      swap1\n      pop\n        /* \"@openzeppelin/contracts/token/ERC721/ERC721.sol\":2365:2454  function name() public view virtual returns (string memory) {... */\n      swap1\n      jump\t// out\n        /* \"@openzeppelin/contracts/token/ERC721/ERC721.sol\":3497:3651  function getApproved(uint256 tokenId) public view virtual returns (address) {... */\n    tag_43:\n        /* \"@openzeppelin/contracts/token/ERC721/ERC721.sol\":3564:3571  address */\n      0x00\n        /* \"@openzeppelin/contracts/token/ERC721/ERC721.sol\":3583:3605  _requireOwned(tokenId) */\n      tag_117\n        /* \"@openzeppelin/contracts/token/ERC721/ERC721.sol\":3597:3604  tokenId */\n      dup3\n        /* \"@openzeppelin/contracts/token/ERC721/ERC721.sol\":3583:3596  _requireOwned */\n      tag_118\n        /* \"@openzeppelin/contracts/token/ERC721/ERC721.sol\":3583:3605  _requireOwned(tokenId) */\n      jump\t// in\n    tag_117:\n      pop\n        /* \"@openzeppelin/contracts/token/ERC721/ERC721.sol\":3623:3644  _getApproved(tokenId) */\n      tag_119\n        /* \"@openzeppelin/contracts/token/ERC721/ERC721.sol\":3636:3643  tokenId */\n      dup3\n        /* \"@openzeppelin/contracts/token/ERC721/ERC721.sol\":3623:3635  _getApproved */\n      tag_120\n        /* \"@openzeppelin/contracts/token/ERC721/ERC721.sol\":3623:3644  _getApproved(tokenId) */\n      jump\t// in\n    tag_119:\n        /* \"@openzeppelin/contracts/token/ERC721/ERC721.sol\":3616:3644  return _getApproved(tokenId) */\n      swap1\n      pop\n        /* \"@openzeppelin/contracts/token/ERC721/ERC721.sol\":3497:3651  function getApproved(uint256 tokenId) public view virtual returns (address) {... */\n      swap2\n      swap1\n      pop\n      jump\t// out\n        /* \"@openzeppelin/contracts/token/ERC721/ERC721.sol\":3323:3436  function approve(address to, uint256 tokenId) public virtual {... */\n    tag_49:\n        /* \"@openzeppelin/contracts/token/ERC721/ERC721.sol\":3394:3429  _approve(to, tokenId, _msgSender()) */\n      tag_122\n        /* \"@openzeppelin/contracts/token/ERC721/ERC721.sol\":3403:3405  to */\n      dup3\n        /* \"@openzeppelin/contracts/token/ERC721/ERC721.sol\":3407:3414  tokenId */\n      dup3\n        /* \"@openzeppelin/contracts/token/ERC721/ERC721.sol\":3416:3428  _msgSender() */\n      tag_123\n        /* \"@openzeppelin/contracts/token/ERC721/ERC721.sol\":3416:3426  _msgSender */\n      tag_124\n        /* \"@openzeppelin/contracts/token/ERC721/ERC721.sol\":3416:3428  _msgSender() */\n      jump\t// in\n    tag_123:\n        /* \"@openzeppelin/contracts/token/ERC721/ERC721.sol\":3394:3402  _approve */\n      tag_125\n        /* \"@openzeppelin/contracts/token/ERC721/ERC721.sol\":3394:3429  _approve(to, tokenId, _msgSender()) */\n      jump\t// in\n    tag_122:\n        /* \"@openzeppelin/contracts/token/ERC721/ERC721.sol\":3323:3436  function approve(address to, uint256 tokenId) public virtual {... */\n      pop\n      pop\n      jump\t// out\n        /* \"@openzeppelin/contracts/token/ERC721/ERC721.sol\":4143:4721  function transferFrom(address from, address to, uint256 tokenId) public virtual {... */\n    tag_53:\n        /* \"@openzeppelin/contracts/token/ERC721/ERC721.sol\":4251:4252  0 */\n      0x00\n        /* \"@openzeppelin/contracts/token/ERC721/ERC721.sol\":4237:4253  to == address(0) */\n      0xffffffffffffffffffffffffffffffffffffffff\n      and\n        /* \"@openzeppelin/contracts/token/ERC721/ERC721.sol\":4237:4239  to */\n      dup3\n        /* \"@openzeppelin/contracts/token/ERC721/ERC721.sol\":4237:4253  to == address(0) */\n      0xffffffffffffffffffffffffffffffffffffffff\n      and\n      sub\n        /* \"@openzeppelin/contracts/token/ERC721/ERC721.sol\":4233:4320  if (to == address(0)) {... */\n      tag_127\n      jumpi\n        /* \"@openzeppelin/contracts/token/ERC721/ERC721.sol\":4306:4307  0 */\n      0x00\n        /* \"@openzeppelin/contracts/token/ERC721/ERC721.sol\":4276:4309  ERC721InvalidReceiver(address(0)) */\n      mload(0x40)\n      0x64a0ae9200000000000000000000000000000000000000000000000000000000\n      dup2\n      mstore\n      0x04\n      add\n      tag_128\n      swap2\n      swap1\n      tag_45\n      jump\t// in\n    tag_128:\n      mload(0x40)\n      dup1\n      swap2\n      sub\n      swap1\n      revert\n        /* \"@openzeppelin/contracts/token/ERC721/ERC721.sol\":4233:4320  if (to == address(0)) {... */\n    tag_127:\n        /* \"@openzeppelin/contracts/token/ERC721/ERC721.sol\":4538:4559  address previousOwner */\n      0x00\n        /* \"@openzeppelin/contracts/token/ERC721/ERC721.sol\":4562:4596  _update(to, tokenId, _msgSender()) */\n      tag_129\n        /* \"@openzeppelin/contracts/token/ERC721/ERC721.sol\":4570:4572  to */\n      dup4\n        /* \"@openzeppelin/contracts/token/ERC721/ERC721.sol\":4574:4581  tokenId */\n      dup4\n        /* \"@openzeppelin/contracts/token/ERC721/ERC721.sol\":4583:4595  _msgSender() */\n      tag_130\n        /* \"@openzeppelin/contracts/token/ERC721/ERC721.sol\":4583:4593  _msgSender */\n      tag_124\n        /* \"@openzeppelin/contracts/token/ERC721/ERC721.sol\":4583:4595  _msgSender() */\n      jump\t// in\n    tag_130:\n        /* \"@openzeppelin/contracts/token/ERC721/ERC721.sol\":4562:4569  _update */\n      tag_131\n        /* \"@openzeppelin/contracts/token/ERC721/ERC721.sol\":4562:4596  _update(to, tokenId, _msgSender()) */\n      jump\t// in\n    tag_129:\n        /* \"@openzeppelin/contracts/token/ERC721/ERC721.sol\":4538:4596  address previousOwner = _update(to, tokenId, _msgSender()) */\n      swap1\n      pop\n        /* \"@openzeppelin/contracts/token/ERC721/ERC721.sol\":4627:4631  from */\n      dup4\n        /* \"@openzeppelin/contracts/token/ERC721/ERC721.sol\":4610:4631  previousOwner != from */\n      0xffffffffffffffffffffffffffffffffffffffff\n      and\n        /* \"@openzeppelin/contracts/token/ERC721/ERC721.sol\":4610:4623  previousOwner */\n      dup2\n        /* \"@openzeppelin/contracts/token/ERC721/ERC721.sol\":4610:4631  previousOwner != from */\n      0xffffffffffffffffffffffffffffffffffffffff\n      and\n      eq\n        /* \"@openzeppelin/contracts/token/ERC721/ERC721.sol\":4606:4715  if (previousOwner != from) {... */\n      tag_132\n      jumpi\n        /* \"@openzeppelin/contracts/token/ERC721/ERC721.sol\":4675:4679  from */\n      dup4\n        /* \"@openzeppelin/contracts/token/ERC721/ERC721.sol\":4681:4688  tokenId */\n      dup3\n        /* \"@openzeppelin/contracts/token/ERC721/ERC721.sol\":4690:4703  previousOwner */\n      dup3\n        /* \"@openzeppelin/contracts/token/ERC721/ERC721.sol\":4654:4704  ERC721IncorrectOwner(from, tokenId, previousOwner) */\n      mload(0x40)\n      0x64283d7b00000000000000000000000000000000000000000000000000000000\n      dup2\n      mstore\n      0x04\n      add\n      tag_133\n      swap4\n      swap3\n      swap2\n      swap1\n      tag_134\n      jump\t// in\n    tag_133:\n      mload(0x40)\n      dup1\n      swap2\n      sub\n      swap1\n      revert\n        /* \"@openzeppelin/contracts/token/ERC721/ERC721.sol\":4606:4715  if (previousOwner != from) {... */\n    tag_132:\n        /* \"@openzeppelin/contracts/token/ERC721/ERC721.sol\":4223:4721  {... */\n      pop\n        /* \"@openzeppelin/contracts/token/ERC721/ERC721.sol\":4143:4721  function transferFrom(address from, address to, uint256 tokenId) public virtual {... */\n      pop\n      pop\n      pop\n      jump\t// out\n        /* \"contracts/HelloWorld1.sol\":226:251  bytes32 public merkleRoot */\n    tag_55:\n      sload(0x06)\n      dup2\n      jump\t// out\n        /* \"contracts/HelloWorld1.sol\":585:696  function isWhitelisted(address _address) public view returns (bool) {... */\n    tag_59:\n        /* \"contracts/HelloWorld1.sol\":647:651  bool */\n      0x00\n        /* \"contracts/HelloWorld1.sol\":670:679  whitelist */\n      0x08\n        /* \"contracts/HelloWorld1.sol\":670:689  whitelist[_address] */\n      0x00\n        /* \"contracts/HelloWorld1.sol\":680:688  _address */\n      dup4\n        /* \"contracts/HelloWorld1.sol\":670:689  whitelist[_address] */\n      0xffffffffffffffffffffffffffffffffffffffff\n      and\n      0xffffffffffffffffffffffffffffffffffffffff\n      and\n      dup2\n      mstore\n      0x20\n      add\n      swap1\n      dup2\n      mstore\n      0x20\n      add\n      0x00\n      keccak256\n      0x00\n      swap1\n      sload\n      swap1\n      0x0100\n      exp\n      swap1\n      div\n      0xff\n      and\n        /* \"contracts/HelloWorld1.sol\":663:689  return whitelist[_address] */\n      swap1\n      pop\n        /* \"contracts/HelloWorld1.sol\":585:696  function isWhitelisted(address _address) public view returns (bool) {... */\n      swap2\n      swap1\n      pop\n      jump\t// out\n        /* \"@openzeppelin/contracts/token/ERC721/ERC721.sol\":4787:4919  function safeTransferFrom(address from, address to, uint256 tokenId) public {... */\n    tag_63:\n        /* \"@openzeppelin/contracts/token/ERC721/ERC721.sol\":4873:4912  safeTransferFrom(from, to, tokenId, \"\") */\n      tag_137\n        /* \"@openzeppelin/contracts/token/ERC721/ERC721.sol\":4890:4894  from */\n      dup4\n        /* \"@openzeppelin/contracts/token/ERC721/ERC721.sol\":4896:4898  to */\n      dup4\n        /* \"@openzeppelin/contracts/token/ERC721/ERC721.sol\":4900:4907  tokenId */\n      dup4\n        /* \"@openzeppelin/contracts/token/ERC721/ERC721.sol\":4873:4912  safeTransferFrom(from, to, tokenId, \"\") */\n      mload(0x40)\n      dup1\n      0x20\n      add\n      0x40\n      mstore\n      dup1\n      0x00\n      dup2\n      mstore\n      pop\n        /* \"@openzeppelin/contracts/token/ERC721/ERC721.sol\":4873:4889  safeTransferFrom */\n      tag_91\n        /* \"@openzeppelin/contracts/token/ERC721/ERC721.sol\":4873:4912  safeTransferFrom(from, to, tokenId, \"\") */\n      jump\t// in\n    tag_137:\n        /* \"@openzeppelin/contracts/token/ERC721/ERC721.sol\":4787:4919  function safeTransferFrom(address from, address to, uint256 tokenId) public {... */\n      pop\n      pop\n      pop\n      jump\t// out\n        /* \"@openzeppelin/contracts/token/ERC721/ERC721.sol\":2185:2303  function ownerOf(uint256 tokenId) public view virtual returns (address) {... */\n    tag_66:\n        /* \"@openzeppelin/contracts/token/ERC721/ERC721.sol\":2248:2255  address */\n      0x00\n        /* \"@openzeppelin/contracts/token/ERC721/ERC721.sol\":2274:2296  _requireOwned(tokenId) */\n      tag_139\n        /* \"@openzeppelin/contracts/token/ERC721/ERC721.sol\":2288:2295  tokenId */\n      dup3\n        /* \"@openzeppelin/contracts/token/ERC721/ERC721.sol\":2274:2287  _requireOwned */\n      tag_118\n        /* \"@openzeppelin/contracts/token/ERC721/ERC721.sol\":2274:2296  _requireOwned(tokenId) */\n      jump\t// in\n    tag_139:\n        /* \"@openzeppelin/contracts/token/ERC721/ERC721.sol\":2267:2296  return _requireOwned(tokenId) */\n      swap1\n      pop\n        /* \"@openzeppelin/contracts/token/ERC721/ERC721.sol\":2185:2303  function ownerOf(uint256 tokenId) public view virtual returns (address) {... */\n      swap2\n      swap1\n      pop\n      jump\t// out\n        /* \"@openzeppelin/contracts/token/ERC721/ERC721.sol\":1920:2128  function balanceOf(address owner) public view virtual returns (uint256) {... */\n    tag_70:\n        /* \"@openzeppelin/contracts/token/ERC721/ERC721.sol\":1983:1990  uint256 */\n      0x00\n        /* \"@openzeppelin/contracts/token/ERC721/ERC721.sol\":2023:2024  0 */\n      dup1\n        /* \"@openzeppelin/contracts/token/ERC721/ERC721.sol\":2006:2025  owner == address(0) */\n      0xffffffffffffffffffffffffffffffffffffffff\n      and\n        /* \"@openzeppelin/contracts/token/ERC721/ERC721.sol\":2006:2011  owner */\n      dup3\n        /* \"@openzeppelin/contracts/token/ERC721/ERC721.sol\":2006:2025  owner == address(0) */\n      0xffffffffffffffffffffffffffffffffffffffff\n      and\n      sub\n        /* \"@openzeppelin/contracts/token/ERC721/ERC721.sol\":2002:2089  if (owner == address(0)) {... */\n      tag_141\n      jumpi\n        /* \"@openzeppelin/contracts/token/ERC721/ERC721.sol\":2075:2076  0 */\n      0x00\n        /* \"@openzeppelin/contracts/token/ERC721/ERC721.sol\":2048:2078  ERC721InvalidOwner(address(0)) */\n      mload(0x40)\n      0x89c62b6400000000000000000000000000000000000000000000000000000000\n      dup2\n      mstore\n      0x04\n      add\n      tag_142\n      swap2\n      swap1\n      tag_45\n      jump\t// in\n    tag_142:\n      mload(0x40)\n      dup1\n      swap2\n      sub\n      swap1\n      revert\n        /* \"@openzeppelin/contracts/token/ERC721/ERC721.sol\":2002:2089  if (owner == address(0)) {... */\n    tag_141:\n        /* \"@openzeppelin/contracts/token/ERC721/ERC721.sol\":2105:2114  _balances */\n      0x03\n        /* \"@openzeppelin/contracts/token/ERC721/ERC721.sol\":2105:2121  _balances[owner] */\n      0x00\n        /* \"@openzeppelin/contracts/token/ERC721/ERC721.sol\":2115:2120  owner */\n      dup4\n        /* \"@openzeppelin/contracts/token/ERC721/ERC721.sol\":2105:2121  _balances[owner] */\n      0xffffffffffffffffffffffffffffffffffffffff\n      and\n      0xffffffffffffffffffffffffffffffffffffffff\n      and\n      dup2\n      mstore\n      0x20\n      add\n      swap1\n      dup2\n      mstore\n      0x20\n      add\n      0x00\n      keccak256\n      sload\n        /* \"@openzeppelin/contracts/token/ERC721/ERC721.sol\":2098:2121  return _balances[owner] */\n      swap1\n      pop\n        /* \"@openzeppelin/contracts/token/ERC721/ERC721.sol\":1920:2128  function balanceOf(address owner) public view virtual returns (uint256) {... */\n      swap2\n      swap1\n      pop\n      jump\t// out\n        /* \"@openzeppelin/contracts/token/ERC721/ERC721.sol\":2518:2611  function symbol() public view virtual returns (string memory) {... */\n    tag_74:\n        /* \"@openzeppelin/contracts/token/ERC721/ERC721.sol\":2565:2578  string memory */\n      0x60\n        /* \"@openzeppelin/contracts/token/ERC721/ERC721.sol\":2597:2604  _symbol */\n      0x01\n        /* \"@openzeppelin/contracts/token/ERC721/ERC721.sol\":2590:2604  return _symbol */\n      dup1\n      sload\n      tag_144\n      swap1\n      tag_111\n      jump\t// in\n    tag_144:\n      dup1\n      0x1f\n      add\n      0x20\n      dup1\n      swap2\n      div\n      mul\n      0x20\n      add\n      mload(0x40)\n      swap1\n      dup2\n      add\n      0x40\n      mstore\n      dup1\n      swap3\n      swap2\n      swap1\n      dup2\n      dup2\n      mstore\n      0x20\n      add\n      dup3\n      dup1\n      sload\n      tag_145\n      swap1\n      tag_111\n      jump\t// in\n    tag_145:\n      dup1\n      iszero\n      tag_146\n      jumpi\n      dup1\n      0x1f\n      lt\n      tag_147\n      jumpi\n      0x0100\n      dup1\n      dup4\n      sload\n      div\n      mul\n      dup4\n      mstore\n      swap2\n      0x20\n      add\n      swap2\n      jump(tag_146)\n    tag_147:\n      dup3\n      add\n      swap2\n      swap1\n      0x00\n      mstore\n      keccak256(0x00, 0x20)\n      swap1\n    tag_148:\n      dup2\n      sload\n      dup2\n      mstore\n      swap1\n      0x01\n      add\n      swap1\n      0x20\n      add\n      dup1\n      dup4\n      gt\n      tag_148\n      jumpi\n      dup3\n      swap1\n      sub\n      0x1f\n      and\n      dup3\n      add\n      swap2\n    tag_146:\n      pop\n      pop\n      pop\n      pop\n      pop\n      swap1\n      pop\n        /* \"@openzeppelin/contracts/token/ERC721/ERC721.sol\":2518:2611  function symbol() public view virtual returns (string memory) {... */\n      swap1\n      jump\t// out\n        /* \"contracts/HelloWorld1.sol\":285:326  mapping(address => bool) public whitelist */\n    tag_78:\n      mstore(0x20, 0x08)\n      dup1\n      0x00\n      mstore\n      keccak256(0x00, 0x40)\n      0x00\n      swap2\n      pop\n      sload\n      swap1\n      0x0100\n      exp\n      swap1\n      div\n      0xff\n      and\n      dup2\n      jump\t// out\n        /* \"@openzeppelin/contracts/token/ERC721/ERC721.sol\":3718:3862  function setApprovalForAll(address operator, bool approved) public virtual {... */\n    tag_83:\n        /* \"@openzeppelin/contracts/token/ERC721/ERC721.sol\":3803:3855  _setApprovalForAll(_msgSender(), operator, approved) */\n      tag_150\n        /* \"@openzeppelin/contracts/token/ERC721/ERC721.sol\":3822:3834  _msgSender() */\n      tag_151\n        /* \"@openzeppelin/contracts/token/ERC721/ERC721.sol\":3822:3832  _msgSender */\n      tag_124\n        /* \"@openzeppelin/contracts/token/ERC721/ERC721.sol\":3822:3834  _msgSender() */\n      jump\t// in\n    tag_151:\n        /* \"@openzeppelin/contracts/token/ERC721/ERC721.sol\":3836:3844  operator */\n      dup4\n        /* \"@openzeppelin/contracts/token/ERC721/ERC721.sol\":3846:3854  approved */\n      dup4\n        /* \"@openzeppelin/contracts/token/ERC721/ERC721.sol\":3803:3821  _setApprovalForAll */\n      tag_152\n        /* \"@openzeppelin/contracts/token/ERC721/ERC721.sol\":3803:3855  _setApprovalForAll(_msgSender(), operator, approved) */\n      jump\t// in\n    tag_150:\n        /* \"@openzeppelin/contracts/token/ERC721/ERC721.sol\":3718:3862  function setApprovalForAll(address operator, bool approved) public virtual {... */\n      pop\n      pop\n      jump\t// out\n        /* \"contracts/HelloWorld1.sol\":702:1106  function signDocument(bytes32[] memory _proof) public {... */\n    tag_87:\n        /* \"contracts/HelloWorld1.sol\":774:799  isWhitelisted(msg.sender) */\n      tag_154\n        /* \"contracts/HelloWorld1.sol\":788:798  msg.sender */\n      caller\n        /* \"contracts/HelloWorld1.sol\":774:787  isWhitelisted */\n      tag_59\n        /* \"contracts/HelloWorld1.sol\":774:799  isWhitelisted(msg.sender) */\n      jump\t// in\n    tag_154:\n        /* \"contracts/HelloWorld1.sol\":766:830  require(isWhitelisted(msg.sender), \"Address is not whitelisted\") */\n      tag_155\n      jumpi\n      mload(0x40)\n      0x08c379a000000000000000000000000000000000000000000000000000000000\n      dup2\n      mstore\n      0x04\n      add\n      tag_156\n      swap1\n      tag_157\n      jump\t// in\n    tag_156:\n      mload(0x40)\n      dup1\n      swap2\n      sub\n      swap1\n      revert\n    tag_155:\n        /* \"contracts/HelloWorld1.sol\":848:925  MerkleProof.verify(_proof, merkleRoot, bytes32(uint256(uint160(msg.sender)))) */\n      tag_158\n        /* \"contracts/HelloWorld1.sol\":867:873  _proof */\n      dup2\n        /* \"contracts/HelloWorld1.sol\":875:885  merkleRoot */\n      sload(0x06)\n        /* \"contracts/HelloWorld1.sol\":911:921  msg.sender */\n      caller\n        /* \"contracts/HelloWorld1.sol\":895:923  uint256(uint160(msg.sender)) */\n      0xffffffffffffffffffffffffffffffffffffffff\n      and\n        /* \"contracts/HelloWorld1.sol\":887:924  bytes32(uint256(uint160(msg.sender))) */\n      0x00\n      shl\n        /* \"contracts/HelloWorld1.sol\":848:866  MerkleProof.verify */\n      tag_159\n        /* \"contracts/HelloWorld1.sol\":848:925  MerkleProof.verify(_proof, merkleRoot, bytes32(uint256(uint160(msg.sender)))) */\n      jump\t// in\n    tag_158:\n        /* \"contracts/HelloWorld1.sol\":840:943  require(MerkleProof.verify(_proof, merkleRoot, bytes32(uint256(uint160(msg.sender)))), \"Invalid proof\") */\n      tag_160\n      jumpi\n      mload(0x40)\n      0x08c379a000000000000000000000000000000000000000000000000000000000\n      dup2\n      mstore\n      0x04\n      add\n      tag_161\n      swap1\n      tag_162\n      jump\t// in\n    tag_161:\n      mload(0x40)\n      dup1\n      swap2\n      sub\n      swap1\n      revert\n    tag_160:\n        /* \"contracts/HelloWorld1.sol\":954:960  _nonce */\n      0x07\n      0x00\n        /* \"contracts/HelloWorld1.sol\":954:962  _nonce++ */\n      dup2\n      sload\n      dup1\n      swap3\n      swap2\n      swap1\n      tag_163\n      swap1\n      tag_164\n      jump\t// in\n    tag_163:\n      swap2\n      swap1\n      pop\n      sstore\n      pop\n        /* \"contracts/HelloWorld1.sol\":972:987  uint256 tokenId */\n      0x00\n        /* \"contracts/HelloWorld1.sol\":1025:1040  block.timestamp */\n      timestamp\n        /* \"contracts/HelloWorld1.sol\":1042:1052  msg.sender */\n      caller\n        /* \"contracts/HelloWorld1.sol\":1054:1060  _nonce */\n      sload(0x07)\n        /* \"contracts/HelloWorld1.sol\":1008:1061  abi.encodePacked(block.timestamp, msg.sender, _nonce) */\n      add(0x20, mload(0x40))\n      tag_165\n      swap4\n      swap3\n      swap2\n      swap1\n      tag_166\n      jump\t// in\n    tag_165:\n      mload(0x40)\n      0x20\n      dup2\n      dup4\n      sub\n      sub\n      dup2\n      mstore\n      swap1\n      0x40\n      mstore\n        /* \"contracts/HelloWorld1.sol\":998:1062  keccak256(abi.encodePacked(block.timestamp, msg.sender, _nonce)) */\n      dup1\n      mload\n      swap1\n      0x20\n      add\n      keccak256\n        /* \"contracts/HelloWorld1.sol\":990:1063  uint256(keccak256(abi.encodePacked(block.timestamp, msg.sender, _nonce))) */\n      0x00\n      shr\n        /* \"contracts/HelloWorld1.sol\":972:1063  uint256 tokenId = uint256(keccak256(abi.encodePacked(block.timestamp, msg.sender, _nonce))) */\n      swap1\n      pop\n        /* \"contracts/HelloWorld1.sol\":1073:1099  _mint(msg.sender, tokenId) */\n      tag_167\n        /* \"contracts/HelloWorld1.sol\":1079:1089  msg.sender */\n      caller\n        /* \"contracts/HelloWorld1.sol\":1091:1098  tokenId */\n      dup3\n        /* \"contracts/HelloWorld1.sol\":1073:1078  _mint */\n      tag_168\n        /* \"contracts/HelloWorld1.sol\":1073:1099  _mint(msg.sender, tokenId) */\n      jump\t// in\n    tag_167:\n        /* \"contracts/HelloWorld1.sol\":756:1106  {... */\n      pop\n        /* \"contracts/HelloWorld1.sol\":702:1106  function signDocument(bytes32[] memory _proof) public {... */\n      pop\n      jump\t// out\n        /* \"@openzeppelin/contracts/token/ERC721/ERC721.sol\":4985:5193  function safeTransferFrom(address from, address to, uint256 tokenId, bytes memory data) public virtual {... */\n    tag_91:\n        /* \"@openzeppelin/contracts/token/ERC721/ERC721.sol\":5098:5129  transferFrom(from, to, tokenId) */\n      tag_170\n        /* \"@openzeppelin/contracts/token/ERC721/ERC721.sol\":5111:5115  from */\n      dup5\n        /* \"@openzeppelin/contracts/token/ERC721/ERC721.sol\":5117:5119  to */\n      dup5\n        /* \"@openzeppelin/contracts/token/ERC721/ERC721.sol\":5121:5128  tokenId */\n      dup5\n        /* \"@openzeppelin/contracts/token/ERC721/ERC721.sol\":5098:5110  transferFrom */\n      tag_53\n        /* \"@openzeppelin/contracts/token/ERC721/ERC721.sol\":5098:5129  transferFrom(from, to, tokenId) */\n      jump\t// in\n    tag_170:\n        /* \"@openzeppelin/contracts/token/ERC721/ERC721.sol\":5139:5186  _checkOnERC721Received(from, to, tokenId, data) */\n      tag_171\n        /* \"@openzeppelin/contracts/token/ERC721/ERC721.sol\":5162:5166  from */\n      dup5\n        /* \"@openzeppelin/contracts/token/ERC721/ERC721.sol\":5168:5170  to */\n      dup5\n        /* \"@openzeppelin/contracts/token/ERC721/ERC721.sol\":5172:5179  tokenId */\n      dup5\n        /* \"@openzeppelin/contracts/token/ERC721/ERC721.sol\":5181:5185  data */\n      dup5\n        /* \"@openzeppelin/contracts/token/ERC721/ERC721.sol\":5139:5161  _checkOnERC721Received */\n      tag_172\n        /* \"@openzeppelin/contracts/token/ERC721/ERC721.sol\":5139:5186  _checkOnERC721Received(from, to, tokenId, data) */\n      jump\t// in\n    tag_171:\n        /* \"@openzeppelin/contracts/token/ERC721/ERC721.sol\":4985:5193  function safeTransferFrom(address from, address to, uint256 tokenId, bytes memory data) public virtual {... */\n      pop\n      pop\n      pop\n      pop\n      jump\t// out\n        /* \"@openzeppelin/contracts/token/ERC721/ERC721.sol\":2677:2932  function tokenURI(uint256 tokenId) public view virtual returns (string memory) {... */\n    tag_94:\n        /* \"@openzeppelin/contracts/token/ERC721/ERC721.sol\":2741:2754  string memory */\n      0x60\n        /* \"@openzeppelin/contracts/token/ERC721/ERC721.sol\":2766:2788  _requireOwned(tokenId) */\n      tag_174\n        /* \"@openzeppelin/contracts/token/ERC721/ERC721.sol\":2780:2787  tokenId */\n      dup3\n        /* \"@openzeppelin/contracts/token/ERC721/ERC721.sol\":2766:2779  _requireOwned */\n      tag_118\n        /* \"@openzeppelin/contracts/token/ERC721/ERC721.sol\":2766:2788  _requireOwned(tokenId) */\n      jump\t// in\n    tag_174:\n      pop\n        /* \"@openzeppelin/contracts/token/ERC721/ERC721.sol\":2799:2820  string memory baseURI */\n      0x00\n        /* \"@openzeppelin/contracts/token/ERC721/ERC721.sol\":2823:2833  _baseURI() */\n      tag_175\n        /* \"@openzeppelin/contracts/token/ERC721/ERC721.sol\":2823:2831  _baseURI */\n      tag_176\n        /* \"@openzeppelin/contracts/token/ERC721/ERC721.sol\":2823:2833  _baseURI() */\n      jump\t// in\n    tag_175:\n        /* \"@openzeppelin/contracts/token/ERC721/ERC721.sol\":2799:2833  string memory baseURI = _baseURI() */\n      swap1\n      pop\n        /* \"@openzeppelin/contracts/token/ERC721/ERC721.sol\":2874:2875  0 */\n      0x00\n        /* \"@openzeppelin/contracts/token/ERC721/ERC721.sol\":2856:2863  baseURI */\n      dup2\n        /* \"@openzeppelin/contracts/token/ERC721/ERC721.sol\":2850:2871  bytes(baseURI).length */\n      mload\n        /* \"@openzeppelin/contracts/token/ERC721/ERC721.sol\":2850:2875  bytes(baseURI).length > 0 */\n      gt\n        /* \"@openzeppelin/contracts/token/ERC721/ERC721.sol\":2850:2925  bytes(baseURI).length > 0 ? string.concat(baseURI, tokenId.toString()) : \"\" */\n      tag_177\n      jumpi\n      mload(0x40)\n      dup1\n      0x20\n      add\n      0x40\n      mstore\n      dup1\n      0x00\n      dup2\n      mstore\n      pop\n      jump(tag_178)\n    tag_177:\n        /* \"@openzeppelin/contracts/token/ERC721/ERC721.sol\":2892:2899  baseURI */\n      dup1\n        /* \"@openzeppelin/contracts/token/ERC721/ERC721.sol\":2901:2919  tokenId.toString() */\n      tag_179\n        /* \"@openzeppelin/contracts/token/ERC721/ERC721.sol\":2901:2908  tokenId */\n      dup5\n        /* \"@openzeppelin/contracts/token/ERC721/ERC721.sol\":2901:2917  tokenId.toString */\n      tag_180\n        /* \"@openzeppelin/contracts/token/ERC721/ERC721.sol\":2901:2919  tokenId.toString() */\n      jump\t// in\n    tag_179:\n        /* \"@openzeppelin/contracts/token/ERC721/ERC721.sol\":2878:2920  string.concat(baseURI, tokenId.toString()) */\n      add(0x20, mload(0x40))\n      tag_181\n      swap3\n      swap2\n      swap1\n      tag_182\n      jump\t// in\n    tag_181:\n      mload(0x40)\n      0x20\n      dup2\n      dup4\n      sub\n      sub\n      dup2\n      mstore\n      swap1\n      0x40\n      mstore\n        /* \"@openzeppelin/contracts/token/ERC721/ERC721.sol\":2850:2925  bytes(baseURI).length > 0 ? string.concat(baseURI, tokenId.toString()) : \"\" */\n    tag_178:\n        /* \"@openzeppelin/contracts/token/ERC721/ERC721.sol\":2843:2925  return bytes(baseURI).length > 0 ? string.concat(baseURI, tokenId.toString()) : \"\" */\n      swap2\n      pop\n      pop\n        /* \"@openzeppelin/contracts/token/ERC721/ERC721.sol\":2677:2932  function tokenURI(uint256 tokenId) public view virtual returns (string memory) {... */\n      swap2\n      swap1\n      pop\n      jump\t// out\n        /* \"@openzeppelin/contracts/token/ERC721/ERC721.sol\":3928:4081  function isApprovedForAll(address owner, address operator) public view virtual returns (bool) {... */\n    tag_99:\n        /* \"@openzeppelin/contracts/token/ERC721/ERC721.sol\":4016:4020  bool */\n      0x00\n        /* \"@openzeppelin/contracts/token/ERC721/ERC721.sol\":4039:4057  _operatorApprovals */\n      0x05\n        /* \"@openzeppelin/contracts/token/ERC721/ERC721.sol\":4039:4064  _operatorApprovals[owner] */\n      0x00\n        /* \"@openzeppelin/contracts/token/ERC721/ERC721.sol\":4058:4063  owner */\n      dup5\n        /* \"@openzeppelin/contracts/token/ERC721/ERC721.sol\":4039:4064  _operatorApprovals[owner] */\n      0xffffffffffffffffffffffffffffffffffffffff\n      and\n      0xffffffffffffffffffffffffffffffffffffffff\n      and\n      dup2\n      mstore\n      0x20\n      add\n      swap1\n      dup2\n      mstore\n      0x20\n      add\n      0x00\n      keccak256\n        /* \"@openzeppelin/contracts/token/ERC721/ERC721.sol\":4039:4074  _operatorApprovals[owner][operator] */\n      0x00\n        /* \"@openzeppelin/contracts/token/ERC721/ERC721.sol\":4065:4073  operator */\n      dup4\n        /* \"@openzeppelin/contracts/token/ERC721/ERC721.sol\":4039:4074  _operatorApprovals[owner][operator] */\n      0xffffffffffffffffffffffffffffffffffffffff\n      and\n      0xffffffffffffffffffffffffffffffffffffffff\n      and\n      dup2\n      mstore\n      0x20\n      add\n      swap1\n      dup2\n      mstore\n      0x20\n      add\n      0x00\n      keccak256\n      0x00\n      swap1\n      sload\n      swap1\n      0x0100\n      exp\n      swap1\n      div\n      0xff\n      and\n        /* \"@openzeppelin/contracts/token/ERC721/ERC721.sol\":4032:4074  return _operatorApprovals[owner][operator] */\n      swap1\n      pop\n        /* \"@openzeppelin/contracts/token/ERC721/ERC721.sol\":3928:4081  function isApprovedForAll(address owner, address operator) public view virtual returns (bool) {... */\n      swap3\n      swap2\n      pop\n      pop\n      jump\t// out\n        /* \"@openzeppelin/contracts/utils/introspection/ERC165.sol\":762:908  function supportsInterface(bytes4 interfaceId) public view virtual returns (bool) {... */\n    tag_105:\n        /* \"@openzeppelin/contracts/utils/introspection/ERC165.sol\":838:842  bool */\n      0x00\n        /* \"@openzeppelin/contracts/utils/introspection/ERC165.sol\":876:901  type(IERC165).interfaceId */\n      0x01ffc9a700000000000000000000000000000000000000000000000000000000\n        /* \"@openzeppelin/contracts/utils/introspection/ERC165.sol\":861:901  interfaceId == type(IERC165).interfaceId */\n      not(0xffffffffffffffffffffffffffffffffffffffffffffffffffffffff)\n      and\n        /* \"@openzeppelin/contracts/utils/introspection/ERC165.sol\":861:872  interfaceId */\n      dup3\n        /* \"@openzeppelin/contracts/utils/introspection/ERC165.sol\":861:901  interfaceId == type(IERC165).interfaceId */\n      not(0xffffffffffffffffffffffffffffffffffffffffffffffffffffffff)\n      and\n      eq\n        /* \"@openzeppelin/contracts/utils/introspection/ERC165.sol\":854:901  return interfaceId == type(IERC165).interfaceId */\n      swap1\n      pop\n        /* \"@openzeppelin/contracts/utils/introspection/ERC165.sol\":762:908  function supportsInterface(bytes4 interfaceId) public view virtual returns (bool) {... */\n      swap2\n      swap1\n      pop\n      jump\t// out\n        /* \"@openzeppelin/contracts/token/ERC721/ERC721.sol\":16138:16379  function _requireOwned(uint256 tokenId) internal view returns (address) {... */\n    tag_118:\n        /* \"@openzeppelin/contracts/token/ERC721/ERC721.sol\":16201:16208  address */\n      0x00\n        /* \"@openzeppelin/contracts/token/ERC721/ERC721.sol\":16220:16233  address owner */\n      dup1\n        /* \"@openzeppelin/contracts/token/ERC721/ERC721.sol\":16236:16253  _ownerOf(tokenId) */\n      tag_186\n        /* \"@openzeppelin/contracts/token/ERC721/ERC721.sol\":16245:16252  tokenId */\n      dup4\n        /* \"@openzeppelin/contracts/token/ERC721/ERC721.sol\":16236:16244  _ownerOf */\n      tag_187\n        /* \"@openzeppelin/contracts/token/ERC721/ERC721.sol\":16236:16253  _ownerOf(tokenId) */\n      jump\t// in\n    tag_186:\n        /* \"@openzeppelin/contracts/token/ERC721/ERC721.sol\":16220:16253  address owner = _ownerOf(tokenId) */\n      swap1\n      pop\n        /* \"@openzeppelin/contracts/token/ERC721/ERC721.sol\":16284:16285  0 */\n      0x00\n        /* \"@openzeppelin/contracts/token/ERC721/ERC721.sol\":16267:16286  owner == address(0) */\n      0xffffffffffffffffffffffffffffffffffffffff\n      and\n        /* \"@openzeppelin/contracts/token/ERC721/ERC721.sol\":16267:16272  owner */\n      dup2\n        /* \"@openzeppelin/contracts/token/ERC721/ERC721.sol\":16267:16286  owner == address(0) */\n      0xffffffffffffffffffffffffffffffffffffffff\n      and\n      sub\n        /* \"@openzeppelin/contracts/token/ERC721/ERC721.sol\":16263:16351  if (owner == address(0)) {... */\n      tag_188\n      jumpi\n        /* \"@openzeppelin/contracts/token/ERC721/ERC721.sol\":16332:16339  tokenId */\n      dup3\n        /* \"@openzeppelin/contracts/token/ERC721/ERC721.sol\":16309:16340  ERC721NonexistentToken(tokenId) */\n      mload(0x40)\n      0x7e27328900000000000000000000000000000000000000000000000000000000\n      dup2\n      mstore\n      0x04\n      add\n      tag_189\n      swap2\n      swap1\n      tag_72\n      jump\t// in\n    tag_189:\n      mload(0x40)\n      dup1\n      swap2\n      sub\n      swap1\n      revert\n        /* \"@openzeppelin/contracts/token/ERC721/ERC721.sol\":16263:16351  if (owner == address(0)) {... */\n    tag_188:\n        /* \"@openzeppelin/contracts/token/ERC721/ERC721.sol\":16367:16372  owner */\n      dup1\n        /* \"@openzeppelin/contracts/token/ERC721/ERC721.sol\":16360:16372  return owner */\n      swap2\n      pop\n      pop\n        /* \"@openzeppelin/contracts/token/ERC721/ERC721.sol\":16138:16379  function _requireOwned(uint256 tokenId) internal view returns (address) {... */\n      swap2\n      swap1\n      pop\n      jump\t// out\n        /* \"@openzeppelin/contracts/token/ERC721/ERC721.sol\":5938:6065  function _getApproved(uint256 tokenId) internal view virtual returns (address) {... */\n    tag_120:\n        /* \"@openzeppelin/contracts/token/ERC721/ERC721.sol\":6008:6015  address */\n      0x00\n        /* \"@openzeppelin/contracts/token/ERC721/ERC721.sol\":6034:6049  _tokenApprovals */\n      0x04\n        /* \"@openzeppelin/contracts/token/ERC721/ERC721.sol\":6034:6058  _tokenApprovals[tokenId] */\n      0x00\n        /* \"@openzeppelin/contracts/token/ERC721/ERC721.sol\":6050:6057  tokenId */\n      dup4\n        /* \"@openzeppelin/contracts/token/ERC721/ERC721.sol\":6034:6058  _tokenApprovals[tokenId] */\n      dup2\n      mstore\n      0x20\n      add\n      swap1\n      dup2\n      mstore\n      0x20\n      add\n      0x00\n      keccak256\n      0x00\n      swap1\n      sload\n      swap1\n      0x0100\n      exp\n      swap1\n      div\n      0xffffffffffffffffffffffffffffffffffffffff\n      and\n        /* \"@openzeppelin/contracts/token/ERC721/ERC721.sol\":6027:6058  return _tokenApprovals[tokenId] */\n      swap1\n      pop\n        /* \"@openzeppelin/contracts/token/ERC721/ERC721.sol\":5938:6065  function _getApproved(uint256 tokenId) internal view virtual returns (address) {... */\n      swap2\n      swap1\n      pop\n      jump\t// out\n        /* \"@openzeppelin/contracts/utils/Context.sol\":656:752  function _msgSender() internal view virtual returns (address) {... */\n    tag_124:\n        /* \"@openzeppelin/contracts/utils/Context.sol\":709:716  address */\n      0x00\n        /* \"@openzeppelin/contracts/utils/Context.sol\":735:745  msg.sender */\n      caller\n        /* \"@openzeppelin/contracts/utils/Context.sol\":728:745  return msg.sender */\n      swap1\n      pop\n        /* \"@openzeppelin/contracts/utils/Context.sol\":656:752  function _msgSender() internal view virtual returns (address) {... */\n      swap1\n      jump\t// out\n        /* \"@openzeppelin/contracts/token/ERC721/ERC721.sol\":14418:14538  function _approve(address to, uint256 tokenId, address auth) internal {... */\n    tag_125:\n        /* \"@openzeppelin/contracts/token/ERC721/ERC721.sol\":14498:14531  _approve(to, tokenId, auth, true) */\n      tag_193\n        /* \"@openzeppelin/contracts/token/ERC721/ERC721.sol\":14507:14509  to */\n      dup4\n        /* \"@openzeppelin/contracts/token/ERC721/ERC721.sol\":14511:14518  tokenId */\n      dup4\n        /* \"@openzeppelin/contracts/token/ERC721/ERC721.sol\":14520:14524  auth */\n      dup4\n        /* \"@openzeppelin/contracts/token/ERC721/ERC721.sol\":14526:14530  true */\n      0x01\n        /* \"@openzeppelin/contracts/token/ERC721/ERC721.sol\":14498:14506  _approve */\n      tag_194\n        /* \"@openzeppelin/contracts/token/ERC721/ERC721.sol\":14498:14531  _approve(to, tokenId, auth, true) */\n      jump\t// in\n    tag_193:\n        /* \"@openzeppelin/contracts/token/ERC721/ERC721.sol\":14418:14538  function _approve(address to, uint256 tokenId, address auth) internal {... */\n      pop\n      pop\n      pop\n      jump\t// out\n        /* \"@openzeppelin/contracts/token/ERC721/ERC721.sol\":8838:9633  function _update(address to, uint256 tokenId, address auth) internal virtual returns (address) {... */\n    tag_131:\n        /* \"@openzeppelin/contracts/token/ERC721/ERC721.sol\":8924:8931  address */\n      0x00\n        /* \"@openzeppelin/contracts/token/ERC721/ERC721.sol\":8943:8955  address from */\n      dup1\n        /* \"@openzeppelin/contracts/token/ERC721/ERC721.sol\":8958:8975  _ownerOf(tokenId) */\n      tag_196\n        /* \"@openzeppelin/contracts/token/ERC721/ERC721.sol\":8967:8974  tokenId */\n      dup5\n        /* \"@openzeppelin/contracts/token/ERC721/ERC721.sol\":8958:8966  _ownerOf */\n      tag_187\n        /* \"@openzeppelin/contracts/token/ERC721/ERC721.sol\":8958:8975  _ownerOf(tokenId) */\n      jump\t// in\n    tag_196:\n        /* \"@openzeppelin/contracts/token/ERC721/ERC721.sol\":8943:8975  address from = _ownerOf(tokenId) */\n      swap1\n      pop\n        /* \"@openzeppelin/contracts/token/ERC721/ERC721.sol\":9051:9052  0 */\n      0x00\n        /* \"@openzeppelin/contracts/token/ERC721/ERC721.sol\":9035:9053  auth != address(0) */\n      0xffffffffffffffffffffffffffffffffffffffff\n      and\n        /* \"@openzeppelin/contracts/token/ERC721/ERC721.sol\":9035:9039  auth */\n      dup4\n        /* \"@openzeppelin/contracts/token/ERC721/ERC721.sol\":9035:9053  auth != address(0) */\n      0xffffffffffffffffffffffffffffffffffffffff\n      and\n      eq\n        /* \"@openzeppelin/contracts/token/ERC721/ERC721.sol\":9031:9117  if (auth != address(0)) {... */\n      tag_197\n      jumpi\n        /* \"@openzeppelin/contracts/token/ERC721/ERC721.sol\":9069:9106  _checkAuthorized(from, auth, tokenId) */\n      tag_198\n        /* \"@openzeppelin/contracts/token/ERC721/ERC721.sol\":9086:9090  from */\n      dup2\n        /* \"@openzeppelin/contracts/token/ERC721/ERC721.sol\":9092:9096  auth */\n      dup5\n        /* \"@openzeppelin/contracts/token/ERC721/ERC721.sol\":9098:9105  tokenId */\n      dup7\n        /* \"@openzeppelin/contracts/token/ERC721/ERC721.sol\":9069:9085  _checkAuthorized */\n      tag_199\n        /* \"@openzeppelin/contracts/token/ERC721/ERC721.sol\":9069:9106  _checkAuthorized(from, auth, tokenId) */\n      jump\t// in\n    tag_198:\n        /* \"@openzeppelin/contracts/token/ERC721/ERC721.sol\":9031:9117  if (auth != address(0)) {... */\n    tag_197:\n        /* \"@openzeppelin/contracts/token/ERC721/ERC721.sol\":9177:9178  0 */\n      0x00\n        /* \"@openzeppelin/contracts/token/ERC721/ERC721.sol\":9161:9179  from != address(0) */\n      0xffffffffffffffffffffffffffffffffffffffff\n      and\n        /* \"@openzeppelin/contracts/token/ERC721/ERC721.sol\":9161:9165  from */\n      dup2\n        /* \"@openzeppelin/contracts/token/ERC721/ERC721.sol\":9161:9179  from != address(0) */\n      0xffffffffffffffffffffffffffffffffffffffff\n      and\n      eq\n        /* \"@openzeppelin/contracts/token/ERC721/ERC721.sol\":9157:9413  if (from != address(0)) {... */\n      tag_200\n      jumpi\n        /* \"@openzeppelin/contracts/token/ERC721/ERC721.sol\":9277:9325  _approve(address(0), tokenId, address(0), false) */\n      tag_201\n        /* \"@openzeppelin/contracts/token/ERC721/ERC721.sol\":9294:9295  0 */\n      0x00\n        /* \"@openzeppelin/contracts/token/ERC721/ERC721.sol\":9298:9305  tokenId */\n      dup6\n        /* \"@openzeppelin/contracts/token/ERC721/ERC721.sol\":9315:9316  0 */\n      0x00\n        /* \"@openzeppelin/contracts/token/ERC721/ERC721.sol\":9319:9324  false */\n      dup1\n        /* \"@openzeppelin/contracts/token/ERC721/ERC721.sol\":9277:9285  _approve */\n      tag_194\n        /* \"@openzeppelin/contracts/token/ERC721/ERC721.sol\":9277:9325  _approve(address(0), tokenId, address(0), false) */\n      jump\t// in\n    tag_201:\n        /* \"@openzeppelin/contracts/token/ERC721/ERC721.sol\":9387:9388  1 */\n      0x01\n        /* \"@openzeppelin/contracts/token/ERC721/ERC721.sol\":9368:9377  _balances */\n      0x03\n        /* \"@openzeppelin/contracts/token/ERC721/ERC721.sol\":9368:9383  _balances[from] */\n      0x00\n        /* \"@openzeppelin/contracts/token/ERC721/ERC721.sol\":9378:9382  from */\n      dup4\n        /* \"@openzeppelin/contracts/token/ERC721/ERC721.sol\":9368:9383  _balances[from] */\n      0xffffffffffffffffffffffffffffffffffffffff\n      and\n      0xffffffffffffffffffffffffffffffffffffffff\n      and\n      dup2\n      mstore\n      0x20\n      add\n      swap1\n      dup2\n      mstore\n      0x20\n      add\n      0x00\n      keccak256\n      0x00\n        /* \"@openzeppelin/contracts/token/ERC721/ERC721.sol\":9368:9388  _balances[from] -= 1 */\n      dup3\n      dup3\n      sload\n      sub\n      swap3\n      pop\n      pop\n      dup2\n      swap1\n      sstore\n      pop\n        /* \"@openzeppelin/contracts/token/ERC721/ERC721.sol\":9157:9413  if (from != address(0)) {... */\n    tag_200:\n        /* \"@openzeppelin/contracts/token/ERC721/ERC721.sol\":9441:9442  0 */\n      0x00\n        /* \"@openzeppelin/contracts/token/ERC721/ERC721.sol\":9427:9443  to != address(0) */\n      0xffffffffffffffffffffffffffffffffffffffff\n      and\n        /* \"@openzeppelin/contracts/token/ERC721/ERC721.sol\":9427:9429  to */\n      dup6\n        /* \"@openzeppelin/contracts/token/ERC721/ERC721.sol\":9427:9443  to != address(0) */\n      0xffffffffffffffffffffffffffffffffffffffff\n      and\n      eq\n        /* \"@openzeppelin/contracts/token/ERC721/ERC721.sol\":9423:9530  if (to != address(0)) {... */\n      tag_202\n      jumpi\n        /* \"@openzeppelin/contracts/token/ERC721/ERC721.sol\":9504:9505  1 */\n      0x01\n        /* \"@openzeppelin/contracts/token/ERC721/ERC721.sol\":9487:9496  _balances */\n      0x03\n        /* \"@openzeppelin/contracts/token/ERC721/ERC721.sol\":9487:9500  _balances[to] */\n      0x00\n        /* \"@openzeppelin/contracts/token/ERC721/ERC721.sol\":9497:9499  to */\n      dup8\n        /* \"@openzeppelin/contracts/token/ERC721/ERC721.sol\":9487:9500  _balances[to] */\n      0xffffffffffffffffffffffffffffffffffffffff\n      and\n      0xffffffffffffffffffffffffffffffffffffffff\n      and\n      dup2\n      mstore\n      0x20\n      add\n      swap1\n      dup2\n      mstore\n      0x20\n      add\n      0x00\n      keccak256\n      0x00\n        /* \"@openzeppelin/contracts/token/ERC721/ERC721.sol\":9487:9505  _balances[to] += 1 */\n      dup3\n      dup3\n      sload\n      add\n      swap3\n      pop\n      pop\n      dup2\n      swap1\n      sstore\n      pop\n        /* \"@openzeppelin/contracts/token/ERC721/ERC721.sol\":9423:9530  if (to != address(0)) {... */\n    tag_202:\n        /* \"@openzeppelin/contracts/token/ERC721/ERC721.sol\":9559:9561  to */\n      dup5\n        /* \"@openzeppelin/contracts/token/ERC721/ERC721.sol\":9540:9547  _owners */\n      0x02\n        /* \"@openzeppelin/contracts/token/ERC721/ERC721.sol\":9540:9556  _owners[tokenId] */\n      0x00\n        /* \"@openzeppelin/contracts/token/ERC721/ERC721.sol\":9548:9555  tokenId */\n      dup7\n        /* \"@openzeppelin/contracts/token/ERC721/ERC721.sol\":9540:9556  _owners[tokenId] */\n      dup2\n      mstore\n      0x20\n      add\n      swap1\n      dup2\n      mstore\n      0x20\n      add\n      0x00\n      keccak256\n      0x00\n        /* \"@openzeppelin/contracts/token/ERC721/ERC721.sol\":9540:9561  _owners[tokenId] = to */\n      0x0100\n      exp\n      dup2\n      sload\n      dup2\n      0xffffffffffffffffffffffffffffffffffffffff\n      mul\n      not\n      and\n      swap1\n      dup4\n      0xffffffffffffffffffffffffffffffffffffffff\n      and\n      mul\n      or\n      swap1\n      sstore\n      pop\n        /* \"@openzeppelin/contracts/token/ERC721/ERC721.sol\":9596:9603  tokenId */\n      dup4\n        /* \"@openzeppelin/contracts/token/ERC721/ERC721.sol\":9592:9594  to */\n      dup6\n        /* \"@openzeppelin/contracts/token/ERC721/ERC721.sol\":9577:9604  Transfer(from, to, tokenId) */\n      0xffffffffffffffffffffffffffffffffffffffff\n      and\n        /* \"@openzeppelin/contracts/token/ERC721/ERC721.sol\":9586:9590  from */\n      dup3\n        /* \"@openzeppelin/contracts/token/ERC721/ERC721.sol\":9577:9604  Transfer(from, to, tokenId) */\n      0xffffffffffffffffffffffffffffffffffffffff\n      and\n      0xddf252ad1be2c89b69c2b068fc378daa952ba7f163c4a11628f55a4df523b3ef\n      mload(0x40)\n      mload(0x40)\n      dup1\n      swap2\n      sub\n      swap1\n      log4\n        /* \"@openzeppelin/contracts/token/ERC721/ERC721.sol\":9622:9626  from */\n      dup1\n        /* \"@openzeppelin/contracts/token/ERC721/ERC721.sol\":9615:9626  return from */\n      swap2\n      pop\n      pop\n        /* \"@openzeppelin/contracts/token/ERC721/ERC721.sol\":8838:9633  function _update(address to, uint256 tokenId, address auth) internal virtual returns (address) {... */\n      swap4\n      swap3\n      pop\n      pop\n      pop\n      jump\t// out\n        /* \"@openzeppelin/contracts/token/ERC721/ERC721.sol\":15591:15903  function _setApprovalForAll(address owner, address operator, bool approved) internal virtual {... */\n    tag_152:\n        /* \"@openzeppelin/contracts/token/ERC721/ERC721.sol\":15718:15719  0 */\n      0x00\n        /* \"@openzeppelin/contracts/token/ERC721/ERC721.sol\":15698:15720  operator == address(0) */\n      0xffffffffffffffffffffffffffffffffffffffff\n      and\n        /* \"@openzeppelin/contracts/token/ERC721/ERC721.sol\":15698:15706  operator */\n      dup3\n        /* \"@openzeppelin/contracts/token/ERC721/ERC721.sol\":15698:15720  operator == address(0) */\n      0xffffffffffffffffffffffffffffffffffffffff\n      and\n      sub\n        /* \"@openzeppelin/contracts/token/ERC721/ERC721.sol\":15694:15785  if (operator == address(0)) {... */\n      tag_204\n      jumpi\n        /* \"@openzeppelin/contracts/token/ERC721/ERC721.sol\":15765:15773  operator */\n      dup2\n        /* \"@openzeppelin/contracts/token/ERC721/ERC721.sol\":15743:15774  ERC721InvalidOperator(operator) */\n      mload(0x40)\n      0x5b08ba1800000000000000000000000000000000000000000000000000000000\n      dup2\n      mstore\n      0x04\n      add\n      tag_205\n      swap2\n      swap1\n      tag_45\n      jump\t// in\n    tag_205:\n      mload(0x40)\n      dup1\n      swap2\n      sub\n      swap1\n      revert\n        /* \"@openzeppelin/contracts/token/ERC721/ERC721.sol\":15694:15785  if (operator == address(0)) {... */\n    tag_204:\n        /* \"@openzeppelin/contracts/token/ERC721/ERC721.sol\":15832:15840  approved */\n      dup1\n        /* \"@openzeppelin/contracts/token/ERC721/ERC721.sol\":15794:15812  _operatorApprovals */\n      0x05\n        /* \"@openzeppelin/contracts/token/ERC721/ERC721.sol\":15794:15819  _operatorApprovals[owner] */\n      0x00\n        /* \"@openzeppelin/contracts/token/ERC721/ERC721.sol\":15813:15818  owner */\n      dup6\n        /* \"@openzeppelin/contracts/token/ERC721/ERC721.sol\":15794:15819  _operatorApprovals[owner] */\n      0xffffffffffffffffffffffffffffffffffffffff\n      and\n      0xffffffffffffffffffffffffffffffffffffffff\n      and\n      dup2\n      mstore\n      0x20\n      add\n      swap1\n      dup2\n      mstore\n      0x20\n      add\n      0x00\n      keccak256\n        /* \"@openzeppelin/contracts/token/ERC721/ERC721.sol\":15794:15829  _operatorApprovals[owner][operator] */\n      0x00\n        /* \"@openzeppelin/contracts/token/ERC721/ERC721.sol\":15820:15828  operator */\n      dup5\n        /* \"@openzeppelin/contracts/token/ERC721/ERC721.sol\":15794:15829  _operatorApprovals[owner][operator] */\n      0xffffffffffffffffffffffffffffffffffffffff\n      and\n      0xffffffffffffffffffffffffffffffffffffffff\n      and\n      dup2\n      mstore\n      0x20\n      add\n      swap1\n      dup2\n      mstore\n      0x20\n      add\n      0x00\n      keccak256\n      0x00\n        /* \"@openzeppelin/contracts/token/ERC721/ERC721.sol\":15794:15840  _operatorApprovals[owner][operator] = approved */\n      0x0100\n      exp\n      dup2\n      sload\n      dup2\n      0xff\n      mul\n      not\n      and\n      swap1\n      dup4\n      iszero\n      iszero\n      mul\n      or\n      swap1\n      sstore\n      pop\n        /* \"@openzeppelin/contracts/token/ERC721/ERC721.sol\":15877:15885  operator */\n      dup2\n        /* \"@openzeppelin/contracts/token/ERC721/ERC721.sol\":15855:15896  ApprovalForAll(owner, operator, approved) */\n      0xffffffffffffffffffffffffffffffffffffffff\n      and\n        /* \"@openzeppelin/contracts/token/ERC721/ERC721.sol\":15870:15875  owner */\n      dup4\n        /* \"@openzeppelin/contracts/token/ERC721/ERC721.sol\":15855:15896  ApprovalForAll(owner, operator, approved) */\n      0xffffffffffffffffffffffffffffffffffffffff\n      and\n      0x17307eab39ab6107e8899845ad3d59bd9653f200f220920489ca2b5937696c31\n        /* \"@openzeppelin/contracts/token/ERC721/ERC721.sol\":15887:15895  approved */\n      dup4\n        /* \"@openzeppelin/contracts/token/ERC721/ERC721.sol\":15855:15896  ApprovalForAll(owner, operator, approved) */\n      mload(0x40)\n      tag_206\n      swap2\n      swap1\n      tag_29\n      jump\t// in\n    tag_206:\n      mload(0x40)\n      dup1\n      swap2\n      sub\n      swap1\n      log3\n        /* \"@openzeppelin/contracts/token/ERC721/ERC721.sol\":15591:15903  function _setApprovalForAll(address owner, address operator, bool approved) internal virtual {... */\n      pop\n      pop\n      pop\n      jump\t// out\n        /* \"@openzeppelin/contracts/utils/cryptography/MerkleProof.sol\":1265:1419  function verify(bytes32[] memory proof, bytes32 root, bytes32 leaf) internal pure returns (bool) {... */\n    tag_159:\n        /* \"@openzeppelin/contracts/utils/cryptography/MerkleProof.sol\":1356:1360  bool */\n      0x00\n        /* \"@openzeppelin/contracts/utils/cryptography/MerkleProof.sol\":1408:1412  root */\n      dup3\n        /* \"@openzeppelin/contracts/utils/cryptography/MerkleProof.sol\":1379:1404  processProof(proof, leaf) */\n      tag_208\n        /* \"@openzeppelin/contracts/utils/cryptography/MerkleProof.sol\":1392:1397  proof */\n      dup6\n        /* \"@openzeppelin/contracts/utils/cryptography/MerkleProof.sol\":1399:1403  leaf */\n      dup5\n        /* \"@openzeppelin/contracts/utils/cryptography/MerkleProof.sol\":1379:1391  processProof */\n      tag_209\n        /* \"@openzeppelin/contracts/utils/cryptography/MerkleProof.sol\":1379:1404  processProof(proof, leaf) */\n      jump\t// in\n    tag_208:\n        /* \"@openzeppelin/contracts/utils/cryptography/MerkleProof.sol\":1379:1412  processProof(proof, leaf) == root */\n      eq\n        /* \"@openzeppelin/contracts/utils/cryptography/MerkleProof.sol\":1372:1412  return processProof(proof, leaf) == root */\n      swap1\n      pop\n        /* \"@openzeppelin/contracts/utils/cryptography/MerkleProof.sol\":1265:1419  function verify(bytes32[] memory proof, bytes32 root, bytes32 leaf) internal pure returns (bool) {... */\n      swap4\n      swap3\n      pop\n      pop\n      pop\n      jump\t// out\n        /* \"@openzeppelin/contracts/token/ERC721/ERC721.sol\":9955:10282  function _mint(address to, uint256 tokenId) internal {... */\n    tag_168:\n        /* \"@openzeppelin/contracts/token/ERC721/ERC721.sol\":10036:10037  0 */\n      0x00\n        /* \"@openzeppelin/contracts/token/ERC721/ERC721.sol\":10022:10038  to == address(0) */\n      0xffffffffffffffffffffffffffffffffffffffff\n      and\n        /* \"@openzeppelin/contracts/token/ERC721/ERC721.sol\":10022:10024  to */\n      dup3\n        /* \"@openzeppelin/contracts/token/ERC721/ERC721.sol\":10022:10038  to == address(0) */\n      0xffffffffffffffffffffffffffffffffffffffff\n      and\n      sub\n        /* \"@openzeppelin/contracts/token/ERC721/ERC721.sol\":10018:10105  if (to == address(0)) {... */\n      tag_211\n      jumpi\n        /* \"@openzeppelin/contracts/token/ERC721/ERC721.sol\":10091:10092  0 */\n      0x00\n        /* \"@openzeppelin/contracts/token/ERC721/ERC721.sol\":10061:10094  ERC721InvalidReceiver(address(0)) */\n      mload(0x40)\n      0x64a0ae9200000000000000000000000000000000000000000000000000000000\n      dup2\n      mstore\n      0x04\n      add\n      tag_212\n      swap2\n      swap1\n      tag_45\n      jump\t// in\n    tag_212:\n      mload(0x40)\n      dup1\n      swap2\n      sub\n      swap1\n      revert\n        /* \"@openzeppelin/contracts/token/ERC721/ERC721.sol\":10018:10105  if (to == address(0)) {... */\n    tag_211:\n        /* \"@openzeppelin/contracts/token/ERC721/ERC721.sol\":10114:10135  address previousOwner */\n      0x00\n        /* \"@openzeppelin/contracts/token/ERC721/ERC721.sol\":10138:10170  _update(to, tokenId, address(0)) */\n      tag_213\n        /* \"@openzeppelin/contracts/token/ERC721/ERC721.sol\":10146:10148  to */\n      dup4\n        /* \"@openzeppelin/contracts/token/ERC721/ERC721.sol\":10150:10157  tokenId */\n      dup4\n        /* \"@openzeppelin/contracts/token/ERC721/ERC721.sol\":10167:10168  0 */\n      0x00\n        /* \"@openzeppelin/contracts/token/ERC721/ERC721.sol\":10138:10145  _update */\n      tag_131\n        /* \"@openzeppelin/contracts/token/ERC721/ERC721.sol\":10138:10170  _update(to, tokenId, address(0)) */\n      jump\t// in\n    tag_213:\n        /* \"@openzeppelin/contracts/token/ERC721/ERC721.sol\":10114:10170  address previousOwner = _update(to, tokenId, address(0)) */\n      swap1\n      pop\n        /* \"@openzeppelin/contracts/token/ERC721/ERC721.sol\":10209:10210  0 */\n      0x00\n        /* \"@openzeppelin/contracts/token/ERC721/ERC721.sol\":10184:10211  previousOwner != address(0) */\n      0xffffffffffffffffffffffffffffffffffffffff\n      and\n        /* \"@openzeppelin/contracts/token/ERC721/ERC721.sol\":10184:10197  previousOwner */\n      dup2\n        /* \"@openzeppelin/contracts/token/ERC721/ERC721.sol\":10184:10211  previousOwner != address(0) */\n      0xffffffffffffffffffffffffffffffffffffffff\n      and\n      eq\n        /* \"@openzeppelin/contracts/token/ERC721/ERC721.sol\":10180:10276  if (previousOwner != address(0)) {... */\n      tag_214\n      jumpi\n        /* \"@openzeppelin/contracts/token/ERC721/ERC721.sol\":10262:10263  0 */\n      0x00\n        /* \"@openzeppelin/contracts/token/ERC721/ERC721.sol\":10234:10265  ERC721InvalidSender(address(0)) */\n      mload(0x40)\n      0x73c6ac6e00000000000000000000000000000000000000000000000000000000\n      dup2\n      mstore\n      0x04\n      add\n      tag_215\n      swap2\n      swap1\n      tag_45\n      jump\t// in\n    tag_215:\n      mload(0x40)\n      dup1\n      swap2\n      sub\n      swap1\n      revert\n        /* \"@openzeppelin/contracts/token/ERC721/ERC721.sol\":10180:10276  if (previousOwner != address(0)) {... */\n    tag_214:\n        /* \"@openzeppelin/contracts/token/ERC721/ERC721.sol\":10008:10282  {... */\n      pop\n        /* \"@openzeppelin/contracts/token/ERC721/ERC721.sol\":9955:10282  function _mint(address to, uint256 tokenId) internal {... */\n      pop\n      pop\n      jump\t// out\n        /* \"@openzeppelin/contracts/token/ERC721/ERC721.sol\":16918:17700  function _checkOnERC721Received(address from, address to, uint256 tokenId, bytes memory data) private {... */\n    tag_172:\n        /* \"@openzeppelin/contracts/token/ERC721/ERC721.sol\":17051:17052  0 */\n      0x00\n        /* \"@openzeppelin/contracts/token/ERC721/ERC721.sol\":17034:17036  to */\n      dup4\n        /* \"@openzeppelin/contracts/token/ERC721/ERC721.sol\":17034:17048  to.code.length */\n      0xffffffffffffffffffffffffffffffffffffffff\n      and\n      extcodesize\n        /* \"@openzeppelin/contracts/token/ERC721/ERC721.sol\":17034:17052  to.code.length > 0 */\n      gt\n        /* \"@openzeppelin/contracts/token/ERC721/ERC721.sol\":17030:17694  if (to.code.length > 0) {... */\n      iszero\n      tag_217\n      jumpi\n        /* \"@openzeppelin/contracts/token/ERC721/ERC721.sol\":17088:17090  to */\n      dup3\n        /* \"@openzeppelin/contracts/token/ERC721/ERC721.sol\":17072:17108  IERC721Receiver(to).onERC721Received */\n      0xffffffffffffffffffffffffffffffffffffffff\n      and\n      0x150b7a02\n        /* \"@openzeppelin/contracts/token/ERC721/ERC721.sol\":17109:17121  _msgSender() */\n      tag_218\n        /* \"@openzeppelin/contracts/token/ERC721/ERC721.sol\":17109:17119  _msgSender */\n      tag_124\n        /* \"@openzeppelin/contracts/token/ERC721/ERC721.sol\":17109:17121  _msgSender() */\n      jump\t// in\n    tag_218:\n        /* \"@openzeppelin/contracts/token/ERC721/ERC721.sol\":17123:17127  from */\n      dup7\n        /* \"@openzeppelin/contracts/token/ERC721/ERC721.sol\":17129:17136  tokenId */\n      dup6\n        /* \"@openzeppelin/contracts/token/ERC721/ERC721.sol\":17138:17142  data */\n      dup6\n        /* \"@openzeppelin/contracts/token/ERC721/ERC721.sol\":17072:17143  IERC721Receiver(to).onERC721Received(_msgSender(), from, tokenId, data) */\n      mload(0x40)\n      dup6\n      0xffffffff\n      and\n      0xe0\n      shl\n      dup2\n      mstore\n      0x04\n      add\n      tag_219\n      swap5\n      swap4\n      swap3\n      swap2\n      swap1\n      tag_220\n      jump\t// in\n    tag_219:\n      0x20\n      mload(0x40)\n      dup1\n      dup4\n      sub\n      dup2\n      0x00\n      dup8\n      gas\n      call\n      swap3\n      pop\n      pop\n      pop\n      dup1\n      iszero\n      tag_221\n      jumpi\n      pop\n      mload(0x40)\n      returndatasize\n      not(0x1f)\n      0x1f\n      dup3\n      add\n      and\n      dup3\n      add\n      dup1\n      0x40\n      mstore\n      pop\n      dup2\n      add\n      swap1\n      tag_222\n      swap2\n      swap1\n      tag_223\n      jump\t// in\n    tag_222:\n      0x01\n    tag_221:\n        /* \"@openzeppelin/contracts/token/ERC721/ERC721.sol\":17068:17684  try IERC721Receiver(to).onERC721Received(_msgSender(), from, tokenId, data) returns (bytes4 retval) {... */\n      tag_224\n      jumpi\n      returndatasize\n      dup1\n      0x00\n      dup2\n      eq\n      tag_229\n      jumpi\n      mload(0x40)\n      swap2\n      pop\n      and(add(returndatasize, 0x3f), not(0x1f))\n      dup3\n      add\n      0x40\n      mstore\n      returndatasize\n      dup3\n      mstore\n      returndatasize\n      0x00\n      0x20\n      dup5\n      add\n      returndatacopy\n      jump(tag_228)\n    tag_229:\n      0x60\n      swap2\n      pop\n    tag_228:\n      pop\n        /* \"@openzeppelin/contracts/token/ERC721/ERC721.sol\":17398:17399  0 */\n      0x00\n        /* \"@openzeppelin/contracts/token/ERC721/ERC721.sol\":17381:17387  reason */\n      dup2\n        /* \"@openzeppelin/contracts/token/ERC721/ERC721.sol\":17381:17394  reason.length */\n      mload\n        /* \"@openzeppelin/contracts/token/ERC721/ERC721.sol\":17381:17399  reason.length == 0 */\n      sub\n        /* \"@openzeppelin/contracts/token/ERC721/ERC721.sol\":17377:17670  if (reason.length == 0) {... */\n      tag_230\n      jumpi\n        /* \"@openzeppelin/contracts/token/ERC721/ERC721.sol\":17452:17454  to */\n      dup4\n        /* \"@openzeppelin/contracts/token/ERC721/ERC721.sol\":17430:17455  ERC721InvalidReceiver(to) */\n      mload(0x40)\n      0x64a0ae9200000000000000000000000000000000000000000000000000000000\n      dup2\n      mstore\n      0x04\n      add\n      tag_231\n      swap2\n      swap1\n      tag_45\n      jump\t// in\n    tag_231:\n      mload(0x40)\n      dup1\n      swap2\n      sub\n      swap1\n      revert\n        /* \"@openzeppelin/contracts/token/ERC721/ERC721.sol\":17377:17670  if (reason.length == 0) {... */\n    tag_230:\n        /* \"@openzeppelin/contracts/token/ERC721/ERC721.sol\":17622:17628  reason */\n      dup1\n        /* \"@openzeppelin/contracts/token/ERC721/ERC721.sol\":17616:17629  mload(reason) */\n      mload\n        /* \"@openzeppelin/contracts/token/ERC721/ERC721.sol\":17607:17613  reason */\n      dup2\n        /* \"@openzeppelin/contracts/token/ERC721/ERC721.sol\":17603:17605  32 */\n      0x20\n        /* \"@openzeppelin/contracts/token/ERC721/ERC721.sol\":17599:17614  add(32, reason) */\n      add\n        /* \"@openzeppelin/contracts/token/ERC721/ERC721.sol\":17592:17630  revert(add(32, reason), mload(reason)) */\n      revert\n        /* \"@openzeppelin/contracts/token/ERC721/ERC721.sol\":17068:17684  try IERC721Receiver(to).onERC721Received(_msgSender(), from, tokenId, data) returns (bytes4 retval) {... */\n    tag_224:\n        /* \"@openzeppelin/contracts/token/ERC721/ERC721.sol\":17200:17241  IERC721Receiver.onERC721Received.selector */\n      shl(0xe0, 0x150b7a02)\n        /* \"@openzeppelin/contracts/token/ERC721/ERC721.sol\":17190:17241  retval != IERC721Receiver.onERC721Received.selector */\n      not(0xffffffffffffffffffffffffffffffffffffffffffffffffffffffff)\n      and\n        /* \"@openzeppelin/contracts/token/ERC721/ERC721.sol\":17190:17196  retval */\n      dup2\n        /* \"@openzeppelin/contracts/token/ERC721/ERC721.sol\":17190:17241  retval != IERC721Receiver.onERC721Received.selector */\n      not(0xffffffffffffffffffffffffffffffffffffffffffffffffffffffff)\n      and\n      eq\n        /* \"@openzeppelin/contracts/token/ERC721/ERC721.sol\":17186:17316  if (retval != IERC721Receiver.onERC721Received.selector) {... */\n      tag_234\n      jumpi\n        /* \"@openzeppelin/contracts/token/ERC721/ERC721.sol\":17294:17296  to */\n      dup4\n        /* \"@openzeppelin/contracts/token/ERC721/ERC721.sol\":17272:17297  ERC721InvalidReceiver(to) */\n      mload(0x40)\n      0x64a0ae9200000000000000000000000000000000000000000000000000000000\n      dup2\n      mstore\n      0x04\n      add\n      tag_235\n      swap2\n      swap1\n      tag_45\n      jump\t// in\n    tag_235:\n      mload(0x40)\n      dup1\n      swap2\n      sub\n      swap1\n      revert\n        /* \"@openzeppelin/contracts/token/ERC721/ERC721.sol\":17186:17316  if (retval != IERC721Receiver.onERC721Received.selector) {... */\n    tag_234:\n        /* \"@openzeppelin/contracts/token/ERC721/ERC721.sol\":17144:17330  returns (bytes4 retval) {... */\n      pop\n        /* \"@openzeppelin/contracts/token/ERC721/ERC721.sol\":17030:17694  if (to.code.length > 0) {... */\n    tag_217:\n        /* \"@openzeppelin/contracts/token/ERC721/ERC721.sol\":16918:17700  function _checkOnERC721Received(address from, address to, uint256 tokenId, bytes memory data) private {... */\n      pop\n      pop\n      pop\n      pop\n      jump\t// out\n        /* \"@openzeppelin/contracts/token/ERC721/ERC721.sol\":3174:3266  function _baseURI() internal view virtual returns (string memory) {... */\n    tag_176:\n        /* \"@openzeppelin/contracts/token/ERC721/ERC721.sol\":3225:3238  string memory */\n      0x60\n        /* \"@openzeppelin/contracts/token/ERC721/ERC721.sol\":3250:3259  return \"\" */\n      mload(0x40)\n      dup1\n      0x20\n      add\n      0x40\n      mstore\n      dup1\n      0x00\n      dup2\n      mstore\n      pop\n      swap1\n      pop\n        /* \"@openzeppelin/contracts/token/ERC721/ERC721.sol\":3174:3266  function _baseURI() internal view virtual returns (string memory) {... */\n      swap1\n      jump\t// out\n        /* \"@openzeppelin/contracts/utils/Strings.sol\":637:1335  function toString(uint256 value) internal pure returns (string memory) {... */\n    tag_180:\n        /* \"@openzeppelin/contracts/utils/Strings.sol\":693:706  string memory */\n      0x60\n        /* \"@openzeppelin/contracts/utils/Strings.sol\":742:756  uint256 length */\n      0x00\n        /* \"@openzeppelin/contracts/utils/Strings.sol\":779:780  1 */\n      0x01\n        /* \"@openzeppelin/contracts/utils/Strings.sol\":759:776  Math.log10(value) */\n      tag_238\n        /* \"@openzeppelin/contracts/utils/Strings.sol\":770:775  value */\n      dup5\n        /* \"@openzeppelin/contracts/utils/Strings.sol\":759:769  Math.log10 */\n      tag_239\n        /* \"@openzeppelin/contracts/utils/Strings.sol\":759:776  Math.log10(value) */\n      jump\t// in\n    tag_238:\n        /* \"@openzeppelin/contracts/utils/Strings.sol\":759:780  Math.log10(value) + 1 */\n      add\n        /* \"@openzeppelin/contracts/utils/Strings.sol\":742:780  uint256 length = Math.log10(value) + 1 */\n      swap1\n      pop\n        /* \"@openzeppelin/contracts/utils/Strings.sol\":794:814  string memory buffer */\n      0x00\n        /* \"@openzeppelin/contracts/utils/Strings.sol\":828:834  length */\n      dup2\n        /* \"@openzeppelin/contracts/utils/Strings.sol\":817:835  new string(length) */\n      0xffffffffffffffff\n      dup2\n      gt\n      iszero\n      tag_240\n      jumpi\n      tag_241\n      tag_242\n      jump\t// in\n    tag_241:\n    tag_240:\n      mload(0x40)\n      swap1\n      dup1\n      dup3\n      mstore\n      dup1\n      0x1f\n      add\n      not(0x1f)\n      and\n      0x20\n      add\n      dup3\n      add\n      0x40\n      mstore\n      dup1\n      iszero\n      tag_243\n      jumpi\n      dup2\n      0x20\n      add\n      0x01\n      dup3\n      mul\n      dup1\n      calldatasize\n      dup4\n      calldatacopy\n      dup1\n      dup3\n      add\n      swap2\n      pop\n      pop\n      swap1\n      pop\n    tag_243:\n      pop\n        /* \"@openzeppelin/contracts/utils/Strings.sol\":794:835  string memory buffer = new string(length) */\n      swap1\n      pop\n        /* \"@openzeppelin/contracts/utils/Strings.sol\":849:860  uint256 ptr */\n      0x00\n        /* \"@openzeppelin/contracts/utils/Strings.sol\":975:981  length */\n      dup3\n        /* \"@openzeppelin/contracts/utils/Strings.sol\":971:973  32 */\n      0x20\n        /* \"@openzeppelin/contracts/utils/Strings.sol\":967:982  add(32, length) */\n      add\n        /* \"@openzeppelin/contracts/utils/Strings.sol\":959:965  buffer */\n      dup3\n        /* \"@openzeppelin/contracts/utils/Strings.sol\":955:983  add(buffer, add(32, length)) */\n      add\n        /* \"@openzeppelin/contracts/utils/Strings.sol\":948:983  ptr := add(buffer, add(32, length)) */\n      swap1\n      pop\n        /* \"@openzeppelin/contracts/utils/Strings.sol\":1010:1292  while (true) {... */\n    tag_244:\n        /* \"@openzeppelin/contracts/utils/Strings.sol\":1017:1021  true */\n      0x01\n        /* \"@openzeppelin/contracts/utils/Strings.sol\":1010:1292  while (true) {... */\n      iszero\n      tag_245\n      jumpi\n        /* \"@openzeppelin/contracts/utils/Strings.sol\":1041:1046  ptr-- */\n      dup1\n      dup1\n      0x01\n      swap1\n      sub\n      swap2\n      pop\n      pop\n        /* \"@openzeppelin/contracts/utils/Strings.sol\":1180:1190  HEX_DIGITS */\n      0x3031323334353637383961626364656600000000000000000000000000000000\n        /* \"@openzeppelin/contracts/utils/Strings.sol\":1175:1177  10 */\n      0x0a\n        /* \"@openzeppelin/contracts/utils/Strings.sol\":1168:1173  value */\n      dup7\n        /* \"@openzeppelin/contracts/utils/Strings.sol\":1164:1178  mod(value, 10) */\n      mod\n        /* \"@openzeppelin/contracts/utils/Strings.sol\":1159:1191  byte(mod(value, 10), HEX_DIGITS) */\n      byte\n        /* \"@openzeppelin/contracts/utils/Strings.sol\":1154:1157  ptr */\n      dup2\n        /* \"@openzeppelin/contracts/utils/Strings.sol\":1146:1192  mstore8(ptr, byte(mod(value, 10), HEX_DIGITS)) */\n      mstore8\n        /* \"@openzeppelin/contracts/utils/Strings.sol\":1236:1238  10 */\n      0x0a\n        /* \"@openzeppelin/contracts/utils/Strings.sol\":1227:1238  value /= 10 */\n      dup6\n      dup2\n      tag_246\n      jumpi\n      tag_247\n      tag_248\n      jump\t// in\n    tag_247:\n    tag_246:\n      div\n      swap5\n      pop\n        /* \"@openzeppelin/contracts/utils/Strings.sol\":1269:1270  0 */\n      0x00\n        /* \"@openzeppelin/contracts/utils/Strings.sol\":1260:1265  value */\n      dup6\n        /* \"@openzeppelin/contracts/utils/Strings.sol\":1260:1270  value == 0 */\n      sub\n        /* \"@openzeppelin/contracts/utils/Strings.sol\":1010:1292  while (true) {... */\n      tag_244\n        /* \"@openzeppelin/contracts/utils/Strings.sol\":1256:1277  if (value == 0) break */\n      jumpi\n        /* \"@openzeppelin/contracts/utils/Strings.sol\":1010:1292  while (true) {... */\n    tag_245:\n        /* \"@openzeppelin/contracts/utils/Strings.sol\":1312:1318  buffer */\n      dup2\n        /* \"@openzeppelin/contracts/utils/Strings.sol\":1305:1318  return buffer */\n      swap4\n      pop\n      pop\n      pop\n      pop\n        /* \"@openzeppelin/contracts/utils/Strings.sol\":637:1335  function toString(uint256 value) internal pure returns (string memory) {... */\n      swap2\n      swap1\n      pop\n      jump\t// out\n        /* \"@openzeppelin/contracts/token/ERC721/ERC721.sol\":5707:5822  function _ownerOf(uint256 tokenId) internal view virtual returns (address) {... */\n    tag_187:\n        /* \"@openzeppelin/contracts/token/ERC721/ERC721.sol\":5773:5780  address */\n      0x00\n        /* \"@openzeppelin/contracts/token/ERC721/ERC721.sol\":5799:5806  _owners */\n      0x02\n        /* \"@openzeppelin/contracts/token/ERC721/ERC721.sol\":5799:5815  _owners[tokenId] */\n      0x00\n        /* \"@openzeppelin/contracts/token/ERC721/ERC721.sol\":5807:5814  tokenId */\n      dup4\n        /* \"@openzeppelin/contracts/token/ERC721/ERC721.sol\":5799:5815  _owners[tokenId] */\n      dup2\n      mstore\n      0x20\n      add\n      swap1\n      dup2\n      mstore\n      0x20\n      add\n      0x00\n      keccak256\n      0x00\n      swap1\n      sload\n      swap1\n      0x0100\n      exp\n      swap1\n      div\n      0xffffffffffffffffffffffffffffffffffffffff\n      and\n        /* \"@openzeppelin/contracts/token/ERC721/ERC721.sol\":5792:5815  return _owners[tokenId] */\n      swap1\n      pop\n        /* \"@openzeppelin/contracts/token/ERC721/ERC721.sol\":5707:5822  function _ownerOf(uint256 tokenId) internal view virtual returns (address) {... */\n      swap2\n      swap1\n      pop\n      jump\t// out\n        /* \"@openzeppelin/contracts/token/ERC721/ERC721.sol\":14720:15382  function _approve(address to, uint256 tokenId, address auth, bool emitEvent) internal virtual {... */\n    tag_194:\n        /* \"@openzeppelin/contracts/token/ERC721/ERC721.sol\":14880:14889  emitEvent */\n      dup1\n        /* \"@openzeppelin/contracts/token/ERC721/ERC721.sol\":14880:14911  emitEvent || auth != address(0) */\n      dup1\n      tag_252\n      jumpi\n      pop\n        /* \"@openzeppelin/contracts/token/ERC721/ERC721.sol\":14909:14910  0 */\n      0x00\n        /* \"@openzeppelin/contracts/token/ERC721/ERC721.sol\":14893:14911  auth != address(0) */\n      0xffffffffffffffffffffffffffffffffffffffff\n      and\n        /* \"@openzeppelin/contracts/token/ERC721/ERC721.sol\":14893:14897  auth */\n      dup3\n        /* \"@openzeppelin/contracts/token/ERC721/ERC721.sol\":14893:14911  auth != address(0) */\n      0xffffffffffffffffffffffffffffffffffffffff\n      and\n      eq\n      iszero\n        /* \"@openzeppelin/contracts/token/ERC721/ERC721.sol\":14880:14911  emitEvent || auth != address(0) */\n    tag_252:\n        /* \"@openzeppelin/contracts/token/ERC721/ERC721.sol\":14876:15336  if (emitEvent || auth != address(0)) {... */\n      iszero\n      tag_253\n      jumpi\n        /* \"@openzeppelin/contracts/token/ERC721/ERC721.sol\":14927:14940  address owner */\n      0x00\n        /* \"@openzeppelin/contracts/token/ERC721/ERC721.sol\":14943:14965  _requireOwned(tokenId) */\n      tag_254\n        /* \"@openzeppelin/contracts/token/ERC721/ERC721.sol\":14957:14964  tokenId */\n      dup5\n        /* \"@openzeppelin/contracts/token/ERC721/ERC721.sol\":14943:14956  _requireOwned */\n      tag_118\n        /* \"@openzeppelin/contracts/token/ERC721/ERC721.sol\":14943:14965  _requireOwned(tokenId) */\n      jump\t// in\n    tag_254:\n        /* \"@openzeppelin/contracts/token/ERC721/ERC721.sol\":14927:14965  address owner = _requireOwned(tokenId) */\n      swap1\n      pop\n        /* \"@openzeppelin/contracts/token/ERC721/ERC721.sol\":15109:15110  0 */\n      0x00\n        /* \"@openzeppelin/contracts/token/ERC721/ERC721.sol\":15093:15111  auth != address(0) */\n      0xffffffffffffffffffffffffffffffffffffffff\n      and\n        /* \"@openzeppelin/contracts/token/ERC721/ERC721.sol\":15093:15097  auth */\n      dup4\n        /* \"@openzeppelin/contracts/token/ERC721/ERC721.sol\":15093:15111  auth != address(0) */\n      0xffffffffffffffffffffffffffffffffffffffff\n      and\n      eq\n      iszero\n        /* \"@openzeppelin/contracts/token/ERC721/ERC721.sol\":15093:15128  auth != address(0) && owner != auth */\n      dup1\n      iszero\n      tag_255\n      jumpi\n      pop\n        /* \"@openzeppelin/contracts/token/ERC721/ERC721.sol\":15124:15128  auth */\n      dup3\n        /* \"@openzeppelin/contracts/token/ERC721/ERC721.sol\":15115:15128  owner != auth */\n      0xffffffffffffffffffffffffffffffffffffffff\n      and\n        /* \"@openzeppelin/contracts/token/ERC721/ERC721.sol\":15115:15120  owner */\n      dup2\n        /* \"@openzeppelin/contracts/token/ERC721/ERC721.sol\":15115:15128  owner != auth */\n      0xffffffffffffffffffffffffffffffffffffffff\n      and\n      eq\n      iszero\n        /* \"@openzeppelin/contracts/token/ERC721/ERC721.sol\":15093:15128  auth != address(0) && owner != auth */\n    tag_255:\n        /* \"@openzeppelin/contracts/token/ERC721/ERC721.sol\":15093:15162  auth != address(0) && owner != auth && !isApprovedForAll(owner, auth) */\n      dup1\n      iszero\n      tag_256\n      jumpi\n      pop\n        /* \"@openzeppelin/contracts/token/ERC721/ERC721.sol\":15133:15162  isApprovedForAll(owner, auth) */\n      tag_257\n        /* \"@openzeppelin/contracts/token/ERC721/ERC721.sol\":15150:15155  owner */\n      dup2\n        /* \"@openzeppelin/contracts/token/ERC721/ERC721.sol\":15157:15161  auth */\n      dup5\n        /* \"@openzeppelin/contracts/token/ERC721/ERC721.sol\":15133:15149  isApprovedForAll */\n      tag_99\n        /* \"@openzeppelin/contracts/token/ERC721/ERC721.sol\":15133:15162  isApprovedForAll(owner, auth) */\n      jump\t// in\n    tag_257:\n        /* \"@openzeppelin/contracts/token/ERC721/ERC721.sol\":15132:15162  !isApprovedForAll(owner, auth) */\n      iszero\n        /* \"@openzeppelin/contracts/token/ERC721/ERC721.sol\":15093:15162  auth != address(0) && owner != auth && !isApprovedForAll(owner, auth) */\n    tag_256:\n        /* \"@openzeppelin/contracts/token/ERC721/ERC721.sol\":15089:15231  if (auth != address(0) && owner != auth && !isApprovedForAll(owner, auth)) {... */\n      iszero\n      tag_258\n      jumpi\n        /* \"@openzeppelin/contracts/token/ERC721/ERC721.sol\":15211:15215  auth */\n      dup3\n        /* \"@openzeppelin/contracts/token/ERC721/ERC721.sol\":15189:15216  ERC721InvalidApprover(auth) */\n      mload(0x40)\n      0xa9fbf51f00000000000000000000000000000000000000000000000000000000\n      dup2\n      mstore\n      0x04\n      add\n      tag_259\n      swap2\n      swap1\n      tag_45\n      jump\t// in\n    tag_259:\n      mload(0x40)\n      dup1\n      swap2\n      sub\n      swap1\n      revert\n        /* \"@openzeppelin/contracts/token/ERC721/ERC721.sol\":15089:15231  if (auth != address(0) && owner != auth && !isApprovedForAll(owner, auth)) {... */\n    tag_258:\n        /* \"@openzeppelin/contracts/token/ERC721/ERC721.sol\":15249:15258  emitEvent */\n      dup2\n        /* \"@openzeppelin/contracts/token/ERC721/ERC721.sol\":15245:15326  if (emitEvent) {... */\n      iszero\n      tag_260\n      jumpi\n        /* \"@openzeppelin/contracts/token/ERC721/ERC721.sol\":15303:15310  tokenId */\n      dup4\n        /* \"@openzeppelin/contracts/token/ERC721/ERC721.sol\":15299:15301  to */\n      dup6\n        /* \"@openzeppelin/contracts/token/ERC721/ERC721.sol\":15283:15311  Approval(owner, to, tokenId) */\n      0xffffffffffffffffffffffffffffffffffffffff\n      and\n        /* \"@openzeppelin/contracts/token/ERC721/ERC721.sol\":15292:15297  owner */\n      dup3\n        /* \"@openzeppelin/contracts/token/ERC721/ERC721.sol\":15283:15311  Approval(owner, to, tokenId) */\n      0xffffffffffffffffffffffffffffffffffffffff\n      and\n      0x8c5be1e5ebec7d5bd14f71427d1e84f3dd0314c0f7b2291e5b200ac8c7c3b925\n      mload(0x40)\n      mload(0x40)\n      dup1\n      swap2\n      sub\n      swap1\n      log4\n        /* \"@openzeppelin/contracts/token/ERC721/ERC721.sol\":15245:15326  if (emitEvent) {... */\n    tag_260:\n        /* \"@openzeppelin/contracts/token/ERC721/ERC721.sol\":14913:15336  {... */\n      pop\n        /* \"@openzeppelin/contracts/token/ERC721/ERC721.sol\":14876:15336  if (emitEvent || auth != address(0)) {... */\n    tag_253:\n        /* \"@openzeppelin/contracts/token/ERC721/ERC721.sol\":15373:15375  to */\n      dup4\n        /* \"@openzeppelin/contracts/token/ERC721/ERC721.sol\":15346:15361  _tokenApprovals */\n      0x04\n        /* \"@openzeppelin/contracts/token/ERC721/ERC721.sol\":15346:15370  _tokenApprovals[tokenId] */\n      0x00\n        /* \"@openzeppelin/contracts/token/ERC721/ERC721.sol\":15362:15369  tokenId */\n      dup6\n        /* \"@openzeppelin/contracts/token/ERC721/ERC721.sol\":15346:15370  _tokenApprovals[tokenId] */\n      dup2\n      mstore\n      0x20\n      add\n      swap1\n      dup2\n      mstore\n      0x20\n      add\n      0x00\n      keccak256\n      0x00\n        /* \"@openzeppelin/contracts/token/ERC721/ERC721.sol\":15346:15375  _tokenApprovals[tokenId] = to */\n      0x0100\n      exp\n      dup2\n      sload\n      dup2\n      0xffffffffffffffffffffffffffffffffffffffff\n      mul\n      not\n      and\n      swap1\n      dup4\n      0xffffffffffffffffffffffffffffffffffffffff\n      and\n      mul\n      or\n      swap1\n      sstore\n      pop\n        /* \"@openzeppelin/contracts/token/ERC721/ERC721.sol\":14720:15382  function _approve(address to, uint256 tokenId, address auth, bool emitEvent) internal virtual {... */\n      pop\n      pop\n      pop\n      pop\n      jump\t// out\n        /* \"@openzeppelin/contracts/token/ERC721/ERC721.sol\":7082:7450  function _checkAuthorized(address owner, address spender, uint256 tokenId) internal view virtual {... */\n    tag_199:\n        /* \"@openzeppelin/contracts/token/ERC721/ERC721.sol\":7194:7232  _isAuthorized(owner, spender, tokenId) */\n      tag_262\n        /* \"@openzeppelin/contracts/token/ERC721/ERC721.sol\":7208:7213  owner */\n      dup4\n        /* \"@openzeppelin/contracts/token/ERC721/ERC721.sol\":7215:7222  spender */\n      dup4\n        /* \"@openzeppelin/contracts/token/ERC721/ERC721.sol\":7224:7231  tokenId */\n      dup4\n        /* \"@openzeppelin/contracts/token/ERC721/ERC721.sol\":7194:7207  _isAuthorized */\n      tag_263\n        /* \"@openzeppelin/contracts/token/ERC721/ERC721.sol\":7194:7232  _isAuthorized(owner, spender, tokenId) */\n      jump\t// in\n    tag_262:\n        /* \"@openzeppelin/contracts/token/ERC721/ERC721.sol\":7189:7444  if (!_isAuthorized(owner, spender, tokenId)) {... */\n      tag_264\n      jumpi\n        /* \"@openzeppelin/contracts/token/ERC721/ERC721.sol\":7269:7270  0 */\n      0x00\n        /* \"@openzeppelin/contracts/token/ERC721/ERC721.sol\":7252:7271  owner == address(0) */\n      0xffffffffffffffffffffffffffffffffffffffff\n      and\n        /* \"@openzeppelin/contracts/token/ERC721/ERC721.sol\":7252:7257  owner */\n      dup4\n        /* \"@openzeppelin/contracts/token/ERC721/ERC721.sol\":7252:7271  owner == address(0) */\n      0xffffffffffffffffffffffffffffffffffffffff\n      and\n      sub\n        /* \"@openzeppelin/contracts/token/ERC721/ERC721.sol\":7248:7434  if (owner == address(0)) {... */\n      tag_265\n      jumpi\n        /* \"@openzeppelin/contracts/token/ERC721/ERC721.sol\":7321:7328  tokenId */\n      dup1\n        /* \"@openzeppelin/contracts/token/ERC721/ERC721.sol\":7298:7329  ERC721NonexistentToken(tokenId) */\n      mload(0x40)\n      0x7e27328900000000000000000000000000000000000000000000000000000000\n      dup2\n      mstore\n      0x04\n      add\n      tag_266\n      swap2\n      swap1\n      tag_72\n      jump\t// in\n    tag_266:\n      mload(0x40)\n      dup1\n      swap2\n      sub\n      swap1\n      revert\n        /* \"@openzeppelin/contracts/token/ERC721/ERC721.sol\":7248:7434  if (owner == address(0)) {... */\n    tag_265:\n        /* \"@openzeppelin/contracts/token/ERC721/ERC721.sol\":7402:7409  spender */\n      dup2\n        /* \"@openzeppelin/contracts/token/ERC721/ERC721.sol\":7411:7418  tokenId */\n      dup2\n        /* \"@openzeppelin/contracts/token/ERC721/ERC721.sol\":7375:7419  ERC721InsufficientApproval(spender, tokenId) */\n      mload(0x40)\n      0x177e802f00000000000000000000000000000000000000000000000000000000\n      dup2\n      mstore\n      0x04\n      add\n      tag_268\n      swap3\n      swap2\n      swap1\n      tag_269\n      jump\t// in\n    tag_268:\n      mload(0x40)\n      dup1\n      swap2\n      sub\n      swap1\n      revert\n        /* \"@openzeppelin/contracts/token/ERC721/ERC721.sol\":7189:7444  if (!_isAuthorized(owner, spender, tokenId)) {... */\n    tag_264:\n        /* \"@openzeppelin/contracts/token/ERC721/ERC721.sol\":7082:7450  function _checkAuthorized(address owner, address spender, uint256 tokenId) internal view virtual {... */\n      pop\n      pop\n      pop\n      jump\t// out\n        /* \"@openzeppelin/contracts/utils/cryptography/MerkleProof.sol\":1967:2257  function processProof(bytes32[] memory proof, bytes32 leaf) internal pure returns (bytes32) {... */\n    tag_209:\n        /* \"@openzeppelin/contracts/utils/cryptography/MerkleProof.sol\":2050:2057  bytes32 */\n      0x00\n        /* \"@openzeppelin/contracts/utils/cryptography/MerkleProof.sol\":2069:2089  bytes32 computedHash */\n      dup1\n        /* \"@openzeppelin/contracts/utils/cryptography/MerkleProof.sol\":2092:2096  leaf */\n      dup3\n        /* \"@openzeppelin/contracts/utils/cryptography/MerkleProof.sol\":2069:2096  bytes32 computedHash = leaf */\n      swap1\n      pop\n        /* \"@openzeppelin/contracts/utils/cryptography/MerkleProof.sol\":2111:2120  uint256 i */\n      0x00\n        /* \"@openzeppelin/contracts/utils/cryptography/MerkleProof.sol\":2106:2222  for (uint256 i = 0; i < proof.length; i++) {... */\n    tag_271:\n        /* \"@openzeppelin/contracts/utils/cryptography/MerkleProof.sol\":2130:2135  proof */\n      dup5\n        /* \"@openzeppelin/contracts/utils/cryptography/MerkleProof.sol\":2130:2142  proof.length */\n      mload\n        /* \"@openzeppelin/contracts/utils/cryptography/MerkleProof.sol\":2126:2127  i */\n      dup2\n        /* \"@openzeppelin/contracts/utils/cryptography/MerkleProof.sol\":2126:2142  i < proof.length */\n      lt\n        /* \"@openzeppelin/contracts/utils/cryptography/MerkleProof.sol\":2106:2222  for (uint256 i = 0; i < proof.length; i++) {... */\n      iszero\n      tag_272\n      jumpi\n        /* \"@openzeppelin/contracts/utils/cryptography/MerkleProof.sol\":2178:2211  _hashPair(computedHash, proof[i]) */\n      tag_274\n        /* \"@openzeppelin/contracts/utils/cryptography/MerkleProof.sol\":2188:2200  computedHash */\n      dup3\n        /* \"@openzeppelin/contracts/utils/cryptography/MerkleProof.sol\":2202:2207  proof */\n      dup7\n        /* \"@openzeppelin/contracts/utils/cryptography/MerkleProof.sol\":2208:2209  i */\n      dup4\n        /* \"@openzeppelin/contracts/utils/cryptography/MerkleProof.sol\":2202:2210  proof[i] */\n      dup2\n      mload\n      dup2\n      lt\n      tag_275\n      jumpi\n      tag_276\n      tag_277\n      jump\t// in\n    tag_276:\n    tag_275:\n      0x20\n      mul\n      0x20\n      add\n      add\n      mload\n        /* \"@openzeppelin/contracts/utils/cryptography/MerkleProof.sol\":2178:2187  _hashPair */\n      tag_278\n        /* \"@openzeppelin/contracts/utils/cryptography/MerkleProof.sol\":2178:2211  _hashPair(computedHash, proof[i]) */\n      jump\t// in\n    tag_274:\n        /* \"@openzeppelin/contracts/utils/cryptography/MerkleProof.sol\":2163:2211  computedHash = _hashPair(computedHash, proof[i]) */\n      swap2\n      pop\n        /* \"@openzeppelin/contracts/utils/cryptography/MerkleProof.sol\":2144:2147  i++ */\n      dup1\n      dup1\n      0x01\n      add\n      swap2\n      pop\n      pop\n        /* \"@openzeppelin/contracts/utils/cryptography/MerkleProof.sol\":2106:2222  for (uint256 i = 0; i < proof.length; i++) {... */\n      jump(tag_271)\n    tag_272:\n      pop\n        /* \"@openzeppelin/contracts/utils/cryptography/MerkleProof.sol\":2238:2250  computedHash */\n      dup1\n        /* \"@openzeppelin/contracts/utils/cryptography/MerkleProof.sol\":2231:2250  return computedHash */\n      swap2\n      pop\n      pop\n        /* \"@openzeppelin/contracts/utils/cryptography/MerkleProof.sol\":1967:2257  function processProof(bytes32[] memory proof, bytes32 leaf) internal pure returns (bytes32) {... */\n      swap3\n      swap2\n      pop\n      pop\n      jump\t// out\n        /* \"@openzeppelin/contracts/utils/math/Math.sol\":12214:13130  function log10(uint256 value) internal pure returns (uint256) {... */\n    tag_239:\n        /* \"@openzeppelin/contracts/utils/math/Math.sol\":12267:12274  uint256 */\n      0x00\n        /* \"@openzeppelin/contracts/utils/math/Math.sol\":12286:12300  uint256 result */\n      dup1\n        /* \"@openzeppelin/contracts/utils/math/Math.sol\":12303:12304  0 */\n      0x00\n        /* \"@openzeppelin/contracts/utils/math/Math.sol\":12286:12304  uint256 result = 0 */\n      swap1\n      pop\n        /* \"@openzeppelin/contracts/utils/math/Math.sol\":12351:12359  10 ** 64 */\n      0x184f03e93ff9f4daa797ed6e38ed64bf6a1f010000000000000000\n        /* \"@openzeppelin/contracts/utils/math/Math.sol\":12342:12347  value */\n      dup4\n        /* \"@openzeppelin/contracts/utils/math/Math.sol\":12342:12359  value >= 10 ** 64 */\n      lt\n        /* \"@openzeppelin/contracts/utils/math/Math.sol\":12338:12441  if (value >= 10 ** 64) {... */\n      tag_280\n      jumpi\n        /* \"@openzeppelin/contracts/utils/math/Math.sol\":12388:12396  10 ** 64 */\n      0x184f03e93ff9f4daa797ed6e38ed64bf6a1f010000000000000000\n        /* \"@openzeppelin/contracts/utils/math/Math.sol\":12379:12396  value /= 10 ** 64 */\n      dup4\n      dup2\n      tag_281\n      jumpi\n      tag_282\n      tag_248\n      jump\t// in\n    tag_282:\n    tag_281:\n      div\n      swap3\n      pop\n        /* \"@openzeppelin/contracts/utils/math/Math.sol\":12424:12426  64 */\n      0x40\n        /* \"@openzeppelin/contracts/utils/math/Math.sol\":12414:12426  result += 64 */\n      dup2\n      add\n      swap1\n      pop\n        /* \"@openzeppelin/contracts/utils/math/Math.sol\":12338:12441  if (value >= 10 ** 64) {... */\n    tag_280:\n        /* \"@openzeppelin/contracts/utils/math/Math.sol\":12467:12475  10 ** 32 */\n      0x04ee2d6d415b85acef8100000000\n        /* \"@openzeppelin/contracts/utils/math/Math.sol\":12458:12463  value */\n      dup4\n        /* \"@openzeppelin/contracts/utils/math/Math.sol\":12458:12475  value >= 10 ** 32 */\n      lt\n        /* \"@openzeppelin/contracts/utils/math/Math.sol\":12454:12557  if (value >= 10 ** 32) {... */\n      tag_283\n      jumpi\n        /* \"@openzeppelin/contracts/utils/math/Math.sol\":12504:12512  10 ** 32 */\n      0x04ee2d6d415b85acef8100000000\n        /* \"@openzeppelin/contracts/utils/math/Math.sol\":12495:12512  value /= 10 ** 32 */\n      dup4\n      dup2\n      tag_284\n      jumpi\n      tag_285\n      tag_248\n      jump\t// in\n    tag_285:\n    tag_284:\n      div\n      swap3\n      pop\n        /* \"@openzeppelin/contracts/utils/math/Math.sol\":12540:12542  32 */\n      0x20\n        /* \"@openzeppelin/contracts/utils/math/Math.sol\":12530:12542  result += 32 */\n      dup2\n      add\n      swap1\n      pop\n        /* \"@openzeppelin/contracts/utils/math/Math.sol\":12454:12557  if (value >= 10 ** 32) {... */\n    tag_283:\n        /* \"@openzeppelin/contracts/utils/math/Math.sol\":12583:12591  10 ** 16 */\n      0x2386f26fc10000\n        /* \"@openzeppelin/contracts/utils/math/Math.sol\":12574:12579  value */\n      dup4\n        /* \"@openzeppelin/contracts/utils/math/Math.sol\":12574:12591  value >= 10 ** 16 */\n      lt\n        /* \"@openzeppelin/contracts/utils/math/Math.sol\":12570:12673  if (value >= 10 ** 16) {... */\n      tag_286\n      jumpi\n        /* \"@openzeppelin/contracts/utils/math/Math.sol\":12620:12628  10 ** 16 */\n      0x2386f26fc10000\n        /* \"@openzeppelin/contracts/utils/math/Math.sol\":12611:12628  value /= 10 ** 16 */\n      dup4\n      dup2\n      tag_287\n      jumpi\n      tag_288\n      tag_248\n      jump\t// in\n    tag_288:\n    tag_287:\n      div\n      swap3\n      pop\n        /* \"@openzeppelin/contracts/utils/math/Math.sol\":12656:12658  16 */\n      0x10\n        /* \"@openzeppelin/contracts/utils/math/Math.sol\":12646:12658  result += 16 */\n      dup2\n      add\n      swap1\n      pop\n        /* \"@openzeppelin/contracts/utils/math/Math.sol\":12570:12673  if (value >= 10 ** 16) {... */\n    tag_286:\n        /* \"@openzeppelin/contracts/utils/math/Math.sol\":12699:12706  10 ** 8 */\n      0x05f5e100\n        /* \"@openzeppelin/contracts/utils/math/Math.sol\":12690:12695  value */\n      dup4\n        /* \"@openzeppelin/contracts/utils/math/Math.sol\":12690:12706  value >= 10 ** 8 */\n      lt\n        /* \"@openzeppelin/contracts/utils/math/Math.sol\":12686:12786  if (value >= 10 ** 8) {... */\n      tag_289\n      jumpi\n        /* \"@openzeppelin/contracts/utils/math/Math.sol\":12735:12742  10 ** 8 */\n      0x05f5e100\n        /* \"@openzeppelin/contracts/utils/math/Math.sol\":12726:12742  value /= 10 ** 8 */\n      dup4\n      dup2\n      tag_290\n      jumpi\n      tag_291\n      tag_248\n      jump\t// in\n    tag_291:\n    tag_290:\n      div\n      swap3\n      pop\n        /* \"@openzeppelin/contracts/utils/math/Math.sol\":12770:12771  8 */\n      0x08\n        /* \"@openzeppelin/contracts/utils/math/Math.sol\":12760:12771  result += 8 */\n      dup2\n      add\n      swap1\n      pop\n        /* \"@openzeppelin/contracts/utils/math/Math.sol\":12686:12786  if (value >= 10 ** 8) {... */\n    tag_289:\n        /* \"@openzeppelin/contracts/utils/math/Math.sol\":12812:12819  10 ** 4 */\n      0x2710\n        /* \"@openzeppelin/contracts/utils/math/Math.sol\":12803:12808  value */\n      dup4\n        /* \"@openzeppelin/contracts/utils/math/Math.sol\":12803:12819  value >= 10 ** 4 */\n      lt\n        /* \"@openzeppelin/contracts/utils/math/Math.sol\":12799:12899  if (value >= 10 ** 4) {... */\n      tag_292\n      jumpi\n        /* \"@openzeppelin/contracts/utils/math/Math.sol\":12848:12855  10 ** 4 */\n      0x2710\n        /* \"@openzeppelin/contracts/utils/math/Math.sol\":12839:12855  value /= 10 ** 4 */\n      dup4\n      dup2\n      tag_293\n      jumpi\n      tag_294\n      tag_248\n      jump\t// in\n    tag_294:\n    tag_293:\n      div\n      swap3\n      pop\n        /* \"@openzeppelin/contracts/utils/math/Math.sol\":12883:12884  4 */\n      0x04\n        /* \"@openzeppelin/contracts/utils/math/Math.sol\":12873:12884  result += 4 */\n      dup2\n      add\n      swap1\n      pop\n        /* \"@openzeppelin/contracts/utils/math/Math.sol\":12799:12899  if (value >= 10 ** 4) {... */\n    tag_292:\n        /* \"@openzeppelin/contracts/utils/math/Math.sol\":12925:12932  10 ** 2 */\n      0x64\n        /* \"@openzeppelin/contracts/utils/math/Math.sol\":12916:12921  value */\n      dup4\n        /* \"@openzeppelin/contracts/utils/math/Math.sol\":12916:12932  value >= 10 ** 2 */\n      lt\n        /* \"@openzeppelin/contracts/utils/math/Math.sol\":12912:13012  if (value >= 10 ** 2) {... */\n      tag_295\n      jumpi\n        /* \"@openzeppelin/contracts/utils/math/Math.sol\":12961:12968  10 ** 2 */\n      0x64\n        /* \"@openzeppelin/contracts/utils/math/Math.sol\":12952:12968  value /= 10 ** 2 */\n      dup4\n      dup2\n      tag_296\n      jumpi\n      tag_297\n      tag_248\n      jump\t// in\n    tag_297:\n    tag_296:\n      div\n      swap3\n      pop\n        /* \"@openzeppelin/contracts/utils/math/Math.sol\":12996:12997  2 */\n      0x02\n        /* \"@openzeppelin/contracts/utils/math/Math.sol\":12986:12997  result += 2 */\n      dup2\n      add\n      swap1\n      pop\n        /* \"@openzeppelin/contracts/utils/math/Math.sol\":12912:13012  if (value >= 10 ** 2) {... */\n    tag_295:\n        /* \"@openzeppelin/contracts/utils/math/Math.sol\":13038:13045  10 ** 1 */\n      0x0a\n        /* \"@openzeppelin/contracts/utils/math/Math.sol\":13029:13034  value */\n      dup4\n        /* \"@openzeppelin/contracts/utils/math/Math.sol\":13029:13045  value >= 10 ** 1 */\n      lt\n        /* \"@openzeppelin/contracts/utils/math/Math.sol\":13025:13091  if (value >= 10 ** 1) {... */\n      tag_298\n      jumpi\n        /* \"@openzeppelin/contracts/utils/math/Math.sol\":13075:13076  1 */\n      0x01\n        /* \"@openzeppelin/contracts/utils/math/Math.sol\":13065:13076  result += 1 */\n      dup2\n      add\n      swap1\n      pop\n        /* \"@openzeppelin/contracts/utils/math/Math.sol\":13025:13091  if (value >= 10 ** 1) {... */\n    tag_298:\n        /* \"@openzeppelin/contracts/utils/math/Math.sol\":13117:13123  result */\n      dup1\n        /* \"@openzeppelin/contracts/utils/math/Math.sol\":13110:13123  return result */\n      swap2\n      pop\n      pop\n        /* \"@openzeppelin/contracts/utils/math/Math.sol\":12214:13130  function log10(uint256 value) internal pure returns (uint256) {... */\n      swap2\n      swap1\n      pop\n      jump\t// out\n        /* \"@openzeppelin/contracts/token/ERC721/ERC721.sol\":6376:6648  function _isAuthorized(address owner, address spender, uint256 tokenId) internal view virtual returns (bool) {... */\n    tag_263:\n        /* \"@openzeppelin/contracts/token/ERC721/ERC721.sol\":6479:6483  bool */\n      0x00\n        /* \"@openzeppelin/contracts/token/ERC721/ERC721.sol\":6533:6534  0 */\n      dup1\n        /* \"@openzeppelin/contracts/token/ERC721/ERC721.sol\":6514:6535  spender != address(0) */\n      0xffffffffffffffffffffffffffffffffffffffff\n      and\n        /* \"@openzeppelin/contracts/token/ERC721/ERC721.sol\":6514:6521  spender */\n      dup4\n        /* \"@openzeppelin/contracts/token/ERC721/ERC721.sol\":6514:6535  spender != address(0) */\n      0xffffffffffffffffffffffffffffffffffffffff\n      and\n      eq\n      iszero\n        /* \"@openzeppelin/contracts/token/ERC721/ERC721.sol\":6514:6641  spender != address(0) &&... */\n      dup1\n      iszero\n      tag_300\n      jumpi\n      pop\n        /* \"@openzeppelin/contracts/token/ERC721/ERC721.sol\":6561:6568  spender */\n      dup3\n        /* \"@openzeppelin/contracts/token/ERC721/ERC721.sol\":6552:6568  owner == spender */\n      0xffffffffffffffffffffffffffffffffffffffff\n      and\n        /* \"@openzeppelin/contracts/token/ERC721/ERC721.sol\":6552:6557  owner */\n      dup5\n        /* \"@openzeppelin/contracts/token/ERC721/ERC721.sol\":6552:6568  owner == spender */\n      0xffffffffffffffffffffffffffffffffffffffff\n      and\n      eq\n        /* \"@openzeppelin/contracts/token/ERC721/ERC721.sol\":6552:6604  owner == spender || isApprovedForAll(owner, spender) */\n      dup1\n      tag_301\n      jumpi\n      pop\n        /* \"@openzeppelin/contracts/token/ERC721/ERC721.sol\":6572:6604  isApprovedForAll(owner, spender) */\n      tag_302\n        /* \"@openzeppelin/contracts/token/ERC721/ERC721.sol\":6589:6594  owner */\n      dup5\n        /* \"@openzeppelin/contracts/token/ERC721/ERC721.sol\":6596:6603  spender */\n      dup5\n        /* \"@openzeppelin/contracts/token/ERC721/ERC721.sol\":6572:6588  isApprovedForAll */\n      tag_99\n        /* \"@openzeppelin/contracts/token/ERC721/ERC721.sol\":6572:6604  isApprovedForAll(owner, spender) */\n      jump\t// in\n    tag_302:\n        /* \"@openzeppelin/contracts/token/ERC721/ERC721.sol\":6552:6604  owner == spender || isApprovedForAll(owner, spender) */\n    tag_301:\n        /* \"@openzeppelin/contracts/token/ERC721/ERC721.sol\":6552:6640  owner == spender || isApprovedForAll(owner, spender) || _getApproved(tokenId) == spender */\n      dup1\n      tag_303\n      jumpi\n      pop\n        /* \"@openzeppelin/contracts/token/ERC721/ERC721.sol\":6633:6640  spender */\n      dup3\n        /* \"@openzeppelin/contracts/token/ERC721/ERC721.sol\":6608:6640  _getApproved(tokenId) == spender */\n      0xffffffffffffffffffffffffffffffffffffffff\n      and\n        /* \"@openzeppelin/contracts/token/ERC721/ERC721.sol\":6608:6629  _getApproved(tokenId) */\n      tag_304\n        /* \"@openzeppelin/contracts/token/ERC721/ERC721.sol\":6621:6628  tokenId */\n      dup4\n        /* \"@openzeppelin/contracts/token/ERC721/ERC721.sol\":6608:6620  _getApproved */\n      tag_120\n        /* \"@openzeppelin/contracts/token/ERC721/ERC721.sol\":6608:6629  _getApproved(tokenId) */\n      jump\t// in\n    tag_304:\n        /* \"@openzeppelin/contracts/token/ERC721/ERC721.sol\":6608:6640  _getApproved(tokenId) == spender */\n      0xffffffffffffffffffffffffffffffffffffffff\n      and\n      eq\n        /* \"@openzeppelin/contracts/token/ERC721/ERC721.sol\":6552:6640  owner == spender || isApprovedForAll(owner, spender) || _getApproved(tokenId) == spender */\n    tag_303:\n        /* \"@openzeppelin/contracts/token/ERC721/ERC721.sol\":6514:6641  spender != address(0) &&... */\n    tag_300:\n        /* \"@openzeppelin/contracts/token/ERC721/ERC721.sol\":6495:6641  return... */\n      swap1\n      pop\n        /* \"@openzeppelin/contracts/token/ERC721/ERC721.sol\":6376:6648  function _isAuthorized(address owner, address spender, uint256 tokenId) internal view virtual returns (bool) {... */\n      swap4\n      swap3\n      pop\n      pop\n      pop\n      jump\t// out\n        /* \"@openzeppelin/contracts/utils/cryptography/MerkleProof.sol\":9229:9376  function _hashPair(bytes32 a, bytes32 b) private pure returns (bytes32) {... */\n    tag_278:\n        /* \"@openzeppelin/contracts/utils/cryptography/MerkleProof.sol\":9292:9299  bytes32 */\n      0x00\n        /* \"@openzeppelin/contracts/utils/cryptography/MerkleProof.sol\":9322:9323  b */\n      dup2\n        /* \"@openzeppelin/contracts/utils/cryptography/MerkleProof.sol\":9318:9319  a */\n      dup4\n        /* \"@openzeppelin/contracts/utils/cryptography/MerkleProof.sol\":9318:9323  a < b */\n      lt\n        /* \"@openzeppelin/contracts/utils/cryptography/MerkleProof.sol\":9318:9369  a < b ? _efficientHash(a, b) : _efficientHash(b, a) */\n      tag_306\n      jumpi\n        /* \"@openzeppelin/contracts/utils/cryptography/MerkleProof.sol\":9349:9369  _efficientHash(b, a) */\n      tag_307\n        /* \"@openzeppelin/contracts/utils/cryptography/MerkleProof.sol\":9364:9365  b */\n      dup3\n        /* \"@openzeppelin/contracts/utils/cryptography/MerkleProof.sol\":9367:9368  a */\n      dup5\n        /* \"@openzeppelin/contracts/utils/cryptography/MerkleProof.sol\":9349:9363  _efficientHash */\n      tag_308\n        /* \"@openzeppelin/contracts/utils/cryptography/MerkleProof.sol\":9349:9369  _efficientHash(b, a) */\n      jump\t// in\n    tag_307:\n        /* \"@openzeppelin/contracts/utils/cryptography/MerkleProof.sol\":9318:9369  a < b ? _efficientHash(a, b) : _efficientHash(b, a) */\n      jump(tag_309)\n    tag_306:\n        /* \"@openzeppelin/contracts/utils/cryptography/MerkleProof.sol\":9326:9346  _efficientHash(a, b) */\n      tag_310\n        /* \"@openzeppelin/contracts/utils/cryptography/MerkleProof.sol\":9341:9342  a */\n      dup4\n        /* \"@openzeppelin/contracts/utils/cryptography/MerkleProof.sol\":9344:9345  b */\n      dup4\n        /* \"@openzeppelin/contracts/utils/cryptography/MerkleProof.sol\":9326:9340  _efficientHash */\n      tag_308\n        /* \"@openzeppelin/contracts/utils/cryptography/MerkleProof.sol\":9326:9346  _efficientHash(a, b) */\n      jump\t// in\n    tag_310:\n        /* \"@openzeppelin/contracts/utils/cryptography/MerkleProof.sol\":9318:9369  a < b ? _efficientHash(a, b) : _efficientHash(b, a) */\n    tag_309:\n        /* \"@openzeppelin/contracts/utils/cryptography/MerkleProof.sol\":9311:9369  return a < b ? _efficientHash(a, b) : _efficientHash(b, a) */\n      swap1\n      pop\n        /* \"@openzeppelin/contracts/utils/cryptography/MerkleProof.sol\":9229:9376  function _hashPair(bytes32 a, bytes32 b) private pure returns (bytes32) {... */\n      swap3\n      swap2\n      pop\n      pop\n      jump\t// out\n        /* \"@openzeppelin/contracts/utils/cryptography/MerkleProof.sol\":9496:9757  function _efficientHash(bytes32 a, bytes32 b) private pure returns (bytes32 value) {... */\n    tag_308:\n        /* \"@openzeppelin/contracts/utils/cryptography/MerkleProof.sol\":9564:9577  bytes32 value */\n      0x00\n        /* \"@openzeppelin/contracts/utils/cryptography/MerkleProof.sol\":9668:9669  a */\n      dup3\n        /* \"@openzeppelin/contracts/utils/cryptography/MerkleProof.sol\":9662:9666  0x00 */\n      0x00\n        /* \"@openzeppelin/contracts/utils/cryptography/MerkleProof.sol\":9655:9670  mstore(0x00, a) */\n      mstore\n        /* \"@openzeppelin/contracts/utils/cryptography/MerkleProof.sol\":9696:9697  b */\n      dup2\n        /* \"@openzeppelin/contracts/utils/cryptography/MerkleProof.sol\":9690:9694  0x20 */\n      0x20\n        /* \"@openzeppelin/contracts/utils/cryptography/MerkleProof.sol\":9683:9698  mstore(0x20, b) */\n      mstore\n        /* \"@openzeppelin/contracts/utils/cryptography/MerkleProof.sol\":9736:9740  0x40 */\n      0x40\n        /* \"@openzeppelin/contracts/utils/cryptography/MerkleProof.sol\":9730:9734  0x00 */\n      0x00\n        /* \"@openzeppelin/contracts/utils/cryptography/MerkleProof.sol\":9720:9741  keccak256(0x00, 0x40) */\n      keccak256\n        /* \"@openzeppelin/contracts/utils/cryptography/MerkleProof.sol\":9711:9741  value := keccak256(0x00, 0x40) */\n      swap1\n      pop\n        /* \"@openzeppelin/contracts/utils/cryptography/MerkleProof.sol\":9496:9757  function _efficientHash(bytes32 a, bytes32 b) private pure returns (bytes32 value) {... */\n      swap3\n      swap2\n      pop\n      pop\n      jump\t// out\n        /* \"#utility.yul\":7:82   */\n    tag_312:\n        /* \"#utility.yul\":40:46   */\n      0x00\n        /* \"#utility.yul\":73:75   */\n      0x40\n        /* \"#utility.yul\":67:76   */\n      mload\n        /* \"#utility.yul\":57:76   */\n      swap1\n      pop\n        /* \"#utility.yul\":7:82   */\n      swap1\n      jump\t// out\n        /* \"#utility.yul\":88:205   */\n    tag_313:\n        /* \"#utility.yul\":197:198   */\n      0x00\n        /* \"#utility.yul\":194:195   */\n      dup1\n        /* \"#utility.yul\":187:199   */\n      revert\n        /* \"#utility.yul\":211:328   */\n    tag_314:\n        /* \"#utility.yul\":320:321   */\n      0x00\n        /* \"#utility.yul\":317:318   */\n      dup1\n        /* \"#utility.yul\":310:322   */\n      revert\n        /* \"#utility.yul\":334:483   */\n    tag_315:\n        /* \"#utility.yul\":370:377   */\n      0x00\n        /* \"#utility.yul\":410:476   */\n      0xffffffff00000000000000000000000000000000000000000000000000000000\n        /* \"#utility.yul\":403:408   */\n      dup3\n        /* \"#utility.yul\":399:477   */\n      and\n        /* \"#utility.yul\":388:477   */\n      swap1\n      pop\n        /* \"#utility.yul\":334:483   */\n      swap2\n      swap1\n      pop\n      jump\t// out\n        /* \"#utility.yul\":489:609   */\n    tag_316:\n        /* \"#utility.yul\":561:584   */\n      tag_376\n        /* \"#utility.yul\":578:583   */\n      dup2\n        /* \"#utility.yul\":561:584   */\n      tag_315\n      jump\t// in\n    tag_376:\n        /* \"#utility.yul\":554:559   */\n      dup2\n        /* \"#utility.yul\":551:585   */\n      eq\n        /* \"#utility.yul\":541:603   */\n      tag_377\n      jumpi\n        /* \"#utility.yul\":599:600   */\n      0x00\n        /* \"#utility.yul\":596:597   */\n      dup1\n        /* \"#utility.yul\":589:601   */\n      revert\n        /* \"#utility.yul\":541:603   */\n    tag_377:\n        /* \"#utility.yul\":489:609   */\n      pop\n      jump\t// out\n        /* \"#utility.yul\":615:752   */\n    tag_317:\n        /* \"#utility.yul\":660:665   */\n      0x00\n        /* \"#utility.yul\":698:704   */\n      dup2\n        /* \"#utility.yul\":685:705   */\n      calldataload\n        /* \"#utility.yul\":676:705   */\n      swap1\n      pop\n        /* \"#utility.yul\":714:746   */\n      tag_379\n        /* \"#utility.yul\":740:745   */\n      dup2\n        /* \"#utility.yul\":714:746   */\n      tag_316\n      jump\t// in\n    tag_379:\n        /* \"#utility.yul\":615:752   */\n      swap3\n      swap2\n      pop\n      pop\n      jump\t// out\n        /* \"#utility.yul\":758:1085   */\n    tag_26:\n        /* \"#utility.yul\":816:822   */\n      0x00\n        /* \"#utility.yul\":865:867   */\n      0x20\n        /* \"#utility.yul\":853:862   */\n      dup3\n        /* \"#utility.yul\":844:851   */\n      dup5\n        /* \"#utility.yul\":840:863   */\n      sub\n        /* \"#utility.yul\":836:868   */\n      slt\n        /* \"#utility.yul\":833:952   */\n      iszero\n      tag_381\n      jumpi\n        /* \"#utility.yul\":871:950   */\n      tag_382\n      tag_313\n      jump\t// in\n    tag_382:\n        /* \"#utility.yul\":833:952   */\n    tag_381:\n        /* \"#utility.yul\":991:992   */\n      0x00\n        /* \"#utility.yul\":1016:1068   */\n      tag_383\n        /* \"#utility.yul\":1060:1067   */\n      dup5\n        /* \"#utility.yul\":1051:1057   */\n      dup3\n        /* \"#utility.yul\":1040:1049   */\n      dup6\n        /* \"#utility.yul\":1036:1058   */\n      add\n        /* \"#utility.yul\":1016:1068   */\n      tag_317\n      jump\t// in\n    tag_383:\n        /* \"#utility.yul\":1006:1068   */\n      swap2\n      pop\n        /* \"#utility.yul\":962:1078   */\n      pop\n        /* \"#utility.yul\":758:1085   */\n      swap3\n      swap2\n      pop\n      pop\n      jump\t// out\n        /* \"#utility.yul\":1091:1181   */\n    tag_318:\n        /* \"#utility.yul\":1125:1132   */\n      0x00\n        /* \"#utility.yul\":1168:1173   */\n      dup2\n        /* \"#utility.yul\":1161:1174   */\n      iszero\n        /* \"#utility.yul\":1154:1175   */\n      iszero\n        /* \"#utility.yul\":1143:1175   */\n      swap1\n      pop\n        /* \"#utility.yul\":1091:1181   */\n      swap2\n      swap1\n      pop\n      jump\t// out\n        /* \"#utility.yul\":1187:1296   */\n    tag_319:\n        /* \"#utility.yul\":1268:1289   */\n      tag_386\n        /* \"#utility.yul\":1283:1288   */\n      dup2\n        /* \"#utility.yul\":1268:1289   */\n      tag_318\n      jump\t// in\n    tag_386:\n        /* \"#utility.yul\":1263:1266   */\n      dup3\n        /* \"#utility.yul\":1256:1290   */\n      mstore\n        /* \"#utility.yul\":1187:1296   */\n      pop\n      pop\n      jump\t// out\n        /* \"#utility.yul\":1302:1512   */\n    tag_29:\n        /* \"#utility.yul\":1389:1393   */\n      0x00\n        /* \"#utility.yul\":1427:1429   */\n      0x20\n        /* \"#utility.yul\":1416:1425   */\n      dup3\n        /* \"#utility.yul\":1412:1430   */\n      add\n        /* \"#utility.yul\":1404:1430   */\n      swap1\n      pop\n        /* \"#utility.yul\":1440:1505   */\n      tag_388\n        /* \"#utility.yul\":1502:1503   */\n      0x00\n        /* \"#utility.yul\":1491:1500   */\n      dup4\n        /* \"#utility.yul\":1487:1504   */\n      add\n        /* \"#utility.yul\":1478:1484   */\n      dup5\n        /* \"#utility.yul\":1440:1505   */\n      tag_319\n      jump\t// in\n    tag_388:\n        /* \"#utility.yul\":1302:1512   */\n      swap3\n      swap2\n      pop\n      pop\n      jump\t// out\n        /* \"#utility.yul\":1518:1644   */\n    tag_320:\n        /* \"#utility.yul\":1555:1562   */\n      0x00\n        /* \"#utility.yul\":1595:1637   */\n      0xffffffffffffffffffffffffffffffffffffffff\n        /* \"#utility.yul\":1588:1593   */\n      dup3\n        /* \"#utility.yul\":1584:1638   */\n      and\n        /* \"#utility.yul\":1573:1638   */\n      swap1\n      pop\n        /* \"#utility.yul\":1518:1644   */\n      swap2\n      swap1\n      pop\n      jump\t// out\n        /* \"#utility.yul\":1650:1746   */\n    tag_321:\n        /* \"#utility.yul\":1687:1694   */\n      0x00\n        /* \"#utility.yul\":1716:1740   */\n      tag_391\n        /* \"#utility.yul\":1734:1739   */\n      dup3\n        /* \"#utility.yul\":1716:1740   */\n      tag_320\n      jump\t// in\n    tag_391:\n        /* \"#utility.yul\":1705:1740   */\n      swap1\n      pop\n        /* \"#utility.yul\":1650:1746   */\n      swap2\n      swap1\n      pop\n      jump\t// out\n        /* \"#utility.yul\":1752:1874   */\n    tag_322:\n        /* \"#utility.yul\":1825:1849   */\n      tag_393\n        /* \"#utility.yul\":1843:1848   */\n      dup2\n        /* \"#utility.yul\":1825:1849   */\n      tag_321\n      jump\t// in\n    tag_393:\n        /* \"#utility.yul\":1818:1823   */\n      dup2\n        /* \"#utility.yul\":1815:1850   */\n      eq\n        /* \"#utility.yul\":1805:1868   */\n      tag_394\n      jumpi\n        /* \"#utility.yul\":1864:1865   */\n      0x00\n        /* \"#utility.yul\":1861:1862   */\n      dup1\n        /* \"#utility.yul\":1854:1866   */\n      revert\n        /* \"#utility.yul\":1805:1868   */\n    tag_394:\n        /* \"#utility.yul\":1752:1874   */\n      pop\n      jump\t// out\n        /* \"#utility.yul\":1880:2019   */\n    tag_323:\n        /* \"#utility.yul\":1926:1931   */\n      0x00\n        /* \"#utility.yul\":1964:1970   */\n      dup2\n        /* \"#utility.yul\":1951:1971   */\n      calldataload\n        /* \"#utility.yul\":1942:1971   */\n      swap1\n      pop\n        /* \"#utility.yul\":1980:2013   */\n      tag_396\n        /* \"#utility.yul\":2007:2012   */\n      dup2\n        /* \"#utility.yul\":1980:2013   */\n      tag_322\n      jump\t// in\n    tag_396:\n        /* \"#utility.yul\":1880:2019   */\n      swap3\n      swap2\n      pop\n      pop\n      jump\t// out\n        /* \"#utility.yul\":2025:2354   */\n    tag_32:\n        /* \"#utility.yul\":2084:2090   */\n      0x00\n        /* \"#utility.yul\":2133:2135   */\n      0x20\n        /* \"#utility.yul\":2121:2130   */\n      dup3\n        /* \"#utility.yul\":2112:2119   */\n      dup5\n        /* \"#utility.yul\":2108:2131   */\n      sub\n        /* \"#utility.yul\":2104:2136   */\n      slt\n        /* \"#utility.yul\":2101:2220   */\n      iszero\n      tag_398\n      jumpi\n        /* \"#utility.yul\":2139:2218   */\n      tag_399\n      tag_313\n      jump\t// in\n    tag_399:\n        /* \"#utility.yul\":2101:2220   */\n    tag_398:\n        /* \"#utility.yul\":2259:2260   */\n      0x00\n        /* \"#utility.yul\":2284:2337   */\n      tag_400\n        /* \"#utility.yul\":2329:2336   */\n      dup5\n        /* \"#utility.yul\":2320:2326   */\n      dup3\n        /* \"#utility.yul\":2309:2318   */\n      dup6\n        /* \"#utility.yul\":2305:2327   */\n      add\n        /* \"#utility.yul\":2284:2337   */\n      tag_323\n      jump\t// in\n    tag_400:\n        /* \"#utility.yul\":2274:2337   */\n      swap2\n      pop\n        /* \"#utility.yul\":2230:2347   */\n      pop\n        /* \"#utility.yul\":2025:2354   */\n      swap3\n      swap2\n      pop\n      pop\n      jump\t// out\n        /* \"#utility.yul\":2360:2437   */\n    tag_324:\n        /* \"#utility.yul\":2397:2404   */\n      0x00\n        /* \"#utility.yul\":2426:2431   */\n      dup2\n        /* \"#utility.yul\":2415:2431   */\n      swap1\n      pop\n        /* \"#utility.yul\":2360:2437   */\n      swap2\n      swap1\n      pop\n      jump\t// out\n        /* \"#utility.yul\":2443:2561   */\n    tag_325:\n        /* \"#utility.yul\":2530:2554   */\n      tag_403\n        /* \"#utility.yul\":2548:2553   */\n      dup2\n        /* \"#utility.yul\":2530:2554   */\n      tag_324\n      jump\t// in\n    tag_403:\n        /* \"#utility.yul\":2525:2528   */\n      dup3\n        /* \"#utility.yul\":2518:2555   */\n      mstore\n        /* \"#utility.yul\":2443:2561   */\n      pop\n      pop\n      jump\t// out\n        /* \"#utility.yul\":2567:2789   */\n    tag_35:\n        /* \"#utility.yul\":2660:2664   */\n      0x00\n        /* \"#utility.yul\":2698:2700   */\n      0x20\n        /* \"#utility.yul\":2687:2696   */\n      dup3\n        /* \"#utility.yul\":2683:2701   */\n      add\n        /* \"#utility.yul\":2675:2701   */\n      swap1\n      pop\n        /* \"#utility.yul\":2711:2782   */\n      tag_405\n        /* \"#utility.yul\":2779:2780   */\n      0x00\n        /* \"#utility.yul\":2768:2777   */\n      dup4\n        /* \"#utility.yul\":2764:2781   */\n      add\n        /* \"#utility.yul\":2755:2761   */\n      dup5\n        /* \"#utility.yul\":2711:2782   */\n      tag_325\n      jump\t// in\n    tag_405:\n        /* \"#utility.yul\":2567:2789   */\n      swap3\n      swap2\n      pop\n      pop\n      jump\t// out\n        /* \"#utility.yul\":2795:2894   */\n    tag_326:\n        /* \"#utility.yul\":2847:2853   */\n      0x00\n        /* \"#utility.yul\":2881:2886   */\n      dup2\n        /* \"#utility.yul\":2875:2887   */\n      mload\n        /* \"#utility.yul\":2865:2887   */\n      swap1\n      pop\n        /* \"#utility.yul\":2795:2894   */\n      swap2\n      swap1\n      pop\n      jump\t// out\n        /* \"#utility.yul\":2900:3069   */\n    tag_327:\n        /* \"#utility.yul\":2984:2995   */\n      0x00\n        /* \"#utility.yul\":3018:3024   */\n      dup3\n        /* \"#utility.yul\":3013:3016   */\n      dup3\n        /* \"#utility.yul\":3006:3025   */\n      mstore\n        /* \"#utility.yul\":3058:3062   */\n      0x20\n        /* \"#utility.yul\":3053:3056   */\n      dup3\n        /* \"#utility.yul\":3049:3063   */\n      add\n        /* \"#utility.yul\":3034:3063   */\n      swap1\n      pop\n        /* \"#utility.yul\":2900:3069   */\n      swap3\n      swap2\n      pop\n      pop\n      jump\t// out\n        /* \"#utility.yul\":3075:3214   */\n    tag_328:\n        /* \"#utility.yul\":3164:3170   */\n      dup3\n        /* \"#utility.yul\":3159:3162   */\n      dup2\n        /* \"#utility.yul\":3154:3157   */\n      dup4\n        /* \"#utility.yul\":3148:3171   */\n      mcopy\n        /* \"#utility.yul\":3205:3206   */\n      0x00\n        /* \"#utility.yul\":3196:3202   */\n      dup4\n        /* \"#utility.yul\":3191:3194   */\n      dup4\n        /* \"#utility.yul\":3187:3203   */\n      add\n        /* \"#utility.yul\":3180:3207   */\n      mstore\n        /* \"#utility.yul\":3075:3214   */\n      pop\n      pop\n      pop\n      jump\t// out\n        /* \"#utility.yul\":3220:3322   */\n    tag_329:\n        /* \"#utility.yul\":3261:3267   */\n      0x00\n        /* \"#utility.yul\":3312:3314   */\n      0x1f\n        /* \"#utility.yul\":3308:3315   */\n      not\n        /* \"#utility.yul\":3303:3305   */\n      0x1f\n        /* \"#utility.yul\":3296:3301   */\n      dup4\n        /* \"#utility.yul\":3292:3306   */\n      add\n        /* \"#utility.yul\":3288:3316   */\n      and\n        /* \"#utility.yul\":3278:3316   */\n      swap1\n      pop\n        /* \"#utility.yul\":3220:3322   */\n      swap2\n      swap1\n      pop\n      jump\t// out\n        /* \"#utility.yul\":3328:3705   */\n    tag_330:\n        /* \"#utility.yul\":3416:3419   */\n      0x00\n        /* \"#utility.yul\":3444:3483   */\n      tag_411\n        /* \"#utility.yul\":3477:3482   */\n      dup3\n        /* \"#utility.yul\":3444:3483   */\n      tag_326\n      jump\t// in\n    tag_411:\n        /* \"#utility.yul\":3499:3570   */\n      tag_412\n        /* \"#utility.yul\":3563:3569   */\n      dup2\n        /* \"#utility.yul\":3558:3561   */\n      dup6\n        /* \"#utility.yul\":3499:3570   */\n      tag_327\n      jump\t// in\n    tag_412:\n        /* \"#utility.yul\":3492:3570   */\n      swap4\n      pop\n        /* \"#utility.yul\":3579:3644   */\n      tag_413\n        /* \"#utility.yul\":3637:3643   */\n      dup2\n        /* \"#utility.yul\":3632:3635   */\n      dup6\n        /* \"#utility.yul\":3625:3629   */\n      0x20\n        /* \"#utility.yul\":3618:3623   */\n      dup7\n        /* \"#utility.yul\":3614:3630   */\n      add\n        /* \"#utility.yul\":3579:3644   */\n      tag_328\n      jump\t// in\n    tag_413:\n        /* \"#utility.yul\":3669:3698   */\n      tag_414\n        /* \"#utility.yul\":3691:3697   */\n      dup2\n        /* \"#utility.yul\":3669:3698   */\n      tag_329\n      jump\t// in\n    tag_414:\n        /* \"#utility.yul\":3664:3667   */\n      dup5\n        /* \"#utility.yul\":3660:3699   */\n      add\n        /* \"#utility.yul\":3653:3699   */\n      swap2\n      pop\n        /* \"#utility.yul\":3420:3705   */\n      pop\n        /* \"#utility.yul\":3328:3705   */\n      swap3\n      swap2\n      pop\n      pop\n      jump\t// out\n        /* \"#utility.yul\":3711:4024   */\n    tag_39:\n        /* \"#utility.yul\":3824:3828   */\n      0x00\n        /* \"#utility.yul\":3862:3864   */\n      0x20\n        /* \"#utility.yul\":3851:3860   */\n      dup3\n        /* \"#utility.yul\":3847:3865   */\n      add\n        /* \"#utility.yul\":3839:3865   */\n      swap1\n      pop\n        /* \"#utility.yul\":3911:3920   */\n      dup2\n        /* \"#utility.yul\":3905:3909   */\n      dup2\n        /* \"#utility.yul\":3901:3921   */\n      sub\n        /* \"#utility.yul\":3897:3898   */\n      0x00\n        /* \"#utility.yul\":3886:3895   */\n      dup4\n        /* \"#utility.yul\":3882:3899   */\n      add\n        /* \"#utility.yul\":3875:3922   */\n      mstore\n        /* \"#utility.yul\":3939:4017   */\n      tag_416\n        /* \"#utility.yul\":4012:4016   */\n      dup2\n        /* \"#utility.yul\":4003:4009   */\n      dup5\n        /* \"#utility.yul\":3939:4017   */\n      tag_330\n      jump\t// in\n    tag_416:\n        /* \"#utility.yul\":3931:4017   */\n      swap1\n      pop\n        /* \"#utility.yul\":3711:4024   */\n      swap3\n      swap2\n      pop\n      pop\n      jump\t// out\n        /* \"#utility.yul\":4030:4107   */\n    tag_331:\n        /* \"#utility.yul\":4067:4074   */\n      0x00\n        /* \"#utility.yul\":4096:4101   */\n      dup2\n        /* \"#utility.yul\":4085:4101   */\n      swap1\n      pop\n        /* \"#utility.yul\":4030:4107   */\n      swap2\n      swap1\n      pop\n      jump\t// out\n        /* \"#utility.yul\":4113:4235   */\n    tag_332:\n        /* \"#utility.yul\":4186:4210   */\n      tag_419\n        /* \"#utility.yul\":4204:4209   */\n      dup2\n        /* \"#utility.yul\":4186:4210   */\n      tag_331\n      jump\t// in\n    tag_419:\n        /* \"#utility.yul\":4179:4184   */\n      dup2\n        /* \"#utility.yul\":4176:4211   */\n      eq\n        /* \"#utility.yul\":4166:4229   */\n      tag_420\n      jumpi\n        /* \"#utility.yul\":4225:4226   */\n      0x00\n        /* \"#utility.yul\":4222:4223   */\n      dup1\n        /* \"#utility.yul\":4215:4227   */\n      revert\n        /* \"#utility.yul\":4166:4229   */\n    tag_420:\n        /* \"#utility.yul\":4113:4235   */\n      pop\n      jump\t// out\n        /* \"#utility.yul\":4241:4380   */\n    tag_333:\n        /* \"#utility.yul\":4287:4292   */\n      0x00\n        /* \"#utility.yul\":4325:4331   */\n      dup2\n        /* \"#utility.yul\":4312:4332   */\n      calldataload\n        /* \"#utility.yul\":4303:4332   */\n      swap1\n      pop\n        /* \"#utility.yul\":4341:4374   */\n      tag_422\n        /* \"#utility.yul\":4368:4373   */\n      dup2\n        /* \"#utility.yul\":4341:4374   */\n      tag_332\n      jump\t// in\n    tag_422:\n        /* \"#utility.yul\":4241:4380   */\n      swap3\n      swap2\n      pop\n      pop\n      jump\t// out\n        /* \"#utility.yul\":4386:4715   */\n    tag_42:\n        /* \"#utility.yul\":4445:4451   */\n      0x00\n        /* \"#utility.yul\":4494:4496   */\n      0x20\n        /* \"#utility.yul\":4482:4491   */\n      dup3\n        /* \"#utility.yul\":4473:4480   */\n      dup5\n        /* \"#utility.yul\":4469:4492   */\n      sub\n        /* \"#utility.yul\":4465:4497   */\n      slt\n        /* \"#utility.yul\":4462:4581   */\n      iszero\n      tag_424\n      jumpi\n        /* \"#utility.yul\":4500:4579   */\n      tag_425\n      tag_313\n      jump\t// in\n    tag_425:\n        /* \"#utility.yul\":4462:4581   */\n    tag_424:\n        /* \"#utility.yul\":4620:4621   */\n      0x00\n        /* \"#utility.yul\":4645:4698   */\n      tag_426\n        /* \"#utility.yul\":4690:4697   */\n      dup5\n        /* \"#utility.yul\":4681:4687   */\n      dup3\n        /* \"#utility.yul\":4670:4679   */\n      dup6\n        /* \"#utility.yul\":4666:4688   */\n      add\n        /* \"#utility.yul\":4645:4698   */\n      tag_333\n      jump\t// in\n    tag_426:\n        /* \"#utility.yul\":4635:4698   */\n      swap2\n      pop\n        /* \"#utility.yul\":4591:4708   */\n      pop\n        /* \"#utility.yul\":4386:4715   */\n      swap3\n      swap2\n      pop\n      pop\n      jump\t// out\n        /* \"#utility.yul\":4721:4839   */\n    tag_334:\n        /* \"#utility.yul\":4808:4832   */\n      tag_428\n        /* \"#utility.yul\":4826:4831   */\n      dup2\n        /* \"#utility.yul\":4808:4832   */\n      tag_321\n      jump\t// in\n    tag_428:\n        /* \"#utility.yul\":4803:4806   */\n      dup3\n        /* \"#utility.yul\":4796:4833   */\n      mstore\n        /* \"#utility.yul\":4721:4839   */\n      pop\n      pop\n      jump\t// out\n        /* \"#utility.yul\":4845:5067   */\n    tag_45:\n        /* \"#utility.yul\":4938:4942   */\n      0x00\n        /* \"#utility.yul\":4976:4978   */\n      0x20\n        /* \"#utility.yul\":4965:4974   */\n      dup3\n        /* \"#utility.yul\":4961:4979   */\n      add\n        /* \"#utility.yul\":4953:4979   */\n      swap1\n      pop\n        /* \"#utility.yul\":4989:5060   */\n      tag_430\n        /* \"#utility.yul\":5057:5058   */\n      0x00\n        /* \"#utility.yul\":5046:5055   */\n      dup4\n        /* \"#utility.yul\":5042:5059   */\n      add\n        /* \"#utility.yul\":5033:5039   */\n      dup5\n        /* \"#utility.yul\":4989:5060   */\n      tag_334\n      jump\t// in\n    tag_430:\n        /* \"#utility.yul\":4845:5067   */\n      swap3\n      swap2\n      pop\n      pop\n      jump\t// out\n        /* \"#utility.yul\":5073:5547   */\n    tag_48:\n        /* \"#utility.yul\":5141:5147   */\n      0x00\n        /* \"#utility.yul\":5149:5155   */\n      dup1\n        /* \"#utility.yul\":5198:5200   */\n      0x40\n        /* \"#utility.yul\":5186:5195   */\n      dup4\n        /* \"#utility.yul\":5177:5184   */\n      dup6\n        /* \"#utility.yul\":5173:5196   */\n      sub\n        /* \"#utility.yul\":5169:5201   */\n      slt\n        /* \"#utility.yul\":5166:5285   */\n      iszero\n      tag_432\n      jumpi\n        /* \"#utility.yul\":5204:5283   */\n      tag_433\n      tag_313\n      jump\t// in\n    tag_433:\n        /* \"#utility.yul\":5166:5285   */\n    tag_432:\n        /* \"#utility.yul\":5324:5325   */\n      0x00\n        /* \"#utility.yul\":5349:5402   */\n      tag_434\n        /* \"#utility.yul\":5394:5401   */\n      dup6\n        /* \"#utility.yul\":5385:5391   */\n      dup3\n        /* \"#utility.yul\":5374:5383   */\n      dup7\n        /* \"#utility.yul\":5370:5392   */\n      add\n        /* \"#utility.yul\":5349:5402   */\n      tag_323\n      jump\t// in\n    tag_434:\n        /* \"#utility.yul\":5339:5402   */\n      swap3\n      pop\n        /* \"#utility.yul\":5295:5412   */\n      pop\n        /* \"#utility.yul\":5451:5453   */\n      0x20\n        /* \"#utility.yul\":5477:5530   */\n      tag_435\n        /* \"#utility.yul\":5522:5529   */\n      dup6\n        /* \"#utility.yul\":5513:5519   */\n      dup3\n        /* \"#utility.yul\":5502:5511   */\n      dup7\n        /* \"#utility.yul\":5498:5520   */\n      add\n        /* \"#utility.yul\":5477:5530   */\n      tag_333\n      jump\t// in\n    tag_435:\n        /* \"#utility.yul\":5467:5530   */\n      swap2\n      pop\n        /* \"#utility.yul\":5422:5540   */\n      pop\n        /* \"#utility.yul\":5073:5547   */\n      swap3\n      pop\n      swap3\n      swap1\n      pop\n      jump\t// out\n        /* \"#utility.yul\":5553:6172   */\n    tag_52:\n        /* \"#utility.yul\":5630:5636   */\n      0x00\n        /* \"#utility.yul\":5638:5644   */\n      dup1\n        /* \"#utility.yul\":5646:5652   */\n      0x00\n        /* \"#utility.yul\":5695:5697   */\n      0x60\n        /* \"#utility.yul\":5683:5692   */\n      dup5\n        /* \"#utility.yul\":5674:5681   */\n      dup7\n        /* \"#utility.yul\":5670:5693   */\n      sub\n        /* \"#utility.yul\":5666:5698   */\n      slt\n        /* \"#utility.yul\":5663:5782   */\n      iszero\n      tag_437\n      jumpi\n        /* \"#utility.yul\":5701:5780   */\n      tag_438\n      tag_313\n      jump\t// in\n    tag_438:\n        /* \"#utility.yul\":5663:5782   */\n    tag_437:\n        /* \"#utility.yul\":5821:5822   */\n      0x00\n        /* \"#utility.yul\":5846:5899   */\n      tag_439\n        /* \"#utility.yul\":5891:5898   */\n      dup7\n        /* \"#utility.yul\":5882:5888   */\n      dup3\n        /* \"#utility.yul\":5871:5880   */\n      dup8\n        /* \"#utility.yul\":5867:5889   */\n      add\n        /* \"#utility.yul\":5846:5899   */\n      tag_323\n      jump\t// in\n    tag_439:\n        /* \"#utility.yul\":5836:5899   */\n      swap4\n      pop\n        /* \"#utility.yul\":5792:5909   */\n      pop\n        /* \"#utility.yul\":5948:5950   */\n      0x20\n        /* \"#utility.yul\":5974:6027   */\n      tag_440\n        /* \"#utility.yul\":6019:6026   */\n      dup7\n        /* \"#utility.yul\":6010:6016   */\n      dup3\n        /* \"#utility.yul\":5999:6008   */\n      dup8\n        /* \"#utility.yul\":5995:6017   */\n      add\n        /* \"#utility.yul\":5974:6027   */\n      tag_323\n      jump\t// in\n    tag_440:\n        /* \"#utility.yul\":5964:6027   */\n      swap3\n      pop\n        /* \"#utility.yul\":5919:6037   */\n      pop\n        /* \"#utility.yul\":6076:6078   */\n      0x40\n        /* \"#utility.yul\":6102:6155   */\n      tag_441\n        /* \"#utility.yul\":6147:6154   */\n      dup7\n        /* \"#utility.yul\":6138:6144   */\n      dup3\n        /* \"#utility.yul\":6127:6136   */\n      dup8\n        /* \"#utility.yul\":6123:6145   */\n      add\n        /* \"#utility.yul\":6102:6155   */\n      tag_333\n      jump\t// in\n    tag_441:\n        /* \"#utility.yul\":6092:6155   */\n      swap2\n      pop\n        /* \"#utility.yul\":6047:6165   */\n      pop\n        /* \"#utility.yul\":5553:6172   */\n      swap3\n      pop\n      swap3\n      pop\n      swap3\n      jump\t// out\n        /* \"#utility.yul\":6178:6296   */\n    tag_335:\n        /* \"#utility.yul\":6265:6289   */\n      tag_443\n        /* \"#utility.yul\":6283:6288   */\n      dup2\n        /* \"#utility.yul\":6265:6289   */\n      tag_331\n      jump\t// in\n    tag_443:\n        /* \"#utility.yul\":6260:6263   */\n      dup3\n        /* \"#utility.yul\":6253:6290   */\n      mstore\n        /* \"#utility.yul\":6178:6296   */\n      pop\n      pop\n      jump\t// out\n        /* \"#utility.yul\":6302:6524   */\n    tag_72:\n        /* \"#utility.yul\":6395:6399   */\n      0x00\n        /* \"#utility.yul\":6433:6435   */\n      0x20\n        /* \"#utility.yul\":6422:6431   */\n      dup3\n        /* \"#utility.yul\":6418:6436   */\n      add\n        /* \"#utility.yul\":6410:6436   */\n      swap1\n      pop\n        /* \"#utility.yul\":6446:6517   */\n      tag_445\n        /* \"#utility.yul\":6514:6515   */\n      0x00\n        /* \"#utility.yul\":6503:6512   */\n      dup4\n        /* \"#utility.yul\":6499:6516   */\n      add\n        /* \"#utility.yul\":6490:6496   */\n      dup5\n        /* \"#utility.yul\":6446:6517   */\n      tag_335\n      jump\t// in\n    tag_445:\n        /* \"#utility.yul\":6302:6524   */\n      swap3\n      swap2\n      pop\n      pop\n      jump\t// out\n        /* \"#utility.yul\":6530:6646   */\n    tag_336:\n        /* \"#utility.yul\":6600:6621   */\n      tag_447\n        /* \"#utility.yul\":6615:6620   */\n      dup2\n        /* \"#utility.yul\":6600:6621   */\n      tag_318\n      jump\t// in\n    tag_447:\n        /* \"#utility.yul\":6593:6598   */\n      dup2\n        /* \"#utility.yul\":6590:6622   */\n      eq\n        /* \"#utility.yul\":6580:6640   */\n      tag_448\n      jumpi\n        /* \"#utility.yul\":6636:6637   */\n      0x00\n        /* \"#utility.yul\":6633:6634   */\n      dup1\n        /* \"#utility.yul\":6626:6638   */\n      revert\n        /* \"#utility.yul\":6580:6640   */\n    tag_448:\n        /* \"#utility.yul\":6530:6646   */\n      pop\n      jump\t// out\n        /* \"#utility.yul\":6652:6785   */\n    tag_337:\n        /* \"#utility.yul\":6695:6700   */\n      0x00\n        /* \"#utility.yul\":6733:6739   */\n      dup2\n        /* \"#utility.yul\":6720:6740   */\n      calldataload\n        /* \"#utility.yul\":6711:6740   */\n      swap1\n      pop\n        /* \"#utility.yul\":6749:6779   */\n      tag_450\n        /* \"#utility.yul\":6773:6778   */\n      dup2\n        /* \"#utility.yul\":6749:6779   */\n      tag_336\n      jump\t// in\n    tag_450:\n        /* \"#utility.yul\":6652:6785   */\n      swap3\n      swap2\n      pop\n      pop\n      jump\t// out\n        /* \"#utility.yul\":6791:7259   */\n    tag_82:\n        /* \"#utility.yul\":6856:6862   */\n      0x00\n        /* \"#utility.yul\":6864:6870   */\n      dup1\n        /* \"#utility.yul\":6913:6915   */\n      0x40\n        /* \"#utility.yul\":6901:6910   */\n      dup4\n        /* \"#utility.yul\":6892:6899   */\n      dup6\n        /* \"#utility.yul\":6888:6911   */\n      sub\n        /* \"#utility.yul\":6884:6916   */\n      slt\n        /* \"#utility.yul\":6881:7000   */\n      iszero\n      tag_452\n      jumpi\n        /* \"#utility.yul\":6919:6998   */\n      tag_453\n      tag_313\n      jump\t// in\n    tag_453:\n        /* \"#utility.yul\":6881:7000   */\n    tag_452:\n        /* \"#utility.yul\":7039:7040   */\n      0x00\n        /* \"#utility.yul\":7064:7117   */\n      tag_454\n        /* \"#utility.yul\":7109:7116   */\n      dup6\n        /* \"#utility.yul\":7100:7106   */\n      dup3\n        /* \"#utility.yul\":7089:7098   */\n      dup7\n        /* \"#utility.yul\":7085:7107   */\n      add\n        /* \"#utility.yul\":7064:7117   */\n      tag_323\n      jump\t// in\n    tag_454:\n        /* \"#utility.yul\":7054:7117   */\n      swap3\n      pop\n        /* \"#utility.yul\":7010:7127   */\n      pop\n        /* \"#utility.yul\":7166:7168   */\n      0x20\n        /* \"#utility.yul\":7192:7242   */\n      tag_455\n        /* \"#utility.yul\":7234:7241   */\n      dup6\n        /* \"#utility.yul\":7225:7231   */\n      dup3\n        /* \"#utility.yul\":7214:7223   */\n      dup7\n        /* \"#utility.yul\":7210:7232   */\n      add\n        /* \"#utility.yul\":7192:7242   */\n      tag_337\n      jump\t// in\n    tag_455:\n        /* \"#utility.yul\":7182:7242   */\n      swap2\n      pop\n        /* \"#utility.yul\":7137:7252   */\n      pop\n        /* \"#utility.yul\":6791:7259   */\n      swap3\n      pop\n      swap3\n      swap1\n      pop\n      jump\t// out\n        /* \"#utility.yul\":7265:7382   */\n    tag_338:\n        /* \"#utility.yul\":7374:7375   */\n      0x00\n        /* \"#utility.yul\":7371:7372   */\n      dup1\n        /* \"#utility.yul\":7364:7376   */\n      revert\n        /* \"#utility.yul\":7388:7568   */\n    tag_242:\n        /* \"#utility.yul\":7436:7513   */\n      0x4e487b7100000000000000000000000000000000000000000000000000000000\n        /* \"#utility.yul\":7433:7434   */\n      0x00\n        /* \"#utility.yul\":7426:7514   */\n      mstore\n        /* \"#utility.yul\":7533:7537   */\n      0x41\n        /* \"#utility.yul\":7530:7531   */\n      0x04\n        /* \"#utility.yul\":7523:7538   */\n      mstore\n        /* \"#utility.yul\":7557:7561   */\n      0x24\n        /* \"#utility.yul\":7554:7555   */\n      0x00\n        /* \"#utility.yul\":7547:7562   */\n      revert\n        /* \"#utility.yul\":7574:7855   */\n    tag_339:\n        /* \"#utility.yul\":7657:7684   */\n      tag_459\n        /* \"#utility.yul\":7679:7683   */\n      dup3\n        /* \"#utility.yul\":7657:7684   */\n      tag_329\n      jump\t// in\n    tag_459:\n        /* \"#utility.yul\":7649:7655   */\n      dup2\n        /* \"#utility.yul\":7645:7685   */\n      add\n        /* \"#utility.yul\":7787:7793   */\n      dup2\n        /* \"#utility.yul\":7775:7785   */\n      dup2\n        /* \"#utility.yul\":7772:7794   */\n      lt\n        /* \"#utility.yul\":7751:7769   */\n      0xffffffffffffffff\n        /* \"#utility.yul\":7739:7749   */\n      dup3\n        /* \"#utility.yul\":7736:7770   */\n      gt\n        /* \"#utility.yul\":7733:7795   */\n      or\n        /* \"#utility.yul\":7730:7818   */\n      iszero\n      tag_460\n      jumpi\n        /* \"#utility.yul\":7798:7816   */\n      tag_461\n      tag_242\n      jump\t// in\n    tag_461:\n        /* \"#utility.yul\":7730:7818   */\n    tag_460:\n        /* \"#utility.yul\":7838:7848   */\n      dup1\n        /* \"#utility.yul\":7834:7836   */\n      0x40\n        /* \"#utility.yul\":7827:7849   */\n      mstore\n        /* \"#utility.yul\":7617:7855   */\n      pop\n        /* \"#utility.yul\":7574:7855   */\n      pop\n      pop\n      jump\t// out\n        /* \"#utility.yul\":7861:7990   */\n    tag_340:\n        /* \"#utility.yul\":7895:7901   */\n      0x00\n        /* \"#utility.yul\":7922:7942   */\n      tag_463\n      tag_312\n      jump\t// in\n    tag_463:\n        /* \"#utility.yul\":7912:7942   */\n      swap1\n      pop\n        /* \"#utility.yul\":7951:7984   */\n      tag_464\n        /* \"#utility.yul\":7979:7983   */\n      dup3\n        /* \"#utility.yul\":7971:7977   */\n      dup3\n        /* \"#utility.yul\":7951:7984   */\n      tag_339\n      jump\t// in\n    tag_464:\n        /* \"#utility.yul\":7861:7990   */\n      swap2\n      swap1\n      pop\n      jump\t// out\n        /* \"#utility.yul\":7996:8307   */\n    tag_341:\n        /* \"#utility.yul\":8073:8077   */\n      0x00\n        /* \"#utility.yul\":8163:8181   */\n      0xffffffffffffffff\n        /* \"#utility.yul\":8155:8161   */\n      dup3\n        /* \"#utility.yul\":8152:8182   */\n      gt\n        /* \"#utility.yul\":8149:8205   */\n      iszero\n      tag_466\n      jumpi\n        /* \"#utility.yul\":8185:8203   */\n      tag_467\n      tag_242\n      jump\t// in\n    tag_467:\n        /* \"#utility.yul\":8149:8205   */\n    tag_466:\n        /* \"#utility.yul\":8235:8239   */\n      0x20\n        /* \"#utility.yul\":8227:8233   */\n      dup3\n        /* \"#utility.yul\":8223:8240   */\n      mul\n        /* \"#utility.yul\":8215:8240   */\n      swap1\n      pop\n        /* \"#utility.yul\":8295:8299   */\n      0x20\n        /* \"#utility.yul\":8289:8293   */\n      dup2\n        /* \"#utility.yul\":8285:8300   */\n      add\n        /* \"#utility.yul\":8277:8300   */\n      swap1\n      pop\n        /* \"#utility.yul\":7996:8307   */\n      swap2\n      swap1\n      pop\n      jump\t// out\n        /* \"#utility.yul\":8313:8430   */\n    tag_342:\n        /* \"#utility.yul\":8422:8423   */\n      0x00\n        /* \"#utility.yul\":8419:8420   */\n      dup1\n        /* \"#utility.yul\":8412:8424   */\n      revert\n        /* \"#utility.yul\":8436:8558   */\n    tag_343:\n        /* \"#utility.yul\":8509:8533   */\n      tag_470\n        /* \"#utility.yul\":8527:8532   */\n      dup2\n        /* \"#utility.yul\":8509:8533   */\n      tag_324\n      jump\t// in\n    tag_470:\n        /* \"#utility.yul\":8502:8507   */\n      dup2\n        /* \"#utility.yul\":8499:8534   */\n      eq\n        /* \"#utility.yul\":8489:8552   */\n      tag_471\n      jumpi\n        /* \"#utility.yul\":8548:8549   */\n      0x00\n        /* \"#utility.yul\":8545:8546   */\n      dup1\n        /* \"#utility.yul\":8538:8550   */\n      revert\n        /* \"#utility.yul\":8489:8552   */\n    tag_471:\n        /* \"#utility.yul\":8436:8558   */\n      pop\n      jump\t// out\n        /* \"#utility.yul\":8564:8703   */\n    tag_344:\n        /* \"#utility.yul\":8610:8615   */\n      0x00\n        /* \"#utility.yul\":8648:8654   */\n      dup2\n        /* \"#utility.yul\":8635:8655   */\n      calldataload\n        /* \"#utility.yul\":8626:8655   */\n      swap1\n      pop\n        /* \"#utility.yul\":8664:8697   */\n      tag_473\n        /* \"#utility.yul\":8691:8696   */\n      dup2\n        /* \"#utility.yul\":8664:8697   */\n      tag_343\n      jump\t// in\n    tag_473:\n        /* \"#utility.yul\":8564:8703   */\n      swap3\n      swap2\n      pop\n      pop\n      jump\t// out\n        /* \"#utility.yul\":8726:9436   */\n    tag_345:\n        /* \"#utility.yul\":8822:8827   */\n      0x00\n        /* \"#utility.yul\":8847:8928   */\n      tag_475\n        /* \"#utility.yul\":8863:8927   */\n      tag_476\n        /* \"#utility.yul\":8920:8926   */\n      dup5\n        /* \"#utility.yul\":8863:8927   */\n      tag_341\n      jump\t// in\n    tag_476:\n        /* \"#utility.yul\":8847:8928   */\n      tag_340\n      jump\t// in\n    tag_475:\n        /* \"#utility.yul\":8838:8928   */\n      swap1\n      pop\n        /* \"#utility.yul\":8948:8953   */\n      dup1\n        /* \"#utility.yul\":8977:8983   */\n      dup4\n        /* \"#utility.yul\":8970:8975   */\n      dup3\n        /* \"#utility.yul\":8963:8984   */\n      mstore\n        /* \"#utility.yul\":9011:9015   */\n      0x20\n        /* \"#utility.yul\":9004:9009   */\n      dup3\n        /* \"#utility.yul\":9000:9016   */\n      add\n        /* \"#utility.yul\":8993:9016   */\n      swap1\n      pop\n        /* \"#utility.yul\":9064:9068   */\n      0x20\n        /* \"#utility.yul\":9056:9062   */\n      dup5\n        /* \"#utility.yul\":9052:9069   */\n      mul\n        /* \"#utility.yul\":9044:9050   */\n      dup4\n        /* \"#utility.yul\":9040:9070   */\n      add\n        /* \"#utility.yul\":9093:9096   */\n      dup6\n        /* \"#utility.yul\":9085:9091   */\n      dup2\n        /* \"#utility.yul\":9082:9097   */\n      gt\n        /* \"#utility.yul\":9079:9201   */\n      iszero\n      tag_477\n      jumpi\n        /* \"#utility.yul\":9112:9191   */\n      tag_478\n      tag_342\n      jump\t// in\n    tag_478:\n        /* \"#utility.yul\":9079:9201   */\n    tag_477:\n        /* \"#utility.yul\":9227:9233   */\n      dup4\n        /* \"#utility.yul\":9210:9430   */\n    tag_479:\n        /* \"#utility.yul\":9244:9250   */\n      dup2\n        /* \"#utility.yul\":9239:9242   */\n      dup2\n        /* \"#utility.yul\":9236:9251   */\n      lt\n        /* \"#utility.yul\":9210:9430   */\n      iszero\n      tag_481\n      jumpi\n        /* \"#utility.yul\":9319:9322   */\n      dup1\n        /* \"#utility.yul\":9348:9385   */\n      tag_482\n        /* \"#utility.yul\":9381:9384   */\n      dup9\n        /* \"#utility.yul\":9369:9379   */\n      dup3\n        /* \"#utility.yul\":9348:9385   */\n      tag_344\n      jump\t// in\n    tag_482:\n        /* \"#utility.yul\":9343:9346   */\n      dup5\n        /* \"#utility.yul\":9336:9386   */\n      mstore\n        /* \"#utility.yul\":9415:9419   */\n      0x20\n        /* \"#utility.yul\":9410:9413   */\n      dup5\n        /* \"#utility.yul\":9406:9420   */\n      add\n        /* \"#utility.yul\":9399:9420   */\n      swap4\n      pop\n        /* \"#utility.yul\":9286:9430   */\n      pop\n        /* \"#utility.yul\":9270:9274   */\n      0x20\n        /* \"#utility.yul\":9265:9268   */\n      dup2\n        /* \"#utility.yul\":9261:9275   */\n      add\n        /* \"#utility.yul\":9254:9275   */\n      swap1\n      pop\n        /* \"#utility.yul\":9210:9430   */\n      jump(tag_479)\n    tag_481:\n        /* \"#utility.yul\":9214:9235   */\n      pop\n        /* \"#utility.yul\":8828:9436   */\n      pop\n      pop\n        /* \"#utility.yul\":8726:9436   */\n      swap4\n      swap3\n      pop\n      pop\n      pop\n      jump\t// out\n        /* \"#utility.yul\":9459:9829   */\n    tag_346:\n        /* \"#utility.yul\":9530:9535   */\n      0x00\n        /* \"#utility.yul\":9579:9582   */\n      dup3\n        /* \"#utility.yul\":9572:9576   */\n      0x1f\n        /* \"#utility.yul\":9564:9570   */\n      dup4\n        /* \"#utility.yul\":9560:9577   */\n      add\n        /* \"#utility.yul\":9556:9583   */\n      slt\n        /* \"#utility.yul\":9546:9668   */\n      tag_484\n      jumpi\n        /* \"#utility.yul\":9587:9666   */\n      tag_485\n      tag_338\n      jump\t// in\n    tag_485:\n        /* \"#utility.yul\":9546:9668   */\n    tag_484:\n        /* \"#utility.yul\":9704:9710   */\n      dup2\n        /* \"#utility.yul\":9691:9711   */\n      calldataload\n        /* \"#utility.yul\":9729:9823   */\n      tag_486\n        /* \"#utility.yul\":9819:9822   */\n      dup5\n        /* \"#utility.yul\":9811:9817   */\n      dup3\n        /* \"#utility.yul\":9804:9808   */\n      0x20\n        /* \"#utility.yul\":9796:9802   */\n      dup7\n        /* \"#utility.yul\":9792:9809   */\n      add\n        /* \"#utility.yul\":9729:9823   */\n      tag_345\n      jump\t// in\n    tag_486:\n        /* \"#utility.yul\":9720:9823   */\n      swap2\n      pop\n        /* \"#utility.yul\":9536:9829   */\n      pop\n        /* \"#utility.yul\":9459:9829   */\n      swap3\n      swap2\n      pop\n      pop\n      jump\t// out\n        /* \"#utility.yul\":9835:10374   */\n    tag_86:\n        /* \"#utility.yul\":9919:9925   */\n      0x00\n        /* \"#utility.yul\":9968:9970   */\n      0x20\n        /* \"#utility.yul\":9956:9965   */\n      dup3\n        /* \"#utility.yul\":9947:9954   */\n      dup5\n        /* \"#utility.yul\":9943:9966   */\n      sub\n        /* \"#utility.yul\":9939:9971   */\n      slt\n        /* \"#utility.yul\":9936:10055   */\n      iszero\n      tag_488\n      jumpi\n        /* \"#utility.yul\":9974:10053   */\n      tag_489\n      tag_313\n      jump\t// in\n    tag_489:\n        /* \"#utility.yul\":9936:10055   */\n    tag_488:\n        /* \"#utility.yul\":10122:10123   */\n      0x00\n        /* \"#utility.yul\":10111:10120   */\n      dup3\n        /* \"#utility.yul\":10107:10124   */\n      add\n        /* \"#utility.yul\":10094:10125   */\n      calldataload\n        /* \"#utility.yul\":10152:10170   */\n      0xffffffffffffffff\n        /* \"#utility.yul\":10144:10150   */\n      dup2\n        /* \"#utility.yul\":10141:10171   */\n      gt\n        /* \"#utility.yul\":10138:10255   */\n      iszero\n      tag_490\n      jumpi\n        /* \"#utility.yul\":10174:10253   */\n      tag_491\n      tag_314\n      jump\t// in\n    tag_491:\n        /* \"#utility.yul\":10138:10255   */\n    tag_490:\n        /* \"#utility.yul\":10279:10357   */\n      tag_492\n        /* \"#utility.yul\":10349:10356   */\n      dup5\n        /* \"#utility.yul\":10340:10346   */\n      dup3\n        /* \"#utility.yul\":10329:10338   */\n      dup6\n        /* \"#utility.yul\":10325:10347   */\n      add\n        /* \"#utility.yul\":10279:10357   */\n      tag_346\n      jump\t// in\n    tag_492:\n        /* \"#utility.yul\":10269:10357   */\n      swap2\n      pop\n        /* \"#utility.yul\":10065:10367   */\n      pop\n        /* \"#utility.yul\":9835:10374   */\n      swap3\n      swap2\n      pop\n      pop\n      jump\t// out\n        /* \"#utility.yul\":10380:10497   */\n    tag_347:\n        /* \"#utility.yul\":10489:10490   */\n      0x00\n        /* \"#utility.yul\":10486:10487   */\n      dup1\n        /* \"#utility.yul\":10479:10491   */\n      revert\n        /* \"#utility.yul\":10503:10810   */\n    tag_348:\n        /* \"#utility.yul\":10564:10568   */\n      0x00\n        /* \"#utility.yul\":10654:10672   */\n      0xffffffffffffffff\n        /* \"#utility.yul\":10646:10652   */\n      dup3\n        /* \"#utility.yul\":10643:10673   */\n      gt\n        /* \"#utility.yul\":10640:10696   */\n      iszero\n      tag_495\n      jumpi\n        /* \"#utility.yul\":10676:10694   */\n      tag_496\n      tag_242\n      jump\t// in\n    tag_496:\n        /* \"#utility.yul\":10640:10696   */\n    tag_495:\n        /* \"#utility.yul\":10714:10743   */\n      tag_497\n        /* \"#utility.yul\":10736:10742   */\n      dup3\n        /* \"#utility.yul\":10714:10743   */\n      tag_329\n      jump\t// in\n    tag_497:\n        /* \"#utility.yul\":10706:10743   */\n      swap1\n      pop\n        /* \"#utility.yul\":10798:10802   */\n      0x20\n        /* \"#utility.yul\":10792:10796   */\n      dup2\n        /* \"#utility.yul\":10788:10803   */\n      add\n        /* \"#utility.yul\":10780:10803   */\n      swap1\n      pop\n        /* \"#utility.yul\":10503:10810   */\n      swap2\n      swap1\n      pop\n      jump\t// out\n        /* \"#utility.yul\":10816:10964   */\n    tag_349:\n        /* \"#utility.yul\":10914:10920   */\n      dup3\n        /* \"#utility.yul\":10909:10912   */\n      dup2\n        /* \"#utility.yul\":10904:10907   */\n      dup4\n        /* \"#utility.yul\":10891:10921   */\n      calldatacopy\n        /* \"#utility.yul\":10955:10956   */\n      0x00\n        /* \"#utility.yul\":10946:10952   */\n      dup4\n        /* \"#utility.yul\":10941:10944   */\n      dup4\n        /* \"#utility.yul\":10937:10953   */\n      add\n        /* \"#utility.yul\":10930:10957   */\n      mstore\n        /* \"#utility.yul\":10816:10964   */\n      pop\n      pop\n      pop\n      jump\t// out\n        /* \"#utility.yul\":10970:11393   */\n    tag_350:\n        /* \"#utility.yul\":11047:11052   */\n      0x00\n        /* \"#utility.yul\":11072:11137   */\n      tag_500\n        /* \"#utility.yul\":11088:11136   */\n      tag_501\n        /* \"#utility.yul\":11129:11135   */\n      dup5\n        /* \"#utility.yul\":11088:11136   */\n      tag_348\n      jump\t// in\n    tag_501:\n        /* \"#utility.yul\":11072:11137   */\n      tag_340\n      jump\t// in\n    tag_500:\n        /* \"#utility.yul\":11063:11137   */\n      swap1\n      pop\n        /* \"#utility.yul\":11160:11166   */\n      dup3\n        /* \"#utility.yul\":11153:11158   */\n      dup2\n        /* \"#utility.yul\":11146:11167   */\n      mstore\n        /* \"#utility.yul\":11198:11202   */\n      0x20\n        /* \"#utility.yul\":11191:11196   */\n      dup2\n        /* \"#utility.yul\":11187:11203   */\n      add\n        /* \"#utility.yul\":11236:11239   */\n      dup5\n        /* \"#utility.yul\":11227:11233   */\n      dup5\n        /* \"#utility.yul\":11222:11225   */\n      dup5\n        /* \"#utility.yul\":11218:11234   */\n      add\n        /* \"#utility.yul\":11215:11240   */\n      gt\n        /* \"#utility.yul\":11212:11324   */\n      iszero\n      tag_502\n      jumpi\n        /* \"#utility.yul\":11243:11322   */\n      tag_503\n      tag_347\n      jump\t// in\n    tag_503:\n        /* \"#utility.yul\":11212:11324   */\n    tag_502:\n        /* \"#utility.yul\":11333:11387   */\n      tag_504\n        /* \"#utility.yul\":11380:11386   */\n      dup5\n        /* \"#utility.yul\":11375:11378   */\n      dup3\n        /* \"#utility.yul\":11370:11373   */\n      dup6\n        /* \"#utility.yul\":11333:11387   */\n      tag_349\n      jump\t// in\n    tag_504:\n        /* \"#utility.yul\":11053:11393   */\n      pop\n        /* \"#utility.yul\":10970:11393   */\n      swap4\n      swap3\n      pop\n      pop\n      pop\n      jump\t// out\n        /* \"#utility.yul\":11412:11750   */\n    tag_351:\n        /* \"#utility.yul\":11467:11472   */\n      0x00\n        /* \"#utility.yul\":11516:11519   */\n      dup3\n        /* \"#utility.yul\":11509:11513   */\n      0x1f\n        /* \"#utility.yul\":11501:11507   */\n      dup4\n        /* \"#utility.yul\":11497:11514   */\n      add\n        /* \"#utility.yul\":11493:11520   */\n      slt\n        /* \"#utility.yul\":11483:11605   */\n      tag_506\n      jumpi\n        /* \"#utility.yul\":11524:11603   */\n      tag_507\n      tag_338\n      jump\t// in\n    tag_507:\n        /* \"#utility.yul\":11483:11605   */\n    tag_506:\n        /* \"#utility.yul\":11641:11647   */\n      dup2\n        /* \"#utility.yul\":11628:11648   */\n      calldataload\n        /* \"#utility.yul\":11666:11744   */\n      tag_508\n        /* \"#utility.yul\":11740:11743   */\n      dup5\n        /* \"#utility.yul\":11732:11738   */\n      dup3\n        /* \"#utility.yul\":11725:11729   */\n      0x20\n        /* \"#utility.yul\":11717:11723   */\n      dup7\n        /* \"#utility.yul\":11713:11730   */\n      add\n        /* \"#utility.yul\":11666:11744   */\n      tag_350\n      jump\t// in\n    tag_508:\n        /* \"#utility.yul\":11657:11744   */\n      swap2\n      pop\n        /* \"#utility.yul\":11473:11750   */\n      pop\n        /* \"#utility.yul\":11412:11750   */\n      swap3\n      swap2\n      pop\n      pop\n      jump\t// out\n        /* \"#utility.yul\":11756:12699   */\n    tag_90:\n        /* \"#utility.yul\":11851:11857   */\n      0x00\n        /* \"#utility.yul\":11859:11865   */\n      dup1\n        /* \"#utility.yul\":11867:11873   */\n      0x00\n        /* \"#utility.yul\":11875:11881   */\n      dup1\n        /* \"#utility.yul\":11924:11927   */\n      0x80\n        /* \"#utility.yul\":11912:11921   */\n      dup6\n        /* \"#utility.yul\":11903:11910   */\n      dup8\n        /* \"#utility.yul\":11899:11922   */\n      sub\n        /* \"#utility.yul\":11895:11928   */\n      slt\n        /* \"#utility.yul\":11892:12012   */\n      iszero\n      tag_510\n      jumpi\n        /* \"#utility.yul\":11931:12010   */\n      tag_511\n      tag_313\n      jump\t// in\n    tag_511:\n        /* \"#utility.yul\":11892:12012   */\n    tag_510:\n        /* \"#utility.yul\":12051:12052   */\n      0x00\n        /* \"#utility.yul\":12076:12129   */\n      tag_512\n        /* \"#utility.yul\":12121:12128   */\n      dup8\n        /* \"#utility.yul\":12112:12118   */\n      dup3\n        /* \"#utility.yul\":12101:12110   */\n      dup9\n        /* \"#utility.yul\":12097:12119   */\n      add\n        /* \"#utility.yul\":12076:12129   */\n      tag_323\n      jump\t// in\n    tag_512:\n        /* \"#utility.yul\":12066:12129   */\n      swap5\n      pop\n        /* \"#utility.yul\":12022:12139   */\n      pop\n        /* \"#utility.yul\":12178:12180   */\n      0x20\n        /* \"#utility.yul\":12204:12257   */\n      tag_513\n        /* \"#utility.yul\":12249:12256   */\n      dup8\n        /* \"#utility.yul\":12240:12246   */\n      dup3\n        /* \"#utility.yul\":12229:12238   */\n      dup9\n        /* \"#utility.yul\":12225:12247   */\n      add\n        /* \"#utility.yul\":12204:12257   */\n      tag_323\n      jump\t// in\n    tag_513:\n        /* \"#utility.yul\":12194:12257   */\n      swap4\n      pop\n        /* \"#utility.yul\":12149:12267   */\n      pop\n        /* \"#utility.yul\":12306:12308   */\n      0x40\n        /* \"#utility.yul\":12332:12385   */\n      tag_514\n        /* \"#utility.yul\":12377:12384   */\n      dup8\n        /* \"#utility.yul\":12368:12374   */\n      dup3\n        /* \"#utility.yul\":12357:12366   */\n      dup9\n        /* \"#utility.yul\":12353:12375   */\n      add\n        /* \"#utility.yul\":12332:12385   */\n      tag_333\n      jump\t// in\n    tag_514:\n        /* \"#utility.yul\":12322:12385   */\n      swap3\n      pop\n        /* \"#utility.yul\":12277:12395   */\n      pop\n        /* \"#utility.yul\":12462:12464   */\n      0x60\n        /* \"#utility.yul\":12451:12460   */\n      dup6\n        /* \"#utility.yul\":12447:12465   */\n      add\n        /* \"#utility.yul\":12434:12466   */\n      calldataload\n        /* \"#utility.yul\":12493:12511   */\n      0xffffffffffffffff\n        /* \"#utility.yul\":12485:12491   */\n      dup2\n        /* \"#utility.yul\":12482:12512   */\n      gt\n        /* \"#utility.yul\":12479:12596   */\n      iszero\n      tag_515\n      jumpi\n        /* \"#utility.yul\":12515:12594   */\n      tag_516\n      tag_314\n      jump\t// in\n    tag_516:\n        /* \"#utility.yul\":12479:12596   */\n    tag_515:\n        /* \"#utility.yul\":12620:12682   */\n      tag_517\n        /* \"#utility.yul\":12674:12681   */\n      dup8\n        /* \"#utility.yul\":12665:12671   */\n      dup3\n        /* \"#utility.yul\":12654:12663   */\n      dup9\n        /* \"#utility.yul\":12650:12672   */\n      add\n        /* \"#utility.yul\":12620:12682   */\n      tag_351\n      jump\t// in\n    tag_517:\n        /* \"#utility.yul\":12610:12682   */\n      swap2\n      pop\n        /* \"#utility.yul\":12405:12692   */\n      pop\n        /* \"#utility.yul\":11756:12699   */\n      swap3\n      swap6\n      swap2\n      swap5\n      pop\n      swap3\n      pop\n      jump\t// out\n        /* \"#utility.yul\":12705:13179   */\n    tag_98:\n        /* \"#utility.yul\":12773:12779   */\n      0x00\n        /* \"#utility.yul\":12781:12787   */\n      dup1\n        /* \"#utility.yul\":12830:12832   */\n      0x40\n        /* \"#utility.yul\":12818:12827   */\n      dup4\n        /* \"#utility.yul\":12809:12816   */\n      dup6\n        /* \"#utility.yul\":12805:12828   */\n      sub\n        /* \"#utility.yul\":12801:12833   */\n      slt\n        /* \"#utility.yul\":12798:12917   */\n      iszero\n      tag_519\n      jumpi\n        /* \"#utility.yul\":12836:12915   */\n      tag_520\n      tag_313\n      jump\t// in\n    tag_520:\n        /* \"#utility.yul\":12798:12917   */\n    tag_519:\n        /* \"#utility.yul\":12956:12957   */\n      0x00\n        /* \"#utility.yul\":12981:13034   */\n      tag_521\n        /* \"#utility.yul\":13026:13033   */\n      dup6\n        /* \"#utility.yul\":13017:13023   */\n      dup3\n        /* \"#utility.yul\":13006:13015   */\n      dup7\n        /* \"#utility.yul\":13002:13024   */\n      add\n        /* \"#utility.yul\":12981:13034   */\n      tag_323\n      jump\t// in\n    tag_521:\n        /* \"#utility.yul\":12971:13034   */\n      swap3\n      pop\n        /* \"#utility.yul\":12927:13044   */\n      pop\n        /* \"#utility.yul\":13083:13085   */\n      0x20\n        /* \"#utility.yul\":13109:13162   */\n      tag_522\n        /* \"#utility.yul\":13154:13161   */\n      dup6\n        /* \"#utility.yul\":13145:13151   */\n      dup3\n        /* \"#utility.yul\":13134:13143   */\n      dup7\n        /* \"#utility.yul\":13130:13152   */\n      add\n        /* \"#utility.yul\":13109:13162   */\n      tag_323\n      jump\t// in\n    tag_522:\n        /* \"#utility.yul\":13099:13162   */\n      swap2\n      pop\n        /* \"#utility.yul\":13054:13172   */\n      pop\n        /* \"#utility.yul\":12705:13179   */\n      swap3\n      pop\n      swap3\n      swap1\n      pop\n      jump\t// out\n        /* \"#utility.yul\":13185:13279   */\n    tag_352:\n        /* \"#utility.yul\":13218:13226   */\n      0x00\n        /* \"#utility.yul\":13266:13271   */\n      dup2\n        /* \"#utility.yul\":13262:13264   */\n      0x60\n        /* \"#utility.yul\":13258:13272   */\n      shl\n        /* \"#utility.yul\":13237:13272   */\n      swap1\n      pop\n        /* \"#utility.yul\":13185:13279   */\n      swap2\n      swap1\n      pop\n      jump\t// out\n        /* \"#utility.yul\":13285:13379   */\n    tag_353:\n        /* \"#utility.yul\":13324:13331   */\n      0x00\n        /* \"#utility.yul\":13353:13373   */\n      tag_525\n        /* \"#utility.yul\":13367:13372   */\n      dup3\n        /* \"#utility.yul\":13353:13373   */\n      tag_352\n      jump\t// in\n    tag_525:\n        /* \"#utility.yul\":13342:13373   */\n      swap1\n      pop\n        /* \"#utility.yul\":13285:13379   */\n      swap2\n      swap1\n      pop\n      jump\t// out\n        /* \"#utility.yul\":13385:13485   */\n    tag_354:\n        /* \"#utility.yul\":13424:13431   */\n      0x00\n        /* \"#utility.yul\":13453:13479   */\n      tag_527\n        /* \"#utility.yul\":13473:13478   */\n      dup3\n        /* \"#utility.yul\":13453:13479   */\n      tag_353\n      jump\t// in\n    tag_527:\n        /* \"#utility.yul\":13442:13479   */\n      swap1\n      pop\n        /* \"#utility.yul\":13385:13485   */\n      swap2\n      swap1\n      pop\n      jump\t// out\n        /* \"#utility.yul\":13491:13648   */\n    tag_355:\n        /* \"#utility.yul\":13596:13641   */\n      tag_529\n        /* \"#utility.yul\":13616:13640   */\n      tag_530\n        /* \"#utility.yul\":13634:13639   */\n      dup3\n        /* \"#utility.yul\":13616:13640   */\n      tag_321\n      jump\t// in\n    tag_530:\n        /* \"#utility.yul\":13596:13641   */\n      tag_354\n      jump\t// in\n    tag_529:\n        /* \"#utility.yul\":13591:13594   */\n      dup3\n        /* \"#utility.yul\":13584:13642   */\n      mstore\n        /* \"#utility.yul\":13491:13648   */\n      pop\n      pop\n      jump\t// out\n        /* \"#utility.yul\":13654:13910   */\n    tag_108:\n        /* \"#utility.yul\":13766:13769   */\n      0x00\n        /* \"#utility.yul\":13781:13856   */\n      tag_532\n        /* \"#utility.yul\":13852:13855   */\n      dup3\n        /* \"#utility.yul\":13843:13849   */\n      dup5\n        /* \"#utility.yul\":13781:13856   */\n      tag_355\n      jump\t// in\n    tag_532:\n        /* \"#utility.yul\":13881:13883   */\n      0x14\n        /* \"#utility.yul\":13876:13879   */\n      dup3\n        /* \"#utility.yul\":13872:13884   */\n      add\n        /* \"#utility.yul\":13865:13884   */\n      swap2\n      pop\n        /* \"#utility.yul\":13901:13904   */\n      dup2\n        /* \"#utility.yul\":13894:13904   */\n      swap1\n      pop\n        /* \"#utility.yul\":13654:13910   */\n      swap3\n      swap2\n      pop\n      pop\n      jump\t// out\n        /* \"#utility.yul\":13916:14096   */\n    tag_356:\n        /* \"#utility.yul\":13964:14041   */\n      0x4e487b7100000000000000000000000000000000000000000000000000000000\n        /* \"#utility.yul\":13961:13962   */\n      0x00\n        /* \"#utility.yul\":13954:14042   */\n      mstore\n        /* \"#utility.yul\":14061:14065   */\n      0x22\n        /* \"#utility.yul\":14058:14059   */\n      0x04\n        /* \"#utility.yul\":14051:14066   */\n      mstore\n        /* \"#utility.yul\":14085:14089   */\n      0x24\n        /* \"#utility.yul\":14082:14083   */\n      0x00\n        /* \"#utility.yul\":14075:14090   */\n      revert\n        /* \"#utility.yul\":14102:14422   */\n    tag_111:\n        /* \"#utility.yul\":14146:14152   */\n      0x00\n        /* \"#utility.yul\":14183:14184   */\n      0x02\n        /* \"#utility.yul\":14177:14181   */\n      dup3\n        /* \"#utility.yul\":14173:14185   */\n      div\n        /* \"#utility.yul\":14163:14185   */\n      swap1\n      pop\n        /* \"#utility.yul\":14230:14231   */\n      0x01\n        /* \"#utility.yul\":14224:14228   */\n      dup3\n        /* \"#utility.yul\":14220:14232   */\n      and\n        /* \"#utility.yul\":14251:14269   */\n      dup1\n        /* \"#utility.yul\":14241:14322   */\n      tag_535\n      jumpi\n        /* \"#utility.yul\":14307:14311   */\n      0x7f\n        /* \"#utility.yul\":14299:14305   */\n      dup3\n        /* \"#utility.yul\":14295:14312   */\n      and\n        /* \"#utility.yul\":14285:14312   */\n      swap2\n      pop\n        /* \"#utility.yul\":14241:14322   */\n    tag_535:\n        /* \"#utility.yul\":14369:14371   */\n      0x20\n        /* \"#utility.yul\":14361:14367   */\n      dup3\n        /* \"#utility.yul\":14358:14372   */\n      lt\n        /* \"#utility.yul\":14338:14356   */\n      dup2\n        /* \"#utility.yul\":14335:14373   */\n      sub\n        /* \"#utility.yul\":14332:14416   */\n      tag_536\n      jumpi\n        /* \"#utility.yul\":14388:14406   */\n      tag_537\n      tag_356\n      jump\t// in\n    tag_537:\n        /* \"#utility.yul\":14332:14416   */\n    tag_536:\n        /* \"#utility.yul\":14153:14422   */\n      pop\n        /* \"#utility.yul\":14102:14422   */\n      swap2\n      swap1\n      pop\n      jump\t// out\n        /* \"#utility.yul\":14428:14870   */\n    tag_134:\n        /* \"#utility.yul\":14577:14581   */\n      0x00\n        /* \"#utility.yul\":14615:14617   */\n      0x60\n        /* \"#utility.yul\":14604:14613   */\n      dup3\n        /* \"#utility.yul\":14600:14618   */\n      add\n        /* \"#utility.yul\":14592:14618   */\n      swap1\n      pop\n        /* \"#utility.yul\":14628:14699   */\n      tag_539\n        /* \"#utility.yul\":14696:14697   */\n      0x00\n        /* \"#utility.yul\":14685:14694   */\n      dup4\n        /* \"#utility.yul\":14681:14698   */\n      add\n        /* \"#utility.yul\":14672:14678   */\n      dup7\n        /* \"#utility.yul\":14628:14699   */\n      tag_334\n      jump\t// in\n    tag_539:\n        /* \"#utility.yul\":14709:14781   */\n      tag_540\n        /* \"#utility.yul\":14777:14779   */\n      0x20\n        /* \"#utility.yul\":14766:14775   */\n      dup4\n        /* \"#utility.yul\":14762:14780   */\n      add\n        /* \"#utility.yul\":14753:14759   */\n      dup6\n        /* \"#utility.yul\":14709:14781   */\n      tag_335\n      jump\t// in\n    tag_540:\n        /* \"#utility.yul\":14791:14863   */\n      tag_541\n        /* \"#utility.yul\":14859:14861   */\n      0x40\n        /* \"#utility.yul\":14848:14857   */\n      dup4\n        /* \"#utility.yul\":14844:14862   */\n      add\n        /* \"#utility.yul\":14835:14841   */\n      dup5\n        /* \"#utility.yul\":14791:14863   */\n      tag_334\n      jump\t// in\n    tag_541:\n        /* \"#utility.yul\":14428:14870   */\n      swap5\n      swap4\n      pop\n      pop\n      pop\n      pop\n      jump\t// out\n        /* \"#utility.yul\":14876:15052   */\n    tag_357:\n        /* \"#utility.yul\":15016:15044   */\n      0x41646472657373206973206e6f742077686974656c6973746564000000000000\n        /* \"#utility.yul\":15012:15013   */\n      0x00\n        /* \"#utility.yul\":15004:15010   */\n      dup3\n        /* \"#utility.yul\":15000:15014   */\n      add\n        /* \"#utility.yul\":14993:15045   */\n      mstore\n        /* \"#utility.yul\":14876:15052   */\n      pop\n      jump\t// out\n        /* \"#utility.yul\":15058:15424   */\n    tag_358:\n        /* \"#utility.yul\":15200:15203   */\n      0x00\n        /* \"#utility.yul\":15221:15288   */\n      tag_544\n        /* \"#utility.yul\":15285:15287   */\n      0x1a\n        /* \"#utility.yul\":15280:15283   */\n      dup4\n        /* \"#utility.yul\":15221:15288   */\n      tag_327\n      jump\t// in\n    tag_544:\n        /* \"#utility.yul\":15214:15288   */\n      swap2\n      pop\n        /* \"#utility.yul\":15297:15390   */\n      tag_545\n        /* \"#utility.yul\":15386:15389   */\n      dup3\n        /* \"#utility.yul\":15297:15390   */\n      tag_357\n      jump\t// in\n    tag_545:\n        /* \"#utility.yul\":15415:15417   */\n      0x20\n        /* \"#utility.yul\":15410:15413   */\n      dup3\n        /* \"#utility.yul\":15406:15418   */\n      add\n        /* \"#utility.yul\":15399:15418   */\n      swap1\n      pop\n        /* \"#utility.yul\":15058:15424   */\n      swap2\n      swap1\n      pop\n      jump\t// out\n        /* \"#utility.yul\":15430:15849   */\n    tag_157:\n        /* \"#utility.yul\":15596:15600   */\n      0x00\n        /* \"#utility.yul\":15634:15636   */\n      0x20\n        /* \"#utility.yul\":15623:15632   */\n      dup3\n        /* \"#utility.yul\":15619:15637   */\n      add\n        /* \"#utility.yul\":15611:15637   */\n      swap1\n      pop\n        /* \"#utility.yul\":15683:15692   */\n      dup2\n        /* \"#utility.yul\":15677:15681   */\n      dup2\n        /* \"#utility.yul\":15673:15693   */\n      sub\n        /* \"#utility.yul\":15669:15670   */\n      0x00\n        /* \"#utility.yul\":15658:15667   */\n      dup4\n        /* \"#utility.yul\":15654:15671   */\n      add\n        /* \"#utility.yul\":15647:15694   */\n      mstore\n        /* \"#utility.yul\":15711:15842   */\n      tag_547\n        /* \"#utility.yul\":15837:15841   */\n      dup2\n        /* \"#utility.yul\":15711:15842   */\n      tag_358\n      jump\t// in\n    tag_547:\n        /* \"#utility.yul\":15703:15842   */\n      swap1\n      pop\n        /* \"#utility.yul\":15430:15849   */\n      swap2\n      swap1\n      pop\n      jump\t// out\n        /* \"#utility.yul\":15855:16018   */\n    tag_359:\n        /* \"#utility.yul\":15995:16010   */\n      0x496e76616c69642070726f6f6600000000000000000000000000000000000000\n        /* \"#utility.yul\":15991:15992   */\n      0x00\n        /* \"#utility.yul\":15983:15989   */\n      dup3\n        /* \"#utility.yul\":15979:15993   */\n      add\n        /* \"#utility.yul\":15972:16011   */\n      mstore\n        /* \"#utility.yul\":15855:16018   */\n      pop\n      jump\t// out\n        /* \"#utility.yul\":16024:16390   */\n    tag_360:\n        /* \"#utility.yul\":16166:16169   */\n      0x00\n        /* \"#utility.yul\":16187:16254   */\n      tag_550\n        /* \"#utility.yul\":16251:16253   */\n      0x0d\n        /* \"#utility.yul\":16246:16249   */\n      dup4\n        /* \"#utility.yul\":16187:16254   */\n      tag_327\n      jump\t// in\n    tag_550:\n        /* \"#utility.yul\":16180:16254   */\n      swap2\n      pop\n        /* \"#utility.yul\":16263:16356   */\n      tag_551\n        /* \"#utility.yul\":16352:16355   */\n      dup3\n        /* \"#utility.yul\":16263:16356   */\n      tag_359\n      jump\t// in\n    tag_551:\n        /* \"#utility.yul\":16381:16383   */\n      0x20\n        /* \"#utility.yul\":16376:16379   */\n      dup3\n        /* \"#utility.yul\":16372:16384   */\n      add\n        /* \"#utility.yul\":16365:16384   */\n      swap1\n      pop\n        /* \"#utility.yul\":16024:16390   */\n      swap2\n      swap1\n      pop\n      jump\t// out\n        /* \"#utility.yul\":16396:16815   */\n    tag_162:\n        /* \"#utility.yul\":16562:16566   */\n      0x00\n        /* \"#utility.yul\":16600:16602   */\n      0x20\n        /* \"#utility.yul\":16589:16598   */\n      dup3\n        /* \"#utility.yul\":16585:16603   */\n      add\n        /* \"#utility.yul\":16577:16603   */\n      swap1\n      pop\n        /* \"#utility.yul\":16649:16658   */\n      dup2\n        /* \"#utility.yul\":16643:16647   */\n      dup2\n        /* \"#utility.yul\":16639:16659   */\n      sub\n        /* \"#utility.yul\":16635:16636   */\n      0x00\n        /* \"#utility.yul\":16624:16633   */\n      dup4\n        /* \"#utility.yul\":16620:16637   */\n      add\n        /* \"#utility.yul\":16613:16660   */\n      mstore\n        /* \"#utility.yul\":16677:16808   */\n      tag_553\n        /* \"#utility.yul\":16803:16807   */\n      dup2\n        /* \"#utility.yul\":16677:16808   */\n      tag_360\n      jump\t// in\n    tag_553:\n        /* \"#utility.yul\":16669:16808   */\n      swap1\n      pop\n        /* \"#utility.yul\":16396:16815   */\n      swap2\n      swap1\n      pop\n      jump\t// out\n        /* \"#utility.yul\":16821:17001   */\n    tag_361:\n        /* \"#utility.yul\":16869:16946   */\n      0x4e487b7100000000000000000000000000000000000000000000000000000000\n        /* \"#utility.yul\":16866:16867   */\n      0x00\n        /* \"#utility.yul\":16859:16947   */\n      mstore\n        /* \"#utility.yul\":16966:16970   */\n      0x11\n        /* \"#utility.yul\":16963:16964   */\n      0x04\n        /* \"#utility.yul\":16956:16971   */\n      mstore\n        /* \"#utility.yul\":16990:16994   */\n      0x24\n        /* \"#utility.yul\":16987:16988   */\n      0x00\n        /* \"#utility.yul\":16980:16995   */\n      revert\n        /* \"#utility.yul\":17007:17240   */\n    tag_164:\n        /* \"#utility.yul\":17046:17049   */\n      0x00\n        /* \"#utility.yul\":17069:17093   */\n      tag_556\n        /* \"#utility.yul\":17087:17092   */\n      dup3\n        /* \"#utility.yul\":17069:17093   */\n      tag_331\n      jump\t// in\n    tag_556:\n        /* \"#utility.yul\":17060:17093   */\n      swap2\n      pop\n        /* \"#utility.yul\":17115:17181   */\n      0xffffffffffffffffffffffffffffffffffffffffffffffffffffffffffffffff\n        /* \"#utility.yul\":17108:17113   */\n      dup3\n        /* \"#utility.yul\":17105:17182   */\n      sub\n        /* \"#utility.yul\":17102:17205   */\n      tag_557\n      jumpi\n        /* \"#utility.yul\":17185:17203   */\n      tag_558\n      tag_361\n      jump\t// in\n    tag_558:\n        /* \"#utility.yul\":17102:17205   */\n    tag_557:\n        /* \"#utility.yul\":17232:17233   */\n      0x01\n        /* \"#utility.yul\":17225:17230   */\n      dup3\n        /* \"#utility.yul\":17221:17234   */\n      add\n        /* \"#utility.yul\":17214:17234   */\n      swap1\n      pop\n        /* \"#utility.yul\":17007:17240   */\n      swap2\n      swap1\n      pop\n      jump\t// out\n        /* \"#utility.yul\":17246:17325   */\n    tag_362:\n        /* \"#utility.yul\":17285:17292   */\n      0x00\n        /* \"#utility.yul\":17314:17319   */\n      dup2\n        /* \"#utility.yul\":17303:17319   */\n      swap1\n      pop\n        /* \"#utility.yul\":17246:17325   */\n      swap2\n      swap1\n      pop\n      jump\t// out\n        /* \"#utility.yul\":17331:17488   */\n    tag_363:\n        /* \"#utility.yul\":17436:17481   */\n      tag_561\n        /* \"#utility.yul\":17456:17480   */\n      tag_562\n        /* \"#utility.yul\":17474:17479   */\n      dup3\n        /* \"#utility.yul\":17456:17480   */\n      tag_331\n      jump\t// in\n    tag_562:\n        /* \"#utility.yul\":17436:17481   */\n      tag_362\n      jump\t// in\n    tag_561:\n        /* \"#utility.yul\":17431:17434   */\n      dup3\n        /* \"#utility.yul\":17424:17482   */\n      mstore\n        /* \"#utility.yul\":17331:17488   */\n      pop\n      pop\n      jump\t// out\n        /* \"#utility.yul\":17494:18032   */\n    tag_166:\n        /* \"#utility.yul\":17662:17665   */\n      0x00\n        /* \"#utility.yul\":17677:17752   */\n      tag_564\n        /* \"#utility.yul\":17748:17751   */\n      dup3\n        /* \"#utility.yul\":17739:17745   */\n      dup7\n        /* \"#utility.yul\":17677:17752   */\n      tag_363\n      jump\t// in\n    tag_564:\n        /* \"#utility.yul\":17777:17779   */\n      0x20\n        /* \"#utility.yul\":17772:17775   */\n      dup3\n        /* \"#utility.yul\":17768:17780   */\n      add\n        /* \"#utility.yul\":17761:17780   */\n      swap2\n      pop\n        /* \"#utility.yul\":17790:17865   */\n      tag_565\n        /* \"#utility.yul\":17861:17864   */\n      dup3\n        /* \"#utility.yul\":17852:17858   */\n      dup6\n        /* \"#utility.yul\":17790:17865   */\n      tag_355\n      jump\t// in\n    tag_565:\n        /* \"#utility.yul\":17890:17892   */\n      0x14\n        /* \"#utility.yul\":17885:17888   */\n      dup3\n        /* \"#utility.yul\":17881:17893   */\n      add\n        /* \"#utility.yul\":17874:17893   */\n      swap2\n      pop\n        /* \"#utility.yul\":17903:17978   */\n      tag_566\n        /* \"#utility.yul\":17974:17977   */\n      dup3\n        /* \"#utility.yul\":17965:17971   */\n      dup5\n        /* \"#utility.yul\":17903:17978   */\n      tag_363\n      jump\t// in\n    tag_566:\n        /* \"#utility.yul\":18003:18005   */\n      0x20\n        /* \"#utility.yul\":17998:18001   */\n      dup3\n        /* \"#utility.yul\":17994:18006   */\n      add\n        /* \"#utility.yul\":17987:18006   */\n      swap2\n      pop\n        /* \"#utility.yul\":18023:18026   */\n      dup2\n        /* \"#utility.yul\":18016:18026   */\n      swap1\n      pop\n        /* \"#utility.yul\":17494:18032   */\n      swap5\n      swap4\n      pop\n      pop\n      pop\n      pop\n      jump\t// out\n        /* \"#utility.yul\":18038:18186   */\n    tag_364:\n        /* \"#utility.yul\":18140:18151   */\n      0x00\n        /* \"#utility.yul\":18177:18180   */\n      dup2\n        /* \"#utility.yul\":18162:18180   */\n      swap1\n      pop\n        /* \"#utility.yul\":18038:18186   */\n      swap3\n      swap2\n      pop\n      pop\n      jump\t// out\n        /* \"#utility.yul\":18192:18582   */\n    tag_365:\n        /* \"#utility.yul\":18298:18301   */\n      0x00\n        /* \"#utility.yul\":18326:18365   */\n      tag_569\n        /* \"#utility.yul\":18359:18364   */\n      dup3\n        /* \"#utility.yul\":18326:18365   */\n      tag_326\n      jump\t// in\n    tag_569:\n        /* \"#utility.yul\":18381:18470   */\n      tag_570\n        /* \"#utility.yul\":18463:18469   */\n      dup2\n        /* \"#utility.yul\":18458:18461   */\n      dup6\n        /* \"#utility.yul\":18381:18470   */\n      tag_364\n      jump\t// in\n    tag_570:\n        /* \"#utility.yul\":18374:18470   */\n      swap4\n      pop\n        /* \"#utility.yul\":18479:18544   */\n      tag_571\n        /* \"#utility.yul\":18537:18543   */\n      dup2\n        /* \"#utility.yul\":18532:18535   */\n      dup6\n        /* \"#utility.yul\":18525:18529   */\n      0x20\n        /* \"#utility.yul\":18518:18523   */\n      dup7\n        /* \"#utility.yul\":18514:18530   */\n      add\n        /* \"#utility.yul\":18479:18544   */\n      tag_328\n      jump\t// in\n    tag_571:\n        /* \"#utility.yul\":18569:18575   */\n      dup1\n        /* \"#utility.yul\":18564:18567   */\n      dup5\n        /* \"#utility.yul\":18560:18576   */\n      add\n        /* \"#utility.yul\":18553:18576   */\n      swap2\n      pop\n        /* \"#utility.yul\":18302:18582   */\n      pop\n        /* \"#utility.yul\":18192:18582   */\n      swap3\n      swap2\n      pop\n      pop\n      jump\t// out\n        /* \"#utility.yul\":18588:19023   */\n    tag_182:\n        /* \"#utility.yul\":18768:18771   */\n      0x00\n        /* \"#utility.yul\":18790:18885   */\n      tag_573\n        /* \"#utility.yul\":18881:18884   */\n      dup3\n        /* \"#utility.yul\":18872:18878   */\n      dup6\n        /* \"#utility.yul\":18790:18885   */\n      tag_365\n      jump\t// in\n    tag_573:\n        /* \"#utility.yul\":18783:18885   */\n      swap2\n      pop\n        /* \"#utility.yul\":18902:18997   */\n      tag_574\n        /* \"#utility.yul\":18993:18996   */\n      dup3\n        /* \"#utility.yul\":18984:18990   */\n      dup5\n        /* \"#utility.yul\":18902:18997   */\n      tag_365\n      jump\t// in\n    tag_574:\n        /* \"#utility.yul\":18895:18997   */\n      swap2\n      pop\n        /* \"#utility.yul\":19014:19017   */\n      dup2\n        /* \"#utility.yul\":19007:19017   */\n      swap1\n      pop\n        /* \"#utility.yul\":18588:19023   */\n      swap4\n      swap3\n      pop\n      pop\n      pop\n      jump\t// out\n        /* \"#utility.yul\":19029:19127   */\n    tag_366:\n        /* \"#utility.yul\":19080:19086   */\n      0x00\n        /* \"#utility.yul\":19114:19119   */\n      dup2\n        /* \"#utility.yul\":19108:19120   */\n      mload\n        /* \"#utility.yul\":19098:19120   */\n      swap1\n      pop\n        /* \"#utility.yul\":19029:19127   */\n      swap2\n      swap1\n      pop\n      jump\t// out\n        /* \"#utility.yul\":19133:19301   */\n    tag_367:\n        /* \"#utility.yul\":19216:19227   */\n      0x00\n        /* \"#utility.yul\":19250:19256   */\n      dup3\n        /* \"#utility.yul\":19245:19248   */\n      dup3\n        /* \"#utility.yul\":19238:19257   */\n      mstore\n        /* \"#utility.yul\":19290:19294   */\n      0x20\n        /* \"#utility.yul\":19285:19288   */\n      dup3\n        /* \"#utility.yul\":19281:19295   */\n      add\n        /* \"#utility.yul\":19266:19295   */\n      swap1\n      pop\n        /* \"#utility.yul\":19133:19301   */\n      swap3\n      swap2\n      pop\n      pop\n      jump\t// out\n        /* \"#utility.yul\":19307:19680   */\n    tag_368:\n        /* \"#utility.yul\":19393:19396   */\n      0x00\n        /* \"#utility.yul\":19421:19459   */\n      tag_578\n        /* \"#utility.yul\":19453:19458   */\n      dup3\n        /* \"#utility.yul\":19421:19459   */\n      tag_366\n      jump\t// in\n    tag_578:\n        /* \"#utility.yul\":19475:19545   */\n      tag_579\n        /* \"#utility.yul\":19538:19544   */\n      dup2\n        /* \"#utility.yul\":19533:19536   */\n      dup6\n        /* \"#utility.yul\":19475:19545   */\n      tag_367\n      jump\t// in\n    tag_579:\n        /* \"#utility.yul\":19468:19545   */\n      swap4\n      pop\n        /* \"#utility.yul\":19554:19619   */\n      tag_580\n        /* \"#utility.yul\":19612:19618   */\n      dup2\n        /* \"#utility.yul\":19607:19610   */\n      dup6\n        /* \"#utility.yul\":19600:19604   */\n      0x20\n        /* \"#utility.yul\":19593:19598   */\n      dup7\n        /* \"#utility.yul\":19589:19605   */\n      add\n        /* \"#utility.yul\":19554:19619   */\n      tag_328\n      jump\t// in\n    tag_580:\n        /* \"#utility.yul\":19644:19673   */\n      tag_581\n        /* \"#utility.yul\":19666:19672   */\n      dup2\n        /* \"#utility.yul\":19644:19673   */\n      tag_329\n      jump\t// in\n    tag_581:\n        /* \"#utility.yul\":19639:19642   */\n      dup5\n        /* \"#utility.yul\":19635:19674   */\n      add\n        /* \"#utility.yul\":19628:19674   */\n      swap2\n      pop\n        /* \"#utility.yul\":19397:19680   */\n      pop\n        /* \"#utility.yul\":19307:19680   */\n      swap3\n      swap2\n      pop\n      pop\n      jump\t// out\n        /* \"#utility.yul\":19686:20326   */\n    tag_220:\n        /* \"#utility.yul\":19881:19885   */\n      0x00\n        /* \"#utility.yul\":19919:19922   */\n      0x80\n        /* \"#utility.yul\":19908:19917   */\n      dup3\n        /* \"#utility.yul\":19904:19923   */\n      add\n        /* \"#utility.yul\":19896:19923   */\n      swap1\n      pop\n        /* \"#utility.yul\":19933:20004   */\n      tag_583\n        /* \"#utility.yul\":20001:20002   */\n      0x00\n        /* \"#utility.yul\":19990:19999   */\n      dup4\n        /* \"#utility.yul\":19986:20003   */\n      add\n        /* \"#utility.yul\":19977:19983   */\n      dup8\n        /* \"#utility.yul\":19933:20004   */\n      tag_334\n      jump\t// in\n    tag_583:\n        /* \"#utility.yul\":20014:20086   */\n      tag_584\n        /* \"#utility.yul\":20082:20084   */\n      0x20\n        /* \"#utility.yul\":20071:20080   */\n      dup4\n        /* \"#utility.yul\":20067:20085   */\n      add\n        /* \"#utility.yul\":20058:20064   */\n      dup7\n        /* \"#utility.yul\":20014:20086   */\n      tag_334\n      jump\t// in\n    tag_584:\n        /* \"#utility.yul\":20096:20168   */\n      tag_585\n        /* \"#utility.yul\":20164:20166   */\n      0x40\n        /* \"#utility.yul\":20153:20162   */\n      dup4\n        /* \"#utility.yul\":20149:20167   */\n      add\n        /* \"#utility.yul\":20140:20146   */\n      dup6\n        /* \"#utility.yul\":20096:20168   */\n      tag_335\n      jump\t// in\n    tag_585:\n        /* \"#utility.yul\":20215:20224   */\n      dup2\n        /* \"#utility.yul\":20209:20213   */\n      dup2\n        /* \"#utility.yul\":20205:20225   */\n      sub\n        /* \"#utility.yul\":20200:20202   */\n      0x60\n        /* \"#utility.yul\":20189:20198   */\n      dup4\n        /* \"#utility.yul\":20185:20203   */\n      add\n        /* \"#utility.yul\":20178:20226   */\n      mstore\n        /* \"#utility.yul\":20243:20319   */\n      tag_586\n        /* \"#utility.yul\":20314:20318   */\n      dup2\n        /* \"#utility.yul\":20305:20311   */\n      dup5\n        /* \"#utility.yul\":20243:20319   */\n      tag_368\n      jump\t// in\n    tag_586:\n        /* \"#utility.yul\":20235:20319   */\n      swap1\n      pop\n        /* \"#utility.yul\":19686:20326   */\n      swap6\n      swap5\n      pop\n      pop\n      pop\n      pop\n      pop\n      jump\t// out\n        /* \"#utility.yul\":20332:20473   */\n    tag_369:\n        /* \"#utility.yul\":20388:20393   */\n      0x00\n        /* \"#utility.yul\":20419:20425   */\n      dup2\n        /* \"#utility.yul\":20413:20426   */\n      mload\n        /* \"#utility.yul\":20404:20426   */\n      swap1\n      pop\n        /* \"#utility.yul\":20435:20467   */\n      tag_588\n        /* \"#utility.yul\":20461:20466   */\n      dup2\n        /* \"#utility.yul\":20435:20467   */\n      tag_316\n      jump\t// in\n    tag_588:\n        /* \"#utility.yul\":20332:20473   */\n      swap3\n      swap2\n      pop\n      pop\n      jump\t// out\n        /* \"#utility.yul\":20479:20828   */\n    tag_223:\n        /* \"#utility.yul\":20548:20554   */\n      0x00\n        /* \"#utility.yul\":20597:20599   */\n      0x20\n        /* \"#utility.yul\":20585:20594   */\n      dup3\n        /* \"#utility.yul\":20576:20583   */\n      dup5\n        /* \"#utility.yul\":20572:20595   */\n      sub\n        /* \"#utility.yul\":20568:20600   */\n      slt\n        /* \"#utility.yul\":20565:20684   */\n      iszero\n      tag_590\n      jumpi\n        /* \"#utility.yul\":20603:20682   */\n      tag_591\n      tag_313\n      jump\t// in\n    tag_591:\n        /* \"#utility.yul\":20565:20684   */\n    tag_590:\n        /* \"#utility.yul\":20723:20724   */\n      0x00\n        /* \"#utility.yul\":20748:20811   */\n      tag_592\n        /* \"#utility.yul\":20803:20810   */\n      dup5\n        /* \"#utility.yul\":20794:20800   */\n      dup3\n        /* \"#utility.yul\":20783:20792   */\n      dup6\n        /* \"#utility.yul\":20779:20801   */\n      add\n        /* \"#utility.yul\":20748:20811   */\n      tag_369\n      jump\t// in\n    tag_592:\n        /* \"#utility.yul\":20738:20811   */\n      swap2\n      pop\n        /* \"#utility.yul\":20694:20821   */\n      pop\n        /* \"#utility.yul\":20479:20828   */\n      swap3\n      swap2\n      pop\n      pop\n      jump\t// out\n        /* \"#utility.yul\":20834:21014   */\n    tag_248:\n        /* \"#utility.yul\":20882:20959   */\n      0x4e487b7100000000000000000000000000000000000000000000000000000000\n        /* \"#utility.yul\":20879:20880   */\n      0x00\n        /* \"#utility.yul\":20872:20960   */\n      mstore\n        /* \"#utility.yul\":20979:20983   */\n      0x12\n        /* \"#utility.yul\":20976:20977   */\n      0x04\n        /* \"#utility.yul\":20969:20984   */\n      mstore\n        /* \"#utility.yul\":21003:21007   */\n      0x24\n        /* \"#utility.yul\":21000:21001   */\n      0x00\n        /* \"#utility.yul\":20993:21008   */\n      revert\n        /* \"#utility.yul\":21020:21352   */\n    tag_269:\n        /* \"#utility.yul\":21141:21145   */\n      0x00\n        /* \"#utility.yul\":21179:21181   */\n      0x40\n        /* \"#utility.yul\":21168:21177   */\n      dup3\n        /* \"#utility.yul\":21164:21182   */\n      add\n        /* \"#utility.yul\":21156:21182   */\n      swap1\n      pop\n        /* \"#utility.yul\":21192:21263   */\n      tag_595\n        /* \"#utility.yul\":21260:21261   */\n      0x00\n        /* \"#utility.yul\":21249:21258   */\n      dup4\n        /* \"#utility.yul\":21245:21262   */\n      add\n        /* \"#utility.yul\":21236:21242   */\n      dup6\n        /* \"#utility.yul\":21192:21263   */\n      tag_334\n      jump\t// in\n    tag_595:\n        /* \"#utility.yul\":21273:21345   */\n      tag_596\n        /* \"#utility.yul\":21341:21343   */\n      0x20\n        /* \"#utility.yul\":21330:21339   */\n      dup4\n        /* \"#utility.yul\":21326:21344   */\n      add\n        /* \"#utility.yul\":21317:21323   */\n      dup5\n        /* \"#utility.yul\":21273:21345   */\n      tag_335\n      jump\t// in\n    tag_596:\n        /* \"#utility.yul\":21020:21352   */\n      swap4\n      swap3\n      pop\n      pop\n      pop\n      jump\t// out\n        /* \"#utility.yul\":21358:21538   */\n    tag_277:\n        /* \"#utility.yul\":21406:21483   */\n      0x4e487b7100000000000000000000000000000000000000000000000000000000\n        /* \"#utility.yul\":21403:21404   */\n      0x00\n        /* \"#utility.yul\":21396:21484   */\n      mstore\n        /* \"#utility.yul\":21503:21507   */\n      0x32\n        /* \"#utility.yul\":21500:21501   */\n      0x04\n        /* \"#utility.yul\":21493:21508   */\n      mstore\n        /* \"#utility.yul\":21527:21531   */\n      0x24\n        /* \"#utility.yul\":21524:21525   */\n      0x00\n        /* \"#utility.yul\":21517:21532   */\n      revert\n\n    auxdata: 0xa26469706673582212207a717d3cfe83bf066b2110a01103d87090b141e637ded7a90f643c37d5bc373764736f6c63430008190033\n}\n",
				"bytecode": {
					"linkReferences": {},
					"object": "608060405234801561000f575f80fd5b50604051612a5a380380612a5a83398181016040528101906100319190610342565b6040518060400160405280600d81526020017f446f63756d656e74546f6b656e000000000000000000000000000000000000008152506040518060400160405280600281526020017f4454000000000000000000000000000000000000000000000000000000000000815250815f90816100ab91906105a9565b5080600190816100bb91906105a9565b505050816006819055505f5b815181101561014c57600160085f8484815181106100e8576100e7610678565b5b602002602001015173ffffffffffffffffffffffffffffffffffffffff1673ffffffffffffffffffffffffffffffffffffffff1681526020019081526020015f205f6101000a81548160ff02191690831515021790555080806001019150506100c7565b5050506106a5565b5f604051905090565b5f80fd5b5f80fd5b5f819050919050565b61017781610165565b8114610181575f80fd5b50565b5f815190506101928161016e565b92915050565b5f80fd5b5f601f19601f8301169050919050565b7f4e487b71000000000000000000000000000000000000000000000000000000005f52604160045260245ffd5b6101e28261019c565b810181811067ffffffffffffffff82111715610201576102006101ac565b5b80604052505050565b5f610213610154565b905061021f82826101d9565b919050565b5f67ffffffffffffffff82111561023e5761023d6101ac565b5b602082029050602081019050919050565b5f80fd5b5f73ffffffffffffffffffffffffffffffffffffffff82169050919050565b5f61027c82610253565b9050919050565b61028c81610272565b8114610296575f80fd5b50565b5f815190506102a781610283565b92915050565b5f6102bf6102ba84610224565b61020a565b905080838252602082019050602084028301858111156102e2576102e161024f565b5b835b8181101561030b57806102f78882610299565b8452602084019350506020810190506102e4565b5050509392505050565b5f82601f83011261032957610328610198565b5b81516103398482602086016102ad565b91505092915050565b5f80604083850312156103585761035761015d565b5b5f61036585828601610184565b925050602083015167ffffffffffffffff81111561038657610385610161565b5b61039285828601610315565b9150509250929050565b5f81519050919050565b7f4e487b71000000000000000000000000000000000000000000000000000000005f52602260045260245ffd5b5f60028204905060018216806103ea57607f821691505b6020821081036103fd576103fc6103a6565b5b50919050565b5f819050815f5260205f209050919050565b5f6020601f8301049050919050565b5f82821b905092915050565b5f6008830261045f7fffffffffffffffffffffffffffffffffffffffffffffffffffffffffffffffff82610424565b6104698683610424565b95508019841693508086168417925050509392505050565b5f819050919050565b5f819050919050565b5f6104ad6104a86104a384610481565b61048a565b610481565b9050919050565b5f819050919050565b6104c683610493565b6104da6104d2826104b4565b848454610430565b825550505050565b5f90565b6104ee6104e2565b6104f98184846104bd565b505050565b5b8181101561051c576105115f826104e6565b6001810190506104ff565b5050565b601f8211156105615761053281610403565b61053b84610415565b8101602085101561054a578190505b61055e61055685610415565b8301826104fe565b50505b505050565b5f82821c905092915050565b5f6105815f1984600802610566565b1980831691505092915050565b5f6105998383610572565b9150826002028217905092915050565b6105b28261039c565b67ffffffffffffffff8111156105cb576105ca6101ac565b5b6105d582546103d3565b6105e0828285610520565b5f60209050601f831160018114610611575f84156105ff578287015190505b610609858261058e565b865550610670565b601f19841661061f86610403565b5f5b8281101561064657848901518255600182019150602085019450602081019050610621565b86831015610663578489015161065f601f891682610572565b8355505b6001600288020188555050505b505050505050565b7f4e487b71000000000000000000000000000000000000000000000000000000005f52603260045260245ffd5b6123a8806106b25f395ff3fe608060405234801561000f575f80fd5b5060043610610114575f3560e01c80636352211e116100a0578063a22cb4651161006f578063a22cb46514610316578063a407e49614610332578063b88d4fde1461034e578063c87b56dd1461036a578063e985e9c51461039a57610114565b80636352211e1461026857806370a082311461029857806395d89b41146102c85780639b19251a146102e657610114565b8063095ea7b3116100e7578063095ea7b3146101c657806323b872dd146101e25780632eb4a7ab146101fe5780633af32abf1461021c57806342842e0e1461024c57610114565b806301ffc9a714610118578063063dcdfb1461014857806306fdde0314610178578063081812fc14610196575b5f80fd5b610132600480360381019061012d91906118c1565b6103ca565b60405161013f9190611906565b60405180910390f35b610162600480360381019061015d9190611979565b6104ab565b60405161016f91906119bc565b60405180910390f35b6101806104df565b60405161018d9190611a45565b60405180910390f35b6101b060048036038101906101ab9190611a98565b61056e565b6040516101bd9190611ad2565b60405180910390f35b6101e060048036038101906101db9190611aeb565b610589565b005b6101fc60048036038101906101f79190611b29565b61059f565b005b61020661069e565b60405161021391906119bc565b60405180910390f35b61023660048036038101906102319190611979565b6106a4565b6040516102439190611906565b60405180910390f35b61026660048036038101906102619190611b29565b6106f6565b005b610282600480360381019061027d9190611a98565b610715565b60405161028f9190611ad2565b60405180910390f35b6102b260048036038101906102ad9190611979565b610726565b6040516102bf9190611b88565b60405180910390f35b6102d06107dc565b6040516102dd9190611a45565b60405180910390f35b61030060048036038101906102fb9190611979565b61086c565b60405161030d9190611906565b60405180910390f35b610330600480360381019061032b9190611bcb565b610889565b005b61034c60048036038101906103479190611d73565b61089f565b005b61036860048036038101906103639190611e6a565b6109a2565b005b610384600480360381019061037f9190611a98565b6109bf565b6040516103919190611a45565b60405180910390f35b6103b460048036038101906103af9190611eea565b610a25565b6040516103c19190611906565b60405180910390f35b5f7f80ac58cd000000000000000000000000000000000000000000000000000000007bffffffffffffffffffffffffffffffffffffffffffffffffffffffff1916827bffffffffffffffffffffffffffffffffffffffffffffffffffffffff1916148061049457507f5b5e139f000000000000000000000000000000000000000000000000000000007bffffffffffffffffffffffffffffffffffffffffffffffffffffffff1916827bffffffffffffffffffffffffffffffffffffffffffffffffffffffff1916145b806104a457506104a382610ab3565b5b9050919050565b5f80826040516020016104be9190611f6d565b60405160208183030381529060405280519060200120905080915050919050565b60605f80546104ed90611fb4565b80601f016020809104026020016040519081016040528092919081815260200182805461051990611fb4565b80156105645780601f1061053b57610100808354040283529160200191610564565b820191905f5260205f20905b81548152906001019060200180831161054757829003601f168201915b5050505050905090565b5f61057882610b1c565b5061058282610ba2565b9050919050565b61059b8282610596610bdb565b610be2565b5050565b5f73ffffffffffffffffffffffffffffffffffffffff168273ffffffffffffffffffffffffffffffffffffffff160361060f575f6040517f64a0ae920000000000000000000000000000000000000000000000000000000081526004016106069190611ad2565b60405180910390fd5b5f610622838361061d610bdb565b610bf4565b90508373ffffffffffffffffffffffffffffffffffffffff168173ffffffffffffffffffffffffffffffffffffffff1614610698578382826040517f64283d7b00000000000000000000000000000000000000000000000000000000815260040161068f93929190611fe4565b60405180910390fd5b50505050565b60065481565b5f60085f8373ffffffffffffffffffffffffffffffffffffffff1673ffffffffffffffffffffffffffffffffffffffff1681526020019081526020015f205f9054906101000a900460ff169050919050565b61071083838360405180602001604052805f8152506109a2565b505050565b5f61071f82610b1c565b9050919050565b5f8073ffffffffffffffffffffffffffffffffffffffff168273ffffffffffffffffffffffffffffffffffffffff1603610797575f6040517f89c62b6400000000000000000000000000000000000000000000000000000000815260040161078e9190611ad2565b60405180910390fd5b60035f8373ffffffffffffffffffffffffffffffffffffffff1673ffffffffffffffffffffffffffffffffffffffff1681526020019081526020015f20549050919050565b6060600180546107eb90611fb4565b80601f016020809104026020016040519081016040528092919081815260200182805461081790611fb4565b80156108625780601f1061083957610100808354040283529160200191610862565b820191905f5260205f20905b81548152906001019060200180831161084557829003601f168201915b5050505050905090565b6008602052805f5260405f205f915054906101000a900460ff1681565b61089b610894610bdb565b8383610dff565b5050565b6108a8336106a4565b6108e7576040517f08c379a00000000000000000000000000000000000000000000000000000000081526004016108de90612063565b60405180910390fd5b61090c816006543373ffffffffffffffffffffffffffffffffffffffff165f1b610f68565b61094b576040517f08c379a0000000000000000000000000000000000000000000000000000000008152600401610942906120cb565b60405180910390fd5b60075f81548092919061095d90612116565b91905055505f423360075460405160200161097a9392919061217d565b604051602081830303815290604052805190602001205f1c905061099e3382610f7e565b5050565b6109ad84848461059f565b6109b984848484611071565b50505050565b60606109ca82610b1c565b505f6109d4611223565b90505f8151116109f25760405180602001604052805f815250610a1d565b806109fc84611239565b604051602001610a0d9291906121f3565b6040516020818303038152906040525b915050919050565b5f60055f8473ffffffffffffffffffffffffffffffffffffffff1673ffffffffffffffffffffffffffffffffffffffff1681526020019081526020015f205f8373ffffffffffffffffffffffffffffffffffffffff1673ffffffffffffffffffffffffffffffffffffffff1681526020019081526020015f205f9054906101000a900460ff16905092915050565b5f7f01ffc9a7000000000000000000000000000000000000000000000000000000007bffffffffffffffffffffffffffffffffffffffffffffffffffffffff1916827bffffffffffffffffffffffffffffffffffffffffffffffffffffffff1916149050919050565b5f80610b2783611303565b90505f73ffffffffffffffffffffffffffffffffffffffff168173ffffffffffffffffffffffffffffffffffffffff1603610b9957826040517f7e273289000000000000000000000000000000000000000000000000000000008152600401610b909190611b88565b60405180910390fd5b80915050919050565b5f60045f8381526020019081526020015f205f9054906101000a900473ffffffffffffffffffffffffffffffffffffffff169050919050565b5f33905090565b610bef838383600161133c565b505050565b5f80610bff84611303565b90505f73ffffffffffffffffffffffffffffffffffffffff168373ffffffffffffffffffffffffffffffffffffffff1614610c4057610c3f8184866114fb565b5b5f73ffffffffffffffffffffffffffffffffffffffff168173ffffffffffffffffffffffffffffffffffffffff1614610ccb57610c7f5f855f8061133c565b600160035f8373ffffffffffffffffffffffffffffffffffffffff1673ffffffffffffffffffffffffffffffffffffffff1681526020019081526020015f205f82825403925050819055505b5f73ffffffffffffffffffffffffffffffffffffffff168573ffffffffffffffffffffffffffffffffffffffff1614610d4a57600160035f8773ffffffffffffffffffffffffffffffffffffffff1673ffffffffffffffffffffffffffffffffffffffff1681526020019081526020015f205f82825401925050819055505b8460025f8681526020019081526020015f205f6101000a81548173ffffffffffffffffffffffffffffffffffffffff021916908373ffffffffffffffffffffffffffffffffffffffff160217905550838573ffffffffffffffffffffffffffffffffffffffff168273ffffffffffffffffffffffffffffffffffffffff167fddf252ad1be2c89b69c2b068fc378daa952ba7f163c4a11628f55a4df523b3ef60405160405180910390a4809150509392505050565b5f73ffffffffffffffffffffffffffffffffffffffff168273ffffffffffffffffffffffffffffffffffffffff1603610e6f57816040517f5b08ba18000000000000000000000000000000000000000000000000000000008152600401610e669190611ad2565b60405180910390fd5b8060055f8573ffffffffffffffffffffffffffffffffffffffff1673ffffffffffffffffffffffffffffffffffffffff1681526020019081526020015f205f8473ffffffffffffffffffffffffffffffffffffffff1673ffffffffffffffffffffffffffffffffffffffff1681526020019081526020015f205f6101000a81548160ff0219169083151502179055508173ffffffffffffffffffffffffffffffffffffffff168373ffffffffffffffffffffffffffffffffffffffff167f17307eab39ab6107e8899845ad3d59bd9653f200f220920489ca2b5937696c3183604051610f5b9190611906565b60405180910390a3505050565b5f82610f7485846115be565b1490509392505050565b5f73ffffffffffffffffffffffffffffffffffffffff168273ffffffffffffffffffffffffffffffffffffffff1603610fee575f6040517f64a0ae92000000000000000000000000000000000000000000000000000000008152600401610fe59190611ad2565b60405180910390fd5b5f610ffa83835f610bf4565b90505f73ffffffffffffffffffffffffffffffffffffffff168173ffffffffffffffffffffffffffffffffffffffff161461106c575f6040517f73c6ac6e0000000000000000000000000000000000000000000000000000000081526004016110639190611ad2565b60405180910390fd5b505050565b5f8373ffffffffffffffffffffffffffffffffffffffff163b111561121d578273ffffffffffffffffffffffffffffffffffffffff1663150b7a026110b4610bdb565b8685856040518563ffffffff1660e01b81526004016110d69493929190612268565b6020604051808303815f875af192505050801561111157506040513d601f19601f8201168201806040525081019061110e91906122c6565b60015b611192573d805f811461113f576040519150601f19603f3d011682016040523d82523d5f602084013e611144565b606091505b505f81510361118a57836040517f64a0ae920000000000000000000000000000000000000000000000000000000081526004016111819190611ad2565b60405180910390fd5b805181602001fd5b63150b7a0260e01b7bffffffffffffffffffffffffffffffffffffffffffffffffffffffff1916817bffffffffffffffffffffffffffffffffffffffffffffffffffffffff19161461121b57836040517f64a0ae920000000000000000000000000000000000000000000000000000000081526004016112129190611ad2565b60405180910390fd5b505b50505050565b606060405180602001604052805f815250905090565b60605f60016112478461160c565b0190505f8167ffffffffffffffff81111561126557611264611c0d565b5b6040519080825280601f01601f1916602001820160405280156112975781602001600182028036833780820191505090505b5090505f82602001820190505b6001156112f8578080600190039150507f3031323334353637383961626364656600000000000000000000000000000000600a86061a8153600a85816112ed576112ec6122f1565b5b0494505f85036112a4575b819350505050919050565b5f60025f8381526020019081526020015f205f9054906101000a900473ffffffffffffffffffffffffffffffffffffffff169050919050565b808061137457505f73ffffffffffffffffffffffffffffffffffffffff168273ffffffffffffffffffffffffffffffffffffffff1614155b156114a6575f61138384610b1c565b90505f73ffffffffffffffffffffffffffffffffffffffff168373ffffffffffffffffffffffffffffffffffffffff16141580156113ed57508273ffffffffffffffffffffffffffffffffffffffff168173ffffffffffffffffffffffffffffffffffffffff1614155b801561140057506113fe8184610a25565b155b1561144257826040517fa9fbf51f0000000000000000000000000000000000000000000000000000000081526004016114399190611ad2565b60405180910390fd5b81156114a457838573ffffffffffffffffffffffffffffffffffffffff168273ffffffffffffffffffffffffffffffffffffffff167f8c5be1e5ebec7d5bd14f71427d1e84f3dd0314c0f7b2291e5b200ac8c7c3b92560405160405180910390a45b505b8360045f8581526020019081526020015f205f6101000a81548173ffffffffffffffffffffffffffffffffffffffff021916908373ffffffffffffffffffffffffffffffffffffffff16021790555050505050565b61150683838361175d565b6115b9575f73ffffffffffffffffffffffffffffffffffffffff168373ffffffffffffffffffffffffffffffffffffffff160361157a57806040517f7e2732890000000000000000000000000000000000000000000000000000000081526004016115719190611b88565b60405180910390fd5b81816040517f177e802f0000000000000000000000000000000000000000000000000000000081526004016115b092919061231e565b60405180910390fd5b505050565b5f808290505f5b8451811015611601576115f2828683815181106115e5576115e4612345565b5b602002602001015161181d565b915080806001019150506115c5565b508091505092915050565b5f805f90507a184f03e93ff9f4daa797ed6e38ed64bf6a1f0100000000000000008310611668577a184f03e93ff9f4daa797ed6e38ed64bf6a1f010000000000000000838161165e5761165d6122f1565b5b0492506040810190505b6d04ee2d6d415b85acef810000000083106116a5576d04ee2d6d415b85acef8100000000838161169b5761169a6122f1565b5b0492506020810190505b662386f26fc1000083106116d457662386f26fc1000083816116ca576116c96122f1565b5b0492506010810190505b6305f5e10083106116fd576305f5e10083816116f3576116f26122f1565b5b0492506008810190505b6127108310611722576127108381611718576117176122f1565b5b0492506004810190505b60648310611745576064838161173b5761173a6122f1565b5b0492506002810190505b600a8310611754576001810190505b80915050919050565b5f8073ffffffffffffffffffffffffffffffffffffffff168373ffffffffffffffffffffffffffffffffffffffff161415801561181457508273ffffffffffffffffffffffffffffffffffffffff168473ffffffffffffffffffffffffffffffffffffffff1614806117d557506117d48484610a25565b5b8061181357508273ffffffffffffffffffffffffffffffffffffffff166117fb83610ba2565b73ffffffffffffffffffffffffffffffffffffffff16145b5b90509392505050565b5f8183106118345761182f8284611847565b61183f565b61183e8383611847565b5b905092915050565b5f825f528160205260405f20905092915050565b5f604051905090565b5f80fd5b5f80fd5b5f7fffffffff0000000000000000000000000000000000000000000000000000000082169050919050565b6118a08161186c565b81146118aa575f80fd5b50565b5f813590506118bb81611897565b92915050565b5f602082840312156118d6576118d5611864565b5b5f6118e3848285016118ad565b91505092915050565b5f8115159050919050565b611900816118ec565b82525050565b5f6020820190506119195f8301846118f7565b92915050565b5f73ffffffffffffffffffffffffffffffffffffffff82169050919050565b5f6119488261191f565b9050919050565b6119588161193e565b8114611962575f80fd5b50565b5f813590506119738161194f565b92915050565b5f6020828403121561198e5761198d611864565b5b5f61199b84828501611965565b91505092915050565b5f819050919050565b6119b6816119a4565b82525050565b5f6020820190506119cf5f8301846119ad565b92915050565b5f81519050919050565b5f82825260208201905092915050565b8281835e5f83830152505050565b5f601f19601f8301169050919050565b5f611a17826119d5565b611a2181856119df565b9350611a318185602086016119ef565b611a3a816119fd565b840191505092915050565b5f6020820190508181035f830152611a5d8184611a0d565b905092915050565b5f819050919050565b611a7781611a65565b8114611a81575f80fd5b50565b5f81359050611a9281611a6e565b92915050565b5f60208284031215611aad57611aac611864565b5b5f611aba84828501611a84565b91505092915050565b611acc8161193e565b82525050565b5f602082019050611ae55f830184611ac3565b92915050565b5f8060408385031215611b0157611b00611864565b5b5f611b0e85828601611965565b9250506020611b1f85828601611a84565b9150509250929050565b5f805f60608486031215611b4057611b3f611864565b5b5f611b4d86828701611965565b9350506020611b5e86828701611965565b9250506040611b6f86828701611a84565b9150509250925092565b611b8281611a65565b82525050565b5f602082019050611b9b5f830184611b79565b92915050565b611baa816118ec565b8114611bb4575f80fd5b50565b5f81359050611bc581611ba1565b92915050565b5f8060408385031215611be157611be0611864565b5b5f611bee85828601611965565b9250506020611bff85828601611bb7565b9150509250929050565b5f80fd5b7f4e487b71000000000000000000000000000000000000000000000000000000005f52604160045260245ffd5b611c43826119fd565b810181811067ffffffffffffffff82111715611c6257611c61611c0d565b5b80604052505050565b5f611c7461185b565b9050611c808282611c3a565b919050565b5f67ffffffffffffffff821115611c9f57611c9e611c0d565b5b602082029050602081019050919050565b5f80fd5b611cbd816119a4565b8114611cc7575f80fd5b50565b5f81359050611cd881611cb4565b92915050565b5f611cf0611ceb84611c85565b611c6b565b90508083825260208201905060208402830185811115611d1357611d12611cb0565b5b835b81811015611d3c5780611d288882611cca565b845260208401935050602081019050611d15565b5050509392505050565b5f82601f830112611d5a57611d59611c09565b5b8135611d6a848260208601611cde565b91505092915050565b5f60208284031215611d8857611d87611864565b5b5f82013567ffffffffffffffff811115611da557611da4611868565b5b611db184828501611d46565b91505092915050565b5f80fd5b5f67ffffffffffffffff821115611dd857611dd7611c0d565b5b611de1826119fd565b9050602081019050919050565b828183375f83830152505050565b5f611e0e611e0984611dbe565b611c6b565b905082815260208101848484011115611e2a57611e29611dba565b5b611e35848285611dee565b509392505050565b5f82601f830112611e5157611e50611c09565b5b8135611e61848260208601611dfc565b91505092915050565b5f805f8060808587031215611e8257611e81611864565b5b5f611e8f87828801611965565b9450506020611ea087828801611965565b9350506040611eb187828801611a84565b925050606085013567ffffffffffffffff811115611ed257611ed1611868565b5b611ede87828801611e3d565b91505092959194509250565b5f8060408385031215611f0057611eff611864565b5b5f611f0d85828601611965565b9250506020611f1e85828601611965565b9150509250929050565b5f8160601b9050919050565b5f611f3e82611f28565b9050919050565b5f611f4f82611f34565b9050919050565b611f67611f628261193e565b611f45565b82525050565b5f611f788284611f56565b60148201915081905092915050565b7f4e487b71000000000000000000000000000000000000000000000000000000005f52602260045260245ffd5b5f6002820490506001821680611fcb57607f821691505b602082108103611fde57611fdd611f87565b5b50919050565b5f606082019050611ff75f830186611ac3565b6120046020830185611b79565b6120116040830184611ac3565b949350505050565b7f41646472657373206973206e6f742077686974656c69737465640000000000005f82015250565b5f61204d601a836119df565b915061205882612019565b602082019050919050565b5f6020820190508181035f83015261207a81612041565b9050919050565b7f496e76616c69642070726f6f66000000000000000000000000000000000000005f82015250565b5f6120b5600d836119df565b91506120c082612081565b602082019050919050565b5f6020820190508181035f8301526120e2816120a9565b9050919050565b7f4e487b71000000000000000000000000000000000000000000000000000000005f52601160045260245ffd5b5f61212082611a65565b91507fffffffffffffffffffffffffffffffffffffffffffffffffffffffffffffffff8203612152576121516120e9565b5b600182019050919050565b5f819050919050565b61217761217282611a65565b61215d565b82525050565b5f6121888286612166565b6020820191506121988285611f56565b6014820191506121a88284612166565b602082019150819050949350505050565b5f81905092915050565b5f6121cd826119d5565b6121d781856121b9565b93506121e78185602086016119ef565b80840191505092915050565b5f6121fe82856121c3565b915061220a82846121c3565b91508190509392505050565b5f81519050919050565b5f82825260208201905092915050565b5f61223a82612216565b6122448185612220565b93506122548185602086016119ef565b61225d816119fd565b840191505092915050565b5f60808201905061227b5f830187611ac3565b6122886020830186611ac3565b6122956040830185611b79565b81810360608301526122a78184612230565b905095945050505050565b5f815190506122c081611897565b92915050565b5f602082840312156122db576122da611864565b5b5f6122e8848285016122b2565b91505092915050565b7f4e487b71000000000000000000000000000000000000000000000000000000005f52601260045260245ffd5b5f6040820190506123315f830185611ac3565b61233e6020830184611b79565b9392505050565b7f4e487b71000000000000000000000000000000000000000000000000000000005f52603260045260245ffdfea26469706673582212207a717d3cfe83bf066b2110a01103d87090b141e637ded7a90f643c37d5bc373764736f6c63430008190033",
					"opcodes": "PUSH1 0x80 PUSH1 0x40 MSTORE CALLVALUE DUP1 ISZERO PUSH2 0xF JUMPI PUSH0 DUP1 REVERT JUMPDEST POP PUSH1 0x40 MLOAD PUSH2 0x2A5A CODESIZE SUB DUP1 PUSH2 0x2A5A DUP4 CODECOPY DUP2 DUP2 ADD PUSH1 0x40 MSTORE DUP2 ADD SWAP1 PUSH2 0x31 SWAP2 SWAP1 PUSH2 0x342 JUMP JUMPDEST PUSH1 0x40 MLOAD DUP1 PUSH1 0x40 ADD PUSH1 0x40 MSTORE DUP1 PUSH1 0xD DUP2 MSTORE PUSH1 0x20 ADD PUSH32 0x446F63756D656E74546F6B656E00000000000000000000000000000000000000 DUP2 MSTORE POP PUSH1 0x40 MLOAD DUP1 PUSH1 0x40 ADD PUSH1 0x40 MSTORE DUP1 PUSH1 0x2 DUP2 MSTORE PUSH1 0x20 ADD PUSH32 0x4454000000000000000000000000000000000000000000000000000000000000 DUP2 MSTORE POP DUP2 PUSH0 SWAP1 DUP2 PUSH2 0xAB SWAP2 SWAP1 PUSH2 0x5A9 JUMP JUMPDEST POP DUP1 PUSH1 0x1 SWAP1 DUP2 PUSH2 0xBB SWAP2 SWAP1 PUSH2 0x5A9 JUMP JUMPDEST POP POP POP DUP2 PUSH1 0x6 DUP2 SWAP1 SSTORE POP PUSH0 JUMPDEST DUP2 MLOAD DUP2 LT ISZERO PUSH2 0x14C JUMPI PUSH1 0x1 PUSH1 0x8 PUSH0 DUP5 DUP5 DUP2 MLOAD DUP2 LT PUSH2 0xE8 JUMPI PUSH2 0xE7 PUSH2 0x678 JUMP JUMPDEST JUMPDEST PUSH1 0x20 MUL PUSH1 0x20 ADD ADD MLOAD PUSH20 0xFFFFFFFFFFFFFFFFFFFFFFFFFFFFFFFFFFFFFFFF AND PUSH20 0xFFFFFFFFFFFFFFFFFFFFFFFFFFFFFFFFFFFFFFFF AND DUP2 MSTORE PUSH1 0x20 ADD SWAP1 DUP2 MSTORE PUSH1 0x20 ADD PUSH0 KECCAK256 PUSH0 PUSH2 0x100 EXP DUP2 SLOAD DUP2 PUSH1 0xFF MUL NOT AND SWAP1 DUP4 ISZERO ISZERO MUL OR SWAP1 SSTORE POP DUP1 DUP1 PUSH1 0x1 ADD SWAP2 POP POP PUSH2 0xC7 JUMP JUMPDEST POP POP POP PUSH2 0x6A5 JUMP JUMPDEST PUSH0 PUSH1 0x40 MLOAD SWAP1 POP SWAP1 JUMP JUMPDEST PUSH0 DUP1 REVERT JUMPDEST PUSH0 DUP1 REVERT JUMPDEST PUSH0 DUP2 SWAP1 POP SWAP2 SWAP1 POP JUMP JUMPDEST PUSH2 0x177 DUP2 PUSH2 0x165 JUMP JUMPDEST DUP2 EQ PUSH2 0x181 JUMPI PUSH0 DUP1 REVERT JUMPDEST POP JUMP JUMPDEST PUSH0 DUP2 MLOAD SWAP1 POP PUSH2 0x192 DUP2 PUSH2 0x16E JUMP JUMPDEST SWAP3 SWAP2 POP POP JUMP JUMPDEST PUSH0 DUP1 REVERT JUMPDEST PUSH0 PUSH1 0x1F NOT PUSH1 0x1F DUP4 ADD AND SWAP1 POP SWAP2 SWAP1 POP JUMP JUMPDEST PUSH32 0x4E487B7100000000000000000000000000000000000000000000000000000000 PUSH0 MSTORE PUSH1 0x41 PUSH1 0x4 MSTORE PUSH1 0x24 PUSH0 REVERT JUMPDEST PUSH2 0x1E2 DUP3 PUSH2 0x19C JUMP JUMPDEST DUP2 ADD DUP2 DUP2 LT PUSH8 0xFFFFFFFFFFFFFFFF DUP3 GT OR ISZERO PUSH2 0x201 JUMPI PUSH2 0x200 PUSH2 0x1AC JUMP JUMPDEST JUMPDEST DUP1 PUSH1 0x40 MSTORE POP POP POP JUMP JUMPDEST PUSH0 PUSH2 0x213 PUSH2 0x154 JUMP JUMPDEST SWAP1 POP PUSH2 0x21F DUP3 DUP3 PUSH2 0x1D9 JUMP JUMPDEST SWAP2 SWAP1 POP JUMP JUMPDEST PUSH0 PUSH8 0xFFFFFFFFFFFFFFFF DUP3 GT ISZERO PUSH2 0x23E JUMPI PUSH2 0x23D PUSH2 0x1AC JUMP JUMPDEST JUMPDEST PUSH1 0x20 DUP3 MUL SWAP1 POP PUSH1 0x20 DUP2 ADD SWAP1 POP SWAP2 SWAP1 POP JUMP JUMPDEST PUSH0 DUP1 REVERT JUMPDEST PUSH0 PUSH20 0xFFFFFFFFFFFFFFFFFFFFFFFFFFFFFFFFFFFFFFFF DUP3 AND SWAP1 POP SWAP2 SWAP1 POP JUMP JUMPDEST PUSH0 PUSH2 0x27C DUP3 PUSH2 0x253 JUMP JUMPDEST SWAP1 POP SWAP2 SWAP1 POP JUMP JUMPDEST PUSH2 0x28C DUP2 PUSH2 0x272 JUMP JUMPDEST DUP2 EQ PUSH2 0x296 JUMPI PUSH0 DUP1 REVERT JUMPDEST POP JUMP JUMPDEST PUSH0 DUP2 MLOAD SWAP1 POP PUSH2 0x2A7 DUP2 PUSH2 0x283 JUMP JUMPDEST SWAP3 SWAP2 POP POP JUMP JUMPDEST PUSH0 PUSH2 0x2BF PUSH2 0x2BA DUP5 PUSH2 0x224 JUMP JUMPDEST PUSH2 0x20A JUMP JUMPDEST SWAP1 POP DUP1 DUP4 DUP3 MSTORE PUSH1 0x20 DUP3 ADD SWAP1 POP PUSH1 0x20 DUP5 MUL DUP4 ADD DUP6 DUP2 GT ISZERO PUSH2 0x2E2 JUMPI PUSH2 0x2E1 PUSH2 0x24F JUMP JUMPDEST JUMPDEST DUP4 JUMPDEST DUP2 DUP2 LT ISZERO PUSH2 0x30B JUMPI DUP1 PUSH2 0x2F7 DUP9 DUP3 PUSH2 0x299 JUMP JUMPDEST DUP5 MSTORE PUSH1 0x20 DUP5 ADD SWAP4 POP POP PUSH1 0x20 DUP2 ADD SWAP1 POP PUSH2 0x2E4 JUMP JUMPDEST POP POP POP SWAP4 SWAP3 POP POP POP JUMP JUMPDEST PUSH0 DUP3 PUSH1 0x1F DUP4 ADD SLT PUSH2 0x329 JUMPI PUSH2 0x328 PUSH2 0x198 JUMP JUMPDEST JUMPDEST DUP2 MLOAD PUSH2 0x339 DUP5 DUP3 PUSH1 0x20 DUP7 ADD PUSH2 0x2AD JUMP JUMPDEST SWAP2 POP POP SWAP3 SWAP2 POP POP JUMP JUMPDEST PUSH0 DUP1 PUSH1 0x40 DUP4 DUP6 SUB SLT ISZERO PUSH2 0x358 JUMPI PUSH2 0x357 PUSH2 0x15D JUMP JUMPDEST JUMPDEST PUSH0 PUSH2 0x365 DUP6 DUP3 DUP7 ADD PUSH2 0x184 JUMP JUMPDEST SWAP3 POP POP PUSH1 0x20 DUP4 ADD MLOAD PUSH8 0xFFFFFFFFFFFFFFFF DUP2 GT ISZERO PUSH2 0x386 JUMPI PUSH2 0x385 PUSH2 0x161 JUMP JUMPDEST JUMPDEST PUSH2 0x392 DUP6 DUP3 DUP7 ADD PUSH2 0x315 JUMP JUMPDEST SWAP2 POP POP SWAP3 POP SWAP3 SWAP1 POP JUMP JUMPDEST PUSH0 DUP2 MLOAD SWAP1 POP SWAP2 SWAP1 POP JUMP JUMPDEST PUSH32 0x4E487B7100000000000000000000000000000000000000000000000000000000 PUSH0 MSTORE PUSH1 0x22 PUSH1 0x4 MSTORE PUSH1 0x24 PUSH0 REVERT JUMPDEST PUSH0 PUSH1 0x2 DUP3 DIV SWAP1 POP PUSH1 0x1 DUP3 AND DUP1 PUSH2 0x3EA JUMPI PUSH1 0x7F DUP3 AND SWAP2 POP JUMPDEST PUSH1 0x20 DUP3 LT DUP2 SUB PUSH2 0x3FD JUMPI PUSH2 0x3FC PUSH2 0x3A6 JUMP JUMPDEST JUMPDEST POP SWAP2 SWAP1 POP JUMP JUMPDEST PUSH0 DUP2 SWAP1 POP DUP2 PUSH0 MSTORE PUSH1 0x20 PUSH0 KECCAK256 SWAP1 POP SWAP2 SWAP1 POP JUMP JUMPDEST PUSH0 PUSH1 0x20 PUSH1 0x1F DUP4 ADD DIV SWAP1 POP SWAP2 SWAP1 POP JUMP JUMPDEST PUSH0 DUP3 DUP3 SHL SWAP1 POP SWAP3 SWAP2 POP POP JUMP JUMPDEST PUSH0 PUSH1 0x8 DUP4 MUL PUSH2 0x45F PUSH32 0xFFFFFFFFFFFFFFFFFFFFFFFFFFFFFFFFFFFFFFFFFFFFFFFFFFFFFFFFFFFFFFFF DUP3 PUSH2 0x424 JUMP JUMPDEST PUSH2 0x469 DUP7 DUP4 PUSH2 0x424 JUMP JUMPDEST SWAP6 POP DUP1 NOT DUP5 AND SWAP4 POP DUP1 DUP7 AND DUP5 OR SWAP3 POP POP POP SWAP4 SWAP3 POP POP POP JUMP JUMPDEST PUSH0 DUP2 SWAP1 POP SWAP2 SWAP1 POP JUMP JUMPDEST PUSH0 DUP2 SWAP1 POP SWAP2 SWAP1 POP JUMP JUMPDEST PUSH0 PUSH2 0x4AD PUSH2 0x4A8 PUSH2 0x4A3 DUP5 PUSH2 0x481 JUMP JUMPDEST PUSH2 0x48A JUMP JUMPDEST PUSH2 0x481 JUMP JUMPDEST SWAP1 POP SWAP2 SWAP1 POP JUMP JUMPDEST PUSH0 DUP2 SWAP1 POP SWAP2 SWAP1 POP JUMP JUMPDEST PUSH2 0x4C6 DUP4 PUSH2 0x493 JUMP JUMPDEST PUSH2 0x4DA PUSH2 0x4D2 DUP3 PUSH2 0x4B4 JUMP JUMPDEST DUP5 DUP5 SLOAD PUSH2 0x430 JUMP JUMPDEST DUP3 SSTORE POP POP POP POP JUMP JUMPDEST PUSH0 SWAP1 JUMP JUMPDEST PUSH2 0x4EE PUSH2 0x4E2 JUMP JUMPDEST PUSH2 0x4F9 DUP2 DUP5 DUP5 PUSH2 0x4BD JUMP JUMPDEST POP POP POP JUMP JUMPDEST JUMPDEST DUP2 DUP2 LT ISZERO PUSH2 0x51C JUMPI PUSH2 0x511 PUSH0 DUP3 PUSH2 0x4E6 JUMP JUMPDEST PUSH1 0x1 DUP2 ADD SWAP1 POP PUSH2 0x4FF JUMP JUMPDEST POP POP JUMP JUMPDEST PUSH1 0x1F DUP3 GT ISZERO PUSH2 0x561 JUMPI PUSH2 0x532 DUP2 PUSH2 0x403 JUMP JUMPDEST PUSH2 0x53B DUP5 PUSH2 0x415 JUMP JUMPDEST DUP2 ADD PUSH1 0x20 DUP6 LT ISZERO PUSH2 0x54A JUMPI DUP2 SWAP1 POP JUMPDEST PUSH2 0x55E PUSH2 0x556 DUP6 PUSH2 0x415 JUMP JUMPDEST DUP4 ADD DUP3 PUSH2 0x4FE JUMP JUMPDEST POP POP JUMPDEST POP POP POP JUMP JUMPDEST PUSH0 DUP3 DUP3 SHR SWAP1 POP SWAP3 SWAP2 POP POP JUMP JUMPDEST PUSH0 PUSH2 0x581 PUSH0 NOT DUP5 PUSH1 0x8 MUL PUSH2 0x566 JUMP JUMPDEST NOT DUP1 DUP4 AND SWAP2 POP POP SWAP3 SWAP2 POP POP JUMP JUMPDEST PUSH0 PUSH2 0x599 DUP4 DUP4 PUSH2 0x572 JUMP JUMPDEST SWAP2 POP DUP3 PUSH1 0x2 MUL DUP3 OR SWAP1 POP SWAP3 SWAP2 POP POP JUMP JUMPDEST PUSH2 0x5B2 DUP3 PUSH2 0x39C JUMP JUMPDEST PUSH8 0xFFFFFFFFFFFFFFFF DUP2 GT ISZERO PUSH2 0x5CB JUMPI PUSH2 0x5CA PUSH2 0x1AC JUMP JUMPDEST JUMPDEST PUSH2 0x5D5 DUP3 SLOAD PUSH2 0x3D3 JUMP JUMPDEST PUSH2 0x5E0 DUP3 DUP3 DUP6 PUSH2 0x520 JUMP JUMPDEST PUSH0 PUSH1 0x20 SWAP1 POP PUSH1 0x1F DUP4 GT PUSH1 0x1 DUP2 EQ PUSH2 0x611 JUMPI PUSH0 DUP5 ISZERO PUSH2 0x5FF JUMPI DUP3 DUP8 ADD MLOAD SWAP1 POP JUMPDEST PUSH2 0x609 DUP6 DUP3 PUSH2 0x58E JUMP JUMPDEST DUP7 SSTORE POP PUSH2 0x670 JUMP JUMPDEST PUSH1 0x1F NOT DUP5 AND PUSH2 0x61F DUP7 PUSH2 0x403 JUMP JUMPDEST PUSH0 JUMPDEST DUP3 DUP2 LT ISZERO PUSH2 0x646 JUMPI DUP5 DUP10 ADD MLOAD DUP3 SSTORE PUSH1 0x1 DUP3 ADD SWAP2 POP PUSH1 0x20 DUP6 ADD SWAP5 POP PUSH1 0x20 DUP2 ADD SWAP1 POP PUSH2 0x621 JUMP JUMPDEST DUP7 DUP4 LT ISZERO PUSH2 0x663 JUMPI DUP5 DUP10 ADD MLOAD PUSH2 0x65F PUSH1 0x1F DUP10 AND DUP3 PUSH2 0x572 JUMP JUMPDEST DUP4 SSTORE POP JUMPDEST PUSH1 0x1 PUSH1 0x2 DUP9 MUL ADD DUP9 SSTORE POP POP POP JUMPDEST POP POP POP POP POP POP JUMP JUMPDEST PUSH32 0x4E487B7100000000000000000000000000000000000000000000000000000000 PUSH0 MSTORE PUSH1 0x32 PUSH1 0x4 MSTORE PUSH1 0x24 PUSH0 REVERT JUMPDEST PUSH2 0x23A8 DUP1 PUSH2 0x6B2 PUSH0 CODECOPY PUSH0 RETURN INVALID PUSH1 0x80 PUSH1 0x40 MSTORE CALLVALUE DUP1 ISZERO PUSH2 0xF JUMPI PUSH0 DUP1 REVERT JUMPDEST POP PUSH1 0x4 CALLDATASIZE LT PUSH2 0x114 JUMPI PUSH0 CALLDATALOAD PUSH1 0xE0 SHR DUP1 PUSH4 0x6352211E GT PUSH2 0xA0 JUMPI DUP1 PUSH4 0xA22CB465 GT PUSH2 0x6F JUMPI DUP1 PUSH4 0xA22CB465 EQ PUSH2 0x316 JUMPI DUP1 PUSH4 0xA407E496 EQ PUSH2 0x332 JUMPI DUP1 PUSH4 0xB88D4FDE EQ PUSH2 0x34E JUMPI DUP1 PUSH4 0xC87B56DD EQ PUSH2 0x36A JUMPI DUP1 PUSH4 0xE985E9C5 EQ PUSH2 0x39A JUMPI PUSH2 0x114 JUMP JUMPDEST DUP1 PUSH4 0x6352211E EQ PUSH2 0x268 JUMPI DUP1 PUSH4 0x70A08231 EQ PUSH2 0x298 JUMPI DUP1 PUSH4 0x95D89B41 EQ PUSH2 0x2C8 JUMPI DUP1 PUSH4 0x9B19251A EQ PUSH2 0x2E6 JUMPI PUSH2 0x114 JUMP JUMPDEST DUP1 PUSH4 0x95EA7B3 GT PUSH2 0xE7 JUMPI DUP1 PUSH4 0x95EA7B3 EQ PUSH2 0x1C6 JUMPI DUP1 PUSH4 0x23B872DD EQ PUSH2 0x1E2 JUMPI DUP1 PUSH4 0x2EB4A7AB EQ PUSH2 0x1FE JUMPI DUP1 PUSH4 0x3AF32ABF EQ PUSH2 0x21C JUMPI DUP1 PUSH4 0x42842E0E EQ PUSH2 0x24C JUMPI PUSH2 0x114 JUMP JUMPDEST DUP1 PUSH4 0x1FFC9A7 EQ PUSH2 0x118 JUMPI DUP1 PUSH4 0x63DCDFB EQ PUSH2 0x148 JUMPI DUP1 PUSH4 0x6FDDE03 EQ PUSH2 0x178 JUMPI DUP1 PUSH4 0x81812FC EQ PUSH2 0x196 JUMPI JUMPDEST PUSH0 DUP1 REVERT JUMPDEST PUSH2 0x132 PUSH1 0x4 DUP1 CALLDATASIZE SUB DUP2 ADD SWAP1 PUSH2 0x12D SWAP2 SWAP1 PUSH2 0x18C1 JUMP JUMPDEST PUSH2 0x3CA JUMP JUMPDEST PUSH1 0x40 MLOAD PUSH2 0x13F SWAP2 SWAP1 PUSH2 0x1906 JUMP JUMPDEST PUSH1 0x40 MLOAD DUP1 SWAP2 SUB SWAP1 RETURN JUMPDEST PUSH2 0x162 PUSH1 0x4 DUP1 CALLDATASIZE SUB DUP2 ADD SWAP1 PUSH2 0x15D SWAP2 SWAP1 PUSH2 0x1979 JUMP JUMPDEST PUSH2 0x4AB JUMP JUMPDEST PUSH1 0x40 MLOAD PUSH2 0x16F SWAP2 SWAP1 PUSH2 0x19BC JUMP JUMPDEST PUSH1 0x40 MLOAD DUP1 SWAP2 SUB SWAP1 RETURN JUMPDEST PUSH2 0x180 PUSH2 0x4DF JUMP JUMPDEST PUSH1 0x40 MLOAD PUSH2 0x18D SWAP2 SWAP1 PUSH2 0x1A45 JUMP JUMPDEST PUSH1 0x40 MLOAD DUP1 SWAP2 SUB SWAP1 RETURN JUMPDEST PUSH2 0x1B0 PUSH1 0x4 DUP1 CALLDATASIZE SUB DUP2 ADD SWAP1 PUSH2 0x1AB SWAP2 SWAP1 PUSH2 0x1A98 JUMP JUMPDEST PUSH2 0x56E JUMP JUMPDEST PUSH1 0x40 MLOAD PUSH2 0x1BD SWAP2 SWAP1 PUSH2 0x1AD2 JUMP JUMPDEST PUSH1 0x40 MLOAD DUP1 SWAP2 SUB SWAP1 RETURN JUMPDEST PUSH2 0x1E0 PUSH1 0x4 DUP1 CALLDATASIZE SUB DUP2 ADD SWAP1 PUSH2 0x1DB SWAP2 SWAP1 PUSH2 0x1AEB JUMP JUMPDEST PUSH2 0x589 JUMP JUMPDEST STOP JUMPDEST PUSH2 0x1FC PUSH1 0x4 DUP1 CALLDATASIZE SUB DUP2 ADD SWAP1 PUSH2 0x1F7 SWAP2 SWAP1 PUSH2 0x1B29 JUMP JUMPDEST PUSH2 0x59F JUMP JUMPDEST STOP JUMPDEST PUSH2 0x206 PUSH2 0x69E JUMP JUMPDEST PUSH1 0x40 MLOAD PUSH2 0x213 SWAP2 SWAP1 PUSH2 0x19BC JUMP JUMPDEST PUSH1 0x40 MLOAD DUP1 SWAP2 SUB SWAP1 RETURN JUMPDEST PUSH2 0x236 PUSH1 0x4 DUP1 CALLDATASIZE SUB DUP2 ADD SWAP1 PUSH2 0x231 SWAP2 SWAP1 PUSH2 0x1979 JUMP JUMPDEST PUSH2 0x6A4 JUMP JUMPDEST PUSH1 0x40 MLOAD PUSH2 0x243 SWAP2 SWAP1 PUSH2 0x1906 JUMP JUMPDEST PUSH1 0x40 MLOAD DUP1 SWAP2 SUB SWAP1 RETURN JUMPDEST PUSH2 0x266 PUSH1 0x4 DUP1 CALLDATASIZE SUB DUP2 ADD SWAP1 PUSH2 0x261 SWAP2 SWAP1 PUSH2 0x1B29 JUMP JUMPDEST PUSH2 0x6F6 JUMP JUMPDEST STOP JUMPDEST PUSH2 0x282 PUSH1 0x4 DUP1 CALLDATASIZE SUB DUP2 ADD SWAP1 PUSH2 0x27D SWAP2 SWAP1 PUSH2 0x1A98 JUMP JUMPDEST PUSH2 0x715 JUMP JUMPDEST PUSH1 0x40 MLOAD PUSH2 0x28F SWAP2 SWAP1 PUSH2 0x1AD2 JUMP JUMPDEST PUSH1 0x40 MLOAD DUP1 SWAP2 SUB SWAP1 RETURN JUMPDEST PUSH2 0x2B2 PUSH1 0x4 DUP1 CALLDATASIZE SUB DUP2 ADD SWAP1 PUSH2 0x2AD SWAP2 SWAP1 PUSH2 0x1979 JUMP JUMPDEST PUSH2 0x726 JUMP JUMPDEST PUSH1 0x40 MLOAD PUSH2 0x2BF SWAP2 SWAP1 PUSH2 0x1B88 JUMP JUMPDEST PUSH1 0x40 MLOAD DUP1 SWAP2 SUB SWAP1 RETURN JUMPDEST PUSH2 0x2D0 PUSH2 0x7DC JUMP JUMPDEST PUSH1 0x40 MLOAD PUSH2 0x2DD SWAP2 SWAP1 PUSH2 0x1A45 JUMP JUMPDEST PUSH1 0x40 MLOAD DUP1 SWAP2 SUB SWAP1 RETURN JUMPDEST PUSH2 0x300 PUSH1 0x4 DUP1 CALLDATASIZE SUB DUP2 ADD SWAP1 PUSH2 0x2FB SWAP2 SWAP1 PUSH2 0x1979 JUMP JUMPDEST PUSH2 0x86C JUMP JUMPDEST PUSH1 0x40 MLOAD PUSH2 0x30D SWAP2 SWAP1 PUSH2 0x1906 JUMP JUMPDEST PUSH1 0x40 MLOAD DUP1 SWAP2 SUB SWAP1 RETURN JUMPDEST PUSH2 0x330 PUSH1 0x4 DUP1 CALLDATASIZE SUB DUP2 ADD SWAP1 PUSH2 0x32B SWAP2 SWAP1 PUSH2 0x1BCB JUMP JUMPDEST PUSH2 0x889 JUMP JUMPDEST STOP JUMPDEST PUSH2 0x34C PUSH1 0x4 DUP1 CALLDATASIZE SUB DUP2 ADD SWAP1 PUSH2 0x347 SWAP2 SWAP1 PUSH2 0x1D73 JUMP JUMPDEST PUSH2 0x89F JUMP JUMPDEST STOP JUMPDEST PUSH2 0x368 PUSH1 0x4 DUP1 CALLDATASIZE SUB DUP2 ADD SWAP1 PUSH2 0x363 SWAP2 SWAP1 PUSH2 0x1E6A JUMP JUMPDEST PUSH2 0x9A2 JUMP JUMPDEST STOP JUMPDEST PUSH2 0x384 PUSH1 0x4 DUP1 CALLDATASIZE SUB DUP2 ADD SWAP1 PUSH2 0x37F SWAP2 SWAP1 PUSH2 0x1A98 JUMP JUMPDEST PUSH2 0x9BF JUMP JUMPDEST PUSH1 0x40 MLOAD PUSH2 0x391 SWAP2 SWAP1 PUSH2 0x1A45 JUMP JUMPDEST PUSH1 0x40 MLOAD DUP1 SWAP2 SUB SWAP1 RETURN JUMPDEST PUSH2 0x3B4 PUSH1 0x4 DUP1 CALLDATASIZE SUB DUP2 ADD SWAP1 PUSH2 0x3AF SWAP2 SWAP1 PUSH2 0x1EEA JUMP JUMPDEST PUSH2 0xA25 JUMP JUMPDEST PUSH1 0x40 MLOAD PUSH2 0x3C1 SWAP2 SWAP1 PUSH2 0x1906 JUMP JUMPDEST PUSH1 0x40 MLOAD DUP1 SWAP2 SUB SWAP1 RETURN JUMPDEST PUSH0 PUSH32 0x80AC58CD00000000000000000000000000000000000000000000000000000000 PUSH28 0xFFFFFFFFFFFFFFFFFFFFFFFFFFFFFFFFFFFFFFFFFFFFFFFFFFFFFFFF NOT AND DUP3 PUSH28 0xFFFFFFFFFFFFFFFFFFFFFFFFFFFFFFFFFFFFFFFFFFFFFFFFFFFFFFFF NOT AND EQ DUP1 PUSH2 0x494 JUMPI POP PUSH32 0x5B5E139F00000000000000000000000000000000000000000000000000000000 PUSH28 0xFFFFFFFFFFFFFFFFFFFFFFFFFFFFFFFFFFFFFFFFFFFFFFFFFFFFFFFF NOT AND DUP3 PUSH28 0xFFFFFFFFFFFFFFFFFFFFFFFFFFFFFFFFFFFFFFFFFFFFFFFFFFFFFFFF NOT AND EQ JUMPDEST DUP1 PUSH2 0x4A4 JUMPI POP PUSH2 0x4A3 DUP3 PUSH2 0xAB3 JUMP JUMPDEST JUMPDEST SWAP1 POP SWAP2 SWAP1 POP JUMP JUMPDEST PUSH0 DUP1 DUP3 PUSH1 0x40 MLOAD PUSH1 0x20 ADD PUSH2 0x4BE SWAP2 SWAP1 PUSH2 0x1F6D JUMP JUMPDEST PUSH1 0x40 MLOAD PUSH1 0x20 DUP2 DUP4 SUB SUB DUP2 MSTORE SWAP1 PUSH1 0x40 MSTORE DUP1 MLOAD SWAP1 PUSH1 0x20 ADD KECCAK256 SWAP1 POP DUP1 SWAP2 POP POP SWAP2 SWAP1 POP JUMP JUMPDEST PUSH1 0x60 PUSH0 DUP1 SLOAD PUSH2 0x4ED SWAP1 PUSH2 0x1FB4 JUMP JUMPDEST DUP1 PUSH1 0x1F ADD PUSH1 0x20 DUP1 SWAP2 DIV MUL PUSH1 0x20 ADD PUSH1 0x40 MLOAD SWAP1 DUP2 ADD PUSH1 0x40 MSTORE DUP1 SWAP3 SWAP2 SWAP1 DUP2 DUP2 MSTORE PUSH1 0x20 ADD DUP3 DUP1 SLOAD PUSH2 0x519 SWAP1 PUSH2 0x1FB4 JUMP JUMPDEST DUP1 ISZERO PUSH2 0x564 JUMPI DUP1 PUSH1 0x1F LT PUSH2 0x53B JUMPI PUSH2 0x100 DUP1 DUP4 SLOAD DIV MUL DUP4 MSTORE SWAP2 PUSH1 0x20 ADD SWAP2 PUSH2 0x564 JUMP JUMPDEST DUP3 ADD SWAP2 SWAP1 PUSH0 MSTORE PUSH1 0x20 PUSH0 KECCAK256 SWAP1 JUMPDEST DUP2 SLOAD DUP2 MSTORE SWAP1 PUSH1 0x1 ADD SWAP1 PUSH1 0x20 ADD DUP1 DUP4 GT PUSH2 0x547 JUMPI DUP3 SWAP1 SUB PUSH1 0x1F AND DUP3 ADD SWAP2 JUMPDEST POP POP POP POP POP SWAP1 POP SWAP1 JUMP JUMPDEST PUSH0 PUSH2 0x578 DUP3 PUSH2 0xB1C JUMP JUMPDEST POP PUSH2 0x582 DUP3 PUSH2 0xBA2 JUMP JUMPDEST SWAP1 POP SWAP2 SWAP1 POP JUMP JUMPDEST PUSH2 0x59B DUP3 DUP3 PUSH2 0x596 PUSH2 0xBDB JUMP JUMPDEST PUSH2 0xBE2 JUMP JUMPDEST POP POP JUMP JUMPDEST PUSH0 PUSH20 0xFFFFFFFFFFFFFFFFFFFFFFFFFFFFFFFFFFFFFFFF AND DUP3 PUSH20 0xFFFFFFFFFFFFFFFFFFFFFFFFFFFFFFFFFFFFFFFF AND SUB PUSH2 0x60F JUMPI PUSH0 PUSH1 0x40 MLOAD PUSH32 0x64A0AE9200000000000000000000000000000000000000000000000000000000 DUP2 MSTORE PUSH1 0x4 ADD PUSH2 0x606 SWAP2 SWAP1 PUSH2 0x1AD2 JUMP JUMPDEST PUSH1 0x40 MLOAD DUP1 SWAP2 SUB SWAP1 REVERT JUMPDEST PUSH0 PUSH2 0x622 DUP4 DUP4 PUSH2 0x61D PUSH2 0xBDB JUMP JUMPDEST PUSH2 0xBF4 JUMP JUMPDEST SWAP1 POP DUP4 PUSH20 0xFFFFFFFFFFFFFFFFFFFFFFFFFFFFFFFFFFFFFFFF AND DUP2 PUSH20 0xFFFFFFFFFFFFFFFFFFFFFFFFFFFFFFFFFFFFFFFF AND EQ PUSH2 0x698 JUMPI DUP4 DUP3 DUP3 PUSH1 0x40 MLOAD PUSH32 0x64283D7B00000000000000000000000000000000000000000000000000000000 DUP2 MSTORE PUSH1 0x4 ADD PUSH2 0x68F SWAP4 SWAP3 SWAP2 SWAP1 PUSH2 0x1FE4 JUMP JUMPDEST PUSH1 0x40 MLOAD DUP1 SWAP2 SUB SWAP1 REVERT JUMPDEST POP POP POP POP JUMP JUMPDEST PUSH1 0x6 SLOAD DUP2 JUMP JUMPDEST PUSH0 PUSH1 0x8 PUSH0 DUP4 PUSH20 0xFFFFFFFFFFFFFFFFFFFFFFFFFFFFFFFFFFFFFFFF AND PUSH20 0xFFFFFFFFFFFFFFFFFFFFFFFFFFFFFFFFFFFFFFFF AND DUP2 MSTORE PUSH1 0x20 ADD SWAP1 DUP2 MSTORE PUSH1 0x20 ADD PUSH0 KECCAK256 PUSH0 SWAP1 SLOAD SWAP1 PUSH2 0x100 EXP SWAP1 DIV PUSH1 0xFF AND SWAP1 POP SWAP2 SWAP1 POP JUMP JUMPDEST PUSH2 0x710 DUP4 DUP4 DUP4 PUSH1 0x40 MLOAD DUP1 PUSH1 0x20 ADD PUSH1 0x40 MSTORE DUP1 PUSH0 DUP2 MSTORE POP PUSH2 0x9A2 JUMP JUMPDEST POP POP POP JUMP JUMPDEST PUSH0 PUSH2 0x71F DUP3 PUSH2 0xB1C JUMP JUMPDEST SWAP1 POP SWAP2 SWAP1 POP JUMP JUMPDEST PUSH0 DUP1 PUSH20 0xFFFFFFFFFFFFFFFFFFFFFFFFFFFFFFFFFFFFFFFF AND DUP3 PUSH20 0xFFFFFFFFFFFFFFFFFFFFFFFFFFFFFFFFFFFFFFFF AND SUB PUSH2 0x797 JUMPI PUSH0 PUSH1 0x40 MLOAD PUSH32 0x89C62B6400000000000000000000000000000000000000000000000000000000 DUP2 MSTORE PUSH1 0x4 ADD PUSH2 0x78E SWAP2 SWAP1 PUSH2 0x1AD2 JUMP JUMPDEST PUSH1 0x40 MLOAD DUP1 SWAP2 SUB SWAP1 REVERT JUMPDEST PUSH1 0x3 PUSH0 DUP4 PUSH20 0xFFFFFFFFFFFFFFFFFFFFFFFFFFFFFFFFFFFFFFFF AND PUSH20 0xFFFFFFFFFFFFFFFFFFFFFFFFFFFFFFFFFFFFFFFF AND DUP2 MSTORE PUSH1 0x20 ADD SWAP1 DUP2 MSTORE PUSH1 0x20 ADD PUSH0 KECCAK256 SLOAD SWAP1 POP SWAP2 SWAP1 POP JUMP JUMPDEST PUSH1 0x60 PUSH1 0x1 DUP1 SLOAD PUSH2 0x7EB SWAP1 PUSH2 0x1FB4 JUMP JUMPDEST DUP1 PUSH1 0x1F ADD PUSH1 0x20 DUP1 SWAP2 DIV MUL PUSH1 0x20 ADD PUSH1 0x40 MLOAD SWAP1 DUP2 ADD PUSH1 0x40 MSTORE DUP1 SWAP3 SWAP2 SWAP1 DUP2 DUP2 MSTORE PUSH1 0x20 ADD DUP3 DUP1 SLOAD PUSH2 0x817 SWAP1 PUSH2 0x1FB4 JUMP JUMPDEST DUP1 ISZERO PUSH2 0x862 JUMPI DUP1 PUSH1 0x1F LT PUSH2 0x839 JUMPI PUSH2 0x100 DUP1 DUP4 SLOAD DIV MUL DUP4 MSTORE SWAP2 PUSH1 0x20 ADD SWAP2 PUSH2 0x862 JUMP JUMPDEST DUP3 ADD SWAP2 SWAP1 PUSH0 MSTORE PUSH1 0x20 PUSH0 KECCAK256 SWAP1 JUMPDEST DUP2 SLOAD DUP2 MSTORE SWAP1 PUSH1 0x1 ADD SWAP1 PUSH1 0x20 ADD DUP1 DUP4 GT PUSH2 0x845 JUMPI DUP3 SWAP1 SUB PUSH1 0x1F AND DUP3 ADD SWAP2 JUMPDEST POP POP POP POP POP SWAP1 POP SWAP1 JUMP JUMPDEST PUSH1 0x8 PUSH1 0x20 MSTORE DUP1 PUSH0 MSTORE PUSH1 0x40 PUSH0 KECCAK256 PUSH0 SWAP2 POP SLOAD SWAP1 PUSH2 0x100 EXP SWAP1 DIV PUSH1 0xFF AND DUP2 JUMP JUMPDEST PUSH2 0x89B PUSH2 0x894 PUSH2 0xBDB JUMP JUMPDEST DUP4 DUP4 PUSH2 0xDFF JUMP JUMPDEST POP POP JUMP JUMPDEST PUSH2 0x8A8 CALLER PUSH2 0x6A4 JUMP JUMPDEST PUSH2 0x8E7 JUMPI PUSH1 0x40 MLOAD PUSH32 0x8C379A000000000000000000000000000000000000000000000000000000000 DUP2 MSTORE PUSH1 0x4 ADD PUSH2 0x8DE SWAP1 PUSH2 0x2063 JUMP JUMPDEST PUSH1 0x40 MLOAD DUP1 SWAP2 SUB SWAP1 REVERT JUMPDEST PUSH2 0x90C DUP2 PUSH1 0x6 SLOAD CALLER PUSH20 0xFFFFFFFFFFFFFFFFFFFFFFFFFFFFFFFFFFFFFFFF AND PUSH0 SHL PUSH2 0xF68 JUMP JUMPDEST PUSH2 0x94B JUMPI PUSH1 0x40 MLOAD PUSH32 0x8C379A000000000000000000000000000000000000000000000000000000000 DUP2 MSTORE PUSH1 0x4 ADD PUSH2 0x942 SWAP1 PUSH2 0x20CB JUMP JUMPDEST PUSH1 0x40 MLOAD DUP1 SWAP2 SUB SWAP1 REVERT JUMPDEST PUSH1 0x7 PUSH0 DUP2 SLOAD DUP1 SWAP3 SWAP2 SWAP1 PUSH2 0x95D SWAP1 PUSH2 0x2116 JUMP JUMPDEST SWAP2 SWAP1 POP SSTORE POP PUSH0 TIMESTAMP CALLER PUSH1 0x7 SLOAD PUSH1 0x40 MLOAD PUSH1 0x20 ADD PUSH2 0x97A SWAP4 SWAP3 SWAP2 SWAP1 PUSH2 0x217D JUMP JUMPDEST PUSH1 0x40 MLOAD PUSH1 0x20 DUP2 DUP4 SUB SUB DUP2 MSTORE SWAP1 PUSH1 0x40 MSTORE DUP1 MLOAD SWAP1 PUSH1 0x20 ADD KECCAK256 PUSH0 SHR SWAP1 POP PUSH2 0x99E CALLER DUP3 PUSH2 0xF7E JUMP JUMPDEST POP POP JUMP JUMPDEST PUSH2 0x9AD DUP5 DUP5 DUP5 PUSH2 0x59F JUMP JUMPDEST PUSH2 0x9B9 DUP5 DUP5 DUP5 DUP5 PUSH2 0x1071 JUMP JUMPDEST POP POP POP POP JUMP JUMPDEST PUSH1 0x60 PUSH2 0x9CA DUP3 PUSH2 0xB1C JUMP JUMPDEST POP PUSH0 PUSH2 0x9D4 PUSH2 0x1223 JUMP JUMPDEST SWAP1 POP PUSH0 DUP2 MLOAD GT PUSH2 0x9F2 JUMPI PUSH1 0x40 MLOAD DUP1 PUSH1 0x20 ADD PUSH1 0x40 MSTORE DUP1 PUSH0 DUP2 MSTORE POP PUSH2 0xA1D JUMP JUMPDEST DUP1 PUSH2 0x9FC DUP5 PUSH2 0x1239 JUMP JUMPDEST PUSH1 0x40 MLOAD PUSH1 0x20 ADD PUSH2 0xA0D SWAP3 SWAP2 SWAP1 PUSH2 0x21F3 JUMP JUMPDEST PUSH1 0x40 MLOAD PUSH1 0x20 DUP2 DUP4 SUB SUB DUP2 MSTORE SWAP1 PUSH1 0x40 MSTORE JUMPDEST SWAP2 POP POP SWAP2 SWAP1 POP JUMP JUMPDEST PUSH0 PUSH1 0x5 PUSH0 DUP5 PUSH20 0xFFFFFFFFFFFFFFFFFFFFFFFFFFFFFFFFFFFFFFFF AND PUSH20 0xFFFFFFFFFFFFFFFFFFFFFFFFFFFFFFFFFFFFFFFF AND DUP2 MSTORE PUSH1 0x20 ADD SWAP1 DUP2 MSTORE PUSH1 0x20 ADD PUSH0 KECCAK256 PUSH0 DUP4 PUSH20 0xFFFFFFFFFFFFFFFFFFFFFFFFFFFFFFFFFFFFFFFF AND PUSH20 0xFFFFFFFFFFFFFFFFFFFFFFFFFFFFFFFFFFFFFFFF AND DUP2 MSTORE PUSH1 0x20 ADD SWAP1 DUP2 MSTORE PUSH1 0x20 ADD PUSH0 KECCAK256 PUSH0 SWAP1 SLOAD SWAP1 PUSH2 0x100 EXP SWAP1 DIV PUSH1 0xFF AND SWAP1 POP SWAP3 SWAP2 POP POP JUMP JUMPDEST PUSH0 PUSH32 0x1FFC9A700000000000000000000000000000000000000000000000000000000 PUSH28 0xFFFFFFFFFFFFFFFFFFFFFFFFFFFFFFFFFFFFFFFFFFFFFFFFFFFFFFFF NOT AND DUP3 PUSH28 0xFFFFFFFFFFFFFFFFFFFFFFFFFFFFFFFFFFFFFFFFFFFFFFFFFFFFFFFF NOT AND EQ SWAP1 POP SWAP2 SWAP1 POP JUMP JUMPDEST PUSH0 DUP1 PUSH2 0xB27 DUP4 PUSH2 0x1303 JUMP JUMPDEST SWAP1 POP PUSH0 PUSH20 0xFFFFFFFFFFFFFFFFFFFFFFFFFFFFFFFFFFFFFFFF AND DUP2 PUSH20 0xFFFFFFFFFFFFFFFFFFFFFFFFFFFFFFFFFFFFFFFF AND SUB PUSH2 0xB99 JUMPI DUP3 PUSH1 0x40 MLOAD PUSH32 0x7E27328900000000000000000000000000000000000000000000000000000000 DUP2 MSTORE PUSH1 0x4 ADD PUSH2 0xB90 SWAP2 SWAP1 PUSH2 0x1B88 JUMP JUMPDEST PUSH1 0x40 MLOAD DUP1 SWAP2 SUB SWAP1 REVERT JUMPDEST DUP1 SWAP2 POP POP SWAP2 SWAP1 POP JUMP JUMPDEST PUSH0 PUSH1 0x4 PUSH0 DUP4 DUP2 MSTORE PUSH1 0x20 ADD SWAP1 DUP2 MSTORE PUSH1 0x20 ADD PUSH0 KECCAK256 PUSH0 SWAP1 SLOAD SWAP1 PUSH2 0x100 EXP SWAP1 DIV PUSH20 0xFFFFFFFFFFFFFFFFFFFFFFFFFFFFFFFFFFFFFFFF AND SWAP1 POP SWAP2 SWAP1 POP JUMP JUMPDEST PUSH0 CALLER SWAP1 POP SWAP1 JUMP JUMPDEST PUSH2 0xBEF DUP4 DUP4 DUP4 PUSH1 0x1 PUSH2 0x133C JUMP JUMPDEST POP POP POP JUMP JUMPDEST PUSH0 DUP1 PUSH2 0xBFF DUP5 PUSH2 0x1303 JUMP JUMPDEST SWAP1 POP PUSH0 PUSH20 0xFFFFFFFFFFFFFFFFFFFFFFFFFFFFFFFFFFFFFFFF AND DUP4 PUSH20 0xFFFFFFFFFFFFFFFFFFFFFFFFFFFFFFFFFFFFFFFF AND EQ PUSH2 0xC40 JUMPI PUSH2 0xC3F DUP2 DUP5 DUP7 PUSH2 0x14FB JUMP JUMPDEST JUMPDEST PUSH0 PUSH20 0xFFFFFFFFFFFFFFFFFFFFFFFFFFFFFFFFFFFFFFFF AND DUP2 PUSH20 0xFFFFFFFFFFFFFFFFFFFFFFFFFFFFFFFFFFFFFFFF AND EQ PUSH2 0xCCB JUMPI PUSH2 0xC7F PUSH0 DUP6 PUSH0 DUP1 PUSH2 0x133C JUMP JUMPDEST PUSH1 0x1 PUSH1 0x3 PUSH0 DUP4 PUSH20 0xFFFFFFFFFFFFFFFFFFFFFFFFFFFFFFFFFFFFFFFF AND PUSH20 0xFFFFFFFFFFFFFFFFFFFFFFFFFFFFFFFFFFFFFFFF AND DUP2 MSTORE PUSH1 0x20 ADD SWAP1 DUP2 MSTORE PUSH1 0x20 ADD PUSH0 KECCAK256 PUSH0 DUP3 DUP3 SLOAD SUB SWAP3 POP POP DUP2 SWAP1 SSTORE POP JUMPDEST PUSH0 PUSH20 0xFFFFFFFFFFFFFFFFFFFFFFFFFFFFFFFFFFFFFFFF AND DUP6 PUSH20 0xFFFFFFFFFFFFFFFFFFFFFFFFFFFFFFFFFFFFFFFF AND EQ PUSH2 0xD4A JUMPI PUSH1 0x1 PUSH1 0x3 PUSH0 DUP8 PUSH20 0xFFFFFFFFFFFFFFFFFFFFFFFFFFFFFFFFFFFFFFFF AND PUSH20 0xFFFFFFFFFFFFFFFFFFFFFFFFFFFFFFFFFFFFFFFF AND DUP2 MSTORE PUSH1 0x20 ADD SWAP1 DUP2 MSTORE PUSH1 0x20 ADD PUSH0 KECCAK256 PUSH0 DUP3 DUP3 SLOAD ADD SWAP3 POP POP DUP2 SWAP1 SSTORE POP JUMPDEST DUP5 PUSH1 0x2 PUSH0 DUP7 DUP2 MSTORE PUSH1 0x20 ADD SWAP1 DUP2 MSTORE PUSH1 0x20 ADD PUSH0 KECCAK256 PUSH0 PUSH2 0x100 EXP DUP2 SLOAD DUP2 PUSH20 0xFFFFFFFFFFFFFFFFFFFFFFFFFFFFFFFFFFFFFFFF MUL NOT AND SWAP1 DUP4 PUSH20 0xFFFFFFFFFFFFFFFFFFFFFFFFFFFFFFFFFFFFFFFF AND MUL OR SWAP1 SSTORE POP DUP4 DUP6 PUSH20 0xFFFFFFFFFFFFFFFFFFFFFFFFFFFFFFFFFFFFFFFF AND DUP3 PUSH20 0xFFFFFFFFFFFFFFFFFFFFFFFFFFFFFFFFFFFFFFFF AND PUSH32 0xDDF252AD1BE2C89B69C2B068FC378DAA952BA7F163C4A11628F55A4DF523B3EF PUSH1 0x40 MLOAD PUSH1 0x40 MLOAD DUP1 SWAP2 SUB SWAP1 LOG4 DUP1 SWAP2 POP POP SWAP4 SWAP3 POP POP POP JUMP JUMPDEST PUSH0 PUSH20 0xFFFFFFFFFFFFFFFFFFFFFFFFFFFFFFFFFFFFFFFF AND DUP3 PUSH20 0xFFFFFFFFFFFFFFFFFFFFFFFFFFFFFFFFFFFFFFFF AND SUB PUSH2 0xE6F JUMPI DUP2 PUSH1 0x40 MLOAD PUSH32 0x5B08BA1800000000000000000000000000000000000000000000000000000000 DUP2 MSTORE PUSH1 0x4 ADD PUSH2 0xE66 SWAP2 SWAP1 PUSH2 0x1AD2 JUMP JUMPDEST PUSH1 0x40 MLOAD DUP1 SWAP2 SUB SWAP1 REVERT JUMPDEST DUP1 PUSH1 0x5 PUSH0 DUP6 PUSH20 0xFFFFFFFFFFFFFFFFFFFFFFFFFFFFFFFFFFFFFFFF AND PUSH20 0xFFFFFFFFFFFFFFFFFFFFFFFFFFFFFFFFFFFFFFFF AND DUP2 MSTORE PUSH1 0x20 ADD SWAP1 DUP2 MSTORE PUSH1 0x20 ADD PUSH0 KECCAK256 PUSH0 DUP5 PUSH20 0xFFFFFFFFFFFFFFFFFFFFFFFFFFFFFFFFFFFFFFFF AND PUSH20 0xFFFFFFFFFFFFFFFFFFFFFFFFFFFFFFFFFFFFFFFF AND DUP2 MSTORE PUSH1 0x20 ADD SWAP1 DUP2 MSTORE PUSH1 0x20 ADD PUSH0 KECCAK256 PUSH0 PUSH2 0x100 EXP DUP2 SLOAD DUP2 PUSH1 0xFF MUL NOT AND SWAP1 DUP4 ISZERO ISZERO MUL OR SWAP1 SSTORE POP DUP2 PUSH20 0xFFFFFFFFFFFFFFFFFFFFFFFFFFFFFFFFFFFFFFFF AND DUP4 PUSH20 0xFFFFFFFFFFFFFFFFFFFFFFFFFFFFFFFFFFFFFFFF AND PUSH32 0x17307EAB39AB6107E8899845AD3D59BD9653F200F220920489CA2B5937696C31 DUP4 PUSH1 0x40 MLOAD PUSH2 0xF5B SWAP2 SWAP1 PUSH2 0x1906 JUMP JUMPDEST PUSH1 0x40 MLOAD DUP1 SWAP2 SUB SWAP1 LOG3 POP POP POP JUMP JUMPDEST PUSH0 DUP3 PUSH2 0xF74 DUP6 DUP5 PUSH2 0x15BE JUMP JUMPDEST EQ SWAP1 POP SWAP4 SWAP3 POP POP POP JUMP JUMPDEST PUSH0 PUSH20 0xFFFFFFFFFFFFFFFFFFFFFFFFFFFFFFFFFFFFFFFF AND DUP3 PUSH20 0xFFFFFFFFFFFFFFFFFFFFFFFFFFFFFFFFFFFFFFFF AND SUB PUSH2 0xFEE JUMPI PUSH0 PUSH1 0x40 MLOAD PUSH32 0x64A0AE9200000000000000000000000000000000000000000000000000000000 DUP2 MSTORE PUSH1 0x4 ADD PUSH2 0xFE5 SWAP2 SWAP1 PUSH2 0x1AD2 JUMP JUMPDEST PUSH1 0x40 MLOAD DUP1 SWAP2 SUB SWAP1 REVERT JUMPDEST PUSH0 PUSH2 0xFFA DUP4 DUP4 PUSH0 PUSH2 0xBF4 JUMP JUMPDEST SWAP1 POP PUSH0 PUSH20 0xFFFFFFFFFFFFFFFFFFFFFFFFFFFFFFFFFFFFFFFF AND DUP2 PUSH20 0xFFFFFFFFFFFFFFFFFFFFFFFFFFFFFFFFFFFFFFFF AND EQ PUSH2 0x106C JUMPI PUSH0 PUSH1 0x40 MLOAD PUSH32 0x73C6AC6E00000000000000000000000000000000000000000000000000000000 DUP2 MSTORE PUSH1 0x4 ADD PUSH2 0x1063 SWAP2 SWAP1 PUSH2 0x1AD2 JUMP JUMPDEST PUSH1 0x40 MLOAD DUP1 SWAP2 SUB SWAP1 REVERT JUMPDEST POP POP POP JUMP JUMPDEST PUSH0 DUP4 PUSH20 0xFFFFFFFFFFFFFFFFFFFFFFFFFFFFFFFFFFFFFFFF AND EXTCODESIZE GT ISZERO PUSH2 0x121D JUMPI DUP3 PUSH20 0xFFFFFFFFFFFFFFFFFFFFFFFFFFFFFFFFFFFFFFFF AND PUSH4 0x150B7A02 PUSH2 0x10B4 PUSH2 0xBDB JUMP JUMPDEST DUP7 DUP6 DUP6 PUSH1 0x40 MLOAD DUP6 PUSH4 0xFFFFFFFF AND PUSH1 0xE0 SHL DUP2 MSTORE PUSH1 0x4 ADD PUSH2 0x10D6 SWAP5 SWAP4 SWAP3 SWAP2 SWAP1 PUSH2 0x2268 JUMP JUMPDEST PUSH1 0x20 PUSH1 0x40 MLOAD DUP1 DUP4 SUB DUP2 PUSH0 DUP8 GAS CALL SWAP3 POP POP POP DUP1 ISZERO PUSH2 0x1111 JUMPI POP PUSH1 0x40 MLOAD RETURNDATASIZE PUSH1 0x1F NOT PUSH1 0x1F DUP3 ADD AND DUP3 ADD DUP1 PUSH1 0x40 MSTORE POP DUP2 ADD SWAP1 PUSH2 0x110E SWAP2 SWAP1 PUSH2 0x22C6 JUMP JUMPDEST PUSH1 0x1 JUMPDEST PUSH2 0x1192 JUMPI RETURNDATASIZE DUP1 PUSH0 DUP2 EQ PUSH2 0x113F JUMPI PUSH1 0x40 MLOAD SWAP2 POP PUSH1 0x1F NOT PUSH1 0x3F RETURNDATASIZE ADD AND DUP3 ADD PUSH1 0x40 MSTORE RETURNDATASIZE DUP3 MSTORE RETURNDATASIZE PUSH0 PUSH1 0x20 DUP5 ADD RETURNDATACOPY PUSH2 0x1144 JUMP JUMPDEST PUSH1 0x60 SWAP2 POP JUMPDEST POP PUSH0 DUP2 MLOAD SUB PUSH2 0x118A JUMPI DUP4 PUSH1 0x40 MLOAD PUSH32 0x64A0AE9200000000000000000000000000000000000000000000000000000000 DUP2 MSTORE PUSH1 0x4 ADD PUSH2 0x1181 SWAP2 SWAP1 PUSH2 0x1AD2 JUMP JUMPDEST PUSH1 0x40 MLOAD DUP1 SWAP2 SUB SWAP1 REVERT JUMPDEST DUP1 MLOAD DUP2 PUSH1 0x20 ADD REVERT JUMPDEST PUSH4 0x150B7A02 PUSH1 0xE0 SHL PUSH28 0xFFFFFFFFFFFFFFFFFFFFFFFFFFFFFFFFFFFFFFFFFFFFFFFFFFFFFFFF NOT AND DUP2 PUSH28 0xFFFFFFFFFFFFFFFFFFFFFFFFFFFFFFFFFFFFFFFFFFFFFFFFFFFFFFFF NOT AND EQ PUSH2 0x121B JUMPI DUP4 PUSH1 0x40 MLOAD PUSH32 0x64A0AE9200000000000000000000000000000000000000000000000000000000 DUP2 MSTORE PUSH1 0x4 ADD PUSH2 0x1212 SWAP2 SWAP1 PUSH2 0x1AD2 JUMP JUMPDEST PUSH1 0x40 MLOAD DUP1 SWAP2 SUB SWAP1 REVERT JUMPDEST POP JUMPDEST POP POP POP POP JUMP JUMPDEST PUSH1 0x60 PUSH1 0x40 MLOAD DUP1 PUSH1 0x20 ADD PUSH1 0x40 MSTORE DUP1 PUSH0 DUP2 MSTORE POP SWAP1 POP SWAP1 JUMP JUMPDEST PUSH1 0x60 PUSH0 PUSH1 0x1 PUSH2 0x1247 DUP5 PUSH2 0x160C JUMP JUMPDEST ADD SWAP1 POP PUSH0 DUP2 PUSH8 0xFFFFFFFFFFFFFFFF DUP2 GT ISZERO PUSH2 0x1265 JUMPI PUSH2 0x1264 PUSH2 0x1C0D JUMP JUMPDEST JUMPDEST PUSH1 0x40 MLOAD SWAP1 DUP1 DUP3 MSTORE DUP1 PUSH1 0x1F ADD PUSH1 0x1F NOT AND PUSH1 0x20 ADD DUP3 ADD PUSH1 0x40 MSTORE DUP1 ISZERO PUSH2 0x1297 JUMPI DUP2 PUSH1 0x20 ADD PUSH1 0x1 DUP3 MUL DUP1 CALLDATASIZE DUP4 CALLDATACOPY DUP1 DUP3 ADD SWAP2 POP POP SWAP1 POP JUMPDEST POP SWAP1 POP PUSH0 DUP3 PUSH1 0x20 ADD DUP3 ADD SWAP1 POP JUMPDEST PUSH1 0x1 ISZERO PUSH2 0x12F8 JUMPI DUP1 DUP1 PUSH1 0x1 SWAP1 SUB SWAP2 POP POP PUSH32 0x3031323334353637383961626364656600000000000000000000000000000000 PUSH1 0xA DUP7 MOD BYTE DUP2 MSTORE8 PUSH1 0xA DUP6 DUP2 PUSH2 0x12ED JUMPI PUSH2 0x12EC PUSH2 0x22F1 JUMP JUMPDEST JUMPDEST DIV SWAP5 POP PUSH0 DUP6 SUB PUSH2 0x12A4 JUMPI JUMPDEST DUP2 SWAP4 POP POP POP POP SWAP2 SWAP1 POP JUMP JUMPDEST PUSH0 PUSH1 0x2 PUSH0 DUP4 DUP2 MSTORE PUSH1 0x20 ADD SWAP1 DUP2 MSTORE PUSH1 0x20 ADD PUSH0 KECCAK256 PUSH0 SWAP1 SLOAD SWAP1 PUSH2 0x100 EXP SWAP1 DIV PUSH20 0xFFFFFFFFFFFFFFFFFFFFFFFFFFFFFFFFFFFFFFFF AND SWAP1 POP SWAP2 SWAP1 POP JUMP JUMPDEST DUP1 DUP1 PUSH2 0x1374 JUMPI POP PUSH0 PUSH20 0xFFFFFFFFFFFFFFFFFFFFFFFFFFFFFFFFFFFFFFFF AND DUP3 PUSH20 0xFFFFFFFFFFFFFFFFFFFFFFFFFFFFFFFFFFFFFFFF AND EQ ISZERO JUMPDEST ISZERO PUSH2 0x14A6 JUMPI PUSH0 PUSH2 0x1383 DUP5 PUSH2 0xB1C JUMP JUMPDEST SWAP1 POP PUSH0 PUSH20 0xFFFFFFFFFFFFFFFFFFFFFFFFFFFFFFFFFFFFFFFF AND DUP4 PUSH20 0xFFFFFFFFFFFFFFFFFFFFFFFFFFFFFFFFFFFFFFFF AND EQ ISZERO DUP1 ISZERO PUSH2 0x13ED JUMPI POP DUP3 PUSH20 0xFFFFFFFFFFFFFFFFFFFFFFFFFFFFFFFFFFFFFFFF AND DUP2 PUSH20 0xFFFFFFFFFFFFFFFFFFFFFFFFFFFFFFFFFFFFFFFF AND EQ ISZERO JUMPDEST DUP1 ISZERO PUSH2 0x1400 JUMPI POP PUSH2 0x13FE DUP2 DUP5 PUSH2 0xA25 JUMP JUMPDEST ISZERO JUMPDEST ISZERO PUSH2 0x1442 JUMPI DUP3 PUSH1 0x40 MLOAD PUSH32 0xA9FBF51F00000000000000000000000000000000000000000000000000000000 DUP2 MSTORE PUSH1 0x4 ADD PUSH2 0x1439 SWAP2 SWAP1 PUSH2 0x1AD2 JUMP JUMPDEST PUSH1 0x40 MLOAD DUP1 SWAP2 SUB SWAP1 REVERT JUMPDEST DUP2 ISZERO PUSH2 0x14A4 JUMPI DUP4 DUP6 PUSH20 0xFFFFFFFFFFFFFFFFFFFFFFFFFFFFFFFFFFFFFFFF AND DUP3 PUSH20 0xFFFFFFFFFFFFFFFFFFFFFFFFFFFFFFFFFFFFFFFF AND PUSH32 0x8C5BE1E5EBEC7D5BD14F71427D1E84F3DD0314C0F7B2291E5B200AC8C7C3B925 PUSH1 0x40 MLOAD PUSH1 0x40 MLOAD DUP1 SWAP2 SUB SWAP1 LOG4 JUMPDEST POP JUMPDEST DUP4 PUSH1 0x4 PUSH0 DUP6 DUP2 MSTORE PUSH1 0x20 ADD SWAP1 DUP2 MSTORE PUSH1 0x20 ADD PUSH0 KECCAK256 PUSH0 PUSH2 0x100 EXP DUP2 SLOAD DUP2 PUSH20 0xFFFFFFFFFFFFFFFFFFFFFFFFFFFFFFFFFFFFFFFF MUL NOT AND SWAP1 DUP4 PUSH20 0xFFFFFFFFFFFFFFFFFFFFFFFFFFFFFFFFFFFFFFFF AND MUL OR SWAP1 SSTORE POP POP POP POP POP JUMP JUMPDEST PUSH2 0x1506 DUP4 DUP4 DUP4 PUSH2 0x175D JUMP JUMPDEST PUSH2 0x15B9 JUMPI PUSH0 PUSH20 0xFFFFFFFFFFFFFFFFFFFFFFFFFFFFFFFFFFFFFFFF AND DUP4 PUSH20 0xFFFFFFFFFFFFFFFFFFFFFFFFFFFFFFFFFFFFFFFF AND SUB PUSH2 0x157A JUMPI DUP1 PUSH1 0x40 MLOAD PUSH32 0x7E27328900000000000000000000000000000000000000000000000000000000 DUP2 MSTORE PUSH1 0x4 ADD PUSH2 0x1571 SWAP2 SWAP1 PUSH2 0x1B88 JUMP JUMPDEST PUSH1 0x40 MLOAD DUP1 SWAP2 SUB SWAP1 REVERT JUMPDEST DUP2 DUP2 PUSH1 0x40 MLOAD PUSH32 0x177E802F00000000000000000000000000000000000000000000000000000000 DUP2 MSTORE PUSH1 0x4 ADD PUSH2 0x15B0 SWAP3 SWAP2 SWAP1 PUSH2 0x231E JUMP JUMPDEST PUSH1 0x40 MLOAD DUP1 SWAP2 SUB SWAP1 REVERT JUMPDEST POP POP POP JUMP JUMPDEST PUSH0 DUP1 DUP3 SWAP1 POP PUSH0 JUMPDEST DUP5 MLOAD DUP2 LT ISZERO PUSH2 0x1601 JUMPI PUSH2 0x15F2 DUP3 DUP7 DUP4 DUP2 MLOAD DUP2 LT PUSH2 0x15E5 JUMPI PUSH2 0x15E4 PUSH2 0x2345 JUMP JUMPDEST JUMPDEST PUSH1 0x20 MUL PUSH1 0x20 ADD ADD MLOAD PUSH2 0x181D JUMP JUMPDEST SWAP2 POP DUP1 DUP1 PUSH1 0x1 ADD SWAP2 POP POP PUSH2 0x15C5 JUMP JUMPDEST POP DUP1 SWAP2 POP POP SWAP3 SWAP2 POP POP JUMP JUMPDEST PUSH0 DUP1 PUSH0 SWAP1 POP PUSH27 0x184F03E93FF9F4DAA797ED6E38ED64BF6A1F010000000000000000 DUP4 LT PUSH2 0x1668 JUMPI PUSH27 0x184F03E93FF9F4DAA797ED6E38ED64BF6A1F010000000000000000 DUP4 DUP2 PUSH2 0x165E JUMPI PUSH2 0x165D PUSH2 0x22F1 JUMP JUMPDEST JUMPDEST DIV SWAP3 POP PUSH1 0x40 DUP2 ADD SWAP1 POP JUMPDEST PUSH14 0x4EE2D6D415B85ACEF8100000000 DUP4 LT PUSH2 0x16A5 JUMPI PUSH14 0x4EE2D6D415B85ACEF8100000000 DUP4 DUP2 PUSH2 0x169B JUMPI PUSH2 0x169A PUSH2 0x22F1 JUMP JUMPDEST JUMPDEST DIV SWAP3 POP PUSH1 0x20 DUP2 ADD SWAP1 POP JUMPDEST PUSH7 0x2386F26FC10000 DUP4 LT PUSH2 0x16D4 JUMPI PUSH7 0x2386F26FC10000 DUP4 DUP2 PUSH2 0x16CA JUMPI PUSH2 0x16C9 PUSH2 0x22F1 JUMP JUMPDEST JUMPDEST DIV SWAP3 POP PUSH1 0x10 DUP2 ADD SWAP1 POP JUMPDEST PUSH4 0x5F5E100 DUP4 LT PUSH2 0x16FD JUMPI PUSH4 0x5F5E100 DUP4 DUP2 PUSH2 0x16F3 JUMPI PUSH2 0x16F2 PUSH2 0x22F1 JUMP JUMPDEST JUMPDEST DIV SWAP3 POP PUSH1 0x8 DUP2 ADD SWAP1 POP JUMPDEST PUSH2 0x2710 DUP4 LT PUSH2 0x1722 JUMPI PUSH2 0x2710 DUP4 DUP2 PUSH2 0x1718 JUMPI PUSH2 0x1717 PUSH2 0x22F1 JUMP JUMPDEST JUMPDEST DIV SWAP3 POP PUSH1 0x4 DUP2 ADD SWAP1 POP JUMPDEST PUSH1 0x64 DUP4 LT PUSH2 0x1745 JUMPI PUSH1 0x64 DUP4 DUP2 PUSH2 0x173B JUMPI PUSH2 0x173A PUSH2 0x22F1 JUMP JUMPDEST JUMPDEST DIV SWAP3 POP PUSH1 0x2 DUP2 ADD SWAP1 POP JUMPDEST PUSH1 0xA DUP4 LT PUSH2 0x1754 JUMPI PUSH1 0x1 DUP2 ADD SWAP1 POP JUMPDEST DUP1 SWAP2 POP POP SWAP2 SWAP1 POP JUMP JUMPDEST PUSH0 DUP1 PUSH20 0xFFFFFFFFFFFFFFFFFFFFFFFFFFFFFFFFFFFFFFFF AND DUP4 PUSH20 0xFFFFFFFFFFFFFFFFFFFFFFFFFFFFFFFFFFFFFFFF AND EQ ISZERO DUP1 ISZERO PUSH2 0x1814 JUMPI POP DUP3 PUSH20 0xFFFFFFFFFFFFFFFFFFFFFFFFFFFFFFFFFFFFFFFF AND DUP5 PUSH20 0xFFFFFFFFFFFFFFFFFFFFFFFFFFFFFFFFFFFFFFFF AND EQ DUP1 PUSH2 0x17D5 JUMPI POP PUSH2 0x17D4 DUP5 DUP5 PUSH2 0xA25 JUMP JUMPDEST JUMPDEST DUP1 PUSH2 0x1813 JUMPI POP DUP3 PUSH20 0xFFFFFFFFFFFFFFFFFFFFFFFFFFFFFFFFFFFFFFFF AND PUSH2 0x17FB DUP4 PUSH2 0xBA2 JUMP JUMPDEST PUSH20 0xFFFFFFFFFFFFFFFFFFFFFFFFFFFFFFFFFFFFFFFF AND EQ JUMPDEST JUMPDEST SWAP1 POP SWAP4 SWAP3 POP POP POP JUMP JUMPDEST PUSH0 DUP2 DUP4 LT PUSH2 0x1834 JUMPI PUSH2 0x182F DUP3 DUP5 PUSH2 0x1847 JUMP JUMPDEST PUSH2 0x183F JUMP JUMPDEST PUSH2 0x183E DUP4 DUP4 PUSH2 0x1847 JUMP JUMPDEST JUMPDEST SWAP1 POP SWAP3 SWAP2 POP POP JUMP JUMPDEST PUSH0 DUP3 PUSH0 MSTORE DUP2 PUSH1 0x20 MSTORE PUSH1 0x40 PUSH0 KECCAK256 SWAP1 POP SWAP3 SWAP2 POP POP JUMP JUMPDEST PUSH0 PUSH1 0x40 MLOAD SWAP1 POP SWAP1 JUMP JUMPDEST PUSH0 DUP1 REVERT JUMPDEST PUSH0 DUP1 REVERT JUMPDEST PUSH0 PUSH32 0xFFFFFFFF00000000000000000000000000000000000000000000000000000000 DUP3 AND SWAP1 POP SWAP2 SWAP1 POP JUMP JUMPDEST PUSH2 0x18A0 DUP2 PUSH2 0x186C JUMP JUMPDEST DUP2 EQ PUSH2 0x18AA JUMPI PUSH0 DUP1 REVERT JUMPDEST POP JUMP JUMPDEST PUSH0 DUP2 CALLDATALOAD SWAP1 POP PUSH2 0x18BB DUP2 PUSH2 0x1897 JUMP JUMPDEST SWAP3 SWAP2 POP POP JUMP JUMPDEST PUSH0 PUSH1 0x20 DUP3 DUP5 SUB SLT ISZERO PUSH2 0x18D6 JUMPI PUSH2 0x18D5 PUSH2 0x1864 JUMP JUMPDEST JUMPDEST PUSH0 PUSH2 0x18E3 DUP5 DUP3 DUP6 ADD PUSH2 0x18AD JUMP JUMPDEST SWAP2 POP POP SWAP3 SWAP2 POP POP JUMP JUMPDEST PUSH0 DUP2 ISZERO ISZERO SWAP1 POP SWAP2 SWAP1 POP JUMP JUMPDEST PUSH2 0x1900 DUP2 PUSH2 0x18EC JUMP JUMPDEST DUP3 MSTORE POP POP JUMP JUMPDEST PUSH0 PUSH1 0x20 DUP3 ADD SWAP1 POP PUSH2 0x1919 PUSH0 DUP4 ADD DUP5 PUSH2 0x18F7 JUMP JUMPDEST SWAP3 SWAP2 POP POP JUMP JUMPDEST PUSH0 PUSH20 0xFFFFFFFFFFFFFFFFFFFFFFFFFFFFFFFFFFFFFFFF DUP3 AND SWAP1 POP SWAP2 SWAP1 POP JUMP JUMPDEST PUSH0 PUSH2 0x1948 DUP3 PUSH2 0x191F JUMP JUMPDEST SWAP1 POP SWAP2 SWAP1 POP JUMP JUMPDEST PUSH2 0x1958 DUP2 PUSH2 0x193E JUMP JUMPDEST DUP2 EQ PUSH2 0x1962 JUMPI PUSH0 DUP1 REVERT JUMPDEST POP JUMP JUMPDEST PUSH0 DUP2 CALLDATALOAD SWAP1 POP PUSH2 0x1973 DUP2 PUSH2 0x194F JUMP JUMPDEST SWAP3 SWAP2 POP POP JUMP JUMPDEST PUSH0 PUSH1 0x20 DUP3 DUP5 SUB SLT ISZERO PUSH2 0x198E JUMPI PUSH2 0x198D PUSH2 0x1864 JUMP JUMPDEST JUMPDEST PUSH0 PUSH2 0x199B DUP5 DUP3 DUP6 ADD PUSH2 0x1965 JUMP JUMPDEST SWAP2 POP POP SWAP3 SWAP2 POP POP JUMP JUMPDEST PUSH0 DUP2 SWAP1 POP SWAP2 SWAP1 POP JUMP JUMPDEST PUSH2 0x19B6 DUP2 PUSH2 0x19A4 JUMP JUMPDEST DUP3 MSTORE POP POP JUMP JUMPDEST PUSH0 PUSH1 0x20 DUP3 ADD SWAP1 POP PUSH2 0x19CF PUSH0 DUP4 ADD DUP5 PUSH2 0x19AD JUMP JUMPDEST SWAP3 SWAP2 POP POP JUMP JUMPDEST PUSH0 DUP2 MLOAD SWAP1 POP SWAP2 SWAP1 POP JUMP JUMPDEST PUSH0 DUP3 DUP3 MSTORE PUSH1 0x20 DUP3 ADD SWAP1 POP SWAP3 SWAP2 POP POP JUMP JUMPDEST DUP3 DUP2 DUP4 MCOPY PUSH0 DUP4 DUP4 ADD MSTORE POP POP POP JUMP JUMPDEST PUSH0 PUSH1 0x1F NOT PUSH1 0x1F DUP4 ADD AND SWAP1 POP SWAP2 SWAP1 POP JUMP JUMPDEST PUSH0 PUSH2 0x1A17 DUP3 PUSH2 0x19D5 JUMP JUMPDEST PUSH2 0x1A21 DUP2 DUP6 PUSH2 0x19DF JUMP JUMPDEST SWAP4 POP PUSH2 0x1A31 DUP2 DUP6 PUSH1 0x20 DUP7 ADD PUSH2 0x19EF JUMP JUMPDEST PUSH2 0x1A3A DUP2 PUSH2 0x19FD JUMP JUMPDEST DUP5 ADD SWAP2 POP POP SWAP3 SWAP2 POP POP JUMP JUMPDEST PUSH0 PUSH1 0x20 DUP3 ADD SWAP1 POP DUP2 DUP2 SUB PUSH0 DUP4 ADD MSTORE PUSH2 0x1A5D DUP2 DUP5 PUSH2 0x1A0D JUMP JUMPDEST SWAP1 POP SWAP3 SWAP2 POP POP JUMP JUMPDEST PUSH0 DUP2 SWAP1 POP SWAP2 SWAP1 POP JUMP JUMPDEST PUSH2 0x1A77 DUP2 PUSH2 0x1A65 JUMP JUMPDEST DUP2 EQ PUSH2 0x1A81 JUMPI PUSH0 DUP1 REVERT JUMPDEST POP JUMP JUMPDEST PUSH0 DUP2 CALLDATALOAD SWAP1 POP PUSH2 0x1A92 DUP2 PUSH2 0x1A6E JUMP JUMPDEST SWAP3 SWAP2 POP POP JUMP JUMPDEST PUSH0 PUSH1 0x20 DUP3 DUP5 SUB SLT ISZERO PUSH2 0x1AAD JUMPI PUSH2 0x1AAC PUSH2 0x1864 JUMP JUMPDEST JUMPDEST PUSH0 PUSH2 0x1ABA DUP5 DUP3 DUP6 ADD PUSH2 0x1A84 JUMP JUMPDEST SWAP2 POP POP SWAP3 SWAP2 POP POP JUMP JUMPDEST PUSH2 0x1ACC DUP2 PUSH2 0x193E JUMP JUMPDEST DUP3 MSTORE POP POP JUMP JUMPDEST PUSH0 PUSH1 0x20 DUP3 ADD SWAP1 POP PUSH2 0x1AE5 PUSH0 DUP4 ADD DUP5 PUSH2 0x1AC3 JUMP JUMPDEST SWAP3 SWAP2 POP POP JUMP JUMPDEST PUSH0 DUP1 PUSH1 0x40 DUP4 DUP6 SUB SLT ISZERO PUSH2 0x1B01 JUMPI PUSH2 0x1B00 PUSH2 0x1864 JUMP JUMPDEST JUMPDEST PUSH0 PUSH2 0x1B0E DUP6 DUP3 DUP7 ADD PUSH2 0x1965 JUMP JUMPDEST SWAP3 POP POP PUSH1 0x20 PUSH2 0x1B1F DUP6 DUP3 DUP7 ADD PUSH2 0x1A84 JUMP JUMPDEST SWAP2 POP POP SWAP3 POP SWAP3 SWAP1 POP JUMP JUMPDEST PUSH0 DUP1 PUSH0 PUSH1 0x60 DUP5 DUP7 SUB SLT ISZERO PUSH2 0x1B40 JUMPI PUSH2 0x1B3F PUSH2 0x1864 JUMP JUMPDEST JUMPDEST PUSH0 PUSH2 0x1B4D DUP7 DUP3 DUP8 ADD PUSH2 0x1965 JUMP JUMPDEST SWAP4 POP POP PUSH1 0x20 PUSH2 0x1B5E DUP7 DUP3 DUP8 ADD PUSH2 0x1965 JUMP JUMPDEST SWAP3 POP POP PUSH1 0x40 PUSH2 0x1B6F DUP7 DUP3 DUP8 ADD PUSH2 0x1A84 JUMP JUMPDEST SWAP2 POP POP SWAP3 POP SWAP3 POP SWAP3 JUMP JUMPDEST PUSH2 0x1B82 DUP2 PUSH2 0x1A65 JUMP JUMPDEST DUP3 MSTORE POP POP JUMP JUMPDEST PUSH0 PUSH1 0x20 DUP3 ADD SWAP1 POP PUSH2 0x1B9B PUSH0 DUP4 ADD DUP5 PUSH2 0x1B79 JUMP JUMPDEST SWAP3 SWAP2 POP POP JUMP JUMPDEST PUSH2 0x1BAA DUP2 PUSH2 0x18EC JUMP JUMPDEST DUP2 EQ PUSH2 0x1BB4 JUMPI PUSH0 DUP1 REVERT JUMPDEST POP JUMP JUMPDEST PUSH0 DUP2 CALLDATALOAD SWAP1 POP PUSH2 0x1BC5 DUP2 PUSH2 0x1BA1 JUMP JUMPDEST SWAP3 SWAP2 POP POP JUMP JUMPDEST PUSH0 DUP1 PUSH1 0x40 DUP4 DUP6 SUB SLT ISZERO PUSH2 0x1BE1 JUMPI PUSH2 0x1BE0 PUSH2 0x1864 JUMP JUMPDEST JUMPDEST PUSH0 PUSH2 0x1BEE DUP6 DUP3 DUP7 ADD PUSH2 0x1965 JUMP JUMPDEST SWAP3 POP POP PUSH1 0x20 PUSH2 0x1BFF DUP6 DUP3 DUP7 ADD PUSH2 0x1BB7 JUMP JUMPDEST SWAP2 POP POP SWAP3 POP SWAP3 SWAP1 POP JUMP JUMPDEST PUSH0 DUP1 REVERT JUMPDEST PUSH32 0x4E487B7100000000000000000000000000000000000000000000000000000000 PUSH0 MSTORE PUSH1 0x41 PUSH1 0x4 MSTORE PUSH1 0x24 PUSH0 REVERT JUMPDEST PUSH2 0x1C43 DUP3 PUSH2 0x19FD JUMP JUMPDEST DUP2 ADD DUP2 DUP2 LT PUSH8 0xFFFFFFFFFFFFFFFF DUP3 GT OR ISZERO PUSH2 0x1C62 JUMPI PUSH2 0x1C61 PUSH2 0x1C0D JUMP JUMPDEST JUMPDEST DUP1 PUSH1 0x40 MSTORE POP POP POP JUMP JUMPDEST PUSH0 PUSH2 0x1C74 PUSH2 0x185B JUMP JUMPDEST SWAP1 POP PUSH2 0x1C80 DUP3 DUP3 PUSH2 0x1C3A JUMP JUMPDEST SWAP2 SWAP1 POP JUMP JUMPDEST PUSH0 PUSH8 0xFFFFFFFFFFFFFFFF DUP3 GT ISZERO PUSH2 0x1C9F JUMPI PUSH2 0x1C9E PUSH2 0x1C0D JUMP JUMPDEST JUMPDEST PUSH1 0x20 DUP3 MUL SWAP1 POP PUSH1 0x20 DUP2 ADD SWAP1 POP SWAP2 SWAP1 POP JUMP JUMPDEST PUSH0 DUP1 REVERT JUMPDEST PUSH2 0x1CBD DUP2 PUSH2 0x19A4 JUMP JUMPDEST DUP2 EQ PUSH2 0x1CC7 JUMPI PUSH0 DUP1 REVERT JUMPDEST POP JUMP JUMPDEST PUSH0 DUP2 CALLDATALOAD SWAP1 POP PUSH2 0x1CD8 DUP2 PUSH2 0x1CB4 JUMP JUMPDEST SWAP3 SWAP2 POP POP JUMP JUMPDEST PUSH0 PUSH2 0x1CF0 PUSH2 0x1CEB DUP5 PUSH2 0x1C85 JUMP JUMPDEST PUSH2 0x1C6B JUMP JUMPDEST SWAP1 POP DUP1 DUP4 DUP3 MSTORE PUSH1 0x20 DUP3 ADD SWAP1 POP PUSH1 0x20 DUP5 MUL DUP4 ADD DUP6 DUP2 GT ISZERO PUSH2 0x1D13 JUMPI PUSH2 0x1D12 PUSH2 0x1CB0 JUMP JUMPDEST JUMPDEST DUP4 JUMPDEST DUP2 DUP2 LT ISZERO PUSH2 0x1D3C JUMPI DUP1 PUSH2 0x1D28 DUP9 DUP3 PUSH2 0x1CCA JUMP JUMPDEST DUP5 MSTORE PUSH1 0x20 DUP5 ADD SWAP4 POP POP PUSH1 0x20 DUP2 ADD SWAP1 POP PUSH2 0x1D15 JUMP JUMPDEST POP POP POP SWAP4 SWAP3 POP POP POP JUMP JUMPDEST PUSH0 DUP3 PUSH1 0x1F DUP4 ADD SLT PUSH2 0x1D5A JUMPI PUSH2 0x1D59 PUSH2 0x1C09 JUMP JUMPDEST JUMPDEST DUP2 CALLDATALOAD PUSH2 0x1D6A DUP5 DUP3 PUSH1 0x20 DUP7 ADD PUSH2 0x1CDE JUMP JUMPDEST SWAP2 POP POP SWAP3 SWAP2 POP POP JUMP JUMPDEST PUSH0 PUSH1 0x20 DUP3 DUP5 SUB SLT ISZERO PUSH2 0x1D88 JUMPI PUSH2 0x1D87 PUSH2 0x1864 JUMP JUMPDEST JUMPDEST PUSH0 DUP3 ADD CALLDATALOAD PUSH8 0xFFFFFFFFFFFFFFFF DUP2 GT ISZERO PUSH2 0x1DA5 JUMPI PUSH2 0x1DA4 PUSH2 0x1868 JUMP JUMPDEST JUMPDEST PUSH2 0x1DB1 DUP5 DUP3 DUP6 ADD PUSH2 0x1D46 JUMP JUMPDEST SWAP2 POP POP SWAP3 SWAP2 POP POP JUMP JUMPDEST PUSH0 DUP1 REVERT JUMPDEST PUSH0 PUSH8 0xFFFFFFFFFFFFFFFF DUP3 GT ISZERO PUSH2 0x1DD8 JUMPI PUSH2 0x1DD7 PUSH2 0x1C0D JUMP JUMPDEST JUMPDEST PUSH2 0x1DE1 DUP3 PUSH2 0x19FD JUMP JUMPDEST SWAP1 POP PUSH1 0x20 DUP2 ADD SWAP1 POP SWAP2 SWAP1 POP JUMP JUMPDEST DUP3 DUP2 DUP4 CALLDATACOPY PUSH0 DUP4 DUP4 ADD MSTORE POP POP POP JUMP JUMPDEST PUSH0 PUSH2 0x1E0E PUSH2 0x1E09 DUP5 PUSH2 0x1DBE JUMP JUMPDEST PUSH2 0x1C6B JUMP JUMPDEST SWAP1 POP DUP3 DUP2 MSTORE PUSH1 0x20 DUP2 ADD DUP5 DUP5 DUP5 ADD GT ISZERO PUSH2 0x1E2A JUMPI PUSH2 0x1E29 PUSH2 0x1DBA JUMP JUMPDEST JUMPDEST PUSH2 0x1E35 DUP5 DUP3 DUP6 PUSH2 0x1DEE JUMP JUMPDEST POP SWAP4 SWAP3 POP POP POP JUMP JUMPDEST PUSH0 DUP3 PUSH1 0x1F DUP4 ADD SLT PUSH2 0x1E51 JUMPI PUSH2 0x1E50 PUSH2 0x1C09 JUMP JUMPDEST JUMPDEST DUP2 CALLDATALOAD PUSH2 0x1E61 DUP5 DUP3 PUSH1 0x20 DUP7 ADD PUSH2 0x1DFC JUMP JUMPDEST SWAP2 POP POP SWAP3 SWAP2 POP POP JUMP JUMPDEST PUSH0 DUP1 PUSH0 DUP1 PUSH1 0x80 DUP6 DUP8 SUB SLT ISZERO PUSH2 0x1E82 JUMPI PUSH2 0x1E81 PUSH2 0x1864 JUMP JUMPDEST JUMPDEST PUSH0 PUSH2 0x1E8F DUP8 DUP3 DUP9 ADD PUSH2 0x1965 JUMP JUMPDEST SWAP5 POP POP PUSH1 0x20 PUSH2 0x1EA0 DUP8 DUP3 DUP9 ADD PUSH2 0x1965 JUMP JUMPDEST SWAP4 POP POP PUSH1 0x40 PUSH2 0x1EB1 DUP8 DUP3 DUP9 ADD PUSH2 0x1A84 JUMP JUMPDEST SWAP3 POP POP PUSH1 0x60 DUP6 ADD CALLDATALOAD PUSH8 0xFFFFFFFFFFFFFFFF DUP2 GT ISZERO PUSH2 0x1ED2 JUMPI PUSH2 0x1ED1 PUSH2 0x1868 JUMP JUMPDEST JUMPDEST PUSH2 0x1EDE DUP8 DUP3 DUP9 ADD PUSH2 0x1E3D JUMP JUMPDEST SWAP2 POP POP SWAP3 SWAP6 SWAP2 SWAP5 POP SWAP3 POP JUMP JUMPDEST PUSH0 DUP1 PUSH1 0x40 DUP4 DUP6 SUB SLT ISZERO PUSH2 0x1F00 JUMPI PUSH2 0x1EFF PUSH2 0x1864 JUMP JUMPDEST JUMPDEST PUSH0 PUSH2 0x1F0D DUP6 DUP3 DUP7 ADD PUSH2 0x1965 JUMP JUMPDEST SWAP3 POP POP PUSH1 0x20 PUSH2 0x1F1E DUP6 DUP3 DUP7 ADD PUSH2 0x1965 JUMP JUMPDEST SWAP2 POP POP SWAP3 POP SWAP3 SWAP1 POP JUMP JUMPDEST PUSH0 DUP2 PUSH1 0x60 SHL SWAP1 POP SWAP2 SWAP1 POP JUMP JUMPDEST PUSH0 PUSH2 0x1F3E DUP3 PUSH2 0x1F28 JUMP JUMPDEST SWAP1 POP SWAP2 SWAP1 POP JUMP JUMPDEST PUSH0 PUSH2 0x1F4F DUP3 PUSH2 0x1F34 JUMP JUMPDEST SWAP1 POP SWAP2 SWAP1 POP JUMP JUMPDEST PUSH2 0x1F67 PUSH2 0x1F62 DUP3 PUSH2 0x193E JUMP JUMPDEST PUSH2 0x1F45 JUMP JUMPDEST DUP3 MSTORE POP POP JUMP JUMPDEST PUSH0 PUSH2 0x1F78 DUP3 DUP5 PUSH2 0x1F56 JUMP JUMPDEST PUSH1 0x14 DUP3 ADD SWAP2 POP DUP2 SWAP1 POP SWAP3 SWAP2 POP POP JUMP JUMPDEST PUSH32 0x4E487B7100000000000000000000000000000000000000000000000000000000 PUSH0 MSTORE PUSH1 0x22 PUSH1 0x4 MSTORE PUSH1 0x24 PUSH0 REVERT JUMPDEST PUSH0 PUSH1 0x2 DUP3 DIV SWAP1 POP PUSH1 0x1 DUP3 AND DUP1 PUSH2 0x1FCB JUMPI PUSH1 0x7F DUP3 AND SWAP2 POP JUMPDEST PUSH1 0x20 DUP3 LT DUP2 SUB PUSH2 0x1FDE JUMPI PUSH2 0x1FDD PUSH2 0x1F87 JUMP JUMPDEST JUMPDEST POP SWAP2 SWAP1 POP JUMP JUMPDEST PUSH0 PUSH1 0x60 DUP3 ADD SWAP1 POP PUSH2 0x1FF7 PUSH0 DUP4 ADD DUP7 PUSH2 0x1AC3 JUMP JUMPDEST PUSH2 0x2004 PUSH1 0x20 DUP4 ADD DUP6 PUSH2 0x1B79 JUMP JUMPDEST PUSH2 0x2011 PUSH1 0x40 DUP4 ADD DUP5 PUSH2 0x1AC3 JUMP JUMPDEST SWAP5 SWAP4 POP POP POP POP JUMP JUMPDEST PUSH32 0x41646472657373206973206E6F742077686974656C6973746564000000000000 PUSH0 DUP3 ADD MSTORE POP JUMP JUMPDEST PUSH0 PUSH2 0x204D PUSH1 0x1A DUP4 PUSH2 0x19DF JUMP JUMPDEST SWAP2 POP PUSH2 0x2058 DUP3 PUSH2 0x2019 JUMP JUMPDEST PUSH1 0x20 DUP3 ADD SWAP1 POP SWAP2 SWAP1 POP JUMP JUMPDEST PUSH0 PUSH1 0x20 DUP3 ADD SWAP1 POP DUP2 DUP2 SUB PUSH0 DUP4 ADD MSTORE PUSH2 0x207A DUP2 PUSH2 0x2041 JUMP JUMPDEST SWAP1 POP SWAP2 SWAP1 POP JUMP JUMPDEST PUSH32 0x496E76616C69642070726F6F6600000000000000000000000000000000000000 PUSH0 DUP3 ADD MSTORE POP JUMP JUMPDEST PUSH0 PUSH2 0x20B5 PUSH1 0xD DUP4 PUSH2 0x19DF JUMP JUMPDEST SWAP2 POP PUSH2 0x20C0 DUP3 PUSH2 0x2081 JUMP JUMPDEST PUSH1 0x20 DUP3 ADD SWAP1 POP SWAP2 SWAP1 POP JUMP JUMPDEST PUSH0 PUSH1 0x20 DUP3 ADD SWAP1 POP DUP2 DUP2 SUB PUSH0 DUP4 ADD MSTORE PUSH2 0x20E2 DUP2 PUSH2 0x20A9 JUMP JUMPDEST SWAP1 POP SWAP2 SWAP1 POP JUMP JUMPDEST PUSH32 0x4E487B7100000000000000000000000000000000000000000000000000000000 PUSH0 MSTORE PUSH1 0x11 PUSH1 0x4 MSTORE PUSH1 0x24 PUSH0 REVERT JUMPDEST PUSH0 PUSH2 0x2120 DUP3 PUSH2 0x1A65 JUMP JUMPDEST SWAP2 POP PUSH32 0xFFFFFFFFFFFFFFFFFFFFFFFFFFFFFFFFFFFFFFFFFFFFFFFFFFFFFFFFFFFFFFFF DUP3 SUB PUSH2 0x2152 JUMPI PUSH2 0x2151 PUSH2 0x20E9 JUMP JUMPDEST JUMPDEST PUSH1 0x1 DUP3 ADD SWAP1 POP SWAP2 SWAP1 POP JUMP JUMPDEST PUSH0 DUP2 SWAP1 POP SWAP2 SWAP1 POP JUMP JUMPDEST PUSH2 0x2177 PUSH2 0x2172 DUP3 PUSH2 0x1A65 JUMP JUMPDEST PUSH2 0x215D JUMP JUMPDEST DUP3 MSTORE POP POP JUMP JUMPDEST PUSH0 PUSH2 0x2188 DUP3 DUP7 PUSH2 0x2166 JUMP JUMPDEST PUSH1 0x20 DUP3 ADD SWAP2 POP PUSH2 0x2198 DUP3 DUP6 PUSH2 0x1F56 JUMP JUMPDEST PUSH1 0x14 DUP3 ADD SWAP2 POP PUSH2 0x21A8 DUP3 DUP5 PUSH2 0x2166 JUMP JUMPDEST PUSH1 0x20 DUP3 ADD SWAP2 POP DUP2 SWAP1 POP SWAP5 SWAP4 POP POP POP POP JUMP JUMPDEST PUSH0 DUP2 SWAP1 POP SWAP3 SWAP2 POP POP JUMP JUMPDEST PUSH0 PUSH2 0x21CD DUP3 PUSH2 0x19D5 JUMP JUMPDEST PUSH2 0x21D7 DUP2 DUP6 PUSH2 0x21B9 JUMP JUMPDEST SWAP4 POP PUSH2 0x21E7 DUP2 DUP6 PUSH1 0x20 DUP7 ADD PUSH2 0x19EF JUMP JUMPDEST DUP1 DUP5 ADD SWAP2 POP POP SWAP3 SWAP2 POP POP JUMP JUMPDEST PUSH0 PUSH2 0x21FE DUP3 DUP6 PUSH2 0x21C3 JUMP JUMPDEST SWAP2 POP PUSH2 0x220A DUP3 DUP5 PUSH2 0x21C3 JUMP JUMPDEST SWAP2 POP DUP2 SWAP1 POP SWAP4 SWAP3 POP POP POP JUMP JUMPDEST PUSH0 DUP2 MLOAD SWAP1 POP SWAP2 SWAP1 POP JUMP JUMPDEST PUSH0 DUP3 DUP3 MSTORE PUSH1 0x20 DUP3 ADD SWAP1 POP SWAP3 SWAP2 POP POP JUMP JUMPDEST PUSH0 PUSH2 0x223A DUP3 PUSH2 0x2216 JUMP JUMPDEST PUSH2 0x2244 DUP2 DUP6 PUSH2 0x2220 JUMP JUMPDEST SWAP4 POP PUSH2 0x2254 DUP2 DUP6 PUSH1 0x20 DUP7 ADD PUSH2 0x19EF JUMP JUMPDEST PUSH2 0x225D DUP2 PUSH2 0x19FD JUMP JUMPDEST DUP5 ADD SWAP2 POP POP SWAP3 SWAP2 POP POP JUMP JUMPDEST PUSH0 PUSH1 0x80 DUP3 ADD SWAP1 POP PUSH2 0x227B PUSH0 DUP4 ADD DUP8 PUSH2 0x1AC3 JUMP JUMPDEST PUSH2 0x2288 PUSH1 0x20 DUP4 ADD DUP7 PUSH2 0x1AC3 JUMP JUMPDEST PUSH2 0x2295 PUSH1 0x40 DUP4 ADD DUP6 PUSH2 0x1B79 JUMP JUMPDEST DUP2 DUP2 SUB PUSH1 0x60 DUP4 ADD MSTORE PUSH2 0x22A7 DUP2 DUP5 PUSH2 0x2230 JUMP JUMPDEST SWAP1 POP SWAP6 SWAP5 POP POP POP POP POP JUMP JUMPDEST PUSH0 DUP2 MLOAD SWAP1 POP PUSH2 0x22C0 DUP2 PUSH2 0x1897 JUMP JUMPDEST SWAP3 SWAP2 POP POP JUMP JUMPDEST PUSH0 PUSH1 0x20 DUP3 DUP5 SUB SLT ISZERO PUSH2 0x22DB JUMPI PUSH2 0x22DA PUSH2 0x1864 JUMP JUMPDEST JUMPDEST PUSH0 PUSH2 0x22E8 DUP5 DUP3 DUP6 ADD PUSH2 0x22B2 JUMP JUMPDEST SWAP2 POP POP SWAP3 SWAP2 POP POP JUMP JUMPDEST PUSH32 0x4E487B7100000000000000000000000000000000000000000000000000000000 PUSH0 MSTORE PUSH1 0x12 PUSH1 0x4 MSTORE PUSH1 0x24 PUSH0 REVERT JUMPDEST PUSH0 PUSH1 0x40 DUP3 ADD SWAP1 POP PUSH2 0x2331 PUSH0 DUP4 ADD DUP6 PUSH2 0x1AC3 JUMP JUMPDEST PUSH2 0x233E PUSH1 0x20 DUP4 ADD DUP5 PUSH2 0x1B79 JUMP JUMPDEST SWAP4 SWAP3 POP POP POP JUMP JUMPDEST PUSH32 0x4E487B7100000000000000000000000000000000000000000000000000000000 PUSH0 MSTORE PUSH1 0x32 PUSH1 0x4 MSTORE PUSH1 0x24 PUSH0 REVERT INVALID LOG2 PUSH5 0x6970667358 0x22 SLT KECCAK256 PUSH27 0x717D3CFE83BF066B2110A01103D87090B141E637DED7A90F643C37 0xD5 0xBC CALLDATACOPY CALLDATACOPY PUSH5 0x736F6C6343 STOP ADDMOD NOT STOP CALLER "
				},
				"gasEstimates": {
					"creation": {
						"codeDepositCost": "1825600",
						"executionCost": "infinite",
						"totalCost": "infinite"
					},
					"external": {
						"approve(address,uint256)": "infinite",
						"balanceOf(address)": "infinite",
						"generateMerkleRoot(address)": "infinite",
						"getApproved(uint256)": "infinite",
						"isApprovedForAll(address,address)": "infinite",
						"isWhitelisted(address)": "2959",
						"merkleRoot()": "2492",
						"name()": "infinite",
						"ownerOf(uint256)": "infinite",
						"safeTransferFrom(address,address,uint256)": "infinite",
						"safeTransferFrom(address,address,uint256,bytes)": "infinite",
						"setApprovalForAll(address,bool)": "infinite",
						"signDocument(bytes32[])": "infinite",
						"supportsInterface(bytes4)": "787",
						"symbol()": "infinite",
						"tokenURI(uint256)": "infinite",
						"transferFrom(address,address,uint256)": "infinite",
						"whitelist(address)": "2922"
					}
				},
				"methodIdentifiers": {
					"approve(address,uint256)": "095ea7b3",
					"balanceOf(address)": "70a08231",
					"generateMerkleRoot(address)": "063dcdfb",
					"getApproved(uint256)": "081812fc",
					"isApprovedForAll(address,address)": "e985e9c5",
					"isWhitelisted(address)": "3af32abf",
					"merkleRoot()": "2eb4a7ab",
					"name()": "06fdde03",
					"ownerOf(uint256)": "6352211e",
					"safeTransferFrom(address,address,uint256)": "42842e0e",
					"safeTransferFrom(address,address,uint256,bytes)": "b88d4fde",
					"setApprovalForAll(address,bool)": "a22cb465",
					"signDocument(bytes32[])": "a407e496",
					"supportsInterface(bytes4)": "01ffc9a7",
					"symbol()": "95d89b41",
					"tokenURI(uint256)": "c87b56dd",
					"transferFrom(address,address,uint256)": "23b872dd",
					"whitelist(address)": "9b19251a"
				}
			},
			"storageLayout": {
				"storage": [
					{
						"astId": 169,
						"contract": "contracts/HelloWorld1.sol:DocumentSigning",
						"label": "_name",
						"offset": 0,
						"slot": "0",
						"type": "t_string_storage"
					},
					{
						"astId": 171,
						"contract": "contracts/HelloWorld1.sol:DocumentSigning",
						"label": "_symbol",
						"offset": 0,
						"slot": "1",
						"type": "t_string_storage"
					},
					{
						"astId": 175,
						"contract": "contracts/HelloWorld1.sol:DocumentSigning",
						"label": "_owners",
						"offset": 0,
						"slot": "2",
						"type": "t_mapping(t_uint256,t_address)"
					},
					{
						"astId": 179,
						"contract": "contracts/HelloWorld1.sol:DocumentSigning",
						"label": "_balances",
						"offset": 0,
						"slot": "3",
						"type": "t_mapping(t_address,t_uint256)"
					},
					{
						"astId": 183,
						"contract": "contracts/HelloWorld1.sol:DocumentSigning",
						"label": "_tokenApprovals",
						"offset": 0,
						"slot": "4",
						"type": "t_mapping(t_uint256,t_address)"
					},
					{
						"astId": 189,
						"contract": "contracts/HelloWorld1.sol:DocumentSigning",
						"label": "_operatorApprovals",
						"offset": 0,
						"slot": "5",
						"type": "t_mapping(t_address,t_mapping(t_address,t_bool))"
					},
					{
						"astId": 3333,
						"contract": "contracts/HelloWorld1.sol:DocumentSigning",
						"label": "merkleRoot",
						"offset": 0,
						"slot": "6",
						"type": "t_bytes32"
					},
					{
						"astId": 3335,
						"contract": "contracts/HelloWorld1.sol:DocumentSigning",
						"label": "_nonce",
						"offset": 0,
						"slot": "7",
						"type": "t_uint256"
					},
					{
						"astId": 3339,
						"contract": "contracts/HelloWorld1.sol:DocumentSigning",
						"label": "whitelist",
						"offset": 0,
						"slot": "8",
						"type": "t_mapping(t_address,t_bool)"
					}
				],
				"types": {
					"t_address": {
						"encoding": "inplace",
						"label": "address",
						"numberOfBytes": "20"
					},
					"t_bool": {
						"encoding": "inplace",
						"label": "bool",
						"numberOfBytes": "1"
					},
					"t_bytes32": {
						"encoding": "inplace",
						"label": "bytes32",
						"numberOfBytes": "32"
					},
					"t_mapping(t_address,t_bool)": {
						"encoding": "mapping",
						"key": "t_address",
						"label": "mapping(address => bool)",
						"numberOfBytes": "32",
						"value": "t_bool"
					},
					"t_mapping(t_address,t_mapping(t_address,t_bool))": {
						"encoding": "mapping",
						"key": "t_address",
						"label": "mapping(address => mapping(address => bool))",
						"numberOfBytes": "32",
						"value": "t_mapping(t_address,t_bool)"
					},
					"t_mapping(t_address,t_uint256)": {
						"encoding": "mapping",
						"key": "t_address",
						"label": "mapping(address => uint256)",
						"numberOfBytes": "32",
						"value": "t_uint256"
					},
					"t_mapping(t_uint256,t_address)": {
						"encoding": "mapping",
						"key": "t_uint256",
						"label": "mapping(uint256 => address)",
						"numberOfBytes": "32",
						"value": "t_address"
					},
					"t_string_storage": {
						"encoding": "bytes",
						"label": "string",
						"numberOfBytes": "32"
					},
					"t_uint256": {
						"encoding": "inplace",
						"label": "uint256",
						"numberOfBytes": "32"
					}
				}
			},
			"userdoc": {
				"kind": "user",
				"methods": {},
				"version": 1
			}
		}
	}
}