{
	"data": {
		"bytecode": {
			"linkReferences": {},
			"object": "608060405234801561000f575f80fd5b506105e78061001d5f395ff3fe60806040526004361061003e575f3560e01c80636898f82b14610042578063b357a0281461005e578063b93e0e3914610088578063c44d6f87146100b2575b5f80fd5b61005c6004803603810190610057919061034f565b6100dc565b005b348015610069575f80fd5b50610072610309565b60405161007f9190610389565b60405180910390f35b348015610093575f80fd5b5061009c61030e565b6040516100a99190610389565b60405180910390f35b3480156100bd575f80fd5b506100c6610313565b6040516100d39190610389565b60405180910390f35b600181101580156100ee575060038111155b61012d576040517f08c379a0000000000000000000000000000000000000000000000000000000008152600401610124906103fc565b60405180910390fd5b5f6001600360014361013f9190610447565b405f1c61014c91906104a7565b61015691906104d7565b90508082036101ed573373ffffffffffffffffffffffffffffffffffffffff166108fc600234610186919061050a565b90811502906040515f60405180830381858888f193505050501580156101ae573d5f803e3d5ffd5b507f7ffa12f2611233f19bb229a71c5d8224cb37373555ab6754b65aef59ea26831d33346040516101e092919061058a565b60405180910390a1610305565b6001821480156101fd5750600381145b8061021457506002821480156102135750600181145b5b8061022b575060038214801561022a5750600281145b5b156102ca573373ffffffffffffffffffffffffffffffffffffffff166108fc600334610257919061050a565b90811502906040515f60405180830381858888f1935050505015801561027f573d5f803e3d5ffd5b507f6747c18256028de8cd2fa276e75d6b4193ac34c1b55fa8e71797ac132d32ad39336002346102af919061050a565b6040516102bd92919061058a565b60405180910390a1610304565b7f72fba0ba07d937c660a3130fca36005c0e476cb97b6f00de413976e37eba950133346040516102fb92919061058a565b60405180910390a15b5b5050565b600381565b600181565b600281565b5f80fd5b5f819050919050565b61032e8161031c565b8114610338575f80fd5b50565b5f8135905061034981610325565b92915050565b5f6020828403121561036457610363610318565b5b5f6103718482850161033b565b91505092915050565b6103838161031c565b82525050565b5f60208201905061039c5f83018461037a565b92915050565b5f82825260208201905092915050565b7f65726f6f720000000000000000000000000000000000000000000000000000005f82015250565b5f6103e66005836103a2565b91506103f1826103b2565b602082019050919050565b5f6020820190508181035f830152610413816103da565b9050919050565b7f4e487b71000000000000000000000000000000000000000000000000000000005f52601160045260245ffd5b5f6104518261031c565b915061045c8361031c565b92508282039050818111156104745761047361041a565b5b92915050565b7f4e487b71000000000000000000000000000000000000000000000000000000005f52601260045260245ffd5b5f6104b18261031c565b91506104bc8361031c565b9250826104cc576104cb61047a565b5b828206905092915050565b5f6104e18261031c565b91506104ec8361031c565b92508282019050808211156105045761050361041a565b5b92915050565b5f6105148261031c565b915061051f8361031c565b925082820261052d8161031c565b915082820484148315176105445761054361041a565b5b5092915050565b5f73ffffffffffffffffffffffffffffffffffffffff82169050919050565b5f6105748261054b565b9050919050565b6105848161056a565b82525050565b5f60408201905061059d5f83018561057b565b6105aa602083018461037a565b939250505056fea264697066735822122061bf0f6e00b7d987b0610488d305629ae3bc6fbbf653925a1306aeaab77d293464736f6c63430008180033",
			"opcodes": "PUSH1 0x80 PUSH1 0x40 MSTORE CALLVALUE DUP1 ISZERO PUSH2 0xF JUMPI PUSH0 DUP1 REVERT JUMPDEST POP PUSH2 0x5E7 DUP1 PUSH2 0x1D PUSH0 CODECOPY PUSH0 RETURN INVALID PUSH1 0x80 PUSH1 0x40 MSTORE PUSH1 0x4 CALLDATASIZE LT PUSH2 0x3E JUMPI PUSH0 CALLDATALOAD PUSH1 0xE0 SHR DUP1 PUSH4 0x6898F82B EQ PUSH2 0x42 JUMPI DUP1 PUSH4 0xB357A028 EQ PUSH2 0x5E JUMPI DUP1 PUSH4 0xB93E0E39 EQ PUSH2 0x88 JUMPI DUP1 PUSH4 0xC44D6F87 EQ PUSH2 0xB2 JUMPI JUMPDEST PUSH0 DUP1 REVERT JUMPDEST PUSH2 0x5C PUSH1 0x4 DUP1 CALLDATASIZE SUB DUP2 ADD SWAP1 PUSH2 0x57 SWAP2 SWAP1 PUSH2 0x34F JUMP JUMPDEST PUSH2 0xDC JUMP JUMPDEST STOP JUMPDEST CALLVALUE DUP1 ISZERO PUSH2 0x69 JUMPI PUSH0 DUP1 REVERT JUMPDEST POP PUSH2 0x72 PUSH2 0x309 JUMP JUMPDEST PUSH1 0x40 MLOAD PUSH2 0x7F SWAP2 SWAP1 PUSH2 0x389 JUMP JUMPDEST PUSH1 0x40 MLOAD DUP1 SWAP2 SUB SWAP1 RETURN JUMPDEST CALLVALUE DUP1 ISZERO PUSH2 0x93 JUMPI PUSH0 DUP1 REVERT JUMPDEST POP PUSH2 0x9C PUSH2 0x30E JUMP JUMPDEST PUSH1 0x40 MLOAD PUSH2 0xA9 SWAP2 SWAP1 PUSH2 0x389 JUMP JUMPDEST PUSH1 0x40 MLOAD DUP1 SWAP2 SUB SWAP1 RETURN JUMPDEST CALLVALUE DUP1 ISZERO PUSH2 0xBD JUMPI PUSH0 DUP1 REVERT JUMPDEST POP PUSH2 0xC6 PUSH2 0x313 JUMP JUMPDEST PUSH1 0x40 MLOAD PUSH2 0xD3 SWAP2 SWAP1 PUSH2 0x389 JUMP JUMPDEST PUSH1 0x40 MLOAD DUP1 SWAP2 SUB SWAP1 RETURN JUMPDEST PUSH1 0x1 DUP2 LT ISZERO DUP1 ISZERO PUSH2 0xEE JUMPI POP PUSH1 0x3 DUP2 GT ISZERO JUMPDEST PUSH2 0x12D JUMPI PUSH1 0x40 MLOAD PUSH32 0x8C379A000000000000000000000000000000000000000000000000000000000 DUP2 MSTORE PUSH1 0x4 ADD PUSH2 0x124 SWAP1 PUSH2 0x3FC JUMP JUMPDEST PUSH1 0x40 MLOAD DUP1 SWAP2 SUB SWAP1 REVERT JUMPDEST PUSH0 PUSH1 0x1 PUSH1 0x3 PUSH1 0x1 NUMBER PUSH2 0x13F SWAP2 SWAP1 PUSH2 0x447 JUMP JUMPDEST BLOCKHASH PUSH0 SHR PUSH2 0x14C SWAP2 SWAP1 PUSH2 0x4A7 JUMP JUMPDEST PUSH2 0x156 SWAP2 SWAP1 PUSH2 0x4D7 JUMP JUMPDEST SWAP1 POP DUP1 DUP3 SUB PUSH2 0x1ED JUMPI CALLER PUSH20 0xFFFFFFFFFFFFFFFFFFFFFFFFFFFFFFFFFFFFFFFF AND PUSH2 0x8FC PUSH1 0x2 CALLVALUE PUSH2 0x186 SWAP2 SWAP1 PUSH2 0x50A JUMP JUMPDEST SWAP1 DUP2 ISZERO MUL SWAP1 PUSH1 0x40 MLOAD PUSH0 PUSH1 0x40 MLOAD DUP1 DUP4 SUB DUP2 DUP6 DUP9 DUP9 CALL SWAP4 POP POP POP POP ISZERO DUP1 ISZERO PUSH2 0x1AE JUMPI RETURNDATASIZE PUSH0 DUP1 RETURNDATACOPY RETURNDATASIZE PUSH0 REVERT JUMPDEST POP PUSH32 0x7FFA12F2611233F19BB229A71C5D8224CB37373555AB6754B65AEF59EA26831D CALLER CALLVALUE PUSH1 0x40 MLOAD PUSH2 0x1E0 SWAP3 SWAP2 SWAP1 PUSH2 0x58A JUMP JUMPDEST PUSH1 0x40 MLOAD DUP1 SWAP2 SUB SWAP1 LOG1 PUSH2 0x305 JUMP JUMPDEST PUSH1 0x1 DUP3 EQ DUP1 ISZERO PUSH2 0x1FD JUMPI POP PUSH1 0x3 DUP2 EQ JUMPDEST DUP1 PUSH2 0x214 JUMPI POP PUSH1 0x2 DUP3 EQ DUP1 ISZERO PUSH2 0x213 JUMPI POP PUSH1 0x1 DUP2 EQ JUMPDEST JUMPDEST DUP1 PUSH2 0x22B JUMPI POP PUSH1 0x3 DUP3 EQ DUP1 ISZERO PUSH2 0x22A JUMPI POP PUSH1 0x2 DUP2 EQ JUMPDEST JUMPDEST ISZERO PUSH2 0x2CA JUMPI CALLER PUSH20 0xFFFFFFFFFFFFFFFFFFFFFFFFFFFFFFFFFFFFFFFF AND PUSH2 0x8FC PUSH1 0x3 CALLVALUE PUSH2 0x257 SWAP2 SWAP1 PUSH2 0x50A JUMP JUMPDEST SWAP1 DUP2 ISZERO MUL SWAP1 PUSH1 0x40 MLOAD PUSH0 PUSH1 0x40 MLOAD DUP1 DUP4 SUB DUP2 DUP6 DUP9 DUP9 CALL SWAP4 POP POP POP POP ISZERO DUP1 ISZERO PUSH2 0x27F JUMPI RETURNDATASIZE PUSH0 DUP1 RETURNDATACOPY RETURNDATASIZE PUSH0 REVERT JUMPDEST POP PUSH32 0x6747C18256028DE8CD2FA276E75D6B4193AC34C1B55FA8E71797AC132D32AD39 CALLER PUSH1 0x2 CALLVALUE PUSH2 0x2AF SWAP2 SWAP1 PUSH2 0x50A JUMP JUMPDEST PUSH1 0x40 MLOAD PUSH2 0x2BD SWAP3 SWAP2 SWAP1 PUSH2 0x58A JUMP JUMPDEST PUSH1 0x40 MLOAD DUP1 SWAP2 SUB SWAP1 LOG1 PUSH2 0x304 JUMP JUMPDEST PUSH32 0x72FBA0BA07D937C660A3130FCA36005C0E476CB97B6F00DE413976E37EBA9501 CALLER CALLVALUE PUSH1 0x40 MLOAD PUSH2 0x2FB SWAP3 SWAP2 SWAP1 PUSH2 0x58A JUMP JUMPDEST PUSH1 0x40 MLOAD DUP1 SWAP2 SUB SWAP1 LOG1 JUMPDEST JUMPDEST POP POP JUMP JUMPDEST PUSH1 0x3 DUP2 JUMP JUMPDEST PUSH1 0x1 DUP2 JUMP JUMPDEST PUSH1 0x2 DUP2 JUMP JUMPDEST PUSH0 DUP1 REVERT JUMPDEST PUSH0 DUP2 SWAP1 POP SWAP2 SWAP1 POP JUMP JUMPDEST PUSH2 0x32E DUP2 PUSH2 0x31C JUMP JUMPDEST DUP2 EQ PUSH2 0x338 JUMPI PUSH0 DUP1 REVERT JUMPDEST POP JUMP JUMPDEST PUSH0 DUP2 CALLDATALOAD SWAP1 POP PUSH2 0x349 DUP2 PUSH2 0x325 JUMP JUMPDEST SWAP3 SWAP2 POP POP JUMP JUMPDEST PUSH0 PUSH1 0x20 DUP3 DUP5 SUB SLT ISZERO PUSH2 0x364 JUMPI PUSH2 0x363 PUSH2 0x318 JUMP JUMPDEST JUMPDEST PUSH0 PUSH2 0x371 DUP5 DUP3 DUP6 ADD PUSH2 0x33B JUMP JUMPDEST SWAP2 POP POP SWAP3 SWAP2 POP POP JUMP JUMPDEST PUSH2 0x383 DUP2 PUSH2 0x31C JUMP JUMPDEST DUP3 MSTORE POP POP JUMP JUMPDEST PUSH0 PUSH1 0x20 DUP3 ADD SWAP1 POP PUSH2 0x39C PUSH0 DUP4 ADD DUP5 PUSH2 0x37A JUMP JUMPDEST SWAP3 SWAP2 POP POP JUMP JUMPDEST PUSH0 DUP3 DUP3 MSTORE PUSH1 0x20 DUP3 ADD SWAP1 POP SWAP3 SWAP2 POP POP JUMP JUMPDEST PUSH32 0x65726F6F72000000000000000000000000000000000000000000000000000000 PUSH0 DUP3 ADD MSTORE POP JUMP JUMPDEST PUSH0 PUSH2 0x3E6 PUSH1 0x5 DUP4 PUSH2 0x3A2 JUMP JUMPDEST SWAP2 POP PUSH2 0x3F1 DUP3 PUSH2 0x3B2 JUMP JUMPDEST PUSH1 0x20 DUP3 ADD SWAP1 POP SWAP2 SWAP1 POP JUMP JUMPDEST PUSH0 PUSH1 0x20 DUP3 ADD SWAP1 POP DUP2 DUP2 SUB PUSH0 DUP4 ADD MSTORE PUSH2 0x413 DUP2 PUSH2 0x3DA JUMP JUMPDEST SWAP1 POP SWAP2 SWAP1 POP JUMP JUMPDEST PUSH32 0x4E487B7100000000000000000000000000000000000000000000000000000000 PUSH0 MSTORE PUSH1 0x11 PUSH1 0x4 MSTORE PUSH1 0x24 PUSH0 REVERT JUMPDEST PUSH0 PUSH2 0x451 DUP3 PUSH2 0x31C JUMP JUMPDEST SWAP2 POP PUSH2 0x45C DUP4 PUSH2 0x31C JUMP JUMPDEST SWAP3 POP DUP3 DUP3 SUB SWAP1 POP DUP2 DUP2 GT ISZERO PUSH2 0x474 JUMPI PUSH2 0x473 PUSH2 0x41A JUMP JUMPDEST JUMPDEST SWAP3 SWAP2 POP POP JUMP JUMPDEST PUSH32 0x4E487B7100000000000000000000000000000000000000000000000000000000 PUSH0 MSTORE PUSH1 0x12 PUSH1 0x4 MSTORE PUSH1 0x24 PUSH0 REVERT JUMPDEST PUSH0 PUSH2 0x4B1 DUP3 PUSH2 0x31C JUMP JUMPDEST SWAP2 POP PUSH2 0x4BC DUP4 PUSH2 0x31C JUMP JUMPDEST SWAP3 POP DUP3 PUSH2 0x4CC JUMPI PUSH2 0x4CB PUSH2 0x47A JUMP JUMPDEST JUMPDEST DUP3 DUP3 MOD SWAP1 POP SWAP3 SWAP2 POP POP JUMP JUMPDEST PUSH0 PUSH2 0x4E1 DUP3 PUSH2 0x31C JUMP JUMPDEST SWAP2 POP PUSH2 0x4EC DUP4 PUSH2 0x31C JUMP JUMPDEST SWAP3 POP DUP3 DUP3 ADD SWAP1 POP DUP1 DUP3 GT ISZERO PUSH2 0x504 JUMPI PUSH2 0x503 PUSH2 0x41A JUMP JUMPDEST JUMPDEST SWAP3 SWAP2 POP POP JUMP JUMPDEST PUSH0 PUSH2 0x514 DUP3 PUSH2 0x31C JUMP JUMPDEST SWAP2 POP PUSH2 0x51F DUP4 PUSH2 0x31C JUMP JUMPDEST SWAP3 POP DUP3 DUP3 MUL PUSH2 0x52D DUP2 PUSH2 0x31C JUMP JUMPDEST SWAP2 POP DUP3 DUP3 DIV DUP5 EQ DUP4 ISZERO OR PUSH2 0x544 JUMPI PUSH2 0x543 PUSH2 0x41A JUMP JUMPDEST JUMPDEST POP SWAP3 SWAP2 POP POP JUMP JUMPDEST PUSH0 PUSH20 0xFFFFFFFFFFFFFFFFFFFFFFFFFFFFFFFFFFFFFFFF DUP3 AND SWAP1 POP SWAP2 SWAP1 POP JUMP JUMPDEST PUSH0 PUSH2 0x574 DUP3 PUSH2 0x54B JUMP JUMPDEST SWAP1 POP SWAP2 SWAP1 POP JUMP JUMPDEST PUSH2 0x584 DUP2 PUSH2 0x56A JUMP JUMPDEST DUP3 MSTORE POP POP JUMP JUMPDEST PUSH0 PUSH1 0x40 DUP3 ADD SWAP1 POP PUSH2 0x59D PUSH0 DUP4 ADD DUP6 PUSH2 0x57B JUMP JUMPDEST PUSH2 0x5AA PUSH1 0x20 DUP4 ADD DUP5 PUSH2 0x37A JUMP JUMPDEST SWAP4 SWAP3 POP POP POP JUMP INVALID LOG2 PUSH5 0x6970667358 0x22 SLT KECCAK256 PUSH2 0xBF0F PUSH15 0xB7D987B0610488D305629AE3BC6F 0xBB 0xF6 MSTORE8 SWAP3 GAS SGT MOD 0xAE 0xAA 0xB7 PUSH30 0x293464736F6C634300081800330000000000000000000000000000000000 "
		},
		"gasEstimates": {
			"creation": {
				"codeDepositCost": "302200",
				"executionCost": "341",
				"totalCost": "302541"
			},
			"external": {
				"PAPER()": "369",
				"ROCK()": "347",
				"SCISSORS()": "325",
				"play(uint256)": "infinite"
			}
		},
		"methodIdentifiers": {
			"PAPER()": "c44d6f87",
			"ROCK()": "b93e0e39",
			"SCISSORS()": "b357a028",
			"play(uint256)": "6898f82b"
		}
	},
	"abi": [
		{
			"anonymous": false,
			"inputs": [
				{
					"indexed": false,
					"internalType": "address",
					"name": "player",
					"type": "address"
				},
				{
					"indexed": false,
					"internalType": "uint256",
					"name": "amount",
					"type": "uint256"
				}
			],
			"name": "Draw",
			"type": "event"
		},
		{
			"anonymous": false,
			"inputs": [
				{
					"indexed": false,
					"internalType": "address",
					"name": "player",
					"type": "address"
				},
				{
					"indexed": false,
					"internalType": "uint256",
					"name": "amount",
					"type": "uint256"
				}
			],
			"name": "Loss",
			"type": "event"
		},
		{
			"anonymous": false,
			"inputs": [
				{
					"indexed": false,
					"internalType": "address",
					"name": "player",
					"type": "address"
				},
				{
					"indexed": false,
					"internalType": "uint256",
					"name": "amount",
					"type": "uint256"
				}
			],
			"name": "Win",
			"type": "event"
		},
		{
			"inputs": [],
			"name": "PAPER",
			"outputs": [
				{
					"internalType": "uint256",
					"name": "",
					"type": "uint256"
				}
			],
			"stateMutability": "view",
			"type": "function"
		},
		{
			"inputs": [],
			"name": "ROCK",
			"outputs": [
				{
					"internalType": "uint256",
					"name": "",
					"type": "uint256"
				}
			],
			"stateMutability": "view",
			"type": "function"
		},
		{
			"inputs": [],
			"name": "SCISSORS",
			"outputs": [
				{
					"internalType": "uint256",
					"name": "",
					"type": "uint256"
				}
			],
			"stateMutability": "view",
			"type": "function"
		},
		{
			"inputs": [
				{
					"internalType": "uint256",
					"name": "_playerChoice",
					"type": "uint256"
				}
			],
			"name": "play",
			"outputs": [],
			"stateMutability": "payable",
			"type": "function"
		}
	]
}